{"contracts/MembershipV2.sol":{"Membership":{"abi":[{"inputs":[{"internalType":"address","name":"sender","type":"address"},{"internalType":"uint256","name":"tokenId","type":"uint256"},{"internalType":"address","name":"owner","type":"address"}],"name":"ERC721IncorrectOwner","type":"error"},{"inputs":[{"internalType":"address","name":"operator","type":"address"},{"internalType":"uint256","name":"tokenId","type":"uint256"}],"name":"ERC721InsufficientApproval","type":"error"},{"inputs":[{"internalType":"address","name":"approver","type":"address"}],"name":"ERC721InvalidApprover","type":"error"},{"inputs":[{"internalType":"address","name":"operator","type":"address"}],"name":"ERC721InvalidOperator","type":"error"},{"inputs":[{"internalType":"address","name":"owner","type":"address"}],"name":"ERC721InvalidOwner","type":"error"},{"inputs":[{"internalType":"address","name":"receiver","type":"address"}],"name":"ERC721InvalidReceiver","type":"error"},{"inputs":[{"internalType":"address","name":"sender","type":"address"}],"name":"ERC721InvalidSender","type":"error"},{"inputs":[{"internalType":"uint256","name":"tokenId","type":"uint256"}],"name":"ERC721NonexistentToken","type":"error"},{"inputs":[],"name":"InvalidInitialization","type":"error"},{"inputs":[],"name":"NotInitializing","type":"error"},{"anonymous":false,"inputs":[{"indexed":true,"internalType":"address","name":"owner","type":"address"},{"indexed":true,"internalType":"address","name":"approved","type":"address"},{"indexed":true,"internalType":"uint256","name":"tokenId","type":"uint256"}],"name":"Approval","type":"event"},{"anonymous":false,"inputs":[{"indexed":true,"internalType":"address","name":"owner","type":"address"},{"indexed":true,"internalType":"address","name":"operator","type":"address"},{"indexed":false,"internalType":"bool","name":"approved","type":"bool"}],"name":"ApprovalForAll","type":"event"},{"anonymous":false,"inputs":[{"indexed":false,"internalType":"uint64","name":"version","type":"uint64"}],"name":"Initialized","type":"event"},{"anonymous":false,"inputs":[{"indexed":false,"internalType":"address","name":"operator","type":"address"},{"indexed":false,"internalType":"bool","name":"isActive","type":"bool"}],"name":"SetOperator","type":"event"},{"anonymous":false,"inputs":[{"indexed":true,"internalType":"address","name":"from","type":"address"},{"indexed":true,"internalType":"address","name":"to","type":"address"},{"indexed":true,"internalType":"uint256","name":"tokenId","type":"uint256"}],"name":"Transfer","type":"event"},{"inputs":[{"internalType":"address","name":"to","type":"address"},{"internalType":"uint256","name":"tokenId","type":"uint256"}],"name":"approve","outputs":[],"stateMutability":"nonpayable","type":"function"},{"inputs":[{"internalType":"address","name":"owner","type":"address"}],"name":"balanceOf","outputs":[{"internalType":"uint256","name":"","type":"uint256"}],"stateMutability":"view","type":"function"},{"inputs":[{"internalType":"address[]","name":"toAddrs","type":"address[]"},{"internalType":"uint16[]","name":"scores","type":"uint16[]"},{"internalType":"string[]","name":"imgNames","type":"string[]"}],"name":"batchMint","outputs":[],"stateMutability":"nonpayable","type":"function"},{"inputs":[{"internalType":"uint256","name":"tokenId","type":"uint256"}],"name":"burn","outputs":[],"stateMutability":"nonpayable","type":"function"},{"inputs":[{"internalType":"uint256","name":"tokenId","type":"uint256"}],"name":"getApproved","outputs":[{"internalType":"address","name":"","type":"address"}],"stateMutability":"view","type":"function"},{"inputs":[],"name":"getBaseImgUrl","outputs":[{"internalType":"string","name":"","type":"string"}],"stateMutability":"view","type":"function"},{"inputs":[],"name":"getOwner","outputs":[{"internalType":"address","name":"","type":"address"}],"stateMutability":"view","type":"function"},{"inputs":[],"name":"initialize","outputs":[],"stateMutability":"nonpayable","type":"function"},{"inputs":[],"name":"isAggregationActive","outputs":[{"internalType":"bool","name":"","type":"bool"}],"stateMutability":"view","type":"function"},{"inputs":[{"internalType":"address","name":"owner","type":"address"},{"internalType":"address","name":"operator","type":"address"}],"name":"isApprovedForAll","outputs":[{"internalType":"bool","name":"","type":"bool"}],"stateMutability":"view","type":"function"},{"inputs":[{"internalType":"address","name":"operatorAddr","type":"address"}],"name":"isOperatorActive","outputs":[{"internalType":"bool","name":"","type":"bool"}],"stateMutability":"view","type":"function"},{"inputs":[],"name":"maxSupply","outputs":[{"internalType":"uint256","name":"","type":"uint256"}],"stateMutability":"view","type":"function"},{"inputs":[{"internalType":"uint256","name":"","type":"uint256"}],"name":"members","outputs":[{"internalType":"uint256","name":"tokenId","type":"uint256"},{"internalType":"bool","name":"isExpired","type":"bool"},{"internalType":"uint16","name":"score","type":"uint16"},{"internalType":"string","name":"imgName","type":"string"}],"stateMutability":"view","type":"function"},{"inputs":[{"internalType":"address","name":"toAddr","type":"address"},{"internalType":"uint16","name":"score","type":"uint16"},{"internalType":"string","name":"imgName","type":"string"}],"name":"mint","outputs":[],"stateMutability":"nonpayable","type":"function"},{"inputs":[],"name":"name","outputs":[{"internalType":"string","name":"","type":"string"}],"stateMutability":"view","type":"function"},{"inputs":[{"internalType":"uint256","name":"tokenId","type":"uint256"}],"name":"ownerOf","outputs":[{"internalType":"address","name":"","type":"address"}],"stateMutability":"view","type":"function"},{"inputs":[{"internalType":"address","name":"from","type":"address"},{"internalType":"address","name":"to","type":"address"},{"internalType":"uint256","name":"tokenId","type":"uint256"}],"name":"safeTransferFrom","outputs":[],"stateMutability":"nonpayable","type":"function"},{"inputs":[{"internalType":"address","name":"from","type":"address"},{"internalType":"address","name":"to","type":"address"},{"internalType":"uint256","name":"tokenId","type":"uint256"},{"internalType":"bytes","name":"data","type":"bytes"}],"name":"safeTransferFrom","outputs":[],"stateMutability":"nonpayable","type":"function"},{"inputs":[{"internalType":"bool","name":"isActive","type":"bool"}],"name":"setAggregation","outputs":[],"stateMutability":"nonpayable","type":"function"},{"inputs":[{"internalType":"address","name":"operator","type":"address"},{"internalType":"bool","name":"approved","type":"bool"}],"name":"setApprovalForAll","outputs":[],"stateMutability":"nonpayable","type":"function"},{"inputs":[{"internalType":"address","name":"newOperator","type":"address"},{"internalType":"bool","name":"isActive","type":"bool"}],"name":"setOperator","outputs":[],"stateMutability":"nonpayable","type":"function"},{"inputs":[{"internalType":"bytes4","name":"interfaceId","type":"bytes4"}],"name":"supportsInterface","outputs":[{"internalType":"bool","name":"","type":"bool"}],"stateMutability":"view","type":"function"},{"inputs":[],"name":"symbol","outputs":[{"internalType":"string","name":"","type":"string"}],"stateMutability":"view","type":"function"},{"inputs":[{"internalType":"uint256","name":"tokenId","type":"uint256"}],"name":"tokenURI","outputs":[{"internalType":"string","name":"","type":"string"}],"stateMutability":"view","type":"function"},{"inputs":[{"internalType":"address","name":"from","type":"address"},{"internalType":"address","name":"to","type":"address"},{"internalType":"uint256","name":"tokenId","type":"uint256"}],"name":"transferFrom","outputs":[],"stateMutability":"nonpayable","type":"function"},{"inputs":[{"internalType":"address","name":"newOwner","type":"address"}],"name":"transferOwner","outputs":[],"stateMutability":"nonpayable","type":"function"},{"inputs":[{"internalType":"string","name":"newUrl","type":"string"}],"name":"updateBaseImgUrl","outputs":[],"stateMutability":"nonpayable","type":"function"},{"inputs":[{"internalType":"uint256","name":"tokenId","type":"uint256"},{"internalType":"bool","name":"isExpired","type":"bool"}],"name":"updateIsExpired","outputs":[],"stateMutability":"nonpayable","type":"function"},{"inputs":[{"internalType":"uint256","name":"tokenId","type":"uint256"},{"internalType":"uint16","name":"score","type":"uint16"}],"name":"updateScore","outputs":[],"stateMutability":"nonpayable","type":"function"}],"evm":{"bytecode":{"linkReferences":{},"object":"608060405234801561001057600080fd5b50612871806100206000396000f3fe608060405234801561001057600080fd5b50600436106101cf5760003560e01c806370912cc911610104578063bf4c51af116100a2578063e49fe3eb11610071578063e49fe3eb146103dd578063e985e9c5146103e5578063eb473533146103f8578063ecb2906c1461042457600080fd5b8063bf4c51af1461039a578063c87b56dd146103ae578063d5abeb01146103c1578063de5ac3da146103ca57600080fd5b8063893d20e8116100de578063893d20e81461035b57806395d89b411461036c578063a22cb46514610374578063b88d4fde1461038757600080fd5b806370912cc91461031f57806370a08231146103325780638129fc1c1461035357600080fd5b806342842e0e11610171578063558a72971161014b578063558a7297146102c35780635daf08ca146102d6578063613a5623146102f95780636352211e1461030c57600080fd5b806342842e0e1461028a57806342966c681461029d5780634fb2e45d146102b057600080fd5b8063095ea7b3116101ad578063095ea7b31461023c57806323b872dd146102515780633badcc96146102645780633c45d7061461027757600080fd5b806301ffc9a7146101d457806306fdde03146101fc578063081812fc14610211575b600080fd5b6101e76101e2366004611b4f565b610437565b60405190151581526020015b60405180910390f35b610204610489565b6040516101f39190611bc3565b61022461021f366004611bd6565b61052d565b6040516001600160a01b0390911681526020016101f3565b61024f61024a366004611c0b565b610542565b005b61024f61025f366004611c35565b610551565b61024f610272366004611c83565b6105e1565b61024f610285366004611d3b565b610633565b61024f610298366004611c35565b610663565b61024f6102ab366004611bd6565b610683565b61024f6102be366004611d84565b610700565b61024f6102d1366004611daf565b610778565b6102e96102e4366004611bd6565b610831565b6040516101f39493929190611dd9565b61024f610307366004611e5a565b6108ed565b61022461031a366004611bd6565b6109ac565b61024f61032d366004611ef4565b6109b7565b610345610340366004611d84565b6109fe565b6040519081526020016101f3565b61024f610a5a565b6002546001600160a01b0316610224565b610204610c04565b61024f610382366004611daf565b610c43565b61024f610395366004611f17565b610c4e565b6002546101e790600160a01b900460ff1681565b6102046103bc366004611bd6565b610c65565b61034560005481565b61024f6103d8366004611f93565b610e4c565b610204610e8e565b6101e76103f3366004611fae565b610f44565b6101e7610406366004611d84565b6001600160a01b031660009081526004602052604090205460ff1690565b61024f610432366004611fd8565b610f91565b60006001600160e01b031982166380ac58cd60e01b148061046857506001600160e01b03198216635b5e139f60e01b145b8061048357506301ffc9a760e01b6001600160e01b03198316145b92915050565b60008051602061252283398151915280546060919081906104a990612066565b80601f01602080910402602001604051908101604052809291908181526020018280546104d590612066565b80156105225780601f106104f757610100808354040283529160200191610522565b820191906000526020600020905b81548152906001019060200180831161050557829003601f168201915b505050505091505090565b600061053882611151565b5061048382611189565b61054d8282336111c3565b5050565b6001600160a01b03821661058057604051633250574960e11b8152600060048201526024015b60405180910390fd5b600061058d8383336111d0565b9050836001600160a01b0316816001600160a01b0316146105db576040516364283d7b60e01b81526001600160a01b0380861660048301526024820184905282166044820152606401610577565b50505050565b6105e96112da565b6106055760405162461bcd60e51b8152600401610577906120a0565b600091825260056020526040909120600101805461ffff9092166101000262ffff0019909216919091179055565b61063b6112da565b6106575760405162461bcd60e51b8152600401610577906120a0565b600361054d8282612125565b61067e83838360405180602001604052806000815250610c4e565b505050565b3361068d826109ac565b6001600160a01b0316146106f45760405162461bcd60e51b815260206004820152602860248201527f4f6e6c7920746865206f776e6572206f662074686520746f6b656e2063616e20604482015267313ab9371034ba1760c11b6064820152608401610577565b6106fd81611316565b50565b6002546001600160a01b031633146107565760405162461bcd60e51b815260206004820152601960248201527826b2b6b132b939b434b81d102737ba103a34329037bbb732b960391b6044820152606401610577565b600280546001600160a01b0319166001600160a01b0392909216919091179055565b6002546001600160a01b031633146107ce5760405162461bcd60e51b815260206004820152601960248201527826b2b6b132b939b434b81d102737ba103a34329037bbb732b960391b6044820152606401610577565b6001600160a01b038216600081815260046020908152604091829020805460ff19168515159081179091558251938452908301527f1618a22a3b00b9ac70fd5a82f1f5cdd8cb272bd0f1b740ddf7c26ab05881dd5b910160405180910390a15050565b600560205260009081526040902080546001820154600283018054929360ff83169361010090930461ffff169290919061086a90612066565b80601f016020809104026020016040519081016040528092919081815260200182805461089690612066565b80156108e35780601f106108b8576101008083540402835291602001916108e3565b820191906000526020600020905b8154815290600101906020018083116108c657829003601f168201915b5050505050905084565b6108f56112da565b6109115760405162461bcd60e51b8152600401610577906120a0565b60005b858110156109a357610991878783818110610931576109316121e5565b90506020020160208101906109469190611d84565b868684818110610958576109586121e5565b905060200201602081019061096d91906121fb565b85858581811061097f5761097f6121e5565b90506020028101906104329190612216565b8061099b81612273565b915050610914565b50505050505050565b600061048382611151565b6109bf6112da565b6109db5760405162461bcd60e51b8152600401610577906120a0565b600091825260056020526040909120600101805460ff1916911515919091179055565b60006000805160206125228339815191526001600160a01b038316610a39576040516322718ad960e21b815260006004820152602401610577565b6001600160a01b039092166000908152600390920160205250604090205490565b7ff0c57e16840df040f15088dc2f81fe391c3923bec73e23a9662efc9c229c6a008054600160401b810460ff16159067ffffffffffffffff16600081158015610aa05750825b905060008267ffffffffffffffff166001148015610abd5750303b155b905081158015610acb575080155b15610ae95760405163f92ee8a960e01b815260040160405180910390fd5b845467ffffffffffffffff191660011785558315610b1357845460ff60401b1916600160401b1785555b610b5b6040518060600160405280602781526020016127c6602791396040518060400160405280600e81526020016d04b4d4d2d4d656d626572736869760941b815250611351565b600280546001600160a01b03191633908117909155600090815260046020908152604091829020805460ff19166001179055815160808101909252604f808352906127ed90830139600390610bb09082612125565b506127106000558315610bfd57845460ff60401b19168555604051600181527fc7f505b2f371ae2175ee4913f4499e1f2633a7b5936321eed1cdaeb6115181d29060200160405180910390a15b5050505050565b7f80bb2b638cc20bc4d0a60d66940f3ab4a00c1d7b313497ca82fb0b4ab00793018054606091600080516020612522833981519152916104a990612066565b61054d338383611363565b610c59848484610551565b6105db84848484611414565b6060610c7082611536565b610cc75760405162461bcd60e51b815260206004820152602260248201527f4d656d626572736869703a20546f6b656e4964206e6f74206d696e7465642079604482015261195d60f21b6064820152608401610577565b6000828152600560209081526040808320815160808101835281548152600182015460ff811615159482019490945261010090930461ffff1691830191909152600281018054606084019190610d1c90612066565b80601f0160208091040260200160405190810160405280929190818152602001828054610d4890612066565b8015610d955780601f10610d6a57610100808354040283529160200191610d95565b820191906000526020600020905b815481529060010190602001808311610d7857829003601f168201915b5050505050815250509050600060038260600151604051602001610dba92919061228c565b60405160208183030381529060405290506000610dd5611560565b90506000610e1f610de587611586565b8385610df8886040015161ffff16611586565b604051602001610e0b9493929190612313565b60405160208183030381529060405261168f565b905080604051602001610e329190612411565b604051602081830303815290604052945050505050919050565b610e546112da565b610e705760405162461bcd60e51b8152600401610577906120a0565b60028054911515600160a01b0260ff60a01b19909216919091179055565b6060610e986112da565b610eb45760405162461bcd60e51b8152600401610577906120a0565b60038054610ec190612066565b80601f0160208091040260200160405190810160405280929190818152602001828054610eed90612066565b8015610f3a5780601f10610f0f57610100808354040283529160200191610f3a565b820191906000526020600020905b815481529060010190602001808311610f1d57829003601f168201915b5050505050905090565b6001600160a01b0391821660009081527f80bb2b638cc20bc4d0a60d66940f3ab4a00c1d7b313497ca82fb0b4ab00793056020908152604080832093909416825291909152205460ff1690565b610f996112da565b610fb55760405162461bcd60e51b8152600401610577906120a0565b600054600154106110195760405162461bcd60e51b815260206004820152602860248201527f4d656d626572736869703a206d696e74696e6720636f756e74206f766572206d6044820152676178537570706c7960c01b6064820152608401610577565b6001805490600061102983612273565b91905055506000604051806080016040528060015481526020016000151581526020018561ffff16815260200184848080601f016020809104026020016040519081016040528093929190818152602001838380828437600092018290525093909452505060018054825260056020908152604092839020855181559085015191810180549386015161ffff166101000262ffff00199315159390931662ffffff1990941693909317919091179091556060830151929350839290915060028201906110f59082612125565b50905050611105856001546117f9565b610bfd5760405162461bcd60e51b815260206004820152601e60248201527f4d656d626572736869702d4e46543a206d696e74696e67206661696c656400006044820152606401610577565b60008061115d8361180e565b90506001600160a01b03811661048357604051637e27328960e01b815260048101849052602401610577565b60009081527f80bb2b638cc20bc4d0a60d66940f3ab4a00c1d7b313497ca82fb0b4ab007930460205260409020546001600160a01b031690565b61067e8383836001611848565b6000600080516020612522833981519152816111eb8561180e565b90506001600160a01b038416156112075761120781858761195e565b6001600160a01b0381161561124757611224600086600080611848565b6001600160a01b0381166000908152600383016020526040902080546000190190555b6001600160a01b03861615611278576001600160a01b03861660009081526003830160205260409020805460010190555b600085815260028301602052604080822080546001600160a01b0319166001600160a01b038a811691821790925591518893918516917fddf252ad1be2c89b69c2b068fc378daa952ba7f163c4a11628f55a4df523b3ef91a495945050505050565b6002546000906001600160a01b031633148061130557503360009081526004602052604090205460ff165b156113105750600190565b50600090565b600061132560008360006111d0565b90506001600160a01b03811661054d57604051637e27328960e01b815260048101839052602401610577565b6113596119c2565b61054d8282611a0d565b6000805160206125228339815191526001600160a01b0383166113a457604051630b61174360e31b81526001600160a01b0384166004820152602401610577565b6001600160a01b038481166000818152600584016020908152604080832094881680845294825291829020805460ff191687151590811790915591519182527f17307eab39ab6107e8899845ad3d59bd9653f200f220920489ca2b5937696c31910160405180910390a350505050565b6001600160a01b0383163b156105db57604051630a85bd0160e11b81526001600160a01b0384169063150b7a0290611456903390889087908790600401612456565b6020604051808303816000875af1925050508015611491575060408051601f3d908101601f1916820190925261148e91810190612489565b60015b6114fa573d8080156114bf576040519150601f19603f3d011682016040523d82523d6000602084013e6114c4565b606091505b5080516000036114f257604051633250574960e11b81526001600160a01b0385166004820152602401610577565b805181602001fd5b6001600160e01b03198116630a85bd0160e11b14610bfd57604051633250574960e11b81526001600160a01b0385166004820152602401610577565b6000806115428361180e565b6001600160a01b03160361155857506000919050565b506001919050565b606060006040518061028001604052806102448152602001612542610244913992915050565b6060816000036115ad5750506040805180820190915260018152600360fc1b602082015290565b8160005b81156115d757806115c181612273565b91506115d09050600a836124bc565b91506115b1565b60008167ffffffffffffffff8111156115f2576115f2611caf565b6040519080825280601f01601f19166020018201604052801561161c576020820181803683370190505b5090505b8415611687576116316001836124d0565b915061163e600a866124e3565b6116499060306124f7565b60f81b81838151811061165e5761165e6121e5565b60200101906001600160f81b031916908160001a905350611680600a866124bc565b9450611620565b949350505050565b805160609060008190036116b3575050604080516020810190915260008152919050565b600060036116c28360026124f7565b6116cc91906124bc565b6116d790600461250a565b905060006116e68260206124f7565b67ffffffffffffffff8111156116fe576116fe611caf565b6040519080825280601f01601f191660200182016040528015611728576020820181803683370190505b5090506000604051806060016040528060408152602001612786604091399050600181016020830160005b868110156117b4576003818a01810151603f601282901c8116860151600c83901c8216870151600684901c831688015192909316870151600891821b60ff94851601821b92841692909201901b91160160e01b835260049092019101611753565b5060038606600181146117ce57600281146117df576117eb565b613d3d60f01b6001198301526117eb565b603d60f81b6000198301525b505050918152949350505050565b60006118058383611a3e565b50600192915050565b60009081527f80bb2b638cc20bc4d0a60d66940f3ab4a00c1d7b313497ca82fb0b4ab007930260205260409020546001600160a01b031690565b600080516020612522833981519152818061186b57506001600160a01b03831615155b1561192d57600061187b85611151565b90506001600160a01b038416158015906118a75750836001600160a01b0316816001600160a01b031614155b80156118ba57506118b88185610f44565b155b156118e35760405163a9fbf51f60e01b81526001600160a01b0385166004820152602401610577565b821561192b5784866001600160a01b0316826001600160a01b03167f8c5be1e5ebec7d5bd14f71427d1e84f3dd0314c0f7b2291e5b200ac8c7c3b92560405160405180910390a45b505b600093845260040160205250506040902080546001600160a01b0319166001600160a01b0392909216919091179055565b611969838383611a58565b61067e576001600160a01b03831661199757604051637e27328960e01b815260048101829052602401610577565b60405163177e802f60e01b81526001600160a01b038316600482015260248101829052604401610577565b7ff0c57e16840df040f15088dc2f81fe391c3923bec73e23a9662efc9c229c6a0054600160401b900460ff16611a0b57604051631afcd79f60e31b815260040160405180910390fd5b565b611a156119c2565b60008051602061252283398151915280611a2f8482612125565b50600181016105db8382612125565b61054d828260405180602001604052806000815250611abd565b60006001600160a01b038316158015906116875750826001600160a01b0316846001600160a01b03161480611a925750611a928484610f44565b806116875750826001600160a01b0316611aab83611189565b6001600160a01b031614949350505050565b611ac78383611ad4565b61067e6000848484611414565b6001600160a01b038216611afe57604051633250574960e11b815260006004820152602401610577565b6000611b0c838360006111d0565b90506001600160a01b0381161561067e576040516339e3563760e11b815260006004820152602401610577565b6001600160e01b0319811681146106fd57600080fd5b600060208284031215611b6157600080fd5b8135611b6c81611b39565b9392505050565b60005b83811015611b8e578181015183820152602001611b76565b50506000910152565b60008151808452611baf816020860160208601611b73565b601f01601f19169290920160200192915050565b602081526000611b6c6020830184611b97565b600060208284031215611be857600080fd5b5035919050565b80356001600160a01b0381168114611c0657600080fd5b919050565b60008060408385031215611c1e57600080fd5b611c2783611bef565b946020939093013593505050565b600080600060608486031215611c4a57600080fd5b611c5384611bef565b9250611c6160208501611bef565b9150604084013590509250925092565b803561ffff81168114611c0657600080fd5b60008060408385031215611c9657600080fd5b82359150611ca660208401611c71565b90509250929050565b634e487b7160e01b600052604160045260246000fd5b600067ffffffffffffffff80841115611ce057611ce0611caf565b604051601f8501601f19908116603f01168101908282118183101715611d0857611d08611caf565b81604052809350858152868686011115611d2157600080fd5b858560208301376000602087830101525050509392505050565b600060208284031215611d4d57600080fd5b813567ffffffffffffffff811115611d6457600080fd5b8201601f81018413611d7557600080fd5b61168784823560208401611cc5565b600060208284031215611d9657600080fd5b611b6c82611bef565b80358015158114611c0657600080fd5b60008060408385031215611dc257600080fd5b611dcb83611bef565b9150611ca660208401611d9f565b848152831515602082015261ffff83166040820152608060608201526000611e046080830184611b97565b9695505050505050565b60008083601f840112611e2057600080fd5b50813567ffffffffffffffff811115611e3857600080fd5b6020830191508360208260051b8501011115611e5357600080fd5b9250929050565b60008060008060008060608789031215611e7357600080fd5b863567ffffffffffffffff80821115611e8b57600080fd5b611e978a838b01611e0e565b90985096506020890135915080821115611eb057600080fd5b611ebc8a838b01611e0e565b90965094506040890135915080821115611ed557600080fd5b50611ee289828a01611e0e565b979a9699509497509295939492505050565b60008060408385031215611f0757600080fd5b82359150611ca660208401611d9f565b60008060008060808587031215611f2d57600080fd5b611f3685611bef565b9350611f4460208601611bef565b925060408501359150606085013567ffffffffffffffff811115611f6757600080fd5b8501601f81018713611f7857600080fd5b611f8787823560208401611cc5565b91505092959194509250565b600060208284031215611fa557600080fd5b611b6c82611d9f565b60008060408385031215611fc157600080fd5b611fca83611bef565b9150611ca660208401611bef565b60008060008060608587031215611fee57600080fd5b611ff785611bef565b935061200560208601611c71565b9250604085013567ffffffffffffffff8082111561202257600080fd5b818701915087601f83011261203657600080fd5b81358181111561204557600080fd5b88602082850101111561205757600080fd5b95989497505060200194505050565b600181811c9082168061207a57607f821691505b60208210810361209a57634e487b7160e01b600052602260045260246000fd5b50919050565b6020808252601b908201527f4d656d626572736869703a204e6f7420616e206f70657261746f720000000000604082015260600190565b601f82111561067e57600081815260208120601f850160051c810160208610156120fe5750805b601f850160051c820191505b8181101561211d5782815560010161210a565b505050505050565b815167ffffffffffffffff81111561213f5761213f611caf565b6121538161214d8454612066565b846120d7565b602080601f83116001811461218857600084156121705750858301515b600019600386901b1c1916600185901b17855561211d565b600085815260208120601f198616915b828110156121b757888601518255948401946001909101908401612198565b50858210156121d55787850151600019600388901b60f8161c191681555b5050505050600190811b01905550565b634e487b7160e01b600052603260045260246000fd5b60006020828403121561220d57600080fd5b611b6c82611c71565b6000808335601e1984360301811261222d57600080fd5b83018035915067ffffffffffffffff82111561224857600080fd5b602001915036819003821315611e5357600080fd5b634e487b7160e01b600052601160045260246000fd5b6000600182016122855761228561225d565b5060010190565b600080845461229a81612066565b600182811680156122b257600181146122c7576122f6565b60ff19841687528215158302870194506122f6565b8860005260208060002060005b858110156122ed5781548a8201529084019082016122d4565b50505082870194505b50505050835161230a818360208801611b73565b01949350505050565b7f7b226e616d65223a20224b616e736f6e67204d6574617665727365204d757365815272756d204d656d62657273686970204e4654202360681b602082015260008551612367816033850160208a01611b73565b72111610113232b9b1b934b83a34b7b7111d101160691b603391840191820152855161239a816046840160208a01611b73565b6c1116101134b6b0b3b2911d101160991b6046929091019182015284516123c8816053840160208901611b73565b6b01116101139b1b7b932911d160a51b6053929091019182015283516123f581605f840160208801611b73565b607d60f81b605f92909101918201526060019695505050505050565b7f646174613a6170706c69636174696f6e2f6a736f6e3b6261736536342c00000081526000825161244981601d850160208701611b73565b91909101601d0192915050565b6001600160a01b0385811682528416602082015260408101839052608060608201819052600090611e0490830184611b97565b60006020828403121561249b57600080fd5b8151611b6c81611b39565b634e487b7160e01b600052601260045260246000fd5b6000826124cb576124cb6124a6565b500490565b818103818111156104835761048361225d565b6000826124f2576124f26124a6565b500690565b808201808211156104835761048361225d565b80820281158282048414176104835761048361225d56fe80bb2b638cc20bc4d0a60d66940f3ab4a00c1d7b313497ca82fb0b4ab00793004b616e736f6e67204d6574617665727365204d757365756d204d656d62657273686970204e46547320656e7469746c6520686f6c646572732077686f206f776e204e46547320697373756564206279204b4d4d20746f207370656369616c2074726561746d656e742e2054686973206d656d62657273686970204e4654206973206d6f7265207468616e206a7573742061206d656d6265727368697020636172643b2069742073796d626f6c697a657320746865207072696465206f66206265696e67206120547265617375726520477561726469616e2c20726570726573656e74696e672061207370656369616c20657870657269656e636520616e6420726573706f6e736962696c6974792e20437265617465642062792074686520736b696c6c656420677261706869632064657369676e657220596f756e676861205061726b2c2074686973204e465420697320726f6f74656420696e207468652064697374696e6374697665206c6f676f206f6620746865204b616e736f6e67204d6574617665727365204d757365756d2c2061206372656174696f6e20616c736f206174747269627574656420746f205061726b2e20576974682061206d6f6465726e207265696e746572707265746174696f6e2c2069742063617074757265732074686520657373656e6365206f662074686520657871756973697465206c616e6473636170657320616e6420636861726163746572732066726f6d2074686520416c62756d206f662047656e7265205061696e74696e677320627920487965776f6e2e4142434445464748494a4b4c4d4e4f505152535455565758595a6162636465666768696a6b6c6d6e6f707172737475767778797a303132333435363738392b2f4b616e736f6e67204d6574617665727365204d757365756d204d656d62657273686970204e465468747470733a2f2f6b6d6d2e6d7970696e6174612e636c6f75642f697066732f516d5535585a595371637577426b4c654d436d3247666d6a797831316f504e45714a456b6e655161334a317777652fa2646970667358221220a65e7003cabc5d6ce2ba501821559ae3bd45b6b2b85b0d8b269df42d932b60e064736f6c63430008140033","opcodes":"PUSH1 0x80 PUSH1 0x40 MSTORE CALLVALUE DUP1 ISZERO PUSH2 0x10 JUMPI PUSH1 0x0 DUP1 REVERT JUMPDEST POP PUSH2 0x2871 DUP1 PUSH2 0x20 PUSH1 0x0 CODECOPY PUSH1 0x0 RETURN INVALID PUSH1 0x80 PUSH1 0x40 MSTORE CALLVALUE DUP1 ISZERO PUSH2 0x10 JUMPI PUSH1 0x0 DUP1 REVERT JUMPDEST POP PUSH1 0x4 CALLDATASIZE LT PUSH2 0x1CF JUMPI PUSH1 0x0 CALLDATALOAD PUSH1 0xE0 SHR DUP1 PUSH4 0x70912CC9 GT PUSH2 0x104 JUMPI DUP1 PUSH4 0xBF4C51AF GT PUSH2 0xA2 JUMPI DUP1 PUSH4 0xE49FE3EB GT PUSH2 0x71 JUMPI DUP1 PUSH4 0xE49FE3EB EQ PUSH2 0x3DD JUMPI DUP1 PUSH4 0xE985E9C5 EQ PUSH2 0x3E5 JUMPI DUP1 PUSH4 0xEB473533 EQ PUSH2 0x3F8 JUMPI DUP1 PUSH4 0xECB2906C EQ PUSH2 0x424 JUMPI PUSH1 0x0 DUP1 REVERT JUMPDEST DUP1 PUSH4 0xBF4C51AF EQ PUSH2 0x39A JUMPI DUP1 PUSH4 0xC87B56DD EQ PUSH2 0x3AE JUMPI DUP1 PUSH4 0xD5ABEB01 EQ PUSH2 0x3C1 JUMPI DUP1 PUSH4 0xDE5AC3DA EQ PUSH2 0x3CA JUMPI PUSH1 0x0 DUP1 REVERT JUMPDEST DUP1 PUSH4 0x893D20E8 GT PUSH2 0xDE JUMPI DUP1 PUSH4 0x893D20E8 EQ PUSH2 0x35B JUMPI DUP1 PUSH4 0x95D89B41 EQ PUSH2 0x36C JUMPI DUP1 PUSH4 0xA22CB465 EQ PUSH2 0x374 JUMPI DUP1 PUSH4 0xB88D4FDE EQ PUSH2 0x387 JUMPI PUSH1 0x0 DUP1 REVERT JUMPDEST DUP1 PUSH4 0x70912CC9 EQ PUSH2 0x31F JUMPI DUP1 PUSH4 0x70A08231 EQ PUSH2 0x332 JUMPI DUP1 PUSH4 0x8129FC1C EQ PUSH2 0x353 JUMPI PUSH1 0x0 DUP1 REVERT JUMPDEST DUP1 PUSH4 0x42842E0E GT PUSH2 0x171 JUMPI DUP1 PUSH4 0x558A7297 GT PUSH2 0x14B JUMPI DUP1 PUSH4 0x558A7297 EQ PUSH2 0x2C3 JUMPI DUP1 PUSH4 0x5DAF08CA EQ PUSH2 0x2D6 JUMPI DUP1 PUSH4 0x613A5623 EQ PUSH2 0x2F9 JUMPI DUP1 PUSH4 0x6352211E EQ PUSH2 0x30C JUMPI PUSH1 0x0 DUP1 REVERT JUMPDEST DUP1 PUSH4 0x42842E0E EQ PUSH2 0x28A JUMPI DUP1 PUSH4 0x42966C68 EQ PUSH2 0x29D JUMPI DUP1 PUSH4 0x4FB2E45D EQ PUSH2 0x2B0 JUMPI PUSH1 0x0 DUP1 REVERT JUMPDEST DUP1 PUSH4 0x95EA7B3 GT PUSH2 0x1AD JUMPI DUP1 PUSH4 0x95EA7B3 EQ PUSH2 0x23C JUMPI DUP1 PUSH4 0x23B872DD EQ PUSH2 0x251 JUMPI DUP1 PUSH4 0x3BADCC96 EQ PUSH2 0x264 JUMPI DUP1 PUSH4 0x3C45D706 EQ PUSH2 0x277 JUMPI PUSH1 0x0 DUP1 REVERT JUMPDEST DUP1 PUSH4 0x1FFC9A7 EQ PUSH2 0x1D4 JUMPI DUP1 PUSH4 0x6FDDE03 EQ PUSH2 0x1FC JUMPI DUP1 PUSH4 0x81812FC EQ PUSH2 0x211 JUMPI JUMPDEST PUSH1 0x0 DUP1 REVERT JUMPDEST PUSH2 0x1E7 PUSH2 0x1E2 CALLDATASIZE PUSH1 0x4 PUSH2 0x1B4F JUMP JUMPDEST PUSH2 0x437 JUMP JUMPDEST PUSH1 0x40 MLOAD SWAP1 ISZERO ISZERO DUP2 MSTORE PUSH1 0x20 ADD JUMPDEST PUSH1 0x40 MLOAD DUP1 SWAP2 SUB SWAP1 RETURN JUMPDEST PUSH2 0x204 PUSH2 0x489 JUMP JUMPDEST PUSH1 0x40 MLOAD PUSH2 0x1F3 SWAP2 SWAP1 PUSH2 0x1BC3 JUMP JUMPDEST PUSH2 0x224 PUSH2 0x21F CALLDATASIZE PUSH1 0x4 PUSH2 0x1BD6 JUMP JUMPDEST PUSH2 0x52D JUMP JUMPDEST PUSH1 0x40 MLOAD PUSH1 0x1 PUSH1 0x1 PUSH1 0xA0 SHL SUB SWAP1 SWAP2 AND DUP2 MSTORE PUSH1 0x20 ADD PUSH2 0x1F3 JUMP JUMPDEST PUSH2 0x24F PUSH2 0x24A CALLDATASIZE PUSH1 0x4 PUSH2 0x1C0B JUMP JUMPDEST PUSH2 0x542 JUMP JUMPDEST STOP JUMPDEST PUSH2 0x24F PUSH2 0x25F CALLDATASIZE PUSH1 0x4 PUSH2 0x1C35 JUMP JUMPDEST PUSH2 0x551 JUMP JUMPDEST PUSH2 0x24F PUSH2 0x272 CALLDATASIZE PUSH1 0x4 PUSH2 0x1C83 JUMP JUMPDEST PUSH2 0x5E1 JUMP JUMPDEST PUSH2 0x24F PUSH2 0x285 CALLDATASIZE PUSH1 0x4 PUSH2 0x1D3B JUMP JUMPDEST PUSH2 0x633 JUMP JUMPDEST PUSH2 0x24F PUSH2 0x298 CALLDATASIZE PUSH1 0x4 PUSH2 0x1C35 JUMP JUMPDEST PUSH2 0x663 JUMP JUMPDEST PUSH2 0x24F PUSH2 0x2AB CALLDATASIZE PUSH1 0x4 PUSH2 0x1BD6 JUMP JUMPDEST PUSH2 0x683 JUMP JUMPDEST PUSH2 0x24F PUSH2 0x2BE CALLDATASIZE PUSH1 0x4 PUSH2 0x1D84 JUMP JUMPDEST PUSH2 0x700 JUMP JUMPDEST PUSH2 0x24F PUSH2 0x2D1 CALLDATASIZE PUSH1 0x4 PUSH2 0x1DAF JUMP JUMPDEST PUSH2 0x778 JUMP JUMPDEST PUSH2 0x2E9 PUSH2 0x2E4 CALLDATASIZE PUSH1 0x4 PUSH2 0x1BD6 JUMP JUMPDEST PUSH2 0x831 JUMP JUMPDEST PUSH1 0x40 MLOAD PUSH2 0x1F3 SWAP5 SWAP4 SWAP3 SWAP2 SWAP1 PUSH2 0x1DD9 JUMP JUMPDEST PUSH2 0x24F PUSH2 0x307 CALLDATASIZE PUSH1 0x4 PUSH2 0x1E5A JUMP JUMPDEST PUSH2 0x8ED JUMP JUMPDEST PUSH2 0x224 PUSH2 0x31A CALLDATASIZE PUSH1 0x4 PUSH2 0x1BD6 JUMP JUMPDEST PUSH2 0x9AC JUMP JUMPDEST PUSH2 0x24F PUSH2 0x32D CALLDATASIZE PUSH1 0x4 PUSH2 0x1EF4 JUMP JUMPDEST PUSH2 0x9B7 JUMP JUMPDEST PUSH2 0x345 PUSH2 0x340 CALLDATASIZE PUSH1 0x4 PUSH2 0x1D84 JUMP JUMPDEST PUSH2 0x9FE JUMP JUMPDEST PUSH1 0x40 MLOAD SWAP1 DUP2 MSTORE PUSH1 0x20 ADD PUSH2 0x1F3 JUMP JUMPDEST PUSH2 0x24F PUSH2 0xA5A JUMP JUMPDEST PUSH1 0x2 SLOAD PUSH1 0x1 PUSH1 0x1 PUSH1 0xA0 SHL SUB AND PUSH2 0x224 JUMP JUMPDEST PUSH2 0x204 PUSH2 0xC04 JUMP JUMPDEST PUSH2 0x24F PUSH2 0x382 CALLDATASIZE PUSH1 0x4 PUSH2 0x1DAF JUMP JUMPDEST PUSH2 0xC43 JUMP JUMPDEST PUSH2 0x24F PUSH2 0x395 CALLDATASIZE PUSH1 0x4 PUSH2 0x1F17 JUMP JUMPDEST PUSH2 0xC4E JUMP JUMPDEST PUSH1 0x2 SLOAD PUSH2 0x1E7 SWAP1 PUSH1 0x1 PUSH1 0xA0 SHL SWAP1 DIV PUSH1 0xFF AND DUP2 JUMP JUMPDEST PUSH2 0x204 PUSH2 0x3BC CALLDATASIZE PUSH1 0x4 PUSH2 0x1BD6 JUMP JUMPDEST PUSH2 0xC65 JUMP JUMPDEST PUSH2 0x345 PUSH1 0x0 SLOAD DUP2 JUMP JUMPDEST PUSH2 0x24F PUSH2 0x3D8 CALLDATASIZE PUSH1 0x4 PUSH2 0x1F93 JUMP JUMPDEST PUSH2 0xE4C JUMP JUMPDEST PUSH2 0x204 PUSH2 0xE8E JUMP JUMPDEST PUSH2 0x1E7 PUSH2 0x3F3 CALLDATASIZE PUSH1 0x4 PUSH2 0x1FAE JUMP JUMPDEST PUSH2 0xF44 JUMP JUMPDEST PUSH2 0x1E7 PUSH2 0x406 CALLDATASIZE PUSH1 0x4 PUSH2 0x1D84 JUMP JUMPDEST PUSH1 0x1 PUSH1 0x1 PUSH1 0xA0 SHL SUB AND PUSH1 0x0 SWAP1 DUP2 MSTORE PUSH1 0x4 PUSH1 0x20 MSTORE PUSH1 0x40 SWAP1 KECCAK256 SLOAD PUSH1 0xFF AND SWAP1 JUMP JUMPDEST PUSH2 0x24F PUSH2 0x432 CALLDATASIZE PUSH1 0x4 PUSH2 0x1FD8 JUMP JUMPDEST PUSH2 0xF91 JUMP JUMPDEST PUSH1 0x0 PUSH1 0x1 PUSH1 0x1 PUSH1 0xE0 SHL SUB NOT DUP3 AND PUSH4 0x80AC58CD PUSH1 0xE0 SHL EQ DUP1 PUSH2 0x468 JUMPI POP PUSH1 0x1 PUSH1 0x1 PUSH1 0xE0 SHL SUB NOT DUP3 AND PUSH4 0x5B5E139F PUSH1 0xE0 SHL EQ JUMPDEST DUP1 PUSH2 0x483 JUMPI POP PUSH4 0x1FFC9A7 PUSH1 0xE0 SHL PUSH1 0x1 PUSH1 0x1 PUSH1 0xE0 SHL SUB NOT DUP4 AND EQ JUMPDEST SWAP3 SWAP2 POP POP JUMP JUMPDEST PUSH1 0x0 DUP1 MLOAD PUSH1 0x20 PUSH2 0x2522 DUP4 CODECOPY DUP2 MLOAD SWAP2 MSTORE DUP1 SLOAD PUSH1 0x60 SWAP2 SWAP1 DUP2 SWAP1 PUSH2 0x4A9 SWAP1 PUSH2 0x2066 JUMP JUMPDEST DUP1 PUSH1 0x1F ADD PUSH1 0x20 DUP1 SWAP2 DIV MUL PUSH1 0x20 ADD PUSH1 0x40 MLOAD SWAP1 DUP2 ADD PUSH1 0x40 MSTORE DUP1 SWAP3 SWAP2 SWAP1 DUP2 DUP2 MSTORE PUSH1 0x20 ADD DUP3 DUP1 SLOAD PUSH2 0x4D5 SWAP1 PUSH2 0x2066 JUMP JUMPDEST DUP1 ISZERO PUSH2 0x522 JUMPI DUP1 PUSH1 0x1F LT PUSH2 0x4F7 JUMPI PUSH2 0x100 DUP1 DUP4 SLOAD DIV MUL DUP4 MSTORE SWAP2 PUSH1 0x20 ADD SWAP2 PUSH2 0x522 JUMP JUMPDEST DUP3 ADD SWAP2 SWAP1 PUSH1 0x0 MSTORE PUSH1 0x20 PUSH1 0x0 KECCAK256 SWAP1 JUMPDEST DUP2 SLOAD DUP2 MSTORE SWAP1 PUSH1 0x1 ADD SWAP1 PUSH1 0x20 ADD DUP1 DUP4 GT PUSH2 0x505 JUMPI DUP3 SWAP1 SUB PUSH1 0x1F AND DUP3 ADD SWAP2 JUMPDEST POP POP POP POP POP SWAP2 POP POP SWAP1 JUMP JUMPDEST PUSH1 0x0 PUSH2 0x538 DUP3 PUSH2 0x1151 JUMP JUMPDEST POP PUSH2 0x483 DUP3 PUSH2 0x1189 JUMP JUMPDEST PUSH2 0x54D DUP3 DUP3 CALLER PUSH2 0x11C3 JUMP JUMPDEST POP POP JUMP JUMPDEST PUSH1 0x1 PUSH1 0x1 PUSH1 0xA0 SHL SUB DUP3 AND PUSH2 0x580 JUMPI PUSH1 0x40 MLOAD PUSH4 0x32505749 PUSH1 0xE1 SHL DUP2 MSTORE PUSH1 0x0 PUSH1 0x4 DUP3 ADD MSTORE PUSH1 0x24 ADD JUMPDEST PUSH1 0x40 MLOAD DUP1 SWAP2 SUB SWAP1 REVERT JUMPDEST PUSH1 0x0 PUSH2 0x58D DUP4 DUP4 CALLER PUSH2 0x11D0 JUMP JUMPDEST SWAP1 POP DUP4 PUSH1 0x1 PUSH1 0x1 PUSH1 0xA0 SHL SUB AND DUP2 PUSH1 0x1 PUSH1 0x1 PUSH1 0xA0 SHL SUB AND EQ PUSH2 0x5DB JUMPI PUSH1 0x40 MLOAD PUSH4 0x64283D7B PUSH1 0xE0 SHL DUP2 MSTORE PUSH1 0x1 PUSH1 0x1 PUSH1 0xA0 SHL SUB DUP1 DUP7 AND PUSH1 0x4 DUP4 ADD MSTORE PUSH1 0x24 DUP3 ADD DUP5 SWAP1 MSTORE DUP3 AND PUSH1 0x44 DUP3 ADD MSTORE PUSH1 0x64 ADD PUSH2 0x577 JUMP JUMPDEST POP POP POP POP JUMP JUMPDEST PUSH2 0x5E9 PUSH2 0x12DA JUMP JUMPDEST PUSH2 0x605 JUMPI PUSH1 0x40 MLOAD PUSH3 0x461BCD PUSH1 0xE5 SHL DUP2 MSTORE PUSH1 0x4 ADD PUSH2 0x577 SWAP1 PUSH2 0x20A0 JUMP JUMPDEST PUSH1 0x0 SWAP2 DUP3 MSTORE PUSH1 0x5 PUSH1 0x20 MSTORE PUSH1 0x40 SWAP1 SWAP2 KECCAK256 PUSH1 0x1 ADD DUP1 SLOAD PUSH2 0xFFFF SWAP1 SWAP3 AND PUSH2 0x100 MUL PUSH3 0xFFFF00 NOT SWAP1 SWAP3 AND SWAP2 SWAP1 SWAP2 OR SWAP1 SSTORE JUMP JUMPDEST PUSH2 0x63B PUSH2 0x12DA JUMP JUMPDEST PUSH2 0x657 JUMPI PUSH1 0x40 MLOAD PUSH3 0x461BCD PUSH1 0xE5 SHL DUP2 MSTORE PUSH1 0x4 ADD PUSH2 0x577 SWAP1 PUSH2 0x20A0 JUMP JUMPDEST PUSH1 0x3 PUSH2 0x54D DUP3 DUP3 PUSH2 0x2125 JUMP JUMPDEST PUSH2 0x67E DUP4 DUP4 DUP4 PUSH1 0x40 MLOAD DUP1 PUSH1 0x20 ADD PUSH1 0x40 MSTORE DUP1 PUSH1 0x0 DUP2 MSTORE POP PUSH2 0xC4E JUMP JUMPDEST POP POP POP JUMP JUMPDEST CALLER PUSH2 0x68D DUP3 PUSH2 0x9AC JUMP JUMPDEST PUSH1 0x1 PUSH1 0x1 PUSH1 0xA0 SHL SUB AND EQ PUSH2 0x6F4 JUMPI PUSH1 0x40 MLOAD PUSH3 0x461BCD PUSH1 0xE5 SHL DUP2 MSTORE PUSH1 0x20 PUSH1 0x4 DUP3 ADD MSTORE PUSH1 0x28 PUSH1 0x24 DUP3 ADD MSTORE PUSH32 0x4F6E6C7920746865206F776E6572206F662074686520746F6B656E2063616E20 PUSH1 0x44 DUP3 ADD MSTORE PUSH8 0x313AB9371034BA17 PUSH1 0xC1 SHL PUSH1 0x64 DUP3 ADD MSTORE PUSH1 0x84 ADD PUSH2 0x577 JUMP JUMPDEST PUSH2 0x6FD DUP2 PUSH2 0x1316 JUMP JUMPDEST POP JUMP JUMPDEST PUSH1 0x2 SLOAD PUSH1 0x1 PUSH1 0x1 PUSH1 0xA0 SHL SUB AND CALLER EQ PUSH2 0x756 JUMPI PUSH1 0x40 MLOAD PUSH3 0x461BCD PUSH1 0xE5 SHL DUP2 MSTORE PUSH1 0x20 PUSH1 0x4 DUP3 ADD MSTORE PUSH1 0x19 PUSH1 0x24 DUP3 ADD MSTORE PUSH25 0x26B2B6B132B939B434B81D102737BA103A34329037BBB732B9 PUSH1 0x39 SHL PUSH1 0x44 DUP3 ADD MSTORE PUSH1 0x64 ADD PUSH2 0x577 JUMP JUMPDEST PUSH1 0x2 DUP1 SLOAD PUSH1 0x1 PUSH1 0x1 PUSH1 0xA0 SHL SUB NOT AND PUSH1 0x1 PUSH1 0x1 PUSH1 0xA0 SHL SUB SWAP3 SWAP1 SWAP3 AND SWAP2 SWAP1 SWAP2 OR SWAP1 SSTORE JUMP JUMPDEST PUSH1 0x2 SLOAD PUSH1 0x1 PUSH1 0x1 PUSH1 0xA0 SHL SUB AND CALLER EQ PUSH2 0x7CE JUMPI PUSH1 0x40 MLOAD PUSH3 0x461BCD PUSH1 0xE5 SHL DUP2 MSTORE PUSH1 0x20 PUSH1 0x4 DUP3 ADD MSTORE PUSH1 0x19 PUSH1 0x24 DUP3 ADD MSTORE PUSH25 0x26B2B6B132B939B434B81D102737BA103A34329037BBB732B9 PUSH1 0x39 SHL PUSH1 0x44 DUP3 ADD MSTORE PUSH1 0x64 ADD PUSH2 0x577 JUMP JUMPDEST PUSH1 0x1 PUSH1 0x1 PUSH1 0xA0 SHL SUB DUP3 AND PUSH1 0x0 DUP2 DUP2 MSTORE PUSH1 0x4 PUSH1 0x20 SWAP1 DUP2 MSTORE PUSH1 0x40 SWAP2 DUP3 SWAP1 KECCAK256 DUP1 SLOAD PUSH1 0xFF NOT AND DUP6 ISZERO ISZERO SWAP1 DUP2 OR SWAP1 SWAP2 SSTORE DUP3 MLOAD SWAP4 DUP5 MSTORE SWAP1 DUP4 ADD MSTORE PUSH32 0x1618A22A3B00B9AC70FD5A82F1F5CDD8CB272BD0F1B740DDF7C26AB05881DD5B SWAP2 ADD PUSH1 0x40 MLOAD DUP1 SWAP2 SUB SWAP1 LOG1 POP POP JUMP JUMPDEST PUSH1 0x5 PUSH1 0x20 MSTORE PUSH1 0x0 SWAP1 DUP2 MSTORE PUSH1 0x40 SWAP1 KECCAK256 DUP1 SLOAD PUSH1 0x1 DUP3 ADD SLOAD PUSH1 0x2 DUP4 ADD DUP1 SLOAD SWAP3 SWAP4 PUSH1 0xFF DUP4 AND SWAP4 PUSH2 0x100 SWAP1 SWAP4 DIV PUSH2 0xFFFF AND SWAP3 SWAP1 SWAP2 SWAP1 PUSH2 0x86A SWAP1 PUSH2 0x2066 JUMP JUMPDEST DUP1 PUSH1 0x1F ADD PUSH1 0x20 DUP1 SWAP2 DIV MUL PUSH1 0x20 ADD PUSH1 0x40 MLOAD SWAP1 DUP2 ADD PUSH1 0x40 MSTORE DUP1 SWAP3 SWAP2 SWAP1 DUP2 DUP2 MSTORE PUSH1 0x20 ADD DUP3 DUP1 SLOAD PUSH2 0x896 SWAP1 PUSH2 0x2066 JUMP JUMPDEST DUP1 ISZERO PUSH2 0x8E3 JUMPI DUP1 PUSH1 0x1F LT PUSH2 0x8B8 JUMPI PUSH2 0x100 DUP1 DUP4 SLOAD DIV MUL DUP4 MSTORE SWAP2 PUSH1 0x20 ADD SWAP2 PUSH2 0x8E3 JUMP JUMPDEST DUP3 ADD SWAP2 SWAP1 PUSH1 0x0 MSTORE PUSH1 0x20 PUSH1 0x0 KECCAK256 SWAP1 JUMPDEST DUP2 SLOAD DUP2 MSTORE SWAP1 PUSH1 0x1 ADD SWAP1 PUSH1 0x20 ADD DUP1 DUP4 GT PUSH2 0x8C6 JUMPI DUP3 SWAP1 SUB PUSH1 0x1F AND DUP3 ADD SWAP2 JUMPDEST POP POP POP POP POP SWAP1 POP DUP5 JUMP JUMPDEST PUSH2 0x8F5 PUSH2 0x12DA JUMP JUMPDEST PUSH2 0x911 JUMPI PUSH1 0x40 MLOAD PUSH3 0x461BCD PUSH1 0xE5 SHL DUP2 MSTORE PUSH1 0x4 ADD PUSH2 0x577 SWAP1 PUSH2 0x20A0 JUMP JUMPDEST PUSH1 0x0 JUMPDEST DUP6 DUP2 LT ISZERO PUSH2 0x9A3 JUMPI PUSH2 0x991 DUP8 DUP8 DUP4 DUP2 DUP2 LT PUSH2 0x931 JUMPI PUSH2 0x931 PUSH2 0x21E5 JUMP JUMPDEST SWAP1 POP PUSH1 0x20 MUL ADD PUSH1 0x20 DUP2 ADD SWAP1 PUSH2 0x946 SWAP2 SWAP1 PUSH2 0x1D84 JUMP JUMPDEST DUP7 DUP7 DUP5 DUP2 DUP2 LT PUSH2 0x958 JUMPI PUSH2 0x958 PUSH2 0x21E5 JUMP JUMPDEST SWAP1 POP PUSH1 0x20 MUL ADD PUSH1 0x20 DUP2 ADD SWAP1 PUSH2 0x96D SWAP2 SWAP1 PUSH2 0x21FB JUMP JUMPDEST DUP6 DUP6 DUP6 DUP2 DUP2 LT PUSH2 0x97F JUMPI PUSH2 0x97F PUSH2 0x21E5 JUMP JUMPDEST SWAP1 POP PUSH1 0x20 MUL DUP2 ADD SWAP1 PUSH2 0x432 SWAP2 SWAP1 PUSH2 0x2216 JUMP JUMPDEST DUP1 PUSH2 0x99B DUP2 PUSH2 0x2273 JUMP JUMPDEST SWAP2 POP POP PUSH2 0x914 JUMP JUMPDEST POP POP POP POP POP POP POP JUMP JUMPDEST PUSH1 0x0 PUSH2 0x483 DUP3 PUSH2 0x1151 JUMP JUMPDEST PUSH2 0x9BF PUSH2 0x12DA JUMP JUMPDEST PUSH2 0x9DB JUMPI PUSH1 0x40 MLOAD PUSH3 0x461BCD PUSH1 0xE5 SHL DUP2 MSTORE PUSH1 0x4 ADD PUSH2 0x577 SWAP1 PUSH2 0x20A0 JUMP JUMPDEST PUSH1 0x0 SWAP2 DUP3 MSTORE PUSH1 0x5 PUSH1 0x20 MSTORE PUSH1 0x40 SWAP1 SWAP2 KECCAK256 PUSH1 0x1 ADD DUP1 SLOAD PUSH1 0xFF NOT AND SWAP2 ISZERO ISZERO SWAP2 SWAP1 SWAP2 OR SWAP1 SSTORE JUMP JUMPDEST PUSH1 0x0 PUSH1 0x0 DUP1 MLOAD PUSH1 0x20 PUSH2 0x2522 DUP4 CODECOPY DUP2 MLOAD SWAP2 MSTORE PUSH1 0x1 PUSH1 0x1 PUSH1 0xA0 SHL SUB DUP4 AND PUSH2 0xA39 JUMPI PUSH1 0x40 MLOAD PUSH4 0x22718AD9 PUSH1 0xE2 SHL DUP2 MSTORE PUSH1 0x0 PUSH1 0x4 DUP3 ADD MSTORE PUSH1 0x24 ADD PUSH2 0x577 JUMP JUMPDEST PUSH1 0x1 PUSH1 0x1 PUSH1 0xA0 SHL SUB SWAP1 SWAP3 AND PUSH1 0x0 SWAP1 DUP2 MSTORE PUSH1 0x3 SWAP1 SWAP3 ADD PUSH1 0x20 MSTORE POP PUSH1 0x40 SWAP1 KECCAK256 SLOAD SWAP1 JUMP JUMPDEST PUSH32 0xF0C57E16840DF040F15088DC2F81FE391C3923BEC73E23A9662EFC9C229C6A00 DUP1 SLOAD PUSH1 0x1 PUSH1 0x40 SHL DUP2 DIV PUSH1 0xFF AND ISZERO SWAP1 PUSH8 0xFFFFFFFFFFFFFFFF AND PUSH1 0x0 DUP2 ISZERO DUP1 ISZERO PUSH2 0xAA0 JUMPI POP DUP3 JUMPDEST SWAP1 POP PUSH1 0x0 DUP3 PUSH8 0xFFFFFFFFFFFFFFFF AND PUSH1 0x1 EQ DUP1 ISZERO PUSH2 0xABD JUMPI POP ADDRESS EXTCODESIZE ISZERO JUMPDEST SWAP1 POP DUP2 ISZERO DUP1 ISZERO PUSH2 0xACB JUMPI POP DUP1 ISZERO JUMPDEST ISZERO PUSH2 0xAE9 JUMPI PUSH1 0x40 MLOAD PUSH4 0xF92EE8A9 PUSH1 0xE0 SHL DUP2 MSTORE PUSH1 0x4 ADD PUSH1 0x40 MLOAD DUP1 SWAP2 SUB SWAP1 REVERT JUMPDEST DUP5 SLOAD PUSH8 0xFFFFFFFFFFFFFFFF NOT AND PUSH1 0x1 OR DUP6 SSTORE DUP4 ISZERO PUSH2 0xB13 JUMPI DUP5 SLOAD PUSH1 0xFF PUSH1 0x40 SHL NOT AND PUSH1 0x1 PUSH1 0x40 SHL OR DUP6 SSTORE JUMPDEST PUSH2 0xB5B PUSH1 0x40 MLOAD DUP1 PUSH1 0x60 ADD PUSH1 0x40 MSTORE DUP1 PUSH1 0x27 DUP2 MSTORE PUSH1 0x20 ADD PUSH2 0x27C6 PUSH1 0x27 SWAP2 CODECOPY PUSH1 0x40 MLOAD DUP1 PUSH1 0x40 ADD PUSH1 0x40 MSTORE DUP1 PUSH1 0xE DUP2 MSTORE PUSH1 0x20 ADD PUSH14 0x4B4D4D2D4D656D6265727368697 PUSH1 0x94 SHL DUP2 MSTORE POP PUSH2 0x1351 JUMP JUMPDEST PUSH1 0x2 DUP1 SLOAD PUSH1 0x1 PUSH1 0x1 PUSH1 0xA0 SHL SUB NOT AND CALLER SWAP1 DUP2 OR SWAP1 SWAP2 SSTORE PUSH1 0x0 SWAP1 DUP2 MSTORE PUSH1 0x4 PUSH1 0x20 SWAP1 DUP2 MSTORE PUSH1 0x40 SWAP2 DUP3 SWAP1 KECCAK256 DUP1 SLOAD PUSH1 0xFF NOT AND PUSH1 0x1 OR SWAP1 SSTORE DUP2 MLOAD PUSH1 0x80 DUP2 ADD SWAP1 SWAP3 MSTORE PUSH1 0x4F DUP1 DUP4 MSTORE SWAP1 PUSH2 0x27ED SWAP1 DUP4 ADD CODECOPY PUSH1 0x3 SWAP1 PUSH2 0xBB0 SWAP1 DUP3 PUSH2 0x2125 JUMP JUMPDEST POP PUSH2 0x2710 PUSH1 0x0 SSTORE DUP4 ISZERO PUSH2 0xBFD JUMPI DUP5 SLOAD PUSH1 0xFF PUSH1 0x40 SHL NOT AND DUP6 SSTORE PUSH1 0x40 MLOAD PUSH1 0x1 DUP2 MSTORE PUSH32 0xC7F505B2F371AE2175EE4913F4499E1F2633A7B5936321EED1CDAEB6115181D2 SWAP1 PUSH1 0x20 ADD PUSH1 0x40 MLOAD DUP1 SWAP2 SUB SWAP1 LOG1 JUMPDEST POP POP POP POP POP JUMP JUMPDEST PUSH32 0x80BB2B638CC20BC4D0A60D66940F3AB4A00C1D7B313497CA82FB0B4AB0079301 DUP1 SLOAD PUSH1 0x60 SWAP2 PUSH1 0x0 DUP1 MLOAD PUSH1 0x20 PUSH2 0x2522 DUP4 CODECOPY DUP2 MLOAD SWAP2 MSTORE SWAP2 PUSH2 0x4A9 SWAP1 PUSH2 0x2066 JUMP JUMPDEST PUSH2 0x54D CALLER DUP4 DUP4 PUSH2 0x1363 JUMP JUMPDEST PUSH2 0xC59 DUP5 DUP5 DUP5 PUSH2 0x551 JUMP JUMPDEST PUSH2 0x5DB DUP5 DUP5 DUP5 DUP5 PUSH2 0x1414 JUMP JUMPDEST PUSH1 0x60 PUSH2 0xC70 DUP3 PUSH2 0x1536 JUMP JUMPDEST PUSH2 0xCC7 JUMPI PUSH1 0x40 MLOAD PUSH3 0x461BCD PUSH1 0xE5 SHL DUP2 MSTORE PUSH1 0x20 PUSH1 0x4 DUP3 ADD MSTORE PUSH1 0x22 PUSH1 0x24 DUP3 ADD MSTORE PUSH32 0x4D656D626572736869703A20546F6B656E4964206E6F74206D696E7465642079 PUSH1 0x44 DUP3 ADD MSTORE PUSH2 0x195D PUSH1 0xF2 SHL PUSH1 0x64 DUP3 ADD MSTORE PUSH1 0x84 ADD PUSH2 0x577 JUMP JUMPDEST PUSH1 0x0 DUP3 DUP2 MSTORE PUSH1 0x5 PUSH1 0x20 SWAP1 DUP2 MSTORE PUSH1 0x40 DUP1 DUP4 KECCAK256 DUP2 MLOAD PUSH1 0x80 DUP2 ADD DUP4 MSTORE DUP2 SLOAD DUP2 MSTORE PUSH1 0x1 DUP3 ADD SLOAD PUSH1 0xFF DUP2 AND ISZERO ISZERO SWAP5 DUP3 ADD SWAP5 SWAP1 SWAP5 MSTORE PUSH2 0x100 SWAP1 SWAP4 DIV PUSH2 0xFFFF AND SWAP2 DUP4 ADD SWAP2 SWAP1 SWAP2 MSTORE PUSH1 0x2 DUP2 ADD DUP1 SLOAD PUSH1 0x60 DUP5 ADD SWAP2 SWAP1 PUSH2 0xD1C SWAP1 PUSH2 0x2066 JUMP JUMPDEST DUP1 PUSH1 0x1F ADD PUSH1 0x20 DUP1 SWAP2 DIV MUL PUSH1 0x20 ADD PUSH1 0x40 MLOAD SWAP1 DUP2 ADD PUSH1 0x40 MSTORE DUP1 SWAP3 SWAP2 SWAP1 DUP2 DUP2 MSTORE PUSH1 0x20 ADD DUP3 DUP1 SLOAD PUSH2 0xD48 SWAP1 PUSH2 0x2066 JUMP JUMPDEST DUP1 ISZERO PUSH2 0xD95 JUMPI DUP1 PUSH1 0x1F LT PUSH2 0xD6A JUMPI PUSH2 0x100 DUP1 DUP4 SLOAD DIV MUL DUP4 MSTORE SWAP2 PUSH1 0x20 ADD SWAP2 PUSH2 0xD95 JUMP JUMPDEST DUP3 ADD SWAP2 SWAP1 PUSH1 0x0 MSTORE PUSH1 0x20 PUSH1 0x0 KECCAK256 SWAP1 JUMPDEST DUP2 SLOAD DUP2 MSTORE SWAP1 PUSH1 0x1 ADD SWAP1 PUSH1 0x20 ADD DUP1 DUP4 GT PUSH2 0xD78 JUMPI DUP3 SWAP1 SUB PUSH1 0x1F AND DUP3 ADD SWAP2 JUMPDEST POP POP POP POP POP DUP2 MSTORE POP POP SWAP1 POP PUSH1 0x0 PUSH1 0x3 DUP3 PUSH1 0x60 ADD MLOAD PUSH1 0x40 MLOAD PUSH1 0x20 ADD PUSH2 0xDBA SWAP3 SWAP2 SWAP1 PUSH2 0x228C JUMP JUMPDEST PUSH1 0x40 MLOAD PUSH1 0x20 DUP2 DUP4 SUB SUB DUP2 MSTORE SWAP1 PUSH1 0x40 MSTORE SWAP1 POP PUSH1 0x0 PUSH2 0xDD5 PUSH2 0x1560 JUMP JUMPDEST SWAP1 POP PUSH1 0x0 PUSH2 0xE1F PUSH2 0xDE5 DUP8 PUSH2 0x1586 JUMP JUMPDEST DUP4 DUP6 PUSH2 0xDF8 DUP9 PUSH1 0x40 ADD MLOAD PUSH2 0xFFFF AND PUSH2 0x1586 JUMP JUMPDEST PUSH1 0x40 MLOAD PUSH1 0x20 ADD PUSH2 0xE0B SWAP5 SWAP4 SWAP3 SWAP2 SWAP1 PUSH2 0x2313 JUMP JUMPDEST PUSH1 0x40 MLOAD PUSH1 0x20 DUP2 DUP4 SUB SUB DUP2 MSTORE SWAP1 PUSH1 0x40 MSTORE PUSH2 0x168F JUMP JUMPDEST SWAP1 POP DUP1 PUSH1 0x40 MLOAD PUSH1 0x20 ADD PUSH2 0xE32 SWAP2 SWAP1 PUSH2 0x2411 JUMP JUMPDEST PUSH1 0x40 MLOAD PUSH1 0x20 DUP2 DUP4 SUB SUB DUP2 MSTORE SWAP1 PUSH1 0x40 MSTORE SWAP5 POP POP POP POP POP SWAP2 SWAP1 POP JUMP JUMPDEST PUSH2 0xE54 PUSH2 0x12DA JUMP JUMPDEST PUSH2 0xE70 JUMPI PUSH1 0x40 MLOAD PUSH3 0x461BCD PUSH1 0xE5 SHL DUP2 MSTORE PUSH1 0x4 ADD PUSH2 0x577 SWAP1 PUSH2 0x20A0 JUMP JUMPDEST PUSH1 0x2 DUP1 SLOAD SWAP2 ISZERO ISZERO PUSH1 0x1 PUSH1 0xA0 SHL MUL PUSH1 0xFF PUSH1 0xA0 SHL NOT SWAP1 SWAP3 AND SWAP2 SWAP1 SWAP2 OR SWAP1 SSTORE JUMP JUMPDEST PUSH1 0x60 PUSH2 0xE98 PUSH2 0x12DA JUMP JUMPDEST PUSH2 0xEB4 JUMPI PUSH1 0x40 MLOAD PUSH3 0x461BCD PUSH1 0xE5 SHL DUP2 MSTORE PUSH1 0x4 ADD PUSH2 0x577 SWAP1 PUSH2 0x20A0 JUMP JUMPDEST PUSH1 0x3 DUP1 SLOAD PUSH2 0xEC1 SWAP1 PUSH2 0x2066 JUMP JUMPDEST DUP1 PUSH1 0x1F ADD PUSH1 0x20 DUP1 SWAP2 DIV MUL PUSH1 0x20 ADD PUSH1 0x40 MLOAD SWAP1 DUP2 ADD PUSH1 0x40 MSTORE DUP1 SWAP3 SWAP2 SWAP1 DUP2 DUP2 MSTORE PUSH1 0x20 ADD DUP3 DUP1 SLOAD PUSH2 0xEED SWAP1 PUSH2 0x2066 JUMP JUMPDEST DUP1 ISZERO PUSH2 0xF3A JUMPI DUP1 PUSH1 0x1F LT PUSH2 0xF0F JUMPI PUSH2 0x100 DUP1 DUP4 SLOAD DIV MUL DUP4 MSTORE SWAP2 PUSH1 0x20 ADD SWAP2 PUSH2 0xF3A JUMP JUMPDEST DUP3 ADD SWAP2 SWAP1 PUSH1 0x0 MSTORE PUSH1 0x20 PUSH1 0x0 KECCAK256 SWAP1 JUMPDEST DUP2 SLOAD DUP2 MSTORE SWAP1 PUSH1 0x1 ADD SWAP1 PUSH1 0x20 ADD DUP1 DUP4 GT PUSH2 0xF1D JUMPI DUP3 SWAP1 SUB PUSH1 0x1F AND DUP3 ADD SWAP2 JUMPDEST POP POP POP POP POP SWAP1 POP SWAP1 JUMP JUMPDEST PUSH1 0x1 PUSH1 0x1 PUSH1 0xA0 SHL SUB SWAP2 DUP3 AND PUSH1 0x0 SWAP1 DUP2 MSTORE PUSH32 0x80BB2B638CC20BC4D0A60D66940F3AB4A00C1D7B313497CA82FB0B4AB0079305 PUSH1 0x20 SWAP1 DUP2 MSTORE PUSH1 0x40 DUP1 DUP4 KECCAK256 SWAP4 SWAP1 SWAP5 AND DUP3 MSTORE SWAP2 SWAP1 SWAP2 MSTORE KECCAK256 SLOAD PUSH1 0xFF AND SWAP1 JUMP JUMPDEST PUSH2 0xF99 PUSH2 0x12DA JUMP JUMPDEST PUSH2 0xFB5 JUMPI PUSH1 0x40 MLOAD PUSH3 0x461BCD PUSH1 0xE5 SHL DUP2 MSTORE PUSH1 0x4 ADD PUSH2 0x577 SWAP1 PUSH2 0x20A0 JUMP JUMPDEST PUSH1 0x0 SLOAD PUSH1 0x1 SLOAD LT PUSH2 0x1019 JUMPI PUSH1 0x40 MLOAD PUSH3 0x461BCD PUSH1 0xE5 SHL DUP2 MSTORE PUSH1 0x20 PUSH1 0x4 DUP3 ADD MSTORE PUSH1 0x28 PUSH1 0x24 DUP3 ADD MSTORE PUSH32 0x4D656D626572736869703A206D696E74696E6720636F756E74206F766572206D PUSH1 0x44 DUP3 ADD MSTORE PUSH8 0x6178537570706C79 PUSH1 0xC0 SHL PUSH1 0x64 DUP3 ADD MSTORE PUSH1 0x84 ADD PUSH2 0x577 JUMP JUMPDEST PUSH1 0x1 DUP1 SLOAD SWAP1 PUSH1 0x0 PUSH2 0x1029 DUP4 PUSH2 0x2273 JUMP JUMPDEST SWAP2 SWAP1 POP SSTORE POP PUSH1 0x0 PUSH1 0x40 MLOAD DUP1 PUSH1 0x80 ADD PUSH1 0x40 MSTORE DUP1 PUSH1 0x1 SLOAD DUP2 MSTORE PUSH1 0x20 ADD PUSH1 0x0 ISZERO ISZERO DUP2 MSTORE PUSH1 0x20 ADD DUP6 PUSH2 0xFFFF AND DUP2 MSTORE PUSH1 0x20 ADD DUP5 DUP5 DUP1 DUP1 PUSH1 0x1F ADD PUSH1 0x20 DUP1 SWAP2 DIV MUL PUSH1 0x20 ADD PUSH1 0x40 MLOAD SWAP1 DUP2 ADD PUSH1 0x40 MSTORE DUP1 SWAP4 SWAP3 SWAP2 SWAP1 DUP2 DUP2 MSTORE PUSH1 0x20 ADD DUP4 DUP4 DUP1 DUP3 DUP5 CALLDATACOPY PUSH1 0x0 SWAP3 ADD DUP3 SWAP1 MSTORE POP SWAP4 SWAP1 SWAP5 MSTORE POP POP PUSH1 0x1 DUP1 SLOAD DUP3 MSTORE PUSH1 0x5 PUSH1 0x20 SWAP1 DUP2 MSTORE PUSH1 0x40 SWAP3 DUP4 SWAP1 KECCAK256 DUP6 MLOAD DUP2 SSTORE SWAP1 DUP6 ADD MLOAD SWAP2 DUP2 ADD DUP1 SLOAD SWAP4 DUP7 ADD MLOAD PUSH2 0xFFFF AND PUSH2 0x100 MUL PUSH3 0xFFFF00 NOT SWAP4 ISZERO ISZERO SWAP4 SWAP1 SWAP4 AND PUSH3 0xFFFFFF NOT SWAP1 SWAP5 AND SWAP4 SWAP1 SWAP4 OR SWAP2 SWAP1 SWAP2 OR SWAP1 SWAP2 SSTORE PUSH1 0x60 DUP4 ADD MLOAD SWAP3 SWAP4 POP DUP4 SWAP3 SWAP1 SWAP2 POP PUSH1 0x2 DUP3 ADD SWAP1 PUSH2 0x10F5 SWAP1 DUP3 PUSH2 0x2125 JUMP JUMPDEST POP SWAP1 POP POP PUSH2 0x1105 DUP6 PUSH1 0x1 SLOAD PUSH2 0x17F9 JUMP JUMPDEST PUSH2 0xBFD JUMPI PUSH1 0x40 MLOAD PUSH3 0x461BCD PUSH1 0xE5 SHL DUP2 MSTORE PUSH1 0x20 PUSH1 0x4 DUP3 ADD MSTORE PUSH1 0x1E PUSH1 0x24 DUP3 ADD MSTORE PUSH32 0x4D656D626572736869702D4E46543A206D696E74696E67206661696C65640000 PUSH1 0x44 DUP3 ADD MSTORE PUSH1 0x64 ADD PUSH2 0x577 JUMP JUMPDEST PUSH1 0x0 DUP1 PUSH2 0x115D DUP4 PUSH2 0x180E JUMP JUMPDEST SWAP1 POP PUSH1 0x1 PUSH1 0x1 PUSH1 0xA0 SHL SUB DUP2 AND PUSH2 0x483 JUMPI PUSH1 0x40 MLOAD PUSH4 0x7E273289 PUSH1 0xE0 SHL DUP2 MSTORE PUSH1 0x4 DUP2 ADD DUP5 SWAP1 MSTORE PUSH1 0x24 ADD PUSH2 0x577 JUMP JUMPDEST PUSH1 0x0 SWAP1 DUP2 MSTORE PUSH32 0x80BB2B638CC20BC4D0A60D66940F3AB4A00C1D7B313497CA82FB0B4AB0079304 PUSH1 0x20 MSTORE PUSH1 0x40 SWAP1 KECCAK256 SLOAD PUSH1 0x1 PUSH1 0x1 PUSH1 0xA0 SHL SUB AND SWAP1 JUMP JUMPDEST PUSH2 0x67E DUP4 DUP4 DUP4 PUSH1 0x1 PUSH2 0x1848 JUMP JUMPDEST PUSH1 0x0 PUSH1 0x0 DUP1 MLOAD PUSH1 0x20 PUSH2 0x2522 DUP4 CODECOPY DUP2 MLOAD SWAP2 MSTORE DUP2 PUSH2 0x11EB DUP6 PUSH2 0x180E JUMP JUMPDEST SWAP1 POP PUSH1 0x1 PUSH1 0x1 PUSH1 0xA0 SHL SUB DUP5 AND ISZERO PUSH2 0x1207 JUMPI PUSH2 0x1207 DUP2 DUP6 DUP8 PUSH2 0x195E JUMP JUMPDEST PUSH1 0x1 PUSH1 0x1 PUSH1 0xA0 SHL SUB DUP2 AND ISZERO PUSH2 0x1247 JUMPI PUSH2 0x1224 PUSH1 0x0 DUP7 PUSH1 0x0 DUP1 PUSH2 0x1848 JUMP JUMPDEST PUSH1 0x1 PUSH1 0x1 PUSH1 0xA0 SHL SUB DUP2 AND PUSH1 0x0 SWAP1 DUP2 MSTORE PUSH1 0x3 DUP4 ADD PUSH1 0x20 MSTORE PUSH1 0x40 SWAP1 KECCAK256 DUP1 SLOAD PUSH1 0x0 NOT ADD SWAP1 SSTORE JUMPDEST PUSH1 0x1 PUSH1 0x1 PUSH1 0xA0 SHL SUB DUP7 AND ISZERO PUSH2 0x1278 JUMPI PUSH1 0x1 PUSH1 0x1 PUSH1 0xA0 SHL SUB DUP7 AND PUSH1 0x0 SWAP1 DUP2 MSTORE PUSH1 0x3 DUP4 ADD PUSH1 0x20 MSTORE PUSH1 0x40 SWAP1 KECCAK256 DUP1 SLOAD PUSH1 0x1 ADD SWAP1 SSTORE JUMPDEST PUSH1 0x0 DUP6 DUP2 MSTORE PUSH1 0x2 DUP4 ADD PUSH1 0x20 MSTORE PUSH1 0x40 DUP1 DUP3 KECCAK256 DUP1 SLOAD PUSH1 0x1 PUSH1 0x1 PUSH1 0xA0 SHL SUB NOT AND PUSH1 0x1 PUSH1 0x1 PUSH1 0xA0 SHL SUB DUP11 DUP2 AND SWAP2 DUP3 OR SWAP1 SWAP3 SSTORE SWAP2 MLOAD DUP9 SWAP4 SWAP2 DUP6 AND SWAP2 PUSH32 0xDDF252AD1BE2C89B69C2B068FC378DAA952BA7F163C4A11628F55A4DF523B3EF SWAP2 LOG4 SWAP6 SWAP5 POP POP POP POP POP JUMP JUMPDEST PUSH1 0x2 SLOAD PUSH1 0x0 SWAP1 PUSH1 0x1 PUSH1 0x1 PUSH1 0xA0 SHL SUB AND CALLER EQ DUP1 PUSH2 0x1305 JUMPI POP CALLER PUSH1 0x0 SWAP1 DUP2 MSTORE PUSH1 0x4 PUSH1 0x20 MSTORE PUSH1 0x40 SWAP1 KECCAK256 SLOAD PUSH1 0xFF AND JUMPDEST ISZERO PUSH2 0x1310 JUMPI POP PUSH1 0x1 SWAP1 JUMP JUMPDEST POP PUSH1 0x0 SWAP1 JUMP JUMPDEST PUSH1 0x0 PUSH2 0x1325 PUSH1 0x0 DUP4 PUSH1 0x0 PUSH2 0x11D0 JUMP JUMPDEST SWAP1 POP PUSH1 0x1 PUSH1 0x1 PUSH1 0xA0 SHL SUB DUP2 AND PUSH2 0x54D JUMPI PUSH1 0x40 MLOAD PUSH4 0x7E273289 PUSH1 0xE0 SHL DUP2 MSTORE PUSH1 0x4 DUP2 ADD DUP4 SWAP1 MSTORE PUSH1 0x24 ADD PUSH2 0x577 JUMP JUMPDEST PUSH2 0x1359 PUSH2 0x19C2 JUMP JUMPDEST PUSH2 0x54D DUP3 DUP3 PUSH2 0x1A0D JUMP JUMPDEST PUSH1 0x0 DUP1 MLOAD PUSH1 0x20 PUSH2 0x2522 DUP4 CODECOPY DUP2 MLOAD SWAP2 MSTORE PUSH1 0x1 PUSH1 0x1 PUSH1 0xA0 SHL SUB DUP4 AND PUSH2 0x13A4 JUMPI PUSH1 0x40 MLOAD PUSH4 0xB611743 PUSH1 0xE3 SHL DUP2 MSTORE PUSH1 0x1 PUSH1 0x1 PUSH1 0xA0 SHL SUB DUP5 AND PUSH1 0x4 DUP3 ADD MSTORE PUSH1 0x24 ADD PUSH2 0x577 JUMP JUMPDEST PUSH1 0x1 PUSH1 0x1 PUSH1 0xA0 SHL SUB DUP5 DUP2 AND PUSH1 0x0 DUP2 DUP2 MSTORE PUSH1 0x5 DUP5 ADD PUSH1 0x20 SWAP1 DUP2 MSTORE PUSH1 0x40 DUP1 DUP4 KECCAK256 SWAP5 DUP9 AND DUP1 DUP5 MSTORE SWAP5 DUP3 MSTORE SWAP2 DUP3 SWAP1 KECCAK256 DUP1 SLOAD PUSH1 0xFF NOT AND DUP8 ISZERO ISZERO SWAP1 DUP2 OR SWAP1 SWAP2 SSTORE SWAP2 MLOAD SWAP2 DUP3 MSTORE PUSH32 0x17307EAB39AB6107E8899845AD3D59BD9653F200F220920489CA2B5937696C31 SWAP2 ADD PUSH1 0x40 MLOAD DUP1 SWAP2 SUB SWAP1 LOG3 POP POP POP POP JUMP JUMPDEST PUSH1 0x1 PUSH1 0x1 PUSH1 0xA0 SHL SUB DUP4 AND EXTCODESIZE ISZERO PUSH2 0x5DB JUMPI PUSH1 0x40 MLOAD PUSH4 0xA85BD01 PUSH1 0xE1 SHL DUP2 MSTORE PUSH1 0x1 PUSH1 0x1 PUSH1 0xA0 SHL SUB DUP5 AND SWAP1 PUSH4 0x150B7A02 SWAP1 PUSH2 0x1456 SWAP1 CALLER SWAP1 DUP9 SWAP1 DUP8 SWAP1 DUP8 SWAP1 PUSH1 0x4 ADD PUSH2 0x2456 JUMP JUMPDEST PUSH1 0x20 PUSH1 0x40 MLOAD DUP1 DUP4 SUB DUP2 PUSH1 0x0 DUP8 GAS CALL SWAP3 POP POP POP DUP1 ISZERO PUSH2 0x1491 JUMPI POP PUSH1 0x40 DUP1 MLOAD PUSH1 0x1F RETURNDATASIZE SWAP1 DUP2 ADD PUSH1 0x1F NOT AND DUP3 ADD SWAP1 SWAP3 MSTORE PUSH2 0x148E SWAP2 DUP2 ADD SWAP1 PUSH2 0x2489 JUMP JUMPDEST PUSH1 0x1 JUMPDEST PUSH2 0x14FA JUMPI RETURNDATASIZE DUP1 DUP1 ISZERO PUSH2 0x14BF JUMPI PUSH1 0x40 MLOAD SWAP2 POP PUSH1 0x1F NOT PUSH1 0x3F RETURNDATASIZE ADD AND DUP3 ADD PUSH1 0x40 MSTORE RETURNDATASIZE DUP3 MSTORE RETURNDATASIZE PUSH1 0x0 PUSH1 0x20 DUP5 ADD RETURNDATACOPY PUSH2 0x14C4 JUMP JUMPDEST PUSH1 0x60 SWAP2 POP JUMPDEST POP DUP1 MLOAD PUSH1 0x0 SUB PUSH2 0x14F2 JUMPI PUSH1 0x40 MLOAD PUSH4 0x32505749 PUSH1 0xE1 SHL DUP2 MSTORE PUSH1 0x1 PUSH1 0x1 PUSH1 0xA0 SHL SUB DUP6 AND PUSH1 0x4 DUP3 ADD MSTORE PUSH1 0x24 ADD PUSH2 0x577 JUMP JUMPDEST DUP1 MLOAD DUP2 PUSH1 0x20 ADD REVERT JUMPDEST PUSH1 0x1 PUSH1 0x1 PUSH1 0xE0 SHL SUB NOT DUP2 AND PUSH4 0xA85BD01 PUSH1 0xE1 SHL EQ PUSH2 0xBFD JUMPI PUSH1 0x40 MLOAD PUSH4 0x32505749 PUSH1 0xE1 SHL DUP2 MSTORE PUSH1 0x1 PUSH1 0x1 PUSH1 0xA0 SHL SUB DUP6 AND PUSH1 0x4 DUP3 ADD MSTORE PUSH1 0x24 ADD PUSH2 0x577 JUMP JUMPDEST PUSH1 0x0 DUP1 PUSH2 0x1542 DUP4 PUSH2 0x180E JUMP JUMPDEST PUSH1 0x1 PUSH1 0x1 PUSH1 0xA0 SHL SUB AND SUB PUSH2 0x1558 JUMPI POP PUSH1 0x0 SWAP2 SWAP1 POP JUMP JUMPDEST POP PUSH1 0x1 SWAP2 SWAP1 POP JUMP JUMPDEST PUSH1 0x60 PUSH1 0x0 PUSH1 0x40 MLOAD DUP1 PUSH2 0x280 ADD PUSH1 0x40 MSTORE DUP1 PUSH2 0x244 DUP2 MSTORE PUSH1 0x20 ADD PUSH2 0x2542 PUSH2 0x244 SWAP2 CODECOPY SWAP3 SWAP2 POP POP JUMP JUMPDEST PUSH1 0x60 DUP2 PUSH1 0x0 SUB PUSH2 0x15AD JUMPI POP POP PUSH1 0x40 DUP1 MLOAD DUP1 DUP3 ADD SWAP1 SWAP2 MSTORE PUSH1 0x1 DUP2 MSTORE PUSH1 0x3 PUSH1 0xFC SHL PUSH1 0x20 DUP3 ADD MSTORE SWAP1 JUMP JUMPDEST DUP2 PUSH1 0x0 JUMPDEST DUP2 ISZERO PUSH2 0x15D7 JUMPI DUP1 PUSH2 0x15C1 DUP2 PUSH2 0x2273 JUMP JUMPDEST SWAP2 POP PUSH2 0x15D0 SWAP1 POP PUSH1 0xA DUP4 PUSH2 0x24BC JUMP JUMPDEST SWAP2 POP PUSH2 0x15B1 JUMP JUMPDEST PUSH1 0x0 DUP2 PUSH8 0xFFFFFFFFFFFFFFFF DUP2 GT ISZERO PUSH2 0x15F2 JUMPI PUSH2 0x15F2 PUSH2 0x1CAF JUMP JUMPDEST PUSH1 0x40 MLOAD SWAP1 DUP1 DUP3 MSTORE DUP1 PUSH1 0x1F ADD PUSH1 0x1F NOT AND PUSH1 0x20 ADD DUP3 ADD PUSH1 0x40 MSTORE DUP1 ISZERO PUSH2 0x161C JUMPI PUSH1 0x20 DUP3 ADD DUP2 DUP1 CALLDATASIZE DUP4 CALLDATACOPY ADD SWAP1 POP JUMPDEST POP SWAP1 POP JUMPDEST DUP5 ISZERO PUSH2 0x1687 JUMPI PUSH2 0x1631 PUSH1 0x1 DUP4 PUSH2 0x24D0 JUMP JUMPDEST SWAP2 POP PUSH2 0x163E PUSH1 0xA DUP7 PUSH2 0x24E3 JUMP JUMPDEST PUSH2 0x1649 SWAP1 PUSH1 0x30 PUSH2 0x24F7 JUMP JUMPDEST PUSH1 0xF8 SHL DUP2 DUP4 DUP2 MLOAD DUP2 LT PUSH2 0x165E JUMPI PUSH2 0x165E PUSH2 0x21E5 JUMP JUMPDEST PUSH1 0x20 ADD ADD SWAP1 PUSH1 0x1 PUSH1 0x1 PUSH1 0xF8 SHL SUB NOT AND SWAP1 DUP2 PUSH1 0x0 BYTE SWAP1 MSTORE8 POP PUSH2 0x1680 PUSH1 0xA DUP7 PUSH2 0x24BC JUMP JUMPDEST SWAP5 POP PUSH2 0x1620 JUMP JUMPDEST SWAP5 SWAP4 POP POP POP POP JUMP JUMPDEST DUP1 MLOAD PUSH1 0x60 SWAP1 PUSH1 0x0 DUP2 SWAP1 SUB PUSH2 0x16B3 JUMPI POP POP PUSH1 0x40 DUP1 MLOAD PUSH1 0x20 DUP2 ADD SWAP1 SWAP2 MSTORE PUSH1 0x0 DUP2 MSTORE SWAP2 SWAP1 POP JUMP JUMPDEST PUSH1 0x0 PUSH1 0x3 PUSH2 0x16C2 DUP4 PUSH1 0x2 PUSH2 0x24F7 JUMP JUMPDEST PUSH2 0x16CC SWAP2 SWAP1 PUSH2 0x24BC JUMP JUMPDEST PUSH2 0x16D7 SWAP1 PUSH1 0x4 PUSH2 0x250A JUMP JUMPDEST SWAP1 POP PUSH1 0x0 PUSH2 0x16E6 DUP3 PUSH1 0x20 PUSH2 0x24F7 JUMP JUMPDEST PUSH8 0xFFFFFFFFFFFFFFFF DUP2 GT ISZERO PUSH2 0x16FE JUMPI PUSH2 0x16FE PUSH2 0x1CAF JUMP JUMPDEST PUSH1 0x40 MLOAD SWAP1 DUP1 DUP3 MSTORE DUP1 PUSH1 0x1F ADD PUSH1 0x1F NOT AND PUSH1 0x20 ADD DUP3 ADD PUSH1 0x40 MSTORE DUP1 ISZERO PUSH2 0x1728 JUMPI PUSH1 0x20 DUP3 ADD DUP2 DUP1 CALLDATASIZE DUP4 CALLDATACOPY ADD SWAP1 POP JUMPDEST POP SWAP1 POP PUSH1 0x0 PUSH1 0x40 MLOAD DUP1 PUSH1 0x60 ADD PUSH1 0x40 MSTORE DUP1 PUSH1 0x40 DUP2 MSTORE PUSH1 0x20 ADD PUSH2 0x2786 PUSH1 0x40 SWAP2 CODECOPY SWAP1 POP PUSH1 0x1 DUP2 ADD PUSH1 0x20 DUP4 ADD PUSH1 0x0 JUMPDEST DUP7 DUP2 LT ISZERO PUSH2 0x17B4 JUMPI PUSH1 0x3 DUP2 DUP11 ADD DUP2 ADD MLOAD PUSH1 0x3F PUSH1 0x12 DUP3 SWAP1 SHR DUP2 AND DUP7 ADD MLOAD PUSH1 0xC DUP4 SWAP1 SHR DUP3 AND DUP8 ADD MLOAD PUSH1 0x6 DUP5 SWAP1 SHR DUP4 AND DUP9 ADD MLOAD SWAP3 SWAP1 SWAP4 AND DUP8 ADD MLOAD PUSH1 0x8 SWAP2 DUP3 SHL PUSH1 0xFF SWAP5 DUP6 AND ADD DUP3 SHL SWAP3 DUP5 AND SWAP3 SWAP1 SWAP3 ADD SWAP1 SHL SWAP2 AND ADD PUSH1 0xE0 SHL DUP4 MSTORE PUSH1 0x4 SWAP1 SWAP3 ADD SWAP2 ADD PUSH2 0x1753 JUMP JUMPDEST POP PUSH1 0x3 DUP7 MOD PUSH1 0x1 DUP2 EQ PUSH2 0x17CE JUMPI PUSH1 0x2 DUP2 EQ PUSH2 0x17DF JUMPI PUSH2 0x17EB JUMP JUMPDEST PUSH2 0x3D3D PUSH1 0xF0 SHL PUSH1 0x1 NOT DUP4 ADD MSTORE PUSH2 0x17EB JUMP JUMPDEST PUSH1 0x3D PUSH1 0xF8 SHL PUSH1 0x0 NOT DUP4 ADD MSTORE JUMPDEST POP POP POP SWAP2 DUP2 MSTORE SWAP5 SWAP4 POP POP POP POP JUMP JUMPDEST PUSH1 0x0 PUSH2 0x1805 DUP4 DUP4 PUSH2 0x1A3E JUMP JUMPDEST POP PUSH1 0x1 SWAP3 SWAP2 POP POP JUMP JUMPDEST PUSH1 0x0 SWAP1 DUP2 MSTORE PUSH32 0x80BB2B638CC20BC4D0A60D66940F3AB4A00C1D7B313497CA82FB0B4AB0079302 PUSH1 0x20 MSTORE PUSH1 0x40 SWAP1 KECCAK256 SLOAD PUSH1 0x1 PUSH1 0x1 PUSH1 0xA0 SHL SUB AND SWAP1 JUMP JUMPDEST PUSH1 0x0 DUP1 MLOAD PUSH1 0x20 PUSH2 0x2522 DUP4 CODECOPY DUP2 MLOAD SWAP2 MSTORE DUP2 DUP1 PUSH2 0x186B JUMPI POP PUSH1 0x1 PUSH1 0x1 PUSH1 0xA0 SHL SUB DUP4 AND ISZERO ISZERO JUMPDEST ISZERO PUSH2 0x192D JUMPI PUSH1 0x0 PUSH2 0x187B DUP6 PUSH2 0x1151 JUMP JUMPDEST SWAP1 POP PUSH1 0x1 PUSH1 0x1 PUSH1 0xA0 SHL SUB DUP5 AND ISZERO DUP1 ISZERO SWAP1 PUSH2 0x18A7 JUMPI POP DUP4 PUSH1 0x1 PUSH1 0x1 PUSH1 0xA0 SHL SUB AND DUP2 PUSH1 0x1 PUSH1 0x1 PUSH1 0xA0 SHL SUB AND EQ ISZERO JUMPDEST DUP1 ISZERO PUSH2 0x18BA JUMPI POP PUSH2 0x18B8 DUP2 DUP6 PUSH2 0xF44 JUMP JUMPDEST ISZERO JUMPDEST ISZERO PUSH2 0x18E3 JUMPI PUSH1 0x40 MLOAD PUSH4 0xA9FBF51F PUSH1 0xE0 SHL DUP2 MSTORE PUSH1 0x1 PUSH1 0x1 PUSH1 0xA0 SHL SUB DUP6 AND PUSH1 0x4 DUP3 ADD MSTORE PUSH1 0x24 ADD PUSH2 0x577 JUMP JUMPDEST DUP3 ISZERO PUSH2 0x192B JUMPI DUP5 DUP7 PUSH1 0x1 PUSH1 0x1 PUSH1 0xA0 SHL SUB AND DUP3 PUSH1 0x1 PUSH1 0x1 PUSH1 0xA0 SHL SUB AND PUSH32 0x8C5BE1E5EBEC7D5BD14F71427D1E84F3DD0314C0F7B2291E5B200AC8C7C3B925 PUSH1 0x40 MLOAD PUSH1 0x40 MLOAD DUP1 SWAP2 SUB SWAP1 LOG4 JUMPDEST POP JUMPDEST PUSH1 0x0 SWAP4 DUP5 MSTORE PUSH1 0x4 ADD PUSH1 0x20 MSTORE POP POP PUSH1 0x40 SWAP1 KECCAK256 DUP1 SLOAD PUSH1 0x1 PUSH1 0x1 PUSH1 0xA0 SHL SUB NOT AND PUSH1 0x1 PUSH1 0x1 PUSH1 0xA0 SHL SUB SWAP3 SWAP1 SWAP3 AND SWAP2 SWAP1 SWAP2 OR SWAP1 SSTORE JUMP JUMPDEST PUSH2 0x1969 DUP4 DUP4 DUP4 PUSH2 0x1A58 JUMP JUMPDEST PUSH2 0x67E JUMPI PUSH1 0x1 PUSH1 0x1 PUSH1 0xA0 SHL SUB DUP4 AND PUSH2 0x1997 JUMPI PUSH1 0x40 MLOAD PUSH4 0x7E273289 PUSH1 0xE0 SHL DUP2 MSTORE PUSH1 0x4 DUP2 ADD DUP3 SWAP1 MSTORE PUSH1 0x24 ADD PUSH2 0x577 JUMP JUMPDEST PUSH1 0x40 MLOAD PUSH4 0x177E802F PUSH1 0xE0 SHL DUP2 MSTORE PUSH1 0x1 PUSH1 0x1 PUSH1 0xA0 SHL SUB DUP4 AND PUSH1 0x4 DUP3 ADD MSTORE PUSH1 0x24 DUP2 ADD DUP3 SWAP1 MSTORE PUSH1 0x44 ADD PUSH2 0x577 JUMP JUMPDEST PUSH32 0xF0C57E16840DF040F15088DC2F81FE391C3923BEC73E23A9662EFC9C229C6A00 SLOAD PUSH1 0x1 PUSH1 0x40 SHL SWAP1 DIV PUSH1 0xFF AND PUSH2 0x1A0B JUMPI PUSH1 0x40 MLOAD PUSH4 0x1AFCD79F PUSH1 0xE3 SHL DUP2 MSTORE PUSH1 0x4 ADD PUSH1 0x40 MLOAD DUP1 SWAP2 SUB SWAP1 REVERT JUMPDEST JUMP JUMPDEST PUSH2 0x1A15 PUSH2 0x19C2 JUMP JUMPDEST PUSH1 0x0 DUP1 MLOAD PUSH1 0x20 PUSH2 0x2522 DUP4 CODECOPY DUP2 MLOAD SWAP2 MSTORE DUP1 PUSH2 0x1A2F DUP5 DUP3 PUSH2 0x2125 JUMP JUMPDEST POP PUSH1 0x1 DUP2 ADD PUSH2 0x5DB DUP4 DUP3 PUSH2 0x2125 JUMP JUMPDEST PUSH2 0x54D DUP3 DUP3 PUSH1 0x40 MLOAD DUP1 PUSH1 0x20 ADD PUSH1 0x40 MSTORE DUP1 PUSH1 0x0 DUP2 MSTORE POP PUSH2 0x1ABD JUMP JUMPDEST PUSH1 0x0 PUSH1 0x1 PUSH1 0x1 PUSH1 0xA0 SHL SUB DUP4 AND ISZERO DUP1 ISZERO SWAP1 PUSH2 0x1687 JUMPI POP DUP3 PUSH1 0x1 PUSH1 0x1 PUSH1 0xA0 SHL SUB AND DUP5 PUSH1 0x1 PUSH1 0x1 PUSH1 0xA0 SHL SUB AND EQ DUP1 PUSH2 0x1A92 JUMPI POP PUSH2 0x1A92 DUP5 DUP5 PUSH2 0xF44 JUMP JUMPDEST DUP1 PUSH2 0x1687 JUMPI POP DUP3 PUSH1 0x1 PUSH1 0x1 PUSH1 0xA0 SHL SUB AND PUSH2 0x1AAB DUP4 PUSH2 0x1189 JUMP JUMPDEST PUSH1 0x1 PUSH1 0x1 PUSH1 0xA0 SHL SUB AND EQ SWAP5 SWAP4 POP POP POP POP JUMP JUMPDEST PUSH2 0x1AC7 DUP4 DUP4 PUSH2 0x1AD4 JUMP JUMPDEST PUSH2 0x67E PUSH1 0x0 DUP5 DUP5 DUP5 PUSH2 0x1414 JUMP JUMPDEST PUSH1 0x1 PUSH1 0x1 PUSH1 0xA0 SHL SUB DUP3 AND PUSH2 0x1AFE JUMPI PUSH1 0x40 MLOAD PUSH4 0x32505749 PUSH1 0xE1 SHL DUP2 MSTORE PUSH1 0x0 PUSH1 0x4 DUP3 ADD MSTORE PUSH1 0x24 ADD PUSH2 0x577 JUMP JUMPDEST PUSH1 0x0 PUSH2 0x1B0C DUP4 DUP4 PUSH1 0x0 PUSH2 0x11D0 JUMP JUMPDEST SWAP1 POP PUSH1 0x1 PUSH1 0x1 PUSH1 0xA0 SHL SUB DUP2 AND ISZERO PUSH2 0x67E JUMPI PUSH1 0x40 MLOAD PUSH4 0x39E35637 PUSH1 0xE1 SHL DUP2 MSTORE PUSH1 0x0 PUSH1 0x4 DUP3 ADD MSTORE PUSH1 0x24 ADD PUSH2 0x577 JUMP JUMPDEST PUSH1 0x1 PUSH1 0x1 PUSH1 0xE0 SHL SUB NOT DUP2 AND DUP2 EQ PUSH2 0x6FD JUMPI PUSH1 0x0 DUP1 REVERT JUMPDEST PUSH1 0x0 PUSH1 0x20 DUP3 DUP5 SUB SLT ISZERO PUSH2 0x1B61 JUMPI PUSH1 0x0 DUP1 REVERT JUMPDEST DUP2 CALLDATALOAD PUSH2 0x1B6C DUP2 PUSH2 0x1B39 JUMP JUMPDEST SWAP4 SWAP3 POP POP POP JUMP JUMPDEST PUSH1 0x0 JUMPDEST DUP4 DUP2 LT ISZERO PUSH2 0x1B8E JUMPI DUP2 DUP2 ADD MLOAD DUP4 DUP3 ADD MSTORE PUSH1 0x20 ADD PUSH2 0x1B76 JUMP JUMPDEST POP POP PUSH1 0x0 SWAP2 ADD MSTORE JUMP JUMPDEST PUSH1 0x0 DUP2 MLOAD DUP1 DUP5 MSTORE PUSH2 0x1BAF DUP2 PUSH1 0x20 DUP7 ADD PUSH1 0x20 DUP7 ADD PUSH2 0x1B73 JUMP JUMPDEST PUSH1 0x1F ADD PUSH1 0x1F NOT AND SWAP3 SWAP1 SWAP3 ADD PUSH1 0x20 ADD SWAP3 SWAP2 POP POP JUMP JUMPDEST PUSH1 0x20 DUP2 MSTORE PUSH1 0x0 PUSH2 0x1B6C PUSH1 0x20 DUP4 ADD DUP5 PUSH2 0x1B97 JUMP JUMPDEST PUSH1 0x0 PUSH1 0x20 DUP3 DUP5 SUB SLT ISZERO PUSH2 0x1BE8 JUMPI PUSH1 0x0 DUP1 REVERT JUMPDEST POP CALLDATALOAD SWAP2 SWAP1 POP JUMP JUMPDEST DUP1 CALLDATALOAD PUSH1 0x1 PUSH1 0x1 PUSH1 0xA0 SHL SUB DUP2 AND DUP2 EQ PUSH2 0x1C06 JUMPI PUSH1 0x0 DUP1 REVERT JUMPDEST SWAP2 SWAP1 POP JUMP JUMPDEST PUSH1 0x0 DUP1 PUSH1 0x40 DUP4 DUP6 SUB SLT ISZERO PUSH2 0x1C1E JUMPI PUSH1 0x0 DUP1 REVERT JUMPDEST PUSH2 0x1C27 DUP4 PUSH2 0x1BEF JUMP JUMPDEST SWAP5 PUSH1 0x20 SWAP4 SWAP1 SWAP4 ADD CALLDATALOAD SWAP4 POP POP POP JUMP JUMPDEST PUSH1 0x0 DUP1 PUSH1 0x0 PUSH1 0x60 DUP5 DUP7 SUB SLT ISZERO PUSH2 0x1C4A JUMPI PUSH1 0x0 DUP1 REVERT JUMPDEST PUSH2 0x1C53 DUP5 PUSH2 0x1BEF JUMP JUMPDEST SWAP3 POP PUSH2 0x1C61 PUSH1 0x20 DUP6 ADD PUSH2 0x1BEF JUMP JUMPDEST SWAP2 POP PUSH1 0x40 DUP5 ADD CALLDATALOAD SWAP1 POP SWAP3 POP SWAP3 POP SWAP3 JUMP JUMPDEST DUP1 CALLDATALOAD PUSH2 0xFFFF DUP2 AND DUP2 EQ PUSH2 0x1C06 JUMPI PUSH1 0x0 DUP1 REVERT JUMPDEST PUSH1 0x0 DUP1 PUSH1 0x40 DUP4 DUP6 SUB SLT ISZERO PUSH2 0x1C96 JUMPI PUSH1 0x0 DUP1 REVERT JUMPDEST DUP3 CALLDATALOAD SWAP2 POP PUSH2 0x1CA6 PUSH1 0x20 DUP5 ADD PUSH2 0x1C71 JUMP JUMPDEST SWAP1 POP SWAP3 POP SWAP3 SWAP1 POP JUMP JUMPDEST PUSH4 0x4E487B71 PUSH1 0xE0 SHL PUSH1 0x0 MSTORE PUSH1 0x41 PUSH1 0x4 MSTORE PUSH1 0x24 PUSH1 0x0 REVERT JUMPDEST PUSH1 0x0 PUSH8 0xFFFFFFFFFFFFFFFF DUP1 DUP5 GT ISZERO PUSH2 0x1CE0 JUMPI PUSH2 0x1CE0 PUSH2 0x1CAF JUMP JUMPDEST PUSH1 0x40 MLOAD PUSH1 0x1F DUP6 ADD PUSH1 0x1F NOT SWAP1 DUP2 AND PUSH1 0x3F ADD AND DUP2 ADD SWAP1 DUP3 DUP3 GT DUP2 DUP4 LT OR ISZERO PUSH2 0x1D08 JUMPI PUSH2 0x1D08 PUSH2 0x1CAF JUMP JUMPDEST DUP2 PUSH1 0x40 MSTORE DUP1 SWAP4 POP DUP6 DUP2 MSTORE DUP7 DUP7 DUP7 ADD GT ISZERO PUSH2 0x1D21 JUMPI PUSH1 0x0 DUP1 REVERT JUMPDEST DUP6 DUP6 PUSH1 0x20 DUP4 ADD CALLDATACOPY PUSH1 0x0 PUSH1 0x20 DUP8 DUP4 ADD ADD MSTORE POP POP POP SWAP4 SWAP3 POP POP POP JUMP JUMPDEST PUSH1 0x0 PUSH1 0x20 DUP3 DUP5 SUB SLT ISZERO PUSH2 0x1D4D JUMPI PUSH1 0x0 DUP1 REVERT JUMPDEST DUP2 CALLDATALOAD PUSH8 0xFFFFFFFFFFFFFFFF DUP2 GT ISZERO PUSH2 0x1D64 JUMPI PUSH1 0x0 DUP1 REVERT JUMPDEST DUP3 ADD PUSH1 0x1F DUP2 ADD DUP5 SGT PUSH2 0x1D75 JUMPI PUSH1 0x0 DUP1 REVERT JUMPDEST PUSH2 0x1687 DUP5 DUP3 CALLDATALOAD PUSH1 0x20 DUP5 ADD PUSH2 0x1CC5 JUMP JUMPDEST PUSH1 0x0 PUSH1 0x20 DUP3 DUP5 SUB SLT ISZERO PUSH2 0x1D96 JUMPI PUSH1 0x0 DUP1 REVERT JUMPDEST PUSH2 0x1B6C DUP3 PUSH2 0x1BEF JUMP JUMPDEST DUP1 CALLDATALOAD DUP1 ISZERO ISZERO DUP2 EQ PUSH2 0x1C06 JUMPI PUSH1 0x0 DUP1 REVERT JUMPDEST PUSH1 0x0 DUP1 PUSH1 0x40 DUP4 DUP6 SUB SLT ISZERO PUSH2 0x1DC2 JUMPI PUSH1 0x0 DUP1 REVERT JUMPDEST PUSH2 0x1DCB DUP4 PUSH2 0x1BEF JUMP JUMPDEST SWAP2 POP PUSH2 0x1CA6 PUSH1 0x20 DUP5 ADD PUSH2 0x1D9F JUMP JUMPDEST DUP5 DUP2 MSTORE DUP4 ISZERO ISZERO PUSH1 0x20 DUP3 ADD MSTORE PUSH2 0xFFFF DUP4 AND PUSH1 0x40 DUP3 ADD MSTORE PUSH1 0x80 PUSH1 0x60 DUP3 ADD MSTORE PUSH1 0x0 PUSH2 0x1E04 PUSH1 0x80 DUP4 ADD DUP5 PUSH2 0x1B97 JUMP JUMPDEST SWAP7 SWAP6 POP POP POP POP POP POP JUMP JUMPDEST PUSH1 0x0 DUP1 DUP4 PUSH1 0x1F DUP5 ADD SLT PUSH2 0x1E20 JUMPI PUSH1 0x0 DUP1 REVERT JUMPDEST POP DUP2 CALLDATALOAD PUSH8 0xFFFFFFFFFFFFFFFF DUP2 GT ISZERO PUSH2 0x1E38 JUMPI PUSH1 0x0 DUP1 REVERT JUMPDEST PUSH1 0x20 DUP4 ADD SWAP2 POP DUP4 PUSH1 0x20 DUP3 PUSH1 0x5 SHL DUP6 ADD ADD GT ISZERO PUSH2 0x1E53 JUMPI PUSH1 0x0 DUP1 REVERT JUMPDEST SWAP3 POP SWAP3 SWAP1 POP JUMP JUMPDEST PUSH1 0x0 DUP1 PUSH1 0x0 DUP1 PUSH1 0x0 DUP1 PUSH1 0x60 DUP8 DUP10 SUB SLT ISZERO PUSH2 0x1E73 JUMPI PUSH1 0x0 DUP1 REVERT JUMPDEST DUP7 CALLDATALOAD PUSH8 0xFFFFFFFFFFFFFFFF DUP1 DUP3 GT ISZERO PUSH2 0x1E8B JUMPI PUSH1 0x0 DUP1 REVERT JUMPDEST PUSH2 0x1E97 DUP11 DUP4 DUP12 ADD PUSH2 0x1E0E JUMP JUMPDEST SWAP1 SWAP9 POP SWAP7 POP PUSH1 0x20 DUP10 ADD CALLDATALOAD SWAP2 POP DUP1 DUP3 GT ISZERO PUSH2 0x1EB0 JUMPI PUSH1 0x0 DUP1 REVERT JUMPDEST PUSH2 0x1EBC DUP11 DUP4 DUP12 ADD PUSH2 0x1E0E JUMP JUMPDEST SWAP1 SWAP7 POP SWAP5 POP PUSH1 0x40 DUP10 ADD CALLDATALOAD SWAP2 POP DUP1 DUP3 GT ISZERO PUSH2 0x1ED5 JUMPI PUSH1 0x0 DUP1 REVERT JUMPDEST POP PUSH2 0x1EE2 DUP10 DUP3 DUP11 ADD PUSH2 0x1E0E JUMP JUMPDEST SWAP8 SWAP11 SWAP7 SWAP10 POP SWAP5 SWAP8 POP SWAP3 SWAP6 SWAP4 SWAP5 SWAP3 POP POP POP JUMP JUMPDEST PUSH1 0x0 DUP1 PUSH1 0x40 DUP4 DUP6 SUB SLT ISZERO PUSH2 0x1F07 JUMPI PUSH1 0x0 DUP1 REVERT JUMPDEST DUP3 CALLDATALOAD SWAP2 POP PUSH2 0x1CA6 PUSH1 0x20 DUP5 ADD PUSH2 0x1D9F JUMP JUMPDEST PUSH1 0x0 DUP1 PUSH1 0x0 DUP1 PUSH1 0x80 DUP6 DUP8 SUB SLT ISZERO PUSH2 0x1F2D JUMPI PUSH1 0x0 DUP1 REVERT JUMPDEST PUSH2 0x1F36 DUP6 PUSH2 0x1BEF JUMP JUMPDEST SWAP4 POP PUSH2 0x1F44 PUSH1 0x20 DUP7 ADD PUSH2 0x1BEF JUMP JUMPDEST SWAP3 POP PUSH1 0x40 DUP6 ADD CALLDATALOAD SWAP2 POP PUSH1 0x60 DUP6 ADD CALLDATALOAD PUSH8 0xFFFFFFFFFFFFFFFF DUP2 GT ISZERO PUSH2 0x1F67 JUMPI PUSH1 0x0 DUP1 REVERT JUMPDEST DUP6 ADD PUSH1 0x1F DUP2 ADD DUP8 SGT PUSH2 0x1F78 JUMPI PUSH1 0x0 DUP1 REVERT JUMPDEST PUSH2 0x1F87 DUP8 DUP3 CALLDATALOAD PUSH1 0x20 DUP5 ADD PUSH2 0x1CC5 JUMP JUMPDEST SWAP2 POP POP SWAP3 SWAP6 SWAP2 SWAP5 POP SWAP3 POP JUMP JUMPDEST PUSH1 0x0 PUSH1 0x20 DUP3 DUP5 SUB SLT ISZERO PUSH2 0x1FA5 JUMPI PUSH1 0x0 DUP1 REVERT JUMPDEST PUSH2 0x1B6C DUP3 PUSH2 0x1D9F JUMP JUMPDEST PUSH1 0x0 DUP1 PUSH1 0x40 DUP4 DUP6 SUB SLT ISZERO PUSH2 0x1FC1 JUMPI PUSH1 0x0 DUP1 REVERT JUMPDEST PUSH2 0x1FCA DUP4 PUSH2 0x1BEF JUMP JUMPDEST SWAP2 POP PUSH2 0x1CA6 PUSH1 0x20 DUP5 ADD PUSH2 0x1BEF JUMP JUMPDEST PUSH1 0x0 DUP1 PUSH1 0x0 DUP1 PUSH1 0x60 DUP6 DUP8 SUB SLT ISZERO PUSH2 0x1FEE JUMPI PUSH1 0x0 DUP1 REVERT JUMPDEST PUSH2 0x1FF7 DUP6 PUSH2 0x1BEF JUMP JUMPDEST SWAP4 POP PUSH2 0x2005 PUSH1 0x20 DUP7 ADD PUSH2 0x1C71 JUMP JUMPDEST SWAP3 POP PUSH1 0x40 DUP6 ADD CALLDATALOAD PUSH8 0xFFFFFFFFFFFFFFFF DUP1 DUP3 GT ISZERO PUSH2 0x2022 JUMPI PUSH1 0x0 DUP1 REVERT JUMPDEST DUP2 DUP8 ADD SWAP2 POP DUP8 PUSH1 0x1F DUP4 ADD SLT PUSH2 0x2036 JUMPI PUSH1 0x0 DUP1 REVERT JUMPDEST DUP2 CALLDATALOAD DUP2 DUP2 GT ISZERO PUSH2 0x2045 JUMPI PUSH1 0x0 DUP1 REVERT JUMPDEST DUP9 PUSH1 0x20 DUP3 DUP6 ADD ADD GT ISZERO PUSH2 0x2057 JUMPI PUSH1 0x0 DUP1 REVERT JUMPDEST SWAP6 SWAP9 SWAP5 SWAP8 POP POP PUSH1 0x20 ADD SWAP5 POP POP POP JUMP JUMPDEST PUSH1 0x1 DUP2 DUP2 SHR SWAP1 DUP3 AND DUP1 PUSH2 0x207A JUMPI PUSH1 0x7F DUP3 AND SWAP2 POP JUMPDEST PUSH1 0x20 DUP3 LT DUP2 SUB PUSH2 0x209A JUMPI PUSH4 0x4E487B71 PUSH1 0xE0 SHL PUSH1 0x0 MSTORE PUSH1 0x22 PUSH1 0x4 MSTORE PUSH1 0x24 PUSH1 0x0 REVERT JUMPDEST POP SWAP2 SWAP1 POP JUMP JUMPDEST PUSH1 0x20 DUP1 DUP3 MSTORE PUSH1 0x1B SWAP1 DUP3 ADD MSTORE PUSH32 0x4D656D626572736869703A204E6F7420616E206F70657261746F720000000000 PUSH1 0x40 DUP3 ADD MSTORE PUSH1 0x60 ADD SWAP1 JUMP JUMPDEST PUSH1 0x1F DUP3 GT ISZERO PUSH2 0x67E JUMPI PUSH1 0x0 DUP2 DUP2 MSTORE PUSH1 0x20 DUP2 KECCAK256 PUSH1 0x1F DUP6 ADD PUSH1 0x5 SHR DUP2 ADD PUSH1 0x20 DUP7 LT ISZERO PUSH2 0x20FE JUMPI POP DUP1 JUMPDEST PUSH1 0x1F DUP6 ADD PUSH1 0x5 SHR DUP3 ADD SWAP2 POP JUMPDEST DUP2 DUP2 LT ISZERO PUSH2 0x211D JUMPI DUP3 DUP2 SSTORE PUSH1 0x1 ADD PUSH2 0x210A JUMP JUMPDEST POP POP POP POP POP POP JUMP JUMPDEST DUP2 MLOAD PUSH8 0xFFFFFFFFFFFFFFFF DUP2 GT ISZERO PUSH2 0x213F JUMPI PUSH2 0x213F PUSH2 0x1CAF JUMP JUMPDEST PUSH2 0x2153 DUP2 PUSH2 0x214D DUP5 SLOAD PUSH2 0x2066 JUMP JUMPDEST DUP5 PUSH2 0x20D7 JUMP JUMPDEST PUSH1 0x20 DUP1 PUSH1 0x1F DUP4 GT PUSH1 0x1 DUP2 EQ PUSH2 0x2188 JUMPI PUSH1 0x0 DUP5 ISZERO PUSH2 0x2170 JUMPI POP DUP6 DUP4 ADD MLOAD JUMPDEST PUSH1 0x0 NOT PUSH1 0x3 DUP7 SWAP1 SHL SHR NOT AND PUSH1 0x1 DUP6 SWAP1 SHL OR DUP6 SSTORE PUSH2 0x211D JUMP JUMPDEST PUSH1 0x0 DUP6 DUP2 MSTORE PUSH1 0x20 DUP2 KECCAK256 PUSH1 0x1F NOT DUP7 AND SWAP2 JUMPDEST DUP3 DUP2 LT ISZERO PUSH2 0x21B7 JUMPI DUP9 DUP7 ADD MLOAD DUP3 SSTORE SWAP5 DUP5 ADD SWAP5 PUSH1 0x1 SWAP1 SWAP2 ADD SWAP1 DUP5 ADD PUSH2 0x2198 JUMP JUMPDEST POP DUP6 DUP3 LT ISZERO PUSH2 0x21D5 JUMPI DUP8 DUP6 ADD MLOAD PUSH1 0x0 NOT PUSH1 0x3 DUP9 SWAP1 SHL PUSH1 0xF8 AND SHR NOT AND DUP2 SSTORE JUMPDEST POP POP POP POP POP PUSH1 0x1 SWAP1 DUP2 SHL ADD SWAP1 SSTORE POP JUMP JUMPDEST PUSH4 0x4E487B71 PUSH1 0xE0 SHL PUSH1 0x0 MSTORE PUSH1 0x32 PUSH1 0x4 MSTORE PUSH1 0x24 PUSH1 0x0 REVERT JUMPDEST PUSH1 0x0 PUSH1 0x20 DUP3 DUP5 SUB SLT ISZERO PUSH2 0x220D JUMPI PUSH1 0x0 DUP1 REVERT JUMPDEST PUSH2 0x1B6C DUP3 PUSH2 0x1C71 JUMP JUMPDEST PUSH1 0x0 DUP1 DUP4 CALLDATALOAD PUSH1 0x1E NOT DUP5 CALLDATASIZE SUB ADD DUP2 SLT PUSH2 0x222D JUMPI PUSH1 0x0 DUP1 REVERT JUMPDEST DUP4 ADD DUP1 CALLDATALOAD SWAP2 POP PUSH8 0xFFFFFFFFFFFFFFFF DUP3 GT ISZERO PUSH2 0x2248 JUMPI PUSH1 0x0 DUP1 REVERT JUMPDEST PUSH1 0x20 ADD SWAP2 POP CALLDATASIZE DUP2 SWAP1 SUB DUP3 SGT ISZERO PUSH2 0x1E53 JUMPI PUSH1 0x0 DUP1 REVERT JUMPDEST PUSH4 0x4E487B71 PUSH1 0xE0 SHL PUSH1 0x0 MSTORE PUSH1 0x11 PUSH1 0x4 MSTORE PUSH1 0x24 PUSH1 0x0 REVERT JUMPDEST PUSH1 0x0 PUSH1 0x1 DUP3 ADD PUSH2 0x2285 JUMPI PUSH2 0x2285 PUSH2 0x225D JUMP JUMPDEST POP PUSH1 0x1 ADD SWAP1 JUMP JUMPDEST PUSH1 0x0 DUP1 DUP5 SLOAD PUSH2 0x229A DUP2 PUSH2 0x2066 JUMP JUMPDEST PUSH1 0x1 DUP3 DUP2 AND DUP1 ISZERO PUSH2 0x22B2 JUMPI PUSH1 0x1 DUP2 EQ PUSH2 0x22C7 JUMPI PUSH2 0x22F6 JUMP JUMPDEST PUSH1 0xFF NOT DUP5 AND DUP8 MSTORE DUP3 ISZERO ISZERO DUP4 MUL DUP8 ADD SWAP5 POP PUSH2 0x22F6 JUMP JUMPDEST DUP9 PUSH1 0x0 MSTORE PUSH1 0x20 DUP1 PUSH1 0x0 KECCAK256 PUSH1 0x0 JUMPDEST DUP6 DUP2 LT ISZERO PUSH2 0x22ED JUMPI DUP2 SLOAD DUP11 DUP3 ADD MSTORE SWAP1 DUP5 ADD SWAP1 DUP3 ADD PUSH2 0x22D4 JUMP JUMPDEST POP POP POP DUP3 DUP8 ADD SWAP5 POP JUMPDEST POP POP POP POP DUP4 MLOAD PUSH2 0x230A DUP2 DUP4 PUSH1 0x20 DUP9 ADD PUSH2 0x1B73 JUMP JUMPDEST ADD SWAP5 SWAP4 POP POP POP POP JUMP JUMPDEST PUSH32 0x7B226E616D65223A20224B616E736F6E67204D6574617665727365204D757365 DUP2 MSTORE PUSH19 0x756D204D656D62657273686970204E46542023 PUSH1 0x68 SHL PUSH1 0x20 DUP3 ADD MSTORE PUSH1 0x0 DUP6 MLOAD PUSH2 0x2367 DUP2 PUSH1 0x33 DUP6 ADD PUSH1 0x20 DUP11 ADD PUSH2 0x1B73 JUMP JUMPDEST PUSH19 0x111610113232B9B1B934B83A34B7B7111D1011 PUSH1 0x69 SHL PUSH1 0x33 SWAP2 DUP5 ADD SWAP2 DUP3 ADD MSTORE DUP6 MLOAD PUSH2 0x239A DUP2 PUSH1 0x46 DUP5 ADD PUSH1 0x20 DUP11 ADD PUSH2 0x1B73 JUMP JUMPDEST PUSH13 0x1116101134B6B0B3B2911D1011 PUSH1 0x99 SHL PUSH1 0x46 SWAP3 SWAP1 SWAP2 ADD SWAP2 DUP3 ADD MSTORE DUP5 MLOAD PUSH2 0x23C8 DUP2 PUSH1 0x53 DUP5 ADD PUSH1 0x20 DUP10 ADD PUSH2 0x1B73 JUMP JUMPDEST PUSH12 0x1116101139B1B7B932911D1 PUSH1 0xA5 SHL PUSH1 0x53 SWAP3 SWAP1 SWAP2 ADD SWAP2 DUP3 ADD MSTORE DUP4 MLOAD PUSH2 0x23F5 DUP2 PUSH1 0x5F DUP5 ADD PUSH1 0x20 DUP9 ADD PUSH2 0x1B73 JUMP JUMPDEST PUSH1 0x7D PUSH1 0xF8 SHL PUSH1 0x5F SWAP3 SWAP1 SWAP2 ADD SWAP2 DUP3 ADD MSTORE PUSH1 0x60 ADD SWAP7 SWAP6 POP POP POP POP POP POP JUMP JUMPDEST PUSH32 0x646174613A6170706C69636174696F6E2F6A736F6E3B6261736536342C000000 DUP2 MSTORE PUSH1 0x0 DUP3 MLOAD PUSH2 0x2449 DUP2 PUSH1 0x1D DUP6 ADD PUSH1 0x20 DUP8 ADD PUSH2 0x1B73 JUMP JUMPDEST SWAP2 SWAP1 SWAP2 ADD PUSH1 0x1D ADD SWAP3 SWAP2 POP POP JUMP JUMPDEST PUSH1 0x1 PUSH1 0x1 PUSH1 0xA0 SHL SUB DUP6 DUP2 AND DUP3 MSTORE DUP5 AND PUSH1 0x20 DUP3 ADD MSTORE PUSH1 0x40 DUP2 ADD DUP4 SWAP1 MSTORE PUSH1 0x80 PUSH1 0x60 DUP3 ADD DUP2 SWAP1 MSTORE PUSH1 0x0 SWAP1 PUSH2 0x1E04 SWAP1 DUP4 ADD DUP5 PUSH2 0x1B97 JUMP JUMPDEST PUSH1 0x0 PUSH1 0x20 DUP3 DUP5 SUB SLT ISZERO PUSH2 0x249B JUMPI PUSH1 0x0 DUP1 REVERT JUMPDEST DUP2 MLOAD PUSH2 0x1B6C DUP2 PUSH2 0x1B39 JUMP JUMPDEST PUSH4 0x4E487B71 PUSH1 0xE0 SHL PUSH1 0x0 MSTORE PUSH1 0x12 PUSH1 0x4 MSTORE PUSH1 0x24 PUSH1 0x0 REVERT JUMPDEST PUSH1 0x0 DUP3 PUSH2 0x24CB JUMPI PUSH2 0x24CB PUSH2 0x24A6 JUMP JUMPDEST POP DIV SWAP1 JUMP JUMPDEST DUP2 DUP2 SUB DUP2 DUP2 GT ISZERO PUSH2 0x483 JUMPI PUSH2 0x483 PUSH2 0x225D JUMP JUMPDEST PUSH1 0x0 DUP3 PUSH2 0x24F2 JUMPI PUSH2 0x24F2 PUSH2 0x24A6 JUMP JUMPDEST POP MOD SWAP1 JUMP JUMPDEST DUP1 DUP3 ADD DUP1 DUP3 GT ISZERO PUSH2 0x483 JUMPI PUSH2 0x483 PUSH2 0x225D JUMP JUMPDEST DUP1 DUP3 MUL DUP2 ISZERO DUP3 DUP3 DIV DUP5 EQ OR PUSH2 0x483 JUMPI PUSH2 0x483 PUSH2 0x225D JUMP INVALID DUP1 0xBB 0x2B PUSH4 0x8CC20BC4 0xD0 0xA6 0xD PUSH7 0x940F3AB4A00C1D PUSH28 0x313497CA82FB0B4AB00793004B616E736F6E67204D65746176657273 PUSH6 0x204D75736575 PUSH14 0x204D656D62657273686970204E46 SLOAD PUSH20 0x20656E7469746C6520686F6C646572732077686F KECCAK256 PUSH16 0x776E204E465473206973737565642062 PUSH26 0x204B4D4D20746F207370656369616C2074726561746D656E742E KECCAK256 SLOAD PUSH9 0x6973206D656D626572 PUSH20 0x686970204E4654206973206D6F7265207468616E KECCAK256 PUSH11 0x7573742061206D656D6265 PUSH19 0x7368697020636172643B2069742073796D626F PUSH13 0x697A6573207468652070726964 PUSH6 0x206F66206265 PUSH10 0x6E672061205472656173 PUSH22 0x726520477561726469616E2C20726570726573656E74 PUSH10 0x6E672061207370656369 PUSH2 0x6C20 PUSH6 0x787065726965 PUSH15 0x636520616E6420726573706F6E7369 PUSH3 0x696C69 PUSH21 0x792E20437265617465642062792074686520736B69 PUSH13 0x6C656420677261706869632064 PUSH6 0x7369676E6572 KECCAK256 MSIZE PUSH16 0x756E676861205061726B2C2074686973 KECCAK256 0x4E CHAINID SLOAD KECCAK256 PUSH10 0x7320726F6F7465642069 PUSH15 0x207468652064697374696E63746976 PUSH6 0x206C6F676F20 PUSH16 0x6620746865204B616E736F6E67204D65 PUSH21 0x617665727365204D757365756D2C20612063726561 PUSH21 0x696F6E20616C736F20617474726962757465642074 PUSH16 0x205061726B2E20576974682061206D6F PUSH5 0x65726E2072 PUSH6 0x696E74657270 PUSH19 0x65746174696F6E2C2069742063617074757265 PUSH20 0x2074686520657373656E6365206F662074686520 PUSH6 0x787175697369 PUSH21 0x65206C616E6473636170657320616E642063686172 PUSH2 0x6374 PUSH6 0x72732066726F PUSH14 0x2074686520416C62756D206F6620 SELFBALANCE PUSH6 0x6E7265205061 PUSH10 0x6E74696E677320627920 BASEFEE PUSH26 0x65776F6E2E4142434445464748494A4B4C4D4E4F505152535455 JUMP JUMPI PC MSIZE GAS PUSH2 0x6263 PUSH5 0x6566676869 PUSH11 0x6B6C6D6E6F707172737475 PUSH23 0x7778797A303132333435363738392B2F4B616E736F6E67 KECCAK256 0x4D PUSH6 0x746176657273 PUSH6 0x204D75736575 PUSH14 0x204D656D62657273686970204E46 SLOAD PUSH9 0x747470733A2F2F6B6D PUSH14 0x2E6D7970696E6174612E636C6F75 PUSH5 0x2F69706673 0x2F MLOAD PUSH14 0x5535585A595371637577426B4C65 0x4D NUMBER PUSH14 0x3247666D6A797831316F504E4571 0x4A GASLIMIT PUSH12 0x6E655161334A317777652FA2 PUSH5 0x6970667358 0x22 SLT KECCAK256 0xA6 0x5E PUSH17 0x3CABC5D6CE2BA501821559AE3BD45B6B2 0xB8 JUMPDEST 0xD DUP12 0x26 SWAP14 DELEGATECALL 0x2D SWAP4 0x2B PUSH1 0xE0 PUSH5 0x736F6C6343 STOP ADDMOD EQ STOP CALLER "},"methodIdentifiers":{"approve(address,uint256)":"095ea7b3","balanceOf(address)":"70a08231","batchMint(address[],uint16[],string[])":"613a5623","burn(uint256)":"42966c68","getApproved(uint256)":"081812fc","getBaseImgUrl()":"e49fe3eb","getOwner()":"893d20e8","initialize()":"8129fc1c","isAggregationActive()":"bf4c51af","isApprovedForAll(address,address)":"e985e9c5","isOperatorActive(address)":"eb473533","maxSupply()":"d5abeb01","members(uint256)":"5daf08ca","mint(address,uint16,string)":"ecb2906c","name()":"06fdde03","ownerOf(uint256)":"6352211e","safeTransferFrom(address,address,uint256)":"42842e0e","safeTransferFrom(address,address,uint256,bytes)":"b88d4fde","setAggregation(bool)":"de5ac3da","setApprovalForAll(address,bool)":"a22cb465","setOperator(address,bool)":"558a7297","supportsInterface(bytes4)":"01ffc9a7","symbol()":"95d89b41","tokenURI(uint256)":"c87b56dd","transferFrom(address,address,uint256)":"23b872dd","transferOwner(address)":"4fb2e45d","updateBaseImgUrl(string)":"3c45d706","updateIsExpired(uint256,bool)":"70912cc9","updateScore(uint256,uint16)":"3badcc96"}},"storageLayout":{"storage":[{"astId":3259,"contract":"contracts/MembershipV2.sol:Membership","label":"maxSupply","offset":0,"slot":"0","type":"t_uint256"},{"astId":3261,"contract":"contracts/MembershipV2.sol:Membership","label":"_tokenId","offset":0,"slot":"1","type":"t_uint256"},{"astId":3263,"contract":"contracts/MembershipV2.sol:Membership","label":"_owner","offset":0,"slot":"2","type":"t_address"},{"astId":3265,"contract":"contracts/MembershipV2.sol:Membership","label":"isAggregationActive","offset":20,"slot":"2","type":"t_bool"},{"astId":3267,"contract":"contracts/MembershipV2.sol:Membership","label":"_baseImgUrl","offset":0,"slot":"3","type":"t_string_storage"},{"astId":3280,"contract":"contracts/MembershipV2.sol:Membership","label":"_operators","offset":0,"slot":"4","type":"t_mapping(t_address,t_bool)"},{"astId":3285,"contract":"contracts/MembershipV2.sol:Membership","label":"members","offset":0,"slot":"5","type":"t_mapping(t_uint256,t_struct(Member)3276_storage)"}],"types":{"t_address":{"encoding":"inplace","label":"address","numberOfBytes":"20"},"t_bool":{"encoding":"inplace","label":"bool","numberOfBytes":"1"},"t_mapping(t_address,t_bool)":{"encoding":"mapping","key":"t_address","label":"mapping(address => bool)","numberOfBytes":"32","value":"t_bool"},"t_mapping(t_uint256,t_struct(Member)3276_storage)":{"encoding":"mapping","key":"t_uint256","label":"mapping(uint256 => struct Membership.Member)","numberOfBytes":"32","value":"t_struct(Member)3276_storage"},"t_string_storage":{"encoding":"bytes","label":"string","numberOfBytes":"32"},"t_struct(Member)3276_storage":{"encoding":"inplace","label":"struct Membership.Member","members":[{"astId":3269,"contract":"contracts/MembershipV2.sol:Membership","label":"tokenId","offset":0,"slot":"0","type":"t_uint256"},{"astId":3271,"contract":"contracts/MembershipV2.sol:Membership","label":"isExpired","offset":0,"slot":"1","type":"t_bool"},{"astId":3273,"contract":"contracts/MembershipV2.sol:Membership","label":"score","offset":1,"slot":"1","type":"t_uint16"},{"astId":3275,"contract":"contracts/MembershipV2.sol:Membership","label":"imgName","offset":0,"slot":"2","type":"t_string_storage"}],"numberOfBytes":"96"},"t_uint16":{"encoding":"inplace","label":"uint16","numberOfBytes":"2"},"t_uint256":{"encoding":"inplace","label":"uint256","numberOfBytes":"32"}}}}}}