{"contracts/MembershipV2.sol":{"Membership":{"abi":[{"inputs":[{"internalType":"address","name":"sender","type":"address"},{"internalType":"uint256","name":"tokenId","type":"uint256"},{"internalType":"address","name":"owner","type":"address"}],"name":"ERC721IncorrectOwner","type":"error"},{"inputs":[{"internalType":"address","name":"operator","type":"address"},{"internalType":"uint256","name":"tokenId","type":"uint256"}],"name":"ERC721InsufficientApproval","type":"error"},{"inputs":[{"internalType":"address","name":"approver","type":"address"}],"name":"ERC721InvalidApprover","type":"error"},{"inputs":[{"internalType":"address","name":"operator","type":"address"}],"name":"ERC721InvalidOperator","type":"error"},{"inputs":[{"internalType":"address","name":"owner","type":"address"}],"name":"ERC721InvalidOwner","type":"error"},{"inputs":[{"internalType":"address","name":"receiver","type":"address"}],"name":"ERC721InvalidReceiver","type":"error"},{"inputs":[{"internalType":"address","name":"sender","type":"address"}],"name":"ERC721InvalidSender","type":"error"},{"inputs":[{"internalType":"uint256","name":"tokenId","type":"uint256"}],"name":"ERC721NonexistentToken","type":"error"},{"inputs":[],"name":"InvalidInitialization","type":"error"},{"inputs":[],"name":"NotInitializing","type":"error"},{"anonymous":false,"inputs":[{"indexed":true,"internalType":"address","name":"owner","type":"address"},{"indexed":true,"internalType":"address","name":"approved","type":"address"},{"indexed":true,"internalType":"uint256","name":"tokenId","type":"uint256"}],"name":"Approval","type":"event"},{"anonymous":false,"inputs":[{"indexed":true,"internalType":"address","name":"owner","type":"address"},{"indexed":true,"internalType":"address","name":"operator","type":"address"},{"indexed":false,"internalType":"bool","name":"approved","type":"bool"}],"name":"ApprovalForAll","type":"event"},{"anonymous":false,"inputs":[{"indexed":false,"internalType":"uint64","name":"version","type":"uint64"}],"name":"Initialized","type":"event"},{"anonymous":false,"inputs":[{"indexed":false,"internalType":"address","name":"operator","type":"address"},{"indexed":false,"internalType":"bool","name":"isActive","type":"bool"}],"name":"SetOperator","type":"event"},{"anonymous":false,"inputs":[{"indexed":true,"internalType":"address","name":"from","type":"address"},{"indexed":true,"internalType":"address","name":"to","type":"address"},{"indexed":true,"internalType":"uint256","name":"tokenId","type":"uint256"}],"name":"Transfer","type":"event"},{"inputs":[{"internalType":"address","name":"to","type":"address"},{"internalType":"uint256","name":"tokenId","type":"uint256"}],"name":"approve","outputs":[],"stateMutability":"nonpayable","type":"function"},{"inputs":[{"internalType":"address","name":"owner","type":"address"}],"name":"balanceOf","outputs":[{"internalType":"uint256","name":"","type":"uint256"}],"stateMutability":"view","type":"function"},{"inputs":[{"internalType":"address[]","name":"toAddrs","type":"address[]"},{"internalType":"uint16[]","name":"scores","type":"uint16[]"},{"internalType":"string[]","name":"imgNames","type":"string[]"}],"name":"batchMint","outputs":[],"stateMutability":"nonpayable","type":"function"},{"inputs":[{"internalType":"uint256","name":"tokenId","type":"uint256"}],"name":"burn","outputs":[],"stateMutability":"nonpayable","type":"function"},{"inputs":[{"internalType":"uint256","name":"tokenId","type":"uint256"}],"name":"getApproved","outputs":[{"internalType":"address","name":"","type":"address"}],"stateMutability":"view","type":"function"},{"inputs":[{"internalType":"uint256","name":"tokenId","type":"uint256"}],"name":"getAttributes","outputs":[{"internalType":"string","name":"","type":"string"}],"stateMutability":"view","type":"function"},{"inputs":[],"name":"getBaseImgUrl","outputs":[{"internalType":"string","name":"","type":"string"}],"stateMutability":"view","type":"function"},{"inputs":[],"name":"getOwner","outputs":[{"internalType":"address","name":"","type":"address"}],"stateMutability":"view","type":"function"},{"inputs":[],"name":"initialize","outputs":[],"stateMutability":"nonpayable","type":"function"},{"inputs":[],"name":"isAggregationActive","outputs":[{"internalType":"bool","name":"","type":"bool"}],"stateMutability":"view","type":"function"},{"inputs":[{"internalType":"address","name":"owner","type":"address"},{"internalType":"address","name":"operator","type":"address"}],"name":"isApprovedForAll","outputs":[{"internalType":"bool","name":"","type":"bool"}],"stateMutability":"view","type":"function"},{"inputs":[{"internalType":"address","name":"operatorAddr","type":"address"}],"name":"isOperatorActive","outputs":[{"internalType":"bool","name":"","type":"bool"}],"stateMutability":"view","type":"function"},{"inputs":[],"name":"isSoulboundMode","outputs":[{"internalType":"bool","name":"","type":"bool"}],"stateMutability":"view","type":"function"},{"inputs":[],"name":"maxSupply","outputs":[{"internalType":"uint256","name":"","type":"uint256"}],"stateMutability":"view","type":"function"},{"inputs":[{"internalType":"uint256","name":"","type":"uint256"}],"name":"members","outputs":[{"internalType":"uint256","name":"tokenId","type":"uint256"},{"internalType":"bool","name":"isExpired","type":"bool"},{"internalType":"uint16","name":"score","type":"uint16"},{"internalType":"string","name":"imgName","type":"string"}],"stateMutability":"view","type":"function"},{"inputs":[{"internalType":"address","name":"toAddr","type":"address"},{"internalType":"uint16","name":"score","type":"uint16"},{"internalType":"string","name":"imgName","type":"string"}],"name":"mint","outputs":[],"stateMutability":"nonpayable","type":"function"},{"inputs":[],"name":"name","outputs":[{"internalType":"string","name":"","type":"string"}],"stateMutability":"view","type":"function"},{"inputs":[{"internalType":"uint256","name":"tokenId","type":"uint256"}],"name":"ownerOf","outputs":[{"internalType":"address","name":"","type":"address"}],"stateMutability":"view","type":"function"},{"inputs":[{"internalType":"address","name":"from","type":"address"},{"internalType":"address","name":"to","type":"address"},{"internalType":"uint256","name":"tokenId","type":"uint256"}],"name":"safeTransferFrom","outputs":[],"stateMutability":"nonpayable","type":"function"},{"inputs":[{"internalType":"address","name":"from","type":"address"},{"internalType":"address","name":"to","type":"address"},{"internalType":"uint256","name":"tokenId","type":"uint256"},{"internalType":"bytes","name":"data","type":"bytes"}],"name":"safeTransferFrom","outputs":[],"stateMutability":"nonpayable","type":"function"},{"inputs":[{"internalType":"bool","name":"isActive","type":"bool"}],"name":"setAggregation","outputs":[],"stateMutability":"nonpayable","type":"function"},{"inputs":[{"internalType":"address","name":"operator","type":"address"},{"internalType":"bool","name":"approved","type":"bool"}],"name":"setApprovalForAll","outputs":[],"stateMutability":"nonpayable","type":"function"},{"inputs":[{"internalType":"address","name":"newOperator","type":"address"},{"internalType":"bool","name":"isActive","type":"bool"}],"name":"setOperator","outputs":[],"stateMutability":"nonpayable","type":"function"},{"inputs":[{"internalType":"bool","name":"isActive","type":"bool"}],"name":"setSoulboundMode","outputs":[],"stateMutability":"nonpayable","type":"function"},{"inputs":[{"internalType":"bytes4","name":"interfaceId","type":"bytes4"}],"name":"supportsInterface","outputs":[{"internalType":"bool","name":"","type":"bool"}],"stateMutability":"view","type":"function"},{"inputs":[],"name":"symbol","outputs":[{"internalType":"string","name":"","type":"string"}],"stateMutability":"view","type":"function"},{"inputs":[{"internalType":"uint256","name":"tokenId","type":"uint256"}],"name":"tokenURI","outputs":[{"internalType":"string","name":"","type":"string"}],"stateMutability":"view","type":"function"},{"inputs":[],"name":"totalSupply","outputs":[{"internalType":"uint256","name":"","type":"uint256"}],"stateMutability":"view","type":"function"},{"inputs":[{"internalType":"address","name":"from","type":"address"},{"internalType":"address","name":"to","type":"address"},{"internalType":"uint256","name":"tokenId","type":"uint256"}],"name":"transferFrom","outputs":[],"stateMutability":"nonpayable","type":"function"},{"inputs":[{"internalType":"address","name":"newOwner","type":"address"}],"name":"transferOwner","outputs":[],"stateMutability":"nonpayable","type":"function"},{"inputs":[{"internalType":"string","name":"newUrl","type":"string"}],"name":"updateBaseImgUrl","outputs":[],"stateMutability":"nonpayable","type":"function"},{"inputs":[{"internalType":"uint256","name":"tokenId","type":"uint256"},{"internalType":"bool","name":"isExpired","type":"bool"}],"name":"updateIsExpired","outputs":[],"stateMutability":"nonpayable","type":"function"},{"inputs":[{"internalType":"uint256","name":"tokenId","type":"uint256"},{"internalType":"uint16","name":"score","type":"uint16"}],"name":"updateScore","outputs":[],"stateMutability":"nonpayable","type":"function"}],"evm":{"bytecode":{"linkReferences":{},"object":"608060405234801561001057600080fd5b5061330a806100206000396000f3fe608060405234801561001057600080fd5b50600436106101fb5760003560e01c80636352211e1161011a578063bf4c51af116100ad578063e49fe3eb1161007c578063e49fe3eb14610439578063e985e9c514610441578063eb47353314610454578063ecb2906c14610480578063f77a6d331461049357600080fd5b8063bf4c51af146103f6578063c87b56dd1461040a578063d5abeb011461041d578063de5ac3da1461042657600080fd5b8063893d20e8116100e9578063893d20e8146103b757806395d89b41146103c8578063a22cb465146103d0578063b88d4fde146103e357600080fd5b80636352211e1461037657806370912cc91461038957806370a082311461039c5780638129fc1c146103af57600080fd5b80633c45d706116101925780634fb2e45d116101615780634fb2e45d1461031a578063558a72971461032d5780635daf08ca14610340578063613a56231461036357600080fd5b80633c45d706146102ce57806342842e0e146102e157806342966c68146102f45780634378a6e31461030757600080fd5b806318160ddd116101ce57806318160ddd1461027d57806323b872dd146102945780633b263de7146102a75780633badcc96146102bb57600080fd5b806301ffc9a71461020057806306fdde0314610228578063081812fc1461023d578063095ea7b314610268575b600080fd5b61021361020e366004611fa8565b6104a6565b60405190151581526020015b60405180910390f35b6102306104f8565b60405161021f919061201c565b61025061024b36600461202f565b61059c565b6040516001600160a01b03909116815260200161021f565b61027b610276366004612064565b6105b1565b005b61028660015481565b60405190815260200161021f565b61027b6102a236600461208e565b6105c0565b60035461021390600160a81b900460ff1681565b61027b6102c93660046120dc565b610650565b61027b6102dc366004612194565b6106a2565b61027b6102ef36600461208e565b6106d2565b61027b61030236600461202f565b6106f2565b61023061031536600461202f565b610790565b61027b6103283660046121dd565b6109c1565b61027b61033b366004612208565b610a0d565b61035361034e36600461202f565b610a9a565b60405161021f9493929190612232565b61027b6103713660046122b3565b610b56565b61025061038436600461202f565b610c15565b61027b61039736600461234d565b610c20565b6102866103aa3660046121dd565b610c67565b61027b610cc3565b6003546001600160a01b0316610250565b610230610e80565b61027b6103de366004612208565b610ebf565b61027b6103f1366004612370565b610eca565b60035461021390600160a01b900460ff1681565b61023061041836600461202f565b610ee1565b61028660005481565b61027b6104343660046123ec565b6110d8565b61023061111a565b61021361044f366004612407565b6111d0565b6102136104623660046121dd565b6001600160a01b031660009081526005602052604090205460ff1690565b61027b61048e366004612431565b61121d565b61027b6104a13660046123ec565b611476565b60006001600160e01b031982166380ac58cd60e01b14806104d757506001600160e01b03198216635b5e139f60e01b145b806104f257506301ffc9a760e01b6001600160e01b03198316145b92915050565b600080516020612f678339815191528054606091908190610518906124bf565b80601f0160208091040260200160405190810160405280929190818152602001828054610544906124bf565b80156105915780601f1061056657610100808354040283529160200191610591565b820191906000526020600020905b81548152906001019060200180831161057457829003601f168201915b505050505091505090565b60006105a7826114be565b506104f2826114f6565b6105bc828233611530565b5050565b6001600160a01b0382166105ef57604051633250574960e11b8152600060048201526024015b60405180910390fd5b60006105fc83833361153d565b9050836001600160a01b0316816001600160a01b03161461064a576040516364283d7b60e01b81526001600160a01b03808616600483015260248201849052821660448201526064016105e6565b50505050565b61065861162e565b6106745760405162461bcd60e51b81526004016105e6906124f9565b600091825260066020526040909120600101805461ffff9092166101000262ffff0019909216919091179055565b6106aa61162e565b6106c65760405162461bcd60e51b81526004016105e6906124f9565b60046105bc828261257e565b6106ed83838360405180602001604052806000815250610eca565b505050565b336106fc82610c15565b6001600160a01b03161461076f5760405162461bcd60e51b815260206004820152603460248201527f4d656d626572736869703a204f6e6c7920746865206f776e6572206f6620746860448201527332903a37b5b2b71031b0b710313ab9371034ba1760611b60648201526084016105e6565b6107788161166a565b6001805490600061078883612654565b919050555050565b6000818152600660205260408120600201805460609291906107b1906124bf565b80601f01602080910402602001604051908101604052809291908181526020018280546107dd906124bf565b801561082a5780601f106107ff5761010080835404028352916020019161082a565b820191906000526020600020905b81548152906001019060200180831161080d57829003601f168201915b5050505050905060405160200161085b90736b6d6d5f6d656d626572736869705f612e6a706760601b815260140190565b60405160208183030381529060405280519060200120816040516020016108829190612687565b60405160208183030381529060405280519060200120036108c3576040516020016108ac906126f2565b604051602081830303815290604052915050919050565b604051736b6d6d5f6d656d626572736869705f622e6a706760601b6020820152603401604051602081830303815290604052805190602001208160405160200161090d9190612687565b6040516020818303038152906040528051906020012003610937576040516020016108ac90612821565b604051736b6d6d5f6d656d626572736869705f632e6a706760601b602082015260340160405160208183030381529060405280519060200120816040516020016109819190612687565b60405160208183030381529060405280519060200120036109ab576040516020016108ac90612949565b5050604080516020810190915260008152919050565b6003546001600160a01b031633146109eb5760405162461bcd60e51b81526004016105e690612bb9565b600380546001600160a01b0319166001600160a01b0392909216919091179055565b6003546001600160a01b03163314610a375760405162461bcd60e51b81526004016105e690612bb9565b6001600160a01b038216600081815260056020908152604091829020805460ff19168515159081179091558251938452908301527f1618a22a3b00b9ac70fd5a82f1f5cdd8cb272bd0f1b740ddf7c26ab05881dd5b910160405180910390a15050565b600660205260009081526040902080546001820154600283018054929360ff83169361010090930461ffff1692909190610ad3906124bf565b80601f0160208091040260200160405190810160405280929190818152602001828054610aff906124bf565b8015610b4c5780601f10610b2157610100808354040283529160200191610b4c565b820191906000526020600020905b815481529060010190602001808311610b2f57829003601f168201915b5050505050905084565b610b5e61162e565b610b7a5760405162461bcd60e51b81526004016105e6906124f9565b60005b85811015610c0c57610bfa878783818110610b9a57610b9a612bf0565b9050602002016020810190610baf91906121dd565b868684818110610bc157610bc1612bf0565b9050602002016020810190610bd69190612c06565b858585818110610be857610be8612bf0565b905060200281019061048e9190612c21565b80610c0481612c68565b915050610b7d565b50505050505050565b60006104f2826114be565b610c2861162e565b610c445760405162461bcd60e51b81526004016105e6906124f9565b600091825260066020526040909120600101805460ff1916911515919091179055565b6000600080516020612f678339815191526001600160a01b038316610ca2576040516322718ad960e21b8152600060048201526024016105e6565b6001600160a01b039092166000908152600390920160205250604090205490565b7ff0c57e16840df040f15088dc2f81fe391c3923bec73e23a9662efc9c229c6a008054600160401b810460ff16159067ffffffffffffffff16600081158015610d095750825b905060008267ffffffffffffffff166001148015610d265750303b155b905081158015610d34575080155b15610d525760405163f92ee8a960e01b815260040160405180910390fd5b845467ffffffffffffffff191660011785558315610d7c57845460ff60401b1916600160401b1785555b610dc4604051806060016040528060278152602001612fe7602791396040518060400160405280600e81526020016d04b4d4d2d4d656d626572736869760941b8152506116a5565b600380546001600160a01b03191633908117909155600090815260056020908152604091829020805460ff19166001179055815160808101909252604f8083529061328690830139600490610e19908261257e565b506127106000556003805460ff60a81b1916600160a81b1790558315610e7957845460ff60401b19168555604051600181527fc7f505b2f371ae2175ee4913f4499e1f2633a7b5936321eed1cdaeb6115181d29060200160405180910390a15b5050505050565b7f80bb2b638cc20bc4d0a60d66940f3ab4a00c1d7b313497ca82fb0b4ab00793018054606091600080516020612f6783398151915291610518906124bf565b6105bc3383836116b7565b610ed58484846105c0565b61064a84848484611768565b6060610eec8261188a565b610f435760405162461bcd60e51b815260206004820152602260248201527f4d656d626572736869703a20546f6b656e4964206e6f74206d696e7465642079604482015261195d60f21b60648201526084016105e6565b6000828152600660209081526040808320815160808101835281548152600182015460ff811615159482019490945261010090930461ffff1691830191909152600281018054606084019190610f98906124bf565b80601f0160208091040260200160405190810160405280929190818152602001828054610fc4906124bf565b80156110115780601f10610fe657610100808354040283529160200191611011565b820191906000526020600020905b815481529060010190602001808311610ff457829003601f168201915b5050505050815250509050600060048260600151604051602001611036929190612c81565b604051602081830303815290604052905060006110516118b4565b9050600061105e86610790565b905060006110aa61106e886118da565b8486611081896040015161ffff166118da565b86604051602001611096959493929190612d08565b6040516020818303038152906040526119db565b9050806040516020016110bd9190612e36565b60405160208183030381529060405295505050505050919050565b6110e061162e565b6110fc5760405162461bcd60e51b81526004016105e6906124f9565b60038054911515600160a01b0260ff60a01b19909216919091179055565b606061112461162e565b6111405760405162461bcd60e51b81526004016105e6906124f9565b6004805461114d906124bf565b80601f0160208091040260200160405190810160405280929190818152602001828054611179906124bf565b80156111c65780601f1061119b576101008083540402835291602001916111c6565b820191906000526020600020905b8154815290600101906020018083116111a957829003601f168201915b5050505050905090565b6001600160a01b0391821660009081527f80bb2b638cc20bc4d0a60d66940f3ab4a00c1d7b313497ca82fb0b4ab00793056020908152604080832093909416825291909152205460ff1690565b61122561162e565b6112415760405162461bcd60e51b81526004016105e6906124f9565b600054600254106112a55760405162461bcd60e51b815260206004820152602860248201527f4d656d626572736869703a206d696e74696e6720636f756e74206f766572206d6044820152676178537570706c7960c01b60648201526084016105e6565b600354600160a81b900460ff161515600103611326576112c484610c67565b156113265760405162461bcd60e51b815260206004820152602c60248201527f4d656d626572736869703a206f6e6c79206f6e65204e4654207065722061646460448201526b1c995cdcc8185b1b1bddd95960a21b60648201526084016105e6565b6002805490600061133683612c68565b91905055506000604051806080016040528060025481526020016000151581526020018561ffff16815260200184848080601f01602080910402602001604051908101604052809392919081815260200183838082843760009201829052509390945250506002805482526006602090815260409283902085518155908501516001820180549487015161ffff166101000262ffff00199215159290921662ffffff199095169490941717909255606084015193945084939192508201906113fe908261257e565b5090505061140e85600254611b45565b61145a5760405162461bcd60e51b815260206004820152601e60248201527f4d656d626572736869702d4e46543a206d696e74696e67206661696c6564000060448201526064016105e6565b6001805490600061146a83612c68565b91905055505050505050565b6003546001600160a01b031633146114a05760405162461bcd60e51b81526004016105e690612bb9565b60038054911515600160a81b0260ff60a81b19909216919091179055565b6000806114ca83611b5a565b90506001600160a01b0381166104f257604051637e27328960e01b8152600481018490526024016105e6565b60009081527f80bb2b638cc20bc4d0a60d66940f3ab4a00c1d7b313497ca82fb0b4ab007930460205260409020546001600160a01b031690565b6106ed8383836001611b94565b600354600090600160a81b900460ff16151560010361161b576001600160a01b038216158061157357506001600160a01b038416155b61161b5760405162461bcd60e51b815260206004820152606760248201527f4d656d626572736869703a2054686973206120536f756c626f756e6420746f6b60448201527f656e2e2049742063616e6e6f74206265207472616e736665727265642e20497460648201527f2063616e206f6e6c79206265206275726e65642062792074686520746f6b656e6084820152661037bbb732b91760c91b60a482015260c4016105e6565b611626848484611caa565b949350505050565b6003546000906001600160a01b031633148061165957503360009081526005602052604090205460ff165b156116645750600190565b50600090565b6000611679600083600061153d565b90506001600160a01b0381166105bc57604051637e27328960e01b8152600481018390526024016105e6565b6116ad611db4565b6105bc8282611dff565b600080516020612f678339815191526001600160a01b0383166116f857604051630b61174360e31b81526001600160a01b03841660048201526024016105e6565b6001600160a01b038481166000818152600584016020908152604080832094881680845294825291829020805460ff191687151590811790915591519182527f17307eab39ab6107e8899845ad3d59bd9653f200f220920489ca2b5937696c31910160405180910390a350505050565b6001600160a01b0383163b1561064a57604051630a85bd0160e11b81526001600160a01b0384169063150b7a02906117aa903390889087908790600401612e7b565b6020604051808303816000875af19250505080156117e5575060408051601f3d908101601f191682019092526117e291810190612eae565b60015b61184e573d808015611813576040519150601f19603f3d011682016040523d82523d6000602084013e611818565b606091505b50805160000361184657604051633250574960e11b81526001600160a01b03851660048201526024016105e6565b805181602001fd5b6001600160e01b03198116630a85bd0160e11b14610e7957604051633250574960e11b81526001600160a01b03851660048201526024016105e6565b60008061189683611b5a565b6001600160a01b0316036118ac57506000919050565b506001919050565b60606000604051806102800160405280610258815260200161300e610258913992915050565b6060816000036119015750506040805180820190915260018152600360fc1b602082015290565b8160005b811561192b578061191581612c68565b91506119249050600a83612ee1565b9150611905565b60008167ffffffffffffffff81111561194657611946612108565b6040519080825280601f01601f191660200182016040528015611970576020820181803683370190505b5090505b841561162657611985600183612ef5565b9150611992600a86612f08565b61199d906030612f1c565b60f81b8183815181106119b2576119b2612bf0565b60200101906001600160f81b031916908160001a9053506119d4600a86612ee1565b9450611974565b805160609060008190036119ff575050604080516020810190915260008152919050565b60006003611a0e836002612f1c565b611a189190612ee1565b611a23906004612f2f565b90506000611a32826020612f1c565b67ffffffffffffffff811115611a4a57611a4a612108565b6040519080825280601f01601f191660200182016040528015611a74576020820181803683370190505b5090506000604051806060016040528060408152602001612fa7604091399050600181016020830160005b86811015611b00576003818a01810151603f601282901c8116860151600c83901c8216870151600684901c831688015192909316870151600891821b60ff94851601821b92841692909201901b91160160e01b835260049092019101611a9f565b506003860660018114611b1a5760028114611b2b57611b37565b613d3d60f01b600119830152611b37565b603d60f81b6000198301525b505050918152949350505050565b6000611b518383611e30565b50600192915050565b60009081527f80bb2b638cc20bc4d0a60d66940f3ab4a00c1d7b313497ca82fb0b4ab007930260205260409020546001600160a01b031690565b600080516020612f678339815191528180611bb757506001600160a01b03831615155b15611c79576000611bc7856114be565b90506001600160a01b03841615801590611bf35750836001600160a01b0316816001600160a01b031614155b8015611c065750611c0481856111d0565b155b15611c2f5760405163a9fbf51f60e01b81526001600160a01b03851660048201526024016105e6565b8215611c775784866001600160a01b0316826001600160a01b03167f8c5be1e5ebec7d5bd14f71427d1e84f3dd0314c0f7b2291e5b200ac8c7c3b92560405160405180910390a45b505b600093845260040160205250506040902080546001600160a01b0319166001600160a01b0392909216919091179055565b6000600080516020612f6783398151915281611cc585611b5a565b90506001600160a01b03841615611ce157611ce1818587611e4a565b6001600160a01b03811615611d2157611cfe600086600080611b94565b6001600160a01b0381166000908152600383016020526040902080546000190190555b6001600160a01b03861615611d52576001600160a01b03861660009081526003830160205260409020805460010190555b600085815260028301602052604080822080546001600160a01b0319166001600160a01b038a811691821790925591518893918516917fddf252ad1be2c89b69c2b068fc378daa952ba7f163c4a11628f55a4df523b3ef91a495945050505050565b7ff0c57e16840df040f15088dc2f81fe391c3923bec73e23a9662efc9c229c6a0054600160401b900460ff16611dfd57604051631afcd79f60e31b815260040160405180910390fd5b565b611e07611db4565b600080516020612f6783398151915280611e21848261257e565b506001810161064a838261257e565b6105bc828260405180602001604052806000815250611eae565b611e55838383611ec5565b6106ed576001600160a01b038316611e8357604051637e27328960e01b8152600481018290526024016105e6565b60405163177e802f60e01b81526001600160a01b0383166004820152602481018290526044016105e6565b611eb88383611f2a565b6106ed6000848484611768565b60006001600160a01b038316158015906116265750826001600160a01b0316846001600160a01b03161480611eff5750611eff84846111d0565b806116265750826001600160a01b0316611f18836114f6565b6001600160a01b031614949350505050565b6001600160a01b038216611f5457604051633250574960e11b8152600060048201526024016105e6565b6000611f628383600061153d565b90506001600160a01b038116156106ed576040516339e3563760e11b8152600060048201526024016105e6565b6001600160e01b031981168114611fa557600080fd5b50565b600060208284031215611fba57600080fd5b8135611fc581611f8f565b9392505050565b60005b83811015611fe7578181015183820152602001611fcf565b50506000910152565b60008151808452612008816020860160208601611fcc565b601f01601f19169290920160200192915050565b602081526000611fc56020830184611ff0565b60006020828403121561204157600080fd5b5035919050565b80356001600160a01b038116811461205f57600080fd5b919050565b6000806040838503121561207757600080fd5b61208083612048565b946020939093013593505050565b6000806000606084860312156120a357600080fd5b6120ac84612048565b92506120ba60208501612048565b9150604084013590509250925092565b803561ffff8116811461205f57600080fd5b600080604083850312156120ef57600080fd5b823591506120ff602084016120ca565b90509250929050565b634e487b7160e01b600052604160045260246000fd5b600067ffffffffffffffff8084111561213957612139612108565b604051601f8501601f19908116603f0116810190828211818310171561216157612161612108565b8160405280935085815286868601111561217a57600080fd5b858560208301376000602087830101525050509392505050565b6000602082840312156121a657600080fd5b813567ffffffffffffffff8111156121bd57600080fd5b8201601f810184136121ce57600080fd5b6116268482356020840161211e565b6000602082840312156121ef57600080fd5b611fc582612048565b8035801515811461205f57600080fd5b6000806040838503121561221b57600080fd5b61222483612048565b91506120ff602084016121f8565b848152831515602082015261ffff8316604082015260806060820152600061225d6080830184611ff0565b9695505050505050565b60008083601f84011261227957600080fd5b50813567ffffffffffffffff81111561229157600080fd5b6020830191508360208260051b85010111156122ac57600080fd5b9250929050565b600080600080600080606087890312156122cc57600080fd5b863567ffffffffffffffff808211156122e457600080fd5b6122f08a838b01612267565b9098509650602089013591508082111561230957600080fd5b6123158a838b01612267565b9096509450604089013591508082111561232e57600080fd5b5061233b89828a01612267565b979a9699509497509295939492505050565b6000806040838503121561236057600080fd5b823591506120ff602084016121f8565b6000806000806080858703121561238657600080fd5b61238f85612048565b935061239d60208601612048565b925060408501359150606085013567ffffffffffffffff8111156123c057600080fd5b8501601f810187136123d157600080fd5b6123e08782356020840161211e565b91505092959194509250565b6000602082840312156123fe57600080fd5b611fc5826121f8565b6000806040838503121561241a57600080fd5b61242383612048565b91506120ff60208401612048565b6000806000806060858703121561244757600080fd5b61245085612048565b935061245e602086016120ca565b9250604085013567ffffffffffffffff8082111561247b57600080fd5b818701915087601f83011261248f57600080fd5b81358181111561249e57600080fd5b8860208285010111156124b057600080fd5b95989497505060200194505050565b600181811c908216806124d357607f821691505b6020821081036124f357634e487b7160e01b600052602260045260246000fd5b50919050565b6020808252601b908201527f4d656d626572736869703a204e6f7420616e206f70657261746f720000000000604082015260600190565b601f8211156106ed57600081815260208120601f850160051c810160208610156125575750805b601f850160051c820191505b8181101561257657828155600101612563565b505050505050565b815167ffffffffffffffff81111561259857612598612108565b6125ac816125a684546124bf565b84612530565b602080601f8311600181146125e157600084156125c95750858301515b600019600386901b1c1916600185901b178555612576565b600085815260208120601f198616915b82811015612610578886015182559484019460019091019084016125f1565b508582101561262e5787850151600019600388901b60f8161c191681555b5050505050600190811b01905550565b634e487b7160e01b600052601160045260246000fd5b6000816126635761266361263e565b506000190190565b6000815161267d818560208601611fcc565b9290920192915050565b60008251612699818460208701611fcc565b9190910192915050565b7f7b2274726169745f74797065223a202263726561746f72222c202276616c756581527f223a2022596f756e676861205061726b2028ebb095ec9881ed959829227d00006020820152603e0190565b605b60f81b81526000612707600183016126a3565b600b60fa1b808252600080516020612f8783398151915260018301527f69746c65222c202276616c7565223a2022ec8c8deab280eb8c80ebacb4227d0060218301526040820152600080516020612f4783398151915260418201527f7469746c65222c202276616c7565223a2022446f75626c652d73776f7264206460618201527f616e63652062792074776f20706572666f726d657273227d2c000000000000006081820152600080516020613266833981519152609a8201527f726c222c202276616c7565223a202268747470733a2f2f6b616e736f6e672e6960ba8201527f6f2f696d675f64657461696c2e68746d6c3f69643d3130227d0000000000000060da820152605d60f81b60f382015260f40192915050565b605b60f81b81526000612836600183016126a3565b600b60fa1b808252600080516020612f8783398151915260018301527f69746c65222c202276616c7565223a2022eab384ebb380eab080ed9994227d0060218301526040820152600080516020612f4783398151915260418201527f7469746c65222c202276616c7565223a202242656175746965732063686174746061820152751a5b99c818995cda59194818481cdd1c99585b489f4b60521b608182015260008051602061326683398151915260978201527f726c222c202276616c7565223a202268747470733a2f2f6b616e736f6e672e6960b78201527f6f2f696d675f64657461696c2e68746d6c3f69643d3138227d0000000000000060d7820152605d60f81b60f082015260f10192915050565b605b60f81b8152600061295e600183016126a3565b600b60fa1b808252600080516020612f8783398151915260018301527f69746c655f31222c202276616c7565223a2022ec8c8deab280eb8c80ebacb4226021830152607d60f81b60418301526042820152600080516020612f4783398151915260438201527f7469746c655f31222c202276616c7565223a2022446f75626c652d73776f726460638201527f2064616e63652062792074776f20706572666f726d657273227d2c00000000006083820152600080516020613266833981519152609e8201527f726c5f31222c202276616c7565223a202268747470733a2f2f6b616e736f6e6760be8201527f2e696f2f696d675f64657461696c2e68746d6c3f69643d3130227d000000000060de820152611fc5612bac612b49612ae6612ad9612a9260f98701600b60fa1b815260010190565b600080516020612f8783398151915281527f69746c655f32222c202276616c7565223a2022eab384ebb380eab080ed9994226020820152607d60f81b604082015260410190565b600b60fa1b815260010190565b600080516020612f4783398151915281527f7469746c655f32222c202276616c7565223a202242656175746965732063686160208201527f7474696e672062657369646520612073747265616d227d2c0000000000000000604082015260580190565b60008051602061326683398151915281527f726c5f32222c202276616c7565223a202268747470733a2f2f6b616e736f6e6760208201527f2e696f2f696d675f64657461696c2e68746d6c3f69643d3138227d00000000006040820152605b0190565b605d60f81b815260010190565b60208082526019908201527f4d656d626572736869703a204e6f7420746865206f776e657200000000000000604082015260600190565b634e487b7160e01b600052603260045260246000fd5b600060208284031215612c1857600080fd5b611fc5826120ca565b6000808335601e19843603018112612c3857600080fd5b83018035915067ffffffffffffffff821115612c5357600080fd5b6020019150368190038213156122ac57600080fd5b600060018201612c7a57612c7a61263e565b5060010190565b6000808454612c8f816124bf565b60018281168015612ca75760018114612cbc57612ceb565b60ff1984168752821515830287019450612ceb565b8860005260208060002060005b85811015612ce25781548a820152908401908201612cc9565b50505082870194505b505050508351612cff818360208801611fcc565b01949350505050565b7f7b226e616d65223a20224b616e736f6e67204d6574617665727365204d75736581526000602072756d204d656d62657273686970204e4654202360681b818401528751612d5c8160338601848c01611fcc565b72111610113232b9b1b934b83a34b7b7111d101160691b6033918501918201528751612d8e8160468401858c01611fcc565b6c1116101134b6b0b3b2911d101160991b604692909101918201528651612dbb8160538401858b01611fcc565b6033818301019150506b01116101139b1b7b932911d160a51b828201528551612dea81602c8401858a01611fcc565b612e28612e1b612e15602c848601016f016101130ba3a3934b13aba32b9911d160851b815260100190565b8861266b565b607d60f81b815260010190565b9a9950505050505050505050565b7f646174613a6170706c69636174696f6e2f6a736f6e3b6261736536342c000000815260008251612e6e81601d850160208701611fcc565b91909101601d0192915050565b6001600160a01b038581168252841660208201526040810183905260806060820181905260009061225d90830184611ff0565b600060208284031215612ec057600080fd5b8151611fc581611f8f565b634e487b7160e01b600052601260045260246000fd5b600082612ef057612ef0612ecb565b500490565b818103818111156104f2576104f261263e565b600082612f1757612f17612ecb565b500690565b808201808211156104f2576104f261263e565b80820281158282048414176104f2576104f261263e56fe7b2274726169745f74797065223a2022686f6d6d6167655f656e676c6973685f80bb2b638cc20bc4d0a60d66940f3ab4a00c1d7b313497ca82fb0b4ab00793007b2274726169745f74797065223a2022686f6d6d6167655f6b6f7265616e5f744142434445464748494a4b4c4d4e4f505152535455565758595a6162636465666768696a6b6c6d6e6f707172737475767778797a303132333435363738392b2f4b616e736f6e67204d6574617665727365204d757365756d204d656d62657273686970204e46544b616e736f6e67204d6574617665727365204d757365756d204d656d62657273686970204e46547320656e7469746c6520686f6c646572732077686f206f776e204e46547320697373756564206279204b4d4d2e2054686973206d656d62657273686970204e4654206973206d6f7265207468616e206a7573742061206d656d6265727368697020636172643b2069742073796d626f6c697a657320746865207072696465206f66206265696e67206120547265617375726520477561726469616e206f6620547261646974696f6e616c204b6f7265616e2043756c747572652c20726570726573656e74696e672061207370656369616c20657870657269656e636520616e6420726573706f6e736962696c6974792e2043726561746564206279207468652072656e6f776e20677261706869632064657369676e657220596f756e676861205061726b2c2074686973204e465420697320726f6f74656420696e207468652064697374696e6374697665206c6f676f206f6620746865204b616e736f6e67204d6574617665727365204d757365756d2c206120776f726b20616c736f206174747269627574656420746f205061726b2e20576974682061206d6f6465726e207265696e746572707265746174696f6e2c2069742063617074757265732074686520657373656e6365206f66207468652065787175697369746520636861726163746572732066726f6d2074686520416c62756d206f662047656e7265205061696e74696e677320627920487965776f6e20696e20313874682063656e74757279204a6f73656f6e2064796e617374792e7b2274726169745f74797065223a2022686f6d6d6167655f64657461696c5f7568747470733a2f2f6b6d6d2e6d7970696e6174612e636c6f75642f697066732f516d5535585a595371637577426b4c654d436d3247666d6a797831316f504e45714a456b6e655161334a317777652fa2646970667358221220894c8d5dececcaf67ccbd92b1efdb55573834713944465843ae12aa8972a692c64736f6c63430008140033","opcodes":"PUSH1 0x80 PUSH1 0x40 MSTORE CALLVALUE DUP1 ISZERO PUSH2 0x10 JUMPI PUSH1 0x0 DUP1 REVERT JUMPDEST POP PUSH2 0x330A DUP1 PUSH2 0x20 PUSH1 0x0 CODECOPY PUSH1 0x0 RETURN INVALID PUSH1 0x80 PUSH1 0x40 MSTORE CALLVALUE DUP1 ISZERO PUSH2 0x10 JUMPI PUSH1 0x0 DUP1 REVERT JUMPDEST POP PUSH1 0x4 CALLDATASIZE LT PUSH2 0x1FB JUMPI PUSH1 0x0 CALLDATALOAD PUSH1 0xE0 SHR DUP1 PUSH4 0x6352211E GT PUSH2 0x11A JUMPI DUP1 PUSH4 0xBF4C51AF GT PUSH2 0xAD JUMPI DUP1 PUSH4 0xE49FE3EB GT PUSH2 0x7C JUMPI DUP1 PUSH4 0xE49FE3EB EQ PUSH2 0x439 JUMPI DUP1 PUSH4 0xE985E9C5 EQ PUSH2 0x441 JUMPI DUP1 PUSH4 0xEB473533 EQ PUSH2 0x454 JUMPI DUP1 PUSH4 0xECB2906C EQ PUSH2 0x480 JUMPI DUP1 PUSH4 0xF77A6D33 EQ PUSH2 0x493 JUMPI PUSH1 0x0 DUP1 REVERT JUMPDEST DUP1 PUSH4 0xBF4C51AF EQ PUSH2 0x3F6 JUMPI DUP1 PUSH4 0xC87B56DD EQ PUSH2 0x40A JUMPI DUP1 PUSH4 0xD5ABEB01 EQ PUSH2 0x41D JUMPI DUP1 PUSH4 0xDE5AC3DA EQ PUSH2 0x426 JUMPI PUSH1 0x0 DUP1 REVERT JUMPDEST DUP1 PUSH4 0x893D20E8 GT PUSH2 0xE9 JUMPI DUP1 PUSH4 0x893D20E8 EQ PUSH2 0x3B7 JUMPI DUP1 PUSH4 0x95D89B41 EQ PUSH2 0x3C8 JUMPI DUP1 PUSH4 0xA22CB465 EQ PUSH2 0x3D0 JUMPI DUP1 PUSH4 0xB88D4FDE EQ PUSH2 0x3E3 JUMPI PUSH1 0x0 DUP1 REVERT JUMPDEST DUP1 PUSH4 0x6352211E EQ PUSH2 0x376 JUMPI DUP1 PUSH4 0x70912CC9 EQ PUSH2 0x389 JUMPI DUP1 PUSH4 0x70A08231 EQ PUSH2 0x39C JUMPI DUP1 PUSH4 0x8129FC1C EQ PUSH2 0x3AF JUMPI PUSH1 0x0 DUP1 REVERT JUMPDEST DUP1 PUSH4 0x3C45D706 GT PUSH2 0x192 JUMPI DUP1 PUSH4 0x4FB2E45D GT PUSH2 0x161 JUMPI DUP1 PUSH4 0x4FB2E45D EQ PUSH2 0x31A JUMPI DUP1 PUSH4 0x558A7297 EQ PUSH2 0x32D JUMPI DUP1 PUSH4 0x5DAF08CA EQ PUSH2 0x340 JUMPI DUP1 PUSH4 0x613A5623 EQ PUSH2 0x363 JUMPI PUSH1 0x0 DUP1 REVERT JUMPDEST DUP1 PUSH4 0x3C45D706 EQ PUSH2 0x2CE JUMPI DUP1 PUSH4 0x42842E0E EQ PUSH2 0x2E1 JUMPI DUP1 PUSH4 0x42966C68 EQ PUSH2 0x2F4 JUMPI DUP1 PUSH4 0x4378A6E3 EQ PUSH2 0x307 JUMPI PUSH1 0x0 DUP1 REVERT JUMPDEST DUP1 PUSH4 0x18160DDD GT PUSH2 0x1CE JUMPI DUP1 PUSH4 0x18160DDD EQ PUSH2 0x27D JUMPI DUP1 PUSH4 0x23B872DD EQ PUSH2 0x294 JUMPI DUP1 PUSH4 0x3B263DE7 EQ PUSH2 0x2A7 JUMPI DUP1 PUSH4 0x3BADCC96 EQ PUSH2 0x2BB JUMPI PUSH1 0x0 DUP1 REVERT JUMPDEST DUP1 PUSH4 0x1FFC9A7 EQ PUSH2 0x200 JUMPI DUP1 PUSH4 0x6FDDE03 EQ PUSH2 0x228 JUMPI DUP1 PUSH4 0x81812FC EQ PUSH2 0x23D JUMPI DUP1 PUSH4 0x95EA7B3 EQ PUSH2 0x268 JUMPI JUMPDEST PUSH1 0x0 DUP1 REVERT JUMPDEST PUSH2 0x213 PUSH2 0x20E CALLDATASIZE PUSH1 0x4 PUSH2 0x1FA8 JUMP JUMPDEST PUSH2 0x4A6 JUMP JUMPDEST PUSH1 0x40 MLOAD SWAP1 ISZERO ISZERO DUP2 MSTORE PUSH1 0x20 ADD JUMPDEST PUSH1 0x40 MLOAD DUP1 SWAP2 SUB SWAP1 RETURN JUMPDEST PUSH2 0x230 PUSH2 0x4F8 JUMP JUMPDEST PUSH1 0x40 MLOAD PUSH2 0x21F SWAP2 SWAP1 PUSH2 0x201C JUMP JUMPDEST PUSH2 0x250 PUSH2 0x24B CALLDATASIZE PUSH1 0x4 PUSH2 0x202F JUMP JUMPDEST PUSH2 0x59C JUMP JUMPDEST PUSH1 0x40 MLOAD PUSH1 0x1 PUSH1 0x1 PUSH1 0xA0 SHL SUB SWAP1 SWAP2 AND DUP2 MSTORE PUSH1 0x20 ADD PUSH2 0x21F JUMP JUMPDEST PUSH2 0x27B PUSH2 0x276 CALLDATASIZE PUSH1 0x4 PUSH2 0x2064 JUMP JUMPDEST PUSH2 0x5B1 JUMP JUMPDEST STOP JUMPDEST PUSH2 0x286 PUSH1 0x1 SLOAD DUP2 JUMP JUMPDEST PUSH1 0x40 MLOAD SWAP1 DUP2 MSTORE PUSH1 0x20 ADD PUSH2 0x21F JUMP JUMPDEST PUSH2 0x27B PUSH2 0x2A2 CALLDATASIZE PUSH1 0x4 PUSH2 0x208E JUMP JUMPDEST PUSH2 0x5C0 JUMP JUMPDEST PUSH1 0x3 SLOAD PUSH2 0x213 SWAP1 PUSH1 0x1 PUSH1 0xA8 SHL SWAP1 DIV PUSH1 0xFF AND DUP2 JUMP JUMPDEST PUSH2 0x27B PUSH2 0x2C9 CALLDATASIZE PUSH1 0x4 PUSH2 0x20DC JUMP JUMPDEST PUSH2 0x650 JUMP JUMPDEST PUSH2 0x27B PUSH2 0x2DC CALLDATASIZE PUSH1 0x4 PUSH2 0x2194 JUMP JUMPDEST PUSH2 0x6A2 JUMP JUMPDEST PUSH2 0x27B PUSH2 0x2EF CALLDATASIZE PUSH1 0x4 PUSH2 0x208E JUMP JUMPDEST PUSH2 0x6D2 JUMP JUMPDEST PUSH2 0x27B PUSH2 0x302 CALLDATASIZE PUSH1 0x4 PUSH2 0x202F JUMP JUMPDEST PUSH2 0x6F2 JUMP JUMPDEST PUSH2 0x230 PUSH2 0x315 CALLDATASIZE PUSH1 0x4 PUSH2 0x202F JUMP JUMPDEST PUSH2 0x790 JUMP JUMPDEST PUSH2 0x27B PUSH2 0x328 CALLDATASIZE PUSH1 0x4 PUSH2 0x21DD JUMP JUMPDEST PUSH2 0x9C1 JUMP JUMPDEST PUSH2 0x27B PUSH2 0x33B CALLDATASIZE PUSH1 0x4 PUSH2 0x2208 JUMP JUMPDEST PUSH2 0xA0D JUMP JUMPDEST PUSH2 0x353 PUSH2 0x34E CALLDATASIZE PUSH1 0x4 PUSH2 0x202F JUMP JUMPDEST PUSH2 0xA9A JUMP JUMPDEST PUSH1 0x40 MLOAD PUSH2 0x21F SWAP5 SWAP4 SWAP3 SWAP2 SWAP1 PUSH2 0x2232 JUMP JUMPDEST PUSH2 0x27B PUSH2 0x371 CALLDATASIZE PUSH1 0x4 PUSH2 0x22B3 JUMP JUMPDEST PUSH2 0xB56 JUMP JUMPDEST PUSH2 0x250 PUSH2 0x384 CALLDATASIZE PUSH1 0x4 PUSH2 0x202F JUMP JUMPDEST PUSH2 0xC15 JUMP JUMPDEST PUSH2 0x27B PUSH2 0x397 CALLDATASIZE PUSH1 0x4 PUSH2 0x234D JUMP JUMPDEST PUSH2 0xC20 JUMP JUMPDEST PUSH2 0x286 PUSH2 0x3AA CALLDATASIZE PUSH1 0x4 PUSH2 0x21DD JUMP JUMPDEST PUSH2 0xC67 JUMP JUMPDEST PUSH2 0x27B PUSH2 0xCC3 JUMP JUMPDEST PUSH1 0x3 SLOAD PUSH1 0x1 PUSH1 0x1 PUSH1 0xA0 SHL SUB AND PUSH2 0x250 JUMP JUMPDEST PUSH2 0x230 PUSH2 0xE80 JUMP JUMPDEST PUSH2 0x27B PUSH2 0x3DE CALLDATASIZE PUSH1 0x4 PUSH2 0x2208 JUMP JUMPDEST PUSH2 0xEBF JUMP JUMPDEST PUSH2 0x27B PUSH2 0x3F1 CALLDATASIZE PUSH1 0x4 PUSH2 0x2370 JUMP JUMPDEST PUSH2 0xECA JUMP JUMPDEST PUSH1 0x3 SLOAD PUSH2 0x213 SWAP1 PUSH1 0x1 PUSH1 0xA0 SHL SWAP1 DIV PUSH1 0xFF AND DUP2 JUMP JUMPDEST PUSH2 0x230 PUSH2 0x418 CALLDATASIZE PUSH1 0x4 PUSH2 0x202F JUMP JUMPDEST PUSH2 0xEE1 JUMP JUMPDEST PUSH2 0x286 PUSH1 0x0 SLOAD DUP2 JUMP JUMPDEST PUSH2 0x27B PUSH2 0x434 CALLDATASIZE PUSH1 0x4 PUSH2 0x23EC JUMP JUMPDEST PUSH2 0x10D8 JUMP JUMPDEST PUSH2 0x230 PUSH2 0x111A JUMP JUMPDEST PUSH2 0x213 PUSH2 0x44F CALLDATASIZE PUSH1 0x4 PUSH2 0x2407 JUMP JUMPDEST PUSH2 0x11D0 JUMP JUMPDEST PUSH2 0x213 PUSH2 0x462 CALLDATASIZE PUSH1 0x4 PUSH2 0x21DD JUMP JUMPDEST PUSH1 0x1 PUSH1 0x1 PUSH1 0xA0 SHL SUB AND PUSH1 0x0 SWAP1 DUP2 MSTORE PUSH1 0x5 PUSH1 0x20 MSTORE PUSH1 0x40 SWAP1 KECCAK256 SLOAD PUSH1 0xFF AND SWAP1 JUMP JUMPDEST PUSH2 0x27B PUSH2 0x48E CALLDATASIZE PUSH1 0x4 PUSH2 0x2431 JUMP JUMPDEST PUSH2 0x121D JUMP JUMPDEST PUSH2 0x27B PUSH2 0x4A1 CALLDATASIZE PUSH1 0x4 PUSH2 0x23EC JUMP JUMPDEST PUSH2 0x1476 JUMP JUMPDEST PUSH1 0x0 PUSH1 0x1 PUSH1 0x1 PUSH1 0xE0 SHL SUB NOT DUP3 AND PUSH4 0x80AC58CD PUSH1 0xE0 SHL EQ DUP1 PUSH2 0x4D7 JUMPI POP PUSH1 0x1 PUSH1 0x1 PUSH1 0xE0 SHL SUB NOT DUP3 AND PUSH4 0x5B5E139F PUSH1 0xE0 SHL EQ JUMPDEST DUP1 PUSH2 0x4F2 JUMPI POP PUSH4 0x1FFC9A7 PUSH1 0xE0 SHL PUSH1 0x1 PUSH1 0x1 PUSH1 0xE0 SHL SUB NOT DUP4 AND EQ JUMPDEST SWAP3 SWAP2 POP POP JUMP JUMPDEST PUSH1 0x0 DUP1 MLOAD PUSH1 0x20 PUSH2 0x2F67 DUP4 CODECOPY DUP2 MLOAD SWAP2 MSTORE DUP1 SLOAD PUSH1 0x60 SWAP2 SWAP1 DUP2 SWAP1 PUSH2 0x518 SWAP1 PUSH2 0x24BF JUMP JUMPDEST DUP1 PUSH1 0x1F ADD PUSH1 0x20 DUP1 SWAP2 DIV MUL PUSH1 0x20 ADD PUSH1 0x40 MLOAD SWAP1 DUP2 ADD PUSH1 0x40 MSTORE DUP1 SWAP3 SWAP2 SWAP1 DUP2 DUP2 MSTORE PUSH1 0x20 ADD DUP3 DUP1 SLOAD PUSH2 0x544 SWAP1 PUSH2 0x24BF JUMP JUMPDEST DUP1 ISZERO PUSH2 0x591 JUMPI DUP1 PUSH1 0x1F LT PUSH2 0x566 JUMPI PUSH2 0x100 DUP1 DUP4 SLOAD DIV MUL DUP4 MSTORE SWAP2 PUSH1 0x20 ADD SWAP2 PUSH2 0x591 JUMP JUMPDEST DUP3 ADD SWAP2 SWAP1 PUSH1 0x0 MSTORE PUSH1 0x20 PUSH1 0x0 KECCAK256 SWAP1 JUMPDEST DUP2 SLOAD DUP2 MSTORE SWAP1 PUSH1 0x1 ADD SWAP1 PUSH1 0x20 ADD DUP1 DUP4 GT PUSH2 0x574 JUMPI DUP3 SWAP1 SUB PUSH1 0x1F AND DUP3 ADD SWAP2 JUMPDEST POP POP POP POP POP SWAP2 POP POP SWAP1 JUMP JUMPDEST PUSH1 0x0 PUSH2 0x5A7 DUP3 PUSH2 0x14BE JUMP JUMPDEST POP PUSH2 0x4F2 DUP3 PUSH2 0x14F6 JUMP JUMPDEST PUSH2 0x5BC DUP3 DUP3 CALLER PUSH2 0x1530 JUMP JUMPDEST POP POP JUMP JUMPDEST PUSH1 0x1 PUSH1 0x1 PUSH1 0xA0 SHL SUB DUP3 AND PUSH2 0x5EF JUMPI PUSH1 0x40 MLOAD PUSH4 0x32505749 PUSH1 0xE1 SHL DUP2 MSTORE PUSH1 0x0 PUSH1 0x4 DUP3 ADD MSTORE PUSH1 0x24 ADD JUMPDEST PUSH1 0x40 MLOAD DUP1 SWAP2 SUB SWAP1 REVERT JUMPDEST PUSH1 0x0 PUSH2 0x5FC DUP4 DUP4 CALLER PUSH2 0x153D JUMP JUMPDEST SWAP1 POP DUP4 PUSH1 0x1 PUSH1 0x1 PUSH1 0xA0 SHL SUB AND DUP2 PUSH1 0x1 PUSH1 0x1 PUSH1 0xA0 SHL SUB AND EQ PUSH2 0x64A JUMPI PUSH1 0x40 MLOAD PUSH4 0x64283D7B PUSH1 0xE0 SHL DUP2 MSTORE PUSH1 0x1 PUSH1 0x1 PUSH1 0xA0 SHL SUB DUP1 DUP7 AND PUSH1 0x4 DUP4 ADD MSTORE PUSH1 0x24 DUP3 ADD DUP5 SWAP1 MSTORE DUP3 AND PUSH1 0x44 DUP3 ADD MSTORE PUSH1 0x64 ADD PUSH2 0x5E6 JUMP JUMPDEST POP POP POP POP JUMP JUMPDEST PUSH2 0x658 PUSH2 0x162E JUMP JUMPDEST PUSH2 0x674 JUMPI PUSH1 0x40 MLOAD PUSH3 0x461BCD PUSH1 0xE5 SHL DUP2 MSTORE PUSH1 0x4 ADD PUSH2 0x5E6 SWAP1 PUSH2 0x24F9 JUMP JUMPDEST PUSH1 0x0 SWAP2 DUP3 MSTORE PUSH1 0x6 PUSH1 0x20 MSTORE PUSH1 0x40 SWAP1 SWAP2 KECCAK256 PUSH1 0x1 ADD DUP1 SLOAD PUSH2 0xFFFF SWAP1 SWAP3 AND PUSH2 0x100 MUL PUSH3 0xFFFF00 NOT SWAP1 SWAP3 AND SWAP2 SWAP1 SWAP2 OR SWAP1 SSTORE JUMP JUMPDEST PUSH2 0x6AA PUSH2 0x162E JUMP JUMPDEST PUSH2 0x6C6 JUMPI PUSH1 0x40 MLOAD PUSH3 0x461BCD PUSH1 0xE5 SHL DUP2 MSTORE PUSH1 0x4 ADD PUSH2 0x5E6 SWAP1 PUSH2 0x24F9 JUMP JUMPDEST PUSH1 0x4 PUSH2 0x5BC DUP3 DUP3 PUSH2 0x257E JUMP JUMPDEST PUSH2 0x6ED DUP4 DUP4 DUP4 PUSH1 0x40 MLOAD DUP1 PUSH1 0x20 ADD PUSH1 0x40 MSTORE DUP1 PUSH1 0x0 DUP2 MSTORE POP PUSH2 0xECA JUMP JUMPDEST POP POP POP JUMP JUMPDEST CALLER PUSH2 0x6FC DUP3 PUSH2 0xC15 JUMP JUMPDEST PUSH1 0x1 PUSH1 0x1 PUSH1 0xA0 SHL SUB AND EQ PUSH2 0x76F JUMPI PUSH1 0x40 MLOAD PUSH3 0x461BCD PUSH1 0xE5 SHL DUP2 MSTORE PUSH1 0x20 PUSH1 0x4 DUP3 ADD MSTORE PUSH1 0x34 PUSH1 0x24 DUP3 ADD MSTORE PUSH32 0x4D656D626572736869703A204F6E6C7920746865206F776E6572206F66207468 PUSH1 0x44 DUP3 ADD MSTORE PUSH20 0x32903A37B5B2B71031B0B710313AB9371034BA17 PUSH1 0x61 SHL PUSH1 0x64 DUP3 ADD MSTORE PUSH1 0x84 ADD PUSH2 0x5E6 JUMP JUMPDEST PUSH2 0x778 DUP2 PUSH2 0x166A JUMP JUMPDEST PUSH1 0x1 DUP1 SLOAD SWAP1 PUSH1 0x0 PUSH2 0x788 DUP4 PUSH2 0x2654 JUMP JUMPDEST SWAP2 SWAP1 POP SSTORE POP POP JUMP JUMPDEST PUSH1 0x0 DUP2 DUP2 MSTORE PUSH1 0x6 PUSH1 0x20 MSTORE PUSH1 0x40 DUP2 KECCAK256 PUSH1 0x2 ADD DUP1 SLOAD PUSH1 0x60 SWAP3 SWAP2 SWAP1 PUSH2 0x7B1 SWAP1 PUSH2 0x24BF JUMP JUMPDEST DUP1 PUSH1 0x1F ADD PUSH1 0x20 DUP1 SWAP2 DIV MUL PUSH1 0x20 ADD PUSH1 0x40 MLOAD SWAP1 DUP2 ADD PUSH1 0x40 MSTORE DUP1 SWAP3 SWAP2 SWAP1 DUP2 DUP2 MSTORE PUSH1 0x20 ADD DUP3 DUP1 SLOAD PUSH2 0x7DD SWAP1 PUSH2 0x24BF JUMP JUMPDEST DUP1 ISZERO PUSH2 0x82A JUMPI DUP1 PUSH1 0x1F LT PUSH2 0x7FF JUMPI PUSH2 0x100 DUP1 DUP4 SLOAD DIV MUL DUP4 MSTORE SWAP2 PUSH1 0x20 ADD SWAP2 PUSH2 0x82A JUMP JUMPDEST DUP3 ADD SWAP2 SWAP1 PUSH1 0x0 MSTORE PUSH1 0x20 PUSH1 0x0 KECCAK256 SWAP1 JUMPDEST DUP2 SLOAD DUP2 MSTORE SWAP1 PUSH1 0x1 ADD SWAP1 PUSH1 0x20 ADD DUP1 DUP4 GT PUSH2 0x80D JUMPI DUP3 SWAP1 SUB PUSH1 0x1F AND DUP3 ADD SWAP2 JUMPDEST POP POP POP POP POP SWAP1 POP PUSH1 0x40 MLOAD PUSH1 0x20 ADD PUSH2 0x85B SWAP1 PUSH20 0x6B6D6D5F6D656D626572736869705F612E6A7067 PUSH1 0x60 SHL DUP2 MSTORE PUSH1 0x14 ADD SWAP1 JUMP JUMPDEST PUSH1 0x40 MLOAD PUSH1 0x20 DUP2 DUP4 SUB SUB DUP2 MSTORE SWAP1 PUSH1 0x40 MSTORE DUP1 MLOAD SWAP1 PUSH1 0x20 ADD KECCAK256 DUP2 PUSH1 0x40 MLOAD PUSH1 0x20 ADD PUSH2 0x882 SWAP2 SWAP1 PUSH2 0x2687 JUMP JUMPDEST PUSH1 0x40 MLOAD PUSH1 0x20 DUP2 DUP4 SUB SUB DUP2 MSTORE SWAP1 PUSH1 0x40 MSTORE DUP1 MLOAD SWAP1 PUSH1 0x20 ADD KECCAK256 SUB PUSH2 0x8C3 JUMPI PUSH1 0x40 MLOAD PUSH1 0x20 ADD PUSH2 0x8AC SWAP1 PUSH2 0x26F2 JUMP JUMPDEST PUSH1 0x40 MLOAD PUSH1 0x20 DUP2 DUP4 SUB SUB DUP2 MSTORE SWAP1 PUSH1 0x40 MSTORE SWAP2 POP POP SWAP2 SWAP1 POP JUMP JUMPDEST PUSH1 0x40 MLOAD PUSH20 0x6B6D6D5F6D656D626572736869705F622E6A7067 PUSH1 0x60 SHL PUSH1 0x20 DUP3 ADD MSTORE PUSH1 0x34 ADD PUSH1 0x40 MLOAD PUSH1 0x20 DUP2 DUP4 SUB SUB DUP2 MSTORE SWAP1 PUSH1 0x40 MSTORE DUP1 MLOAD SWAP1 PUSH1 0x20 ADD KECCAK256 DUP2 PUSH1 0x40 MLOAD PUSH1 0x20 ADD PUSH2 0x90D SWAP2 SWAP1 PUSH2 0x2687 JUMP JUMPDEST PUSH1 0x40 MLOAD PUSH1 0x20 DUP2 DUP4 SUB SUB DUP2 MSTORE SWAP1 PUSH1 0x40 MSTORE DUP1 MLOAD SWAP1 PUSH1 0x20 ADD KECCAK256 SUB PUSH2 0x937 JUMPI PUSH1 0x40 MLOAD PUSH1 0x20 ADD PUSH2 0x8AC SWAP1 PUSH2 0x2821 JUMP JUMPDEST PUSH1 0x40 MLOAD PUSH20 0x6B6D6D5F6D656D626572736869705F632E6A7067 PUSH1 0x60 SHL PUSH1 0x20 DUP3 ADD MSTORE PUSH1 0x34 ADD PUSH1 0x40 MLOAD PUSH1 0x20 DUP2 DUP4 SUB SUB DUP2 MSTORE SWAP1 PUSH1 0x40 MSTORE DUP1 MLOAD SWAP1 PUSH1 0x20 ADD KECCAK256 DUP2 PUSH1 0x40 MLOAD PUSH1 0x20 ADD PUSH2 0x981 SWAP2 SWAP1 PUSH2 0x2687 JUMP JUMPDEST PUSH1 0x40 MLOAD PUSH1 0x20 DUP2 DUP4 SUB SUB DUP2 MSTORE SWAP1 PUSH1 0x40 MSTORE DUP1 MLOAD SWAP1 PUSH1 0x20 ADD KECCAK256 SUB PUSH2 0x9AB JUMPI PUSH1 0x40 MLOAD PUSH1 0x20 ADD PUSH2 0x8AC SWAP1 PUSH2 0x2949 JUMP JUMPDEST POP POP PUSH1 0x40 DUP1 MLOAD PUSH1 0x20 DUP2 ADD SWAP1 SWAP2 MSTORE PUSH1 0x0 DUP2 MSTORE SWAP2 SWAP1 POP JUMP JUMPDEST PUSH1 0x3 SLOAD PUSH1 0x1 PUSH1 0x1 PUSH1 0xA0 SHL SUB AND CALLER EQ PUSH2 0x9EB JUMPI PUSH1 0x40 MLOAD PUSH3 0x461BCD PUSH1 0xE5 SHL DUP2 MSTORE PUSH1 0x4 ADD PUSH2 0x5E6 SWAP1 PUSH2 0x2BB9 JUMP JUMPDEST PUSH1 0x3 DUP1 SLOAD PUSH1 0x1 PUSH1 0x1 PUSH1 0xA0 SHL SUB NOT AND PUSH1 0x1 PUSH1 0x1 PUSH1 0xA0 SHL SUB SWAP3 SWAP1 SWAP3 AND SWAP2 SWAP1 SWAP2 OR SWAP1 SSTORE JUMP JUMPDEST PUSH1 0x3 SLOAD PUSH1 0x1 PUSH1 0x1 PUSH1 0xA0 SHL SUB AND CALLER EQ PUSH2 0xA37 JUMPI PUSH1 0x40 MLOAD PUSH3 0x461BCD PUSH1 0xE5 SHL DUP2 MSTORE PUSH1 0x4 ADD PUSH2 0x5E6 SWAP1 PUSH2 0x2BB9 JUMP JUMPDEST PUSH1 0x1 PUSH1 0x1 PUSH1 0xA0 SHL SUB DUP3 AND PUSH1 0x0 DUP2 DUP2 MSTORE PUSH1 0x5 PUSH1 0x20 SWAP1 DUP2 MSTORE PUSH1 0x40 SWAP2 DUP3 SWAP1 KECCAK256 DUP1 SLOAD PUSH1 0xFF NOT AND DUP6 ISZERO ISZERO SWAP1 DUP2 OR SWAP1 SWAP2 SSTORE DUP3 MLOAD SWAP4 DUP5 MSTORE SWAP1 DUP4 ADD MSTORE PUSH32 0x1618A22A3B00B9AC70FD5A82F1F5CDD8CB272BD0F1B740DDF7C26AB05881DD5B SWAP2 ADD PUSH1 0x40 MLOAD DUP1 SWAP2 SUB SWAP1 LOG1 POP POP JUMP JUMPDEST PUSH1 0x6 PUSH1 0x20 MSTORE PUSH1 0x0 SWAP1 DUP2 MSTORE PUSH1 0x40 SWAP1 KECCAK256 DUP1 SLOAD PUSH1 0x1 DUP3 ADD SLOAD PUSH1 0x2 DUP4 ADD DUP1 SLOAD SWAP3 SWAP4 PUSH1 0xFF DUP4 AND SWAP4 PUSH2 0x100 SWAP1 SWAP4 DIV PUSH2 0xFFFF AND SWAP3 SWAP1 SWAP2 SWAP1 PUSH2 0xAD3 SWAP1 PUSH2 0x24BF JUMP JUMPDEST DUP1 PUSH1 0x1F ADD PUSH1 0x20 DUP1 SWAP2 DIV MUL PUSH1 0x20 ADD PUSH1 0x40 MLOAD SWAP1 DUP2 ADD PUSH1 0x40 MSTORE DUP1 SWAP3 SWAP2 SWAP1 DUP2 DUP2 MSTORE PUSH1 0x20 ADD DUP3 DUP1 SLOAD PUSH2 0xAFF SWAP1 PUSH2 0x24BF JUMP JUMPDEST DUP1 ISZERO PUSH2 0xB4C JUMPI DUP1 PUSH1 0x1F LT PUSH2 0xB21 JUMPI PUSH2 0x100 DUP1 DUP4 SLOAD DIV MUL DUP4 MSTORE SWAP2 PUSH1 0x20 ADD SWAP2 PUSH2 0xB4C JUMP JUMPDEST DUP3 ADD SWAP2 SWAP1 PUSH1 0x0 MSTORE PUSH1 0x20 PUSH1 0x0 KECCAK256 SWAP1 JUMPDEST DUP2 SLOAD DUP2 MSTORE SWAP1 PUSH1 0x1 ADD SWAP1 PUSH1 0x20 ADD DUP1 DUP4 GT PUSH2 0xB2F JUMPI DUP3 SWAP1 SUB PUSH1 0x1F AND DUP3 ADD SWAP2 JUMPDEST POP POP POP POP POP SWAP1 POP DUP5 JUMP JUMPDEST PUSH2 0xB5E PUSH2 0x162E JUMP JUMPDEST PUSH2 0xB7A JUMPI PUSH1 0x40 MLOAD PUSH3 0x461BCD PUSH1 0xE5 SHL DUP2 MSTORE PUSH1 0x4 ADD PUSH2 0x5E6 SWAP1 PUSH2 0x24F9 JUMP JUMPDEST PUSH1 0x0 JUMPDEST DUP6 DUP2 LT ISZERO PUSH2 0xC0C JUMPI PUSH2 0xBFA DUP8 DUP8 DUP4 DUP2 DUP2 LT PUSH2 0xB9A JUMPI PUSH2 0xB9A PUSH2 0x2BF0 JUMP JUMPDEST SWAP1 POP PUSH1 0x20 MUL ADD PUSH1 0x20 DUP2 ADD SWAP1 PUSH2 0xBAF SWAP2 SWAP1 PUSH2 0x21DD JUMP JUMPDEST DUP7 DUP7 DUP5 DUP2 DUP2 LT PUSH2 0xBC1 JUMPI PUSH2 0xBC1 PUSH2 0x2BF0 JUMP JUMPDEST SWAP1 POP PUSH1 0x20 MUL ADD PUSH1 0x20 DUP2 ADD SWAP1 PUSH2 0xBD6 SWAP2 SWAP1 PUSH2 0x2C06 JUMP JUMPDEST DUP6 DUP6 DUP6 DUP2 DUP2 LT PUSH2 0xBE8 JUMPI PUSH2 0xBE8 PUSH2 0x2BF0 JUMP JUMPDEST SWAP1 POP PUSH1 0x20 MUL DUP2 ADD SWAP1 PUSH2 0x48E SWAP2 SWAP1 PUSH2 0x2C21 JUMP JUMPDEST DUP1 PUSH2 0xC04 DUP2 PUSH2 0x2C68 JUMP JUMPDEST SWAP2 POP POP PUSH2 0xB7D JUMP JUMPDEST POP POP POP POP POP POP POP JUMP JUMPDEST PUSH1 0x0 PUSH2 0x4F2 DUP3 PUSH2 0x14BE JUMP JUMPDEST PUSH2 0xC28 PUSH2 0x162E JUMP JUMPDEST PUSH2 0xC44 JUMPI PUSH1 0x40 MLOAD PUSH3 0x461BCD PUSH1 0xE5 SHL DUP2 MSTORE PUSH1 0x4 ADD PUSH2 0x5E6 SWAP1 PUSH2 0x24F9 JUMP JUMPDEST PUSH1 0x0 SWAP2 DUP3 MSTORE PUSH1 0x6 PUSH1 0x20 MSTORE PUSH1 0x40 SWAP1 SWAP2 KECCAK256 PUSH1 0x1 ADD DUP1 SLOAD PUSH1 0xFF NOT AND SWAP2 ISZERO ISZERO SWAP2 SWAP1 SWAP2 OR SWAP1 SSTORE JUMP JUMPDEST PUSH1 0x0 PUSH1 0x0 DUP1 MLOAD PUSH1 0x20 PUSH2 0x2F67 DUP4 CODECOPY DUP2 MLOAD SWAP2 MSTORE PUSH1 0x1 PUSH1 0x1 PUSH1 0xA0 SHL SUB DUP4 AND PUSH2 0xCA2 JUMPI PUSH1 0x40 MLOAD PUSH4 0x22718AD9 PUSH1 0xE2 SHL DUP2 MSTORE PUSH1 0x0 PUSH1 0x4 DUP3 ADD MSTORE PUSH1 0x24 ADD PUSH2 0x5E6 JUMP JUMPDEST PUSH1 0x1 PUSH1 0x1 PUSH1 0xA0 SHL SUB SWAP1 SWAP3 AND PUSH1 0x0 SWAP1 DUP2 MSTORE PUSH1 0x3 SWAP1 SWAP3 ADD PUSH1 0x20 MSTORE POP PUSH1 0x40 SWAP1 KECCAK256 SLOAD SWAP1 JUMP JUMPDEST PUSH32 0xF0C57E16840DF040F15088DC2F81FE391C3923BEC73E23A9662EFC9C229C6A00 DUP1 SLOAD PUSH1 0x1 PUSH1 0x40 SHL DUP2 DIV PUSH1 0xFF AND ISZERO SWAP1 PUSH8 0xFFFFFFFFFFFFFFFF AND PUSH1 0x0 DUP2 ISZERO DUP1 ISZERO PUSH2 0xD09 JUMPI POP DUP3 JUMPDEST SWAP1 POP PUSH1 0x0 DUP3 PUSH8 0xFFFFFFFFFFFFFFFF AND PUSH1 0x1 EQ DUP1 ISZERO PUSH2 0xD26 JUMPI POP ADDRESS EXTCODESIZE ISZERO JUMPDEST SWAP1 POP DUP2 ISZERO DUP1 ISZERO PUSH2 0xD34 JUMPI POP DUP1 ISZERO JUMPDEST ISZERO PUSH2 0xD52 JUMPI PUSH1 0x40 MLOAD PUSH4 0xF92EE8A9 PUSH1 0xE0 SHL DUP2 MSTORE PUSH1 0x4 ADD PUSH1 0x40 MLOAD DUP1 SWAP2 SUB SWAP1 REVERT JUMPDEST DUP5 SLOAD PUSH8 0xFFFFFFFFFFFFFFFF NOT AND PUSH1 0x1 OR DUP6 SSTORE DUP4 ISZERO PUSH2 0xD7C JUMPI DUP5 SLOAD PUSH1 0xFF PUSH1 0x40 SHL NOT AND PUSH1 0x1 PUSH1 0x40 SHL OR DUP6 SSTORE JUMPDEST PUSH2 0xDC4 PUSH1 0x40 MLOAD DUP1 PUSH1 0x60 ADD PUSH1 0x40 MSTORE DUP1 PUSH1 0x27 DUP2 MSTORE PUSH1 0x20 ADD PUSH2 0x2FE7 PUSH1 0x27 SWAP2 CODECOPY PUSH1 0x40 MLOAD DUP1 PUSH1 0x40 ADD PUSH1 0x40 MSTORE DUP1 PUSH1 0xE DUP2 MSTORE PUSH1 0x20 ADD PUSH14 0x4B4D4D2D4D656D6265727368697 PUSH1 0x94 SHL DUP2 MSTORE POP PUSH2 0x16A5 JUMP JUMPDEST PUSH1 0x3 DUP1 SLOAD PUSH1 0x1 PUSH1 0x1 PUSH1 0xA0 SHL SUB NOT AND CALLER SWAP1 DUP2 OR SWAP1 SWAP2 SSTORE PUSH1 0x0 SWAP1 DUP2 MSTORE PUSH1 0x5 PUSH1 0x20 SWAP1 DUP2 MSTORE PUSH1 0x40 SWAP2 DUP3 SWAP1 KECCAK256 DUP1 SLOAD PUSH1 0xFF NOT AND PUSH1 0x1 OR SWAP1 SSTORE DUP2 MLOAD PUSH1 0x80 DUP2 ADD SWAP1 SWAP3 MSTORE PUSH1 0x4F DUP1 DUP4 MSTORE SWAP1 PUSH2 0x3286 SWAP1 DUP4 ADD CODECOPY PUSH1 0x4 SWAP1 PUSH2 0xE19 SWAP1 DUP3 PUSH2 0x257E JUMP JUMPDEST POP PUSH2 0x2710 PUSH1 0x0 SSTORE PUSH1 0x3 DUP1 SLOAD PUSH1 0xFF PUSH1 0xA8 SHL NOT AND PUSH1 0x1 PUSH1 0xA8 SHL OR SWAP1 SSTORE DUP4 ISZERO PUSH2 0xE79 JUMPI DUP5 SLOAD PUSH1 0xFF PUSH1 0x40 SHL NOT AND DUP6 SSTORE PUSH1 0x40 MLOAD PUSH1 0x1 DUP2 MSTORE PUSH32 0xC7F505B2F371AE2175EE4913F4499E1F2633A7B5936321EED1CDAEB6115181D2 SWAP1 PUSH1 0x20 ADD PUSH1 0x40 MLOAD DUP1 SWAP2 SUB SWAP1 LOG1 JUMPDEST POP POP POP POP POP JUMP JUMPDEST PUSH32 0x80BB2B638CC20BC4D0A60D66940F3AB4A00C1D7B313497CA82FB0B4AB0079301 DUP1 SLOAD PUSH1 0x60 SWAP2 PUSH1 0x0 DUP1 MLOAD PUSH1 0x20 PUSH2 0x2F67 DUP4 CODECOPY DUP2 MLOAD SWAP2 MSTORE SWAP2 PUSH2 0x518 SWAP1 PUSH2 0x24BF JUMP JUMPDEST PUSH2 0x5BC CALLER DUP4 DUP4 PUSH2 0x16B7 JUMP JUMPDEST PUSH2 0xED5 DUP5 DUP5 DUP5 PUSH2 0x5C0 JUMP JUMPDEST PUSH2 0x64A DUP5 DUP5 DUP5 DUP5 PUSH2 0x1768 JUMP JUMPDEST PUSH1 0x60 PUSH2 0xEEC DUP3 PUSH2 0x188A JUMP JUMPDEST PUSH2 0xF43 JUMPI PUSH1 0x40 MLOAD PUSH3 0x461BCD PUSH1 0xE5 SHL DUP2 MSTORE PUSH1 0x20 PUSH1 0x4 DUP3 ADD MSTORE PUSH1 0x22 PUSH1 0x24 DUP3 ADD MSTORE PUSH32 0x4D656D626572736869703A20546F6B656E4964206E6F74206D696E7465642079 PUSH1 0x44 DUP3 ADD MSTORE PUSH2 0x195D PUSH1 0xF2 SHL PUSH1 0x64 DUP3 ADD MSTORE PUSH1 0x84 ADD PUSH2 0x5E6 JUMP JUMPDEST PUSH1 0x0 DUP3 DUP2 MSTORE PUSH1 0x6 PUSH1 0x20 SWAP1 DUP2 MSTORE PUSH1 0x40 DUP1 DUP4 KECCAK256 DUP2 MLOAD PUSH1 0x80 DUP2 ADD DUP4 MSTORE DUP2 SLOAD DUP2 MSTORE PUSH1 0x1 DUP3 ADD SLOAD PUSH1 0xFF DUP2 AND ISZERO ISZERO SWAP5 DUP3 ADD SWAP5 SWAP1 SWAP5 MSTORE PUSH2 0x100 SWAP1 SWAP4 DIV PUSH2 0xFFFF AND SWAP2 DUP4 ADD SWAP2 SWAP1 SWAP2 MSTORE PUSH1 0x2 DUP2 ADD DUP1 SLOAD PUSH1 0x60 DUP5 ADD SWAP2 SWAP1 PUSH2 0xF98 SWAP1 PUSH2 0x24BF JUMP JUMPDEST DUP1 PUSH1 0x1F ADD PUSH1 0x20 DUP1 SWAP2 DIV MUL PUSH1 0x20 ADD PUSH1 0x40 MLOAD SWAP1 DUP2 ADD PUSH1 0x40 MSTORE DUP1 SWAP3 SWAP2 SWAP1 DUP2 DUP2 MSTORE PUSH1 0x20 ADD DUP3 DUP1 SLOAD PUSH2 0xFC4 SWAP1 PUSH2 0x24BF JUMP JUMPDEST DUP1 ISZERO PUSH2 0x1011 JUMPI DUP1 PUSH1 0x1F LT PUSH2 0xFE6 JUMPI PUSH2 0x100 DUP1 DUP4 SLOAD DIV MUL DUP4 MSTORE SWAP2 PUSH1 0x20 ADD SWAP2 PUSH2 0x1011 JUMP JUMPDEST DUP3 ADD SWAP2 SWAP1 PUSH1 0x0 MSTORE PUSH1 0x20 PUSH1 0x0 KECCAK256 SWAP1 JUMPDEST DUP2 SLOAD DUP2 MSTORE SWAP1 PUSH1 0x1 ADD SWAP1 PUSH1 0x20 ADD DUP1 DUP4 GT PUSH2 0xFF4 JUMPI DUP3 SWAP1 SUB PUSH1 0x1F AND DUP3 ADD SWAP2 JUMPDEST POP POP POP POP POP DUP2 MSTORE POP POP SWAP1 POP PUSH1 0x0 PUSH1 0x4 DUP3 PUSH1 0x60 ADD MLOAD PUSH1 0x40 MLOAD PUSH1 0x20 ADD PUSH2 0x1036 SWAP3 SWAP2 SWAP1 PUSH2 0x2C81 JUMP JUMPDEST PUSH1 0x40 MLOAD PUSH1 0x20 DUP2 DUP4 SUB SUB DUP2 MSTORE SWAP1 PUSH1 0x40 MSTORE SWAP1 POP PUSH1 0x0 PUSH2 0x1051 PUSH2 0x18B4 JUMP JUMPDEST SWAP1 POP PUSH1 0x0 PUSH2 0x105E DUP7 PUSH2 0x790 JUMP JUMPDEST SWAP1 POP PUSH1 0x0 PUSH2 0x10AA PUSH2 0x106E DUP9 PUSH2 0x18DA JUMP JUMPDEST DUP5 DUP7 PUSH2 0x1081 DUP10 PUSH1 0x40 ADD MLOAD PUSH2 0xFFFF AND PUSH2 0x18DA JUMP JUMPDEST DUP7 PUSH1 0x40 MLOAD PUSH1 0x20 ADD PUSH2 0x1096 SWAP6 SWAP5 SWAP4 SWAP3 SWAP2 SWAP1 PUSH2 0x2D08 JUMP JUMPDEST PUSH1 0x40 MLOAD PUSH1 0x20 DUP2 DUP4 SUB SUB DUP2 MSTORE SWAP1 PUSH1 0x40 MSTORE PUSH2 0x19DB JUMP JUMPDEST SWAP1 POP DUP1 PUSH1 0x40 MLOAD PUSH1 0x20 ADD PUSH2 0x10BD SWAP2 SWAP1 PUSH2 0x2E36 JUMP JUMPDEST PUSH1 0x40 MLOAD PUSH1 0x20 DUP2 DUP4 SUB SUB DUP2 MSTORE SWAP1 PUSH1 0x40 MSTORE SWAP6 POP POP POP POP POP POP SWAP2 SWAP1 POP JUMP JUMPDEST PUSH2 0x10E0 PUSH2 0x162E JUMP JUMPDEST PUSH2 0x10FC JUMPI PUSH1 0x40 MLOAD PUSH3 0x461BCD PUSH1 0xE5 SHL DUP2 MSTORE PUSH1 0x4 ADD PUSH2 0x5E6 SWAP1 PUSH2 0x24F9 JUMP JUMPDEST PUSH1 0x3 DUP1 SLOAD SWAP2 ISZERO ISZERO PUSH1 0x1 PUSH1 0xA0 SHL MUL PUSH1 0xFF PUSH1 0xA0 SHL NOT SWAP1 SWAP3 AND SWAP2 SWAP1 SWAP2 OR SWAP1 SSTORE JUMP JUMPDEST PUSH1 0x60 PUSH2 0x1124 PUSH2 0x162E JUMP JUMPDEST PUSH2 0x1140 JUMPI PUSH1 0x40 MLOAD PUSH3 0x461BCD PUSH1 0xE5 SHL DUP2 MSTORE PUSH1 0x4 ADD PUSH2 0x5E6 SWAP1 PUSH2 0x24F9 JUMP JUMPDEST PUSH1 0x4 DUP1 SLOAD PUSH2 0x114D SWAP1 PUSH2 0x24BF JUMP JUMPDEST DUP1 PUSH1 0x1F ADD PUSH1 0x20 DUP1 SWAP2 DIV MUL PUSH1 0x20 ADD PUSH1 0x40 MLOAD SWAP1 DUP2 ADD PUSH1 0x40 MSTORE DUP1 SWAP3 SWAP2 SWAP1 DUP2 DUP2 MSTORE PUSH1 0x20 ADD DUP3 DUP1 SLOAD PUSH2 0x1179 SWAP1 PUSH2 0x24BF JUMP JUMPDEST DUP1 ISZERO PUSH2 0x11C6 JUMPI DUP1 PUSH1 0x1F LT PUSH2 0x119B JUMPI PUSH2 0x100 DUP1 DUP4 SLOAD DIV MUL DUP4 MSTORE SWAP2 PUSH1 0x20 ADD SWAP2 PUSH2 0x11C6 JUMP JUMPDEST DUP3 ADD SWAP2 SWAP1 PUSH1 0x0 MSTORE PUSH1 0x20 PUSH1 0x0 KECCAK256 SWAP1 JUMPDEST DUP2 SLOAD DUP2 MSTORE SWAP1 PUSH1 0x1 ADD SWAP1 PUSH1 0x20 ADD DUP1 DUP4 GT PUSH2 0x11A9 JUMPI DUP3 SWAP1 SUB PUSH1 0x1F AND DUP3 ADD SWAP2 JUMPDEST POP POP POP POP POP SWAP1 POP SWAP1 JUMP JUMPDEST PUSH1 0x1 PUSH1 0x1 PUSH1 0xA0 SHL SUB SWAP2 DUP3 AND PUSH1 0x0 SWAP1 DUP2 MSTORE PUSH32 0x80BB2B638CC20BC4D0A60D66940F3AB4A00C1D7B313497CA82FB0B4AB0079305 PUSH1 0x20 SWAP1 DUP2 MSTORE PUSH1 0x40 DUP1 DUP4 KECCAK256 SWAP4 SWAP1 SWAP5 AND DUP3 MSTORE SWAP2 SWAP1 SWAP2 MSTORE KECCAK256 SLOAD PUSH1 0xFF AND SWAP1 JUMP JUMPDEST PUSH2 0x1225 PUSH2 0x162E JUMP JUMPDEST PUSH2 0x1241 JUMPI PUSH1 0x40 MLOAD PUSH3 0x461BCD PUSH1 0xE5 SHL DUP2 MSTORE PUSH1 0x4 ADD PUSH2 0x5E6 SWAP1 PUSH2 0x24F9 JUMP JUMPDEST PUSH1 0x0 SLOAD PUSH1 0x2 SLOAD LT PUSH2 0x12A5 JUMPI PUSH1 0x40 MLOAD PUSH3 0x461BCD PUSH1 0xE5 SHL DUP2 MSTORE PUSH1 0x20 PUSH1 0x4 DUP3 ADD MSTORE PUSH1 0x28 PUSH1 0x24 DUP3 ADD MSTORE PUSH32 0x4D656D626572736869703A206D696E74696E6720636F756E74206F766572206D PUSH1 0x44 DUP3 ADD MSTORE PUSH8 0x6178537570706C79 PUSH1 0xC0 SHL PUSH1 0x64 DUP3 ADD MSTORE PUSH1 0x84 ADD PUSH2 0x5E6 JUMP JUMPDEST PUSH1 0x3 SLOAD PUSH1 0x1 PUSH1 0xA8 SHL SWAP1 DIV PUSH1 0xFF AND ISZERO ISZERO PUSH1 0x1 SUB PUSH2 0x1326 JUMPI PUSH2 0x12C4 DUP5 PUSH2 0xC67 JUMP JUMPDEST ISZERO PUSH2 0x1326 JUMPI PUSH1 0x40 MLOAD PUSH3 0x461BCD PUSH1 0xE5 SHL DUP2 MSTORE PUSH1 0x20 PUSH1 0x4 DUP3 ADD MSTORE PUSH1 0x2C PUSH1 0x24 DUP3 ADD MSTORE PUSH32 0x4D656D626572736869703A206F6E6C79206F6E65204E46542070657220616464 PUSH1 0x44 DUP3 ADD MSTORE PUSH12 0x1C995CDCC8185B1B1BDDD959 PUSH1 0xA2 SHL PUSH1 0x64 DUP3 ADD MSTORE PUSH1 0x84 ADD PUSH2 0x5E6 JUMP JUMPDEST PUSH1 0x2 DUP1 SLOAD SWAP1 PUSH1 0x0 PUSH2 0x1336 DUP4 PUSH2 0x2C68 JUMP JUMPDEST SWAP2 SWAP1 POP SSTORE POP PUSH1 0x0 PUSH1 0x40 MLOAD DUP1 PUSH1 0x80 ADD PUSH1 0x40 MSTORE DUP1 PUSH1 0x2 SLOAD DUP2 MSTORE PUSH1 0x20 ADD PUSH1 0x0 ISZERO ISZERO DUP2 MSTORE PUSH1 0x20 ADD DUP6 PUSH2 0xFFFF AND DUP2 MSTORE PUSH1 0x20 ADD DUP5 DUP5 DUP1 DUP1 PUSH1 0x1F ADD PUSH1 0x20 DUP1 SWAP2 DIV MUL PUSH1 0x20 ADD PUSH1 0x40 MLOAD SWAP1 DUP2 ADD PUSH1 0x40 MSTORE DUP1 SWAP4 SWAP3 SWAP2 SWAP1 DUP2 DUP2 MSTORE PUSH1 0x20 ADD DUP4 DUP4 DUP1 DUP3 DUP5 CALLDATACOPY PUSH1 0x0 SWAP3 ADD DUP3 SWAP1 MSTORE POP SWAP4 SWAP1 SWAP5 MSTORE POP POP PUSH1 0x2 DUP1 SLOAD DUP3 MSTORE PUSH1 0x6 PUSH1 0x20 SWAP1 DUP2 MSTORE PUSH1 0x40 SWAP3 DUP4 SWAP1 KECCAK256 DUP6 MLOAD DUP2 SSTORE SWAP1 DUP6 ADD MLOAD PUSH1 0x1 DUP3 ADD DUP1 SLOAD SWAP5 DUP8 ADD MLOAD PUSH2 0xFFFF AND PUSH2 0x100 MUL PUSH3 0xFFFF00 NOT SWAP3 ISZERO ISZERO SWAP3 SWAP1 SWAP3 AND PUSH3 0xFFFFFF NOT SWAP1 SWAP6 AND SWAP5 SWAP1 SWAP5 OR OR SWAP1 SWAP3 SSTORE PUSH1 0x60 DUP5 ADD MLOAD SWAP4 SWAP5 POP DUP5 SWAP4 SWAP2 SWAP3 POP DUP3 ADD SWAP1 PUSH2 0x13FE SWAP1 DUP3 PUSH2 0x257E JUMP JUMPDEST POP SWAP1 POP POP PUSH2 0x140E DUP6 PUSH1 0x2 SLOAD PUSH2 0x1B45 JUMP JUMPDEST PUSH2 0x145A JUMPI PUSH1 0x40 MLOAD PUSH3 0x461BCD PUSH1 0xE5 SHL DUP2 MSTORE PUSH1 0x20 PUSH1 0x4 DUP3 ADD MSTORE PUSH1 0x1E PUSH1 0x24 DUP3 ADD MSTORE PUSH32 0x4D656D626572736869702D4E46543A206D696E74696E67206661696C65640000 PUSH1 0x44 DUP3 ADD MSTORE PUSH1 0x64 ADD PUSH2 0x5E6 JUMP JUMPDEST PUSH1 0x1 DUP1 SLOAD SWAP1 PUSH1 0x0 PUSH2 0x146A DUP4 PUSH2 0x2C68 JUMP JUMPDEST SWAP2 SWAP1 POP SSTORE POP POP POP POP POP POP JUMP JUMPDEST PUSH1 0x3 SLOAD PUSH1 0x1 PUSH1 0x1 PUSH1 0xA0 SHL SUB AND CALLER EQ PUSH2 0x14A0 JUMPI PUSH1 0x40 MLOAD PUSH3 0x461BCD PUSH1 0xE5 SHL DUP2 MSTORE PUSH1 0x4 ADD PUSH2 0x5E6 SWAP1 PUSH2 0x2BB9 JUMP JUMPDEST PUSH1 0x3 DUP1 SLOAD SWAP2 ISZERO ISZERO PUSH1 0x1 PUSH1 0xA8 SHL MUL PUSH1 0xFF PUSH1 0xA8 SHL NOT SWAP1 SWAP3 AND SWAP2 SWAP1 SWAP2 OR SWAP1 SSTORE JUMP JUMPDEST PUSH1 0x0 DUP1 PUSH2 0x14CA DUP4 PUSH2 0x1B5A JUMP JUMPDEST SWAP1 POP PUSH1 0x1 PUSH1 0x1 PUSH1 0xA0 SHL SUB DUP2 AND PUSH2 0x4F2 JUMPI PUSH1 0x40 MLOAD PUSH4 0x7E273289 PUSH1 0xE0 SHL DUP2 MSTORE PUSH1 0x4 DUP2 ADD DUP5 SWAP1 MSTORE PUSH1 0x24 ADD PUSH2 0x5E6 JUMP JUMPDEST PUSH1 0x0 SWAP1 DUP2 MSTORE PUSH32 0x80BB2B638CC20BC4D0A60D66940F3AB4A00C1D7B313497CA82FB0B4AB0079304 PUSH1 0x20 MSTORE PUSH1 0x40 SWAP1 KECCAK256 SLOAD PUSH1 0x1 PUSH1 0x1 PUSH1 0xA0 SHL SUB AND SWAP1 JUMP JUMPDEST PUSH2 0x6ED DUP4 DUP4 DUP4 PUSH1 0x1 PUSH2 0x1B94 JUMP JUMPDEST PUSH1 0x3 SLOAD PUSH1 0x0 SWAP1 PUSH1 0x1 PUSH1 0xA8 SHL SWAP1 DIV PUSH1 0xFF AND ISZERO ISZERO PUSH1 0x1 SUB PUSH2 0x161B JUMPI PUSH1 0x1 PUSH1 0x1 PUSH1 0xA0 SHL SUB DUP3 AND ISZERO DUP1 PUSH2 0x1573 JUMPI POP PUSH1 0x1 PUSH1 0x1 PUSH1 0xA0 SHL SUB DUP5 AND ISZERO JUMPDEST PUSH2 0x161B JUMPI PUSH1 0x40 MLOAD PUSH3 0x461BCD PUSH1 0xE5 SHL DUP2 MSTORE PUSH1 0x20 PUSH1 0x4 DUP3 ADD MSTORE PUSH1 0x67 PUSH1 0x24 DUP3 ADD MSTORE PUSH32 0x4D656D626572736869703A2054686973206120536F756C626F756E6420746F6B PUSH1 0x44 DUP3 ADD MSTORE PUSH32 0x656E2E2049742063616E6E6F74206265207472616E736665727265642E204974 PUSH1 0x64 DUP3 ADD MSTORE PUSH32 0x2063616E206F6E6C79206265206275726E65642062792074686520746F6B656E PUSH1 0x84 DUP3 ADD MSTORE PUSH7 0x1037BBB732B917 PUSH1 0xC9 SHL PUSH1 0xA4 DUP3 ADD MSTORE PUSH1 0xC4 ADD PUSH2 0x5E6 JUMP JUMPDEST PUSH2 0x1626 DUP5 DUP5 DUP5 PUSH2 0x1CAA JUMP JUMPDEST SWAP5 SWAP4 POP POP POP POP JUMP JUMPDEST PUSH1 0x3 SLOAD PUSH1 0x0 SWAP1 PUSH1 0x1 PUSH1 0x1 PUSH1 0xA0 SHL SUB AND CALLER EQ DUP1 PUSH2 0x1659 JUMPI POP CALLER PUSH1 0x0 SWAP1 DUP2 MSTORE PUSH1 0x5 PUSH1 0x20 MSTORE PUSH1 0x40 SWAP1 KECCAK256 SLOAD PUSH1 0xFF AND JUMPDEST ISZERO PUSH2 0x1664 JUMPI POP PUSH1 0x1 SWAP1 JUMP JUMPDEST POP PUSH1 0x0 SWAP1 JUMP JUMPDEST PUSH1 0x0 PUSH2 0x1679 PUSH1 0x0 DUP4 PUSH1 0x0 PUSH2 0x153D JUMP JUMPDEST SWAP1 POP PUSH1 0x1 PUSH1 0x1 PUSH1 0xA0 SHL SUB DUP2 AND PUSH2 0x5BC JUMPI PUSH1 0x40 MLOAD PUSH4 0x7E273289 PUSH1 0xE0 SHL DUP2 MSTORE PUSH1 0x4 DUP2 ADD DUP4 SWAP1 MSTORE PUSH1 0x24 ADD PUSH2 0x5E6 JUMP JUMPDEST PUSH2 0x16AD PUSH2 0x1DB4 JUMP JUMPDEST PUSH2 0x5BC DUP3 DUP3 PUSH2 0x1DFF JUMP JUMPDEST PUSH1 0x0 DUP1 MLOAD PUSH1 0x20 PUSH2 0x2F67 DUP4 CODECOPY DUP2 MLOAD SWAP2 MSTORE PUSH1 0x1 PUSH1 0x1 PUSH1 0xA0 SHL SUB DUP4 AND PUSH2 0x16F8 JUMPI PUSH1 0x40 MLOAD PUSH4 0xB611743 PUSH1 0xE3 SHL DUP2 MSTORE PUSH1 0x1 PUSH1 0x1 PUSH1 0xA0 SHL SUB DUP5 AND PUSH1 0x4 DUP3 ADD MSTORE PUSH1 0x24 ADD PUSH2 0x5E6 JUMP JUMPDEST PUSH1 0x1 PUSH1 0x1 PUSH1 0xA0 SHL SUB DUP5 DUP2 AND PUSH1 0x0 DUP2 DUP2 MSTORE PUSH1 0x5 DUP5 ADD PUSH1 0x20 SWAP1 DUP2 MSTORE PUSH1 0x40 DUP1 DUP4 KECCAK256 SWAP5 DUP9 AND DUP1 DUP5 MSTORE SWAP5 DUP3 MSTORE SWAP2 DUP3 SWAP1 KECCAK256 DUP1 SLOAD PUSH1 0xFF NOT AND DUP8 ISZERO ISZERO SWAP1 DUP2 OR SWAP1 SWAP2 SSTORE SWAP2 MLOAD SWAP2 DUP3 MSTORE PUSH32 0x17307EAB39AB6107E8899845AD3D59BD9653F200F220920489CA2B5937696C31 SWAP2 ADD PUSH1 0x40 MLOAD DUP1 SWAP2 SUB SWAP1 LOG3 POP POP POP POP JUMP JUMPDEST PUSH1 0x1 PUSH1 0x1 PUSH1 0xA0 SHL SUB DUP4 AND EXTCODESIZE ISZERO PUSH2 0x64A JUMPI PUSH1 0x40 MLOAD PUSH4 0xA85BD01 PUSH1 0xE1 SHL DUP2 MSTORE PUSH1 0x1 PUSH1 0x1 PUSH1 0xA0 SHL SUB DUP5 AND SWAP1 PUSH4 0x150B7A02 SWAP1 PUSH2 0x17AA SWAP1 CALLER SWAP1 DUP9 SWAP1 DUP8 SWAP1 DUP8 SWAP1 PUSH1 0x4 ADD PUSH2 0x2E7B JUMP JUMPDEST PUSH1 0x20 PUSH1 0x40 MLOAD DUP1 DUP4 SUB DUP2 PUSH1 0x0 DUP8 GAS CALL SWAP3 POP POP POP DUP1 ISZERO PUSH2 0x17E5 JUMPI POP PUSH1 0x40 DUP1 MLOAD PUSH1 0x1F RETURNDATASIZE SWAP1 DUP2 ADD PUSH1 0x1F NOT AND DUP3 ADD SWAP1 SWAP3 MSTORE PUSH2 0x17E2 SWAP2 DUP2 ADD SWAP1 PUSH2 0x2EAE JUMP JUMPDEST PUSH1 0x1 JUMPDEST PUSH2 0x184E JUMPI RETURNDATASIZE DUP1 DUP1 ISZERO PUSH2 0x1813 JUMPI PUSH1 0x40 MLOAD SWAP2 POP PUSH1 0x1F NOT PUSH1 0x3F RETURNDATASIZE ADD AND DUP3 ADD PUSH1 0x40 MSTORE RETURNDATASIZE DUP3 MSTORE RETURNDATASIZE PUSH1 0x0 PUSH1 0x20 DUP5 ADD RETURNDATACOPY PUSH2 0x1818 JUMP JUMPDEST PUSH1 0x60 SWAP2 POP JUMPDEST POP DUP1 MLOAD PUSH1 0x0 SUB PUSH2 0x1846 JUMPI PUSH1 0x40 MLOAD PUSH4 0x32505749 PUSH1 0xE1 SHL DUP2 MSTORE PUSH1 0x1 PUSH1 0x1 PUSH1 0xA0 SHL SUB DUP6 AND PUSH1 0x4 DUP3 ADD MSTORE PUSH1 0x24 ADD PUSH2 0x5E6 JUMP JUMPDEST DUP1 MLOAD DUP2 PUSH1 0x20 ADD REVERT JUMPDEST PUSH1 0x1 PUSH1 0x1 PUSH1 0xE0 SHL SUB NOT DUP2 AND PUSH4 0xA85BD01 PUSH1 0xE1 SHL EQ PUSH2 0xE79 JUMPI PUSH1 0x40 MLOAD PUSH4 0x32505749 PUSH1 0xE1 SHL DUP2 MSTORE PUSH1 0x1 PUSH1 0x1 PUSH1 0xA0 SHL SUB DUP6 AND PUSH1 0x4 DUP3 ADD MSTORE PUSH1 0x24 ADD PUSH2 0x5E6 JUMP JUMPDEST PUSH1 0x0 DUP1 PUSH2 0x1896 DUP4 PUSH2 0x1B5A JUMP JUMPDEST PUSH1 0x1 PUSH1 0x1 PUSH1 0xA0 SHL SUB AND SUB PUSH2 0x18AC JUMPI POP PUSH1 0x0 SWAP2 SWAP1 POP JUMP JUMPDEST POP PUSH1 0x1 SWAP2 SWAP1 POP JUMP JUMPDEST PUSH1 0x60 PUSH1 0x0 PUSH1 0x40 MLOAD DUP1 PUSH2 0x280 ADD PUSH1 0x40 MSTORE DUP1 PUSH2 0x258 DUP2 MSTORE PUSH1 0x20 ADD PUSH2 0x300E PUSH2 0x258 SWAP2 CODECOPY SWAP3 SWAP2 POP POP JUMP JUMPDEST PUSH1 0x60 DUP2 PUSH1 0x0 SUB PUSH2 0x1901 JUMPI POP POP PUSH1 0x40 DUP1 MLOAD DUP1 DUP3 ADD SWAP1 SWAP2 MSTORE PUSH1 0x1 DUP2 MSTORE PUSH1 0x3 PUSH1 0xFC SHL PUSH1 0x20 DUP3 ADD MSTORE SWAP1 JUMP JUMPDEST DUP2 PUSH1 0x0 JUMPDEST DUP2 ISZERO PUSH2 0x192B JUMPI DUP1 PUSH2 0x1915 DUP2 PUSH2 0x2C68 JUMP JUMPDEST SWAP2 POP PUSH2 0x1924 SWAP1 POP PUSH1 0xA DUP4 PUSH2 0x2EE1 JUMP JUMPDEST SWAP2 POP PUSH2 0x1905 JUMP JUMPDEST PUSH1 0x0 DUP2 PUSH8 0xFFFFFFFFFFFFFFFF DUP2 GT ISZERO PUSH2 0x1946 JUMPI PUSH2 0x1946 PUSH2 0x2108 JUMP JUMPDEST PUSH1 0x40 MLOAD SWAP1 DUP1 DUP3 MSTORE DUP1 PUSH1 0x1F ADD PUSH1 0x1F NOT AND PUSH1 0x20 ADD DUP3 ADD PUSH1 0x40 MSTORE DUP1 ISZERO PUSH2 0x1970 JUMPI PUSH1 0x20 DUP3 ADD DUP2 DUP1 CALLDATASIZE DUP4 CALLDATACOPY ADD SWAP1 POP JUMPDEST POP SWAP1 POP JUMPDEST DUP5 ISZERO PUSH2 0x1626 JUMPI PUSH2 0x1985 PUSH1 0x1 DUP4 PUSH2 0x2EF5 JUMP JUMPDEST SWAP2 POP PUSH2 0x1992 PUSH1 0xA DUP7 PUSH2 0x2F08 JUMP JUMPDEST PUSH2 0x199D SWAP1 PUSH1 0x30 PUSH2 0x2F1C JUMP JUMPDEST PUSH1 0xF8 SHL DUP2 DUP4 DUP2 MLOAD DUP2 LT PUSH2 0x19B2 JUMPI PUSH2 0x19B2 PUSH2 0x2BF0 JUMP JUMPDEST PUSH1 0x20 ADD ADD SWAP1 PUSH1 0x1 PUSH1 0x1 PUSH1 0xF8 SHL SUB NOT AND SWAP1 DUP2 PUSH1 0x0 BYTE SWAP1 MSTORE8 POP PUSH2 0x19D4 PUSH1 0xA DUP7 PUSH2 0x2EE1 JUMP JUMPDEST SWAP5 POP PUSH2 0x1974 JUMP JUMPDEST DUP1 MLOAD PUSH1 0x60 SWAP1 PUSH1 0x0 DUP2 SWAP1 SUB PUSH2 0x19FF JUMPI POP POP PUSH1 0x40 DUP1 MLOAD PUSH1 0x20 DUP2 ADD SWAP1 SWAP2 MSTORE PUSH1 0x0 DUP2 MSTORE SWAP2 SWAP1 POP JUMP JUMPDEST PUSH1 0x0 PUSH1 0x3 PUSH2 0x1A0E DUP4 PUSH1 0x2 PUSH2 0x2F1C JUMP JUMPDEST PUSH2 0x1A18 SWAP2 SWAP1 PUSH2 0x2EE1 JUMP JUMPDEST PUSH2 0x1A23 SWAP1 PUSH1 0x4 PUSH2 0x2F2F JUMP JUMPDEST SWAP1 POP PUSH1 0x0 PUSH2 0x1A32 DUP3 PUSH1 0x20 PUSH2 0x2F1C JUMP JUMPDEST PUSH8 0xFFFFFFFFFFFFFFFF DUP2 GT ISZERO PUSH2 0x1A4A JUMPI PUSH2 0x1A4A PUSH2 0x2108 JUMP JUMPDEST PUSH1 0x40 MLOAD SWAP1 DUP1 DUP3 MSTORE DUP1 PUSH1 0x1F ADD PUSH1 0x1F NOT AND PUSH1 0x20 ADD DUP3 ADD PUSH1 0x40 MSTORE DUP1 ISZERO PUSH2 0x1A74 JUMPI PUSH1 0x20 DUP3 ADD DUP2 DUP1 CALLDATASIZE DUP4 CALLDATACOPY ADD SWAP1 POP JUMPDEST POP SWAP1 POP PUSH1 0x0 PUSH1 0x40 MLOAD DUP1 PUSH1 0x60 ADD PUSH1 0x40 MSTORE DUP1 PUSH1 0x40 DUP2 MSTORE PUSH1 0x20 ADD PUSH2 0x2FA7 PUSH1 0x40 SWAP2 CODECOPY SWAP1 POP PUSH1 0x1 DUP2 ADD PUSH1 0x20 DUP4 ADD PUSH1 0x0 JUMPDEST DUP7 DUP2 LT ISZERO PUSH2 0x1B00 JUMPI PUSH1 0x3 DUP2 DUP11 ADD DUP2 ADD MLOAD PUSH1 0x3F PUSH1 0x12 DUP3 SWAP1 SHR DUP2 AND DUP7 ADD MLOAD PUSH1 0xC DUP4 SWAP1 SHR DUP3 AND DUP8 ADD MLOAD PUSH1 0x6 DUP5 SWAP1 SHR DUP4 AND DUP9 ADD MLOAD SWAP3 SWAP1 SWAP4 AND DUP8 ADD MLOAD PUSH1 0x8 SWAP2 DUP3 SHL PUSH1 0xFF SWAP5 DUP6 AND ADD DUP3 SHL SWAP3 DUP5 AND SWAP3 SWAP1 SWAP3 ADD SWAP1 SHL SWAP2 AND ADD PUSH1 0xE0 SHL DUP4 MSTORE PUSH1 0x4 SWAP1 SWAP3 ADD SWAP2 ADD PUSH2 0x1A9F JUMP JUMPDEST POP PUSH1 0x3 DUP7 MOD PUSH1 0x1 DUP2 EQ PUSH2 0x1B1A JUMPI PUSH1 0x2 DUP2 EQ PUSH2 0x1B2B JUMPI PUSH2 0x1B37 JUMP JUMPDEST PUSH2 0x3D3D PUSH1 0xF0 SHL PUSH1 0x1 NOT DUP4 ADD MSTORE PUSH2 0x1B37 JUMP JUMPDEST PUSH1 0x3D PUSH1 0xF8 SHL PUSH1 0x0 NOT DUP4 ADD MSTORE JUMPDEST POP POP POP SWAP2 DUP2 MSTORE SWAP5 SWAP4 POP POP POP POP JUMP JUMPDEST PUSH1 0x0 PUSH2 0x1B51 DUP4 DUP4 PUSH2 0x1E30 JUMP JUMPDEST POP PUSH1 0x1 SWAP3 SWAP2 POP POP JUMP JUMPDEST PUSH1 0x0 SWAP1 DUP2 MSTORE PUSH32 0x80BB2B638CC20BC4D0A60D66940F3AB4A00C1D7B313497CA82FB0B4AB0079302 PUSH1 0x20 MSTORE PUSH1 0x40 SWAP1 KECCAK256 SLOAD PUSH1 0x1 PUSH1 0x1 PUSH1 0xA0 SHL SUB AND SWAP1 JUMP JUMPDEST PUSH1 0x0 DUP1 MLOAD PUSH1 0x20 PUSH2 0x2F67 DUP4 CODECOPY DUP2 MLOAD SWAP2 MSTORE DUP2 DUP1 PUSH2 0x1BB7 JUMPI POP PUSH1 0x1 PUSH1 0x1 PUSH1 0xA0 SHL SUB DUP4 AND ISZERO ISZERO JUMPDEST ISZERO PUSH2 0x1C79 JUMPI PUSH1 0x0 PUSH2 0x1BC7 DUP6 PUSH2 0x14BE JUMP JUMPDEST SWAP1 POP PUSH1 0x1 PUSH1 0x1 PUSH1 0xA0 SHL SUB DUP5 AND ISZERO DUP1 ISZERO SWAP1 PUSH2 0x1BF3 JUMPI POP DUP4 PUSH1 0x1 PUSH1 0x1 PUSH1 0xA0 SHL SUB AND DUP2 PUSH1 0x1 PUSH1 0x1 PUSH1 0xA0 SHL SUB AND EQ ISZERO JUMPDEST DUP1 ISZERO PUSH2 0x1C06 JUMPI POP PUSH2 0x1C04 DUP2 DUP6 PUSH2 0x11D0 JUMP JUMPDEST ISZERO JUMPDEST ISZERO PUSH2 0x1C2F JUMPI PUSH1 0x40 MLOAD PUSH4 0xA9FBF51F PUSH1 0xE0 SHL DUP2 MSTORE PUSH1 0x1 PUSH1 0x1 PUSH1 0xA0 SHL SUB DUP6 AND PUSH1 0x4 DUP3 ADD MSTORE PUSH1 0x24 ADD PUSH2 0x5E6 JUMP JUMPDEST DUP3 ISZERO PUSH2 0x1C77 JUMPI DUP5 DUP7 PUSH1 0x1 PUSH1 0x1 PUSH1 0xA0 SHL SUB AND DUP3 PUSH1 0x1 PUSH1 0x1 PUSH1 0xA0 SHL SUB AND PUSH32 0x8C5BE1E5EBEC7D5BD14F71427D1E84F3DD0314C0F7B2291E5B200AC8C7C3B925 PUSH1 0x40 MLOAD PUSH1 0x40 MLOAD DUP1 SWAP2 SUB SWAP1 LOG4 JUMPDEST POP JUMPDEST PUSH1 0x0 SWAP4 DUP5 MSTORE PUSH1 0x4 ADD PUSH1 0x20 MSTORE POP POP PUSH1 0x40 SWAP1 KECCAK256 DUP1 SLOAD PUSH1 0x1 PUSH1 0x1 PUSH1 0xA0 SHL SUB NOT AND PUSH1 0x1 PUSH1 0x1 PUSH1 0xA0 SHL SUB SWAP3 SWAP1 SWAP3 AND SWAP2 SWAP1 SWAP2 OR SWAP1 SSTORE JUMP JUMPDEST PUSH1 0x0 PUSH1 0x0 DUP1 MLOAD PUSH1 0x20 PUSH2 0x2F67 DUP4 CODECOPY DUP2 MLOAD SWAP2 MSTORE DUP2 PUSH2 0x1CC5 DUP6 PUSH2 0x1B5A JUMP JUMPDEST SWAP1 POP PUSH1 0x1 PUSH1 0x1 PUSH1 0xA0 SHL SUB DUP5 AND ISZERO PUSH2 0x1CE1 JUMPI PUSH2 0x1CE1 DUP2 DUP6 DUP8 PUSH2 0x1E4A JUMP JUMPDEST PUSH1 0x1 PUSH1 0x1 PUSH1 0xA0 SHL SUB DUP2 AND ISZERO PUSH2 0x1D21 JUMPI PUSH2 0x1CFE PUSH1 0x0 DUP7 PUSH1 0x0 DUP1 PUSH2 0x1B94 JUMP JUMPDEST PUSH1 0x1 PUSH1 0x1 PUSH1 0xA0 SHL SUB DUP2 AND PUSH1 0x0 SWAP1 DUP2 MSTORE PUSH1 0x3 DUP4 ADD PUSH1 0x20 MSTORE PUSH1 0x40 SWAP1 KECCAK256 DUP1 SLOAD PUSH1 0x0 NOT ADD SWAP1 SSTORE JUMPDEST PUSH1 0x1 PUSH1 0x1 PUSH1 0xA0 SHL SUB DUP7 AND ISZERO PUSH2 0x1D52 JUMPI PUSH1 0x1 PUSH1 0x1 PUSH1 0xA0 SHL SUB DUP7 AND PUSH1 0x0 SWAP1 DUP2 MSTORE PUSH1 0x3 DUP4 ADD PUSH1 0x20 MSTORE PUSH1 0x40 SWAP1 KECCAK256 DUP1 SLOAD PUSH1 0x1 ADD SWAP1 SSTORE JUMPDEST PUSH1 0x0 DUP6 DUP2 MSTORE PUSH1 0x2 DUP4 ADD PUSH1 0x20 MSTORE PUSH1 0x40 DUP1 DUP3 KECCAK256 DUP1 SLOAD PUSH1 0x1 PUSH1 0x1 PUSH1 0xA0 SHL SUB NOT AND PUSH1 0x1 PUSH1 0x1 PUSH1 0xA0 SHL SUB DUP11 DUP2 AND SWAP2 DUP3 OR SWAP1 SWAP3 SSTORE SWAP2 MLOAD DUP9 SWAP4 SWAP2 DUP6 AND SWAP2 PUSH32 0xDDF252AD1BE2C89B69C2B068FC378DAA952BA7F163C4A11628F55A4DF523B3EF SWAP2 LOG4 SWAP6 SWAP5 POP POP POP POP POP JUMP JUMPDEST PUSH32 0xF0C57E16840DF040F15088DC2F81FE391C3923BEC73E23A9662EFC9C229C6A00 SLOAD PUSH1 0x1 PUSH1 0x40 SHL SWAP1 DIV PUSH1 0xFF AND PUSH2 0x1DFD JUMPI PUSH1 0x40 MLOAD PUSH4 0x1AFCD79F PUSH1 0xE3 SHL DUP2 MSTORE PUSH1 0x4 ADD PUSH1 0x40 MLOAD DUP1 SWAP2 SUB SWAP1 REVERT JUMPDEST JUMP JUMPDEST PUSH2 0x1E07 PUSH2 0x1DB4 JUMP JUMPDEST PUSH1 0x0 DUP1 MLOAD PUSH1 0x20 PUSH2 0x2F67 DUP4 CODECOPY DUP2 MLOAD SWAP2 MSTORE DUP1 PUSH2 0x1E21 DUP5 DUP3 PUSH2 0x257E JUMP JUMPDEST POP PUSH1 0x1 DUP2 ADD PUSH2 0x64A DUP4 DUP3 PUSH2 0x257E JUMP JUMPDEST PUSH2 0x5BC DUP3 DUP3 PUSH1 0x40 MLOAD DUP1 PUSH1 0x20 ADD PUSH1 0x40 MSTORE DUP1 PUSH1 0x0 DUP2 MSTORE POP PUSH2 0x1EAE JUMP JUMPDEST PUSH2 0x1E55 DUP4 DUP4 DUP4 PUSH2 0x1EC5 JUMP JUMPDEST PUSH2 0x6ED JUMPI PUSH1 0x1 PUSH1 0x1 PUSH1 0xA0 SHL SUB DUP4 AND PUSH2 0x1E83 JUMPI PUSH1 0x40 MLOAD PUSH4 0x7E273289 PUSH1 0xE0 SHL DUP2 MSTORE PUSH1 0x4 DUP2 ADD DUP3 SWAP1 MSTORE PUSH1 0x24 ADD PUSH2 0x5E6 JUMP JUMPDEST PUSH1 0x40 MLOAD PUSH4 0x177E802F PUSH1 0xE0 SHL DUP2 MSTORE PUSH1 0x1 PUSH1 0x1 PUSH1 0xA0 SHL SUB DUP4 AND PUSH1 0x4 DUP3 ADD MSTORE PUSH1 0x24 DUP2 ADD DUP3 SWAP1 MSTORE PUSH1 0x44 ADD PUSH2 0x5E6 JUMP JUMPDEST PUSH2 0x1EB8 DUP4 DUP4 PUSH2 0x1F2A JUMP JUMPDEST PUSH2 0x6ED PUSH1 0x0 DUP5 DUP5 DUP5 PUSH2 0x1768 JUMP JUMPDEST PUSH1 0x0 PUSH1 0x1 PUSH1 0x1 PUSH1 0xA0 SHL SUB DUP4 AND ISZERO DUP1 ISZERO SWAP1 PUSH2 0x1626 JUMPI POP DUP3 PUSH1 0x1 PUSH1 0x1 PUSH1 0xA0 SHL SUB AND DUP5 PUSH1 0x1 PUSH1 0x1 PUSH1 0xA0 SHL SUB AND EQ DUP1 PUSH2 0x1EFF JUMPI POP PUSH2 0x1EFF DUP5 DUP5 PUSH2 0x11D0 JUMP JUMPDEST DUP1 PUSH2 0x1626 JUMPI POP DUP3 PUSH1 0x1 PUSH1 0x1 PUSH1 0xA0 SHL SUB AND PUSH2 0x1F18 DUP4 PUSH2 0x14F6 JUMP JUMPDEST PUSH1 0x1 PUSH1 0x1 PUSH1 0xA0 SHL SUB AND EQ SWAP5 SWAP4 POP POP POP POP JUMP JUMPDEST PUSH1 0x1 PUSH1 0x1 PUSH1 0xA0 SHL SUB DUP3 AND PUSH2 0x1F54 JUMPI PUSH1 0x40 MLOAD PUSH4 0x32505749 PUSH1 0xE1 SHL DUP2 MSTORE PUSH1 0x0 PUSH1 0x4 DUP3 ADD MSTORE PUSH1 0x24 ADD PUSH2 0x5E6 JUMP JUMPDEST PUSH1 0x0 PUSH2 0x1F62 DUP4 DUP4 PUSH1 0x0 PUSH2 0x153D JUMP JUMPDEST SWAP1 POP PUSH1 0x1 PUSH1 0x1 PUSH1 0xA0 SHL SUB DUP2 AND ISZERO PUSH2 0x6ED JUMPI PUSH1 0x40 MLOAD PUSH4 0x39E35637 PUSH1 0xE1 SHL DUP2 MSTORE PUSH1 0x0 PUSH1 0x4 DUP3 ADD MSTORE PUSH1 0x24 ADD PUSH2 0x5E6 JUMP JUMPDEST PUSH1 0x1 PUSH1 0x1 PUSH1 0xE0 SHL SUB NOT DUP2 AND DUP2 EQ PUSH2 0x1FA5 JUMPI PUSH1 0x0 DUP1 REVERT JUMPDEST POP JUMP JUMPDEST PUSH1 0x0 PUSH1 0x20 DUP3 DUP5 SUB SLT ISZERO PUSH2 0x1FBA JUMPI PUSH1 0x0 DUP1 REVERT JUMPDEST DUP2 CALLDATALOAD PUSH2 0x1FC5 DUP2 PUSH2 0x1F8F JUMP JUMPDEST SWAP4 SWAP3 POP POP POP JUMP JUMPDEST PUSH1 0x0 JUMPDEST DUP4 DUP2 LT ISZERO PUSH2 0x1FE7 JUMPI DUP2 DUP2 ADD MLOAD DUP4 DUP3 ADD MSTORE PUSH1 0x20 ADD PUSH2 0x1FCF JUMP JUMPDEST POP POP PUSH1 0x0 SWAP2 ADD MSTORE JUMP JUMPDEST PUSH1 0x0 DUP2 MLOAD DUP1 DUP5 MSTORE PUSH2 0x2008 DUP2 PUSH1 0x20 DUP7 ADD PUSH1 0x20 DUP7 ADD PUSH2 0x1FCC JUMP JUMPDEST PUSH1 0x1F ADD PUSH1 0x1F NOT AND SWAP3 SWAP1 SWAP3 ADD PUSH1 0x20 ADD SWAP3 SWAP2 POP POP JUMP JUMPDEST PUSH1 0x20 DUP2 MSTORE PUSH1 0x0 PUSH2 0x1FC5 PUSH1 0x20 DUP4 ADD DUP5 PUSH2 0x1FF0 JUMP JUMPDEST PUSH1 0x0 PUSH1 0x20 DUP3 DUP5 SUB SLT ISZERO PUSH2 0x2041 JUMPI PUSH1 0x0 DUP1 REVERT JUMPDEST POP CALLDATALOAD SWAP2 SWAP1 POP JUMP JUMPDEST DUP1 CALLDATALOAD PUSH1 0x1 PUSH1 0x1 PUSH1 0xA0 SHL SUB DUP2 AND DUP2 EQ PUSH2 0x205F JUMPI PUSH1 0x0 DUP1 REVERT JUMPDEST SWAP2 SWAP1 POP JUMP JUMPDEST PUSH1 0x0 DUP1 PUSH1 0x40 DUP4 DUP6 SUB SLT ISZERO PUSH2 0x2077 JUMPI PUSH1 0x0 DUP1 REVERT JUMPDEST PUSH2 0x2080 DUP4 PUSH2 0x2048 JUMP JUMPDEST SWAP5 PUSH1 0x20 SWAP4 SWAP1 SWAP4 ADD CALLDATALOAD SWAP4 POP POP POP JUMP JUMPDEST PUSH1 0x0 DUP1 PUSH1 0x0 PUSH1 0x60 DUP5 DUP7 SUB SLT ISZERO PUSH2 0x20A3 JUMPI PUSH1 0x0 DUP1 REVERT JUMPDEST PUSH2 0x20AC DUP5 PUSH2 0x2048 JUMP JUMPDEST SWAP3 POP PUSH2 0x20BA PUSH1 0x20 DUP6 ADD PUSH2 0x2048 JUMP JUMPDEST SWAP2 POP PUSH1 0x40 DUP5 ADD CALLDATALOAD SWAP1 POP SWAP3 POP SWAP3 POP SWAP3 JUMP JUMPDEST DUP1 CALLDATALOAD PUSH2 0xFFFF DUP2 AND DUP2 EQ PUSH2 0x205F JUMPI PUSH1 0x0 DUP1 REVERT JUMPDEST PUSH1 0x0 DUP1 PUSH1 0x40 DUP4 DUP6 SUB SLT ISZERO PUSH2 0x20EF JUMPI PUSH1 0x0 DUP1 REVERT JUMPDEST DUP3 CALLDATALOAD SWAP2 POP PUSH2 0x20FF PUSH1 0x20 DUP5 ADD PUSH2 0x20CA JUMP JUMPDEST SWAP1 POP SWAP3 POP SWAP3 SWAP1 POP JUMP JUMPDEST PUSH4 0x4E487B71 PUSH1 0xE0 SHL PUSH1 0x0 MSTORE PUSH1 0x41 PUSH1 0x4 MSTORE PUSH1 0x24 PUSH1 0x0 REVERT JUMPDEST PUSH1 0x0 PUSH8 0xFFFFFFFFFFFFFFFF DUP1 DUP5 GT ISZERO PUSH2 0x2139 JUMPI PUSH2 0x2139 PUSH2 0x2108 JUMP JUMPDEST PUSH1 0x40 MLOAD PUSH1 0x1F DUP6 ADD PUSH1 0x1F NOT SWAP1 DUP2 AND PUSH1 0x3F ADD AND DUP2 ADD SWAP1 DUP3 DUP3 GT DUP2 DUP4 LT OR ISZERO PUSH2 0x2161 JUMPI PUSH2 0x2161 PUSH2 0x2108 JUMP JUMPDEST DUP2 PUSH1 0x40 MSTORE DUP1 SWAP4 POP DUP6 DUP2 MSTORE DUP7 DUP7 DUP7 ADD GT ISZERO PUSH2 0x217A JUMPI PUSH1 0x0 DUP1 REVERT JUMPDEST DUP6 DUP6 PUSH1 0x20 DUP4 ADD CALLDATACOPY PUSH1 0x0 PUSH1 0x20 DUP8 DUP4 ADD ADD MSTORE POP POP POP SWAP4 SWAP3 POP POP POP JUMP JUMPDEST PUSH1 0x0 PUSH1 0x20 DUP3 DUP5 SUB SLT ISZERO PUSH2 0x21A6 JUMPI PUSH1 0x0 DUP1 REVERT JUMPDEST DUP2 CALLDATALOAD PUSH8 0xFFFFFFFFFFFFFFFF DUP2 GT ISZERO PUSH2 0x21BD JUMPI PUSH1 0x0 DUP1 REVERT JUMPDEST DUP3 ADD PUSH1 0x1F DUP2 ADD DUP5 SGT PUSH2 0x21CE JUMPI PUSH1 0x0 DUP1 REVERT JUMPDEST PUSH2 0x1626 DUP5 DUP3 CALLDATALOAD PUSH1 0x20 DUP5 ADD PUSH2 0x211E JUMP JUMPDEST PUSH1 0x0 PUSH1 0x20 DUP3 DUP5 SUB SLT ISZERO PUSH2 0x21EF JUMPI PUSH1 0x0 DUP1 REVERT JUMPDEST PUSH2 0x1FC5 DUP3 PUSH2 0x2048 JUMP JUMPDEST DUP1 CALLDATALOAD DUP1 ISZERO ISZERO DUP2 EQ PUSH2 0x205F JUMPI PUSH1 0x0 DUP1 REVERT JUMPDEST PUSH1 0x0 DUP1 PUSH1 0x40 DUP4 DUP6 SUB SLT ISZERO PUSH2 0x221B JUMPI PUSH1 0x0 DUP1 REVERT JUMPDEST PUSH2 0x2224 DUP4 PUSH2 0x2048 JUMP JUMPDEST SWAP2 POP PUSH2 0x20FF PUSH1 0x20 DUP5 ADD PUSH2 0x21F8 JUMP JUMPDEST DUP5 DUP2 MSTORE DUP4 ISZERO ISZERO PUSH1 0x20 DUP3 ADD MSTORE PUSH2 0xFFFF DUP4 AND PUSH1 0x40 DUP3 ADD MSTORE PUSH1 0x80 PUSH1 0x60 DUP3 ADD MSTORE PUSH1 0x0 PUSH2 0x225D PUSH1 0x80 DUP4 ADD DUP5 PUSH2 0x1FF0 JUMP JUMPDEST SWAP7 SWAP6 POP POP POP POP POP POP JUMP JUMPDEST PUSH1 0x0 DUP1 DUP4 PUSH1 0x1F DUP5 ADD SLT PUSH2 0x2279 JUMPI PUSH1 0x0 DUP1 REVERT JUMPDEST POP DUP2 CALLDATALOAD PUSH8 0xFFFFFFFFFFFFFFFF DUP2 GT ISZERO PUSH2 0x2291 JUMPI PUSH1 0x0 DUP1 REVERT JUMPDEST PUSH1 0x20 DUP4 ADD SWAP2 POP DUP4 PUSH1 0x20 DUP3 PUSH1 0x5 SHL DUP6 ADD ADD GT ISZERO PUSH2 0x22AC JUMPI PUSH1 0x0 DUP1 REVERT JUMPDEST SWAP3 POP SWAP3 SWAP1 POP JUMP JUMPDEST PUSH1 0x0 DUP1 PUSH1 0x0 DUP1 PUSH1 0x0 DUP1 PUSH1 0x60 DUP8 DUP10 SUB SLT ISZERO PUSH2 0x22CC JUMPI PUSH1 0x0 DUP1 REVERT JUMPDEST DUP7 CALLDATALOAD PUSH8 0xFFFFFFFFFFFFFFFF DUP1 DUP3 GT ISZERO PUSH2 0x22E4 JUMPI PUSH1 0x0 DUP1 REVERT JUMPDEST PUSH2 0x22F0 DUP11 DUP4 DUP12 ADD PUSH2 0x2267 JUMP JUMPDEST SWAP1 SWAP9 POP SWAP7 POP PUSH1 0x20 DUP10 ADD CALLDATALOAD SWAP2 POP DUP1 DUP3 GT ISZERO PUSH2 0x2309 JUMPI PUSH1 0x0 DUP1 REVERT JUMPDEST PUSH2 0x2315 DUP11 DUP4 DUP12 ADD PUSH2 0x2267 JUMP JUMPDEST SWAP1 SWAP7 POP SWAP5 POP PUSH1 0x40 DUP10 ADD CALLDATALOAD SWAP2 POP DUP1 DUP3 GT ISZERO PUSH2 0x232E JUMPI PUSH1 0x0 DUP1 REVERT JUMPDEST POP PUSH2 0x233B DUP10 DUP3 DUP11 ADD PUSH2 0x2267 JUMP JUMPDEST SWAP8 SWAP11 SWAP7 SWAP10 POP SWAP5 SWAP8 POP SWAP3 SWAP6 SWAP4 SWAP5 SWAP3 POP POP POP JUMP JUMPDEST PUSH1 0x0 DUP1 PUSH1 0x40 DUP4 DUP6 SUB SLT ISZERO PUSH2 0x2360 JUMPI PUSH1 0x0 DUP1 REVERT JUMPDEST DUP3 CALLDATALOAD SWAP2 POP PUSH2 0x20FF PUSH1 0x20 DUP5 ADD PUSH2 0x21F8 JUMP JUMPDEST PUSH1 0x0 DUP1 PUSH1 0x0 DUP1 PUSH1 0x80 DUP6 DUP8 SUB SLT ISZERO PUSH2 0x2386 JUMPI PUSH1 0x0 DUP1 REVERT JUMPDEST PUSH2 0x238F DUP6 PUSH2 0x2048 JUMP JUMPDEST SWAP4 POP PUSH2 0x239D PUSH1 0x20 DUP7 ADD PUSH2 0x2048 JUMP JUMPDEST SWAP3 POP PUSH1 0x40 DUP6 ADD CALLDATALOAD SWAP2 POP PUSH1 0x60 DUP6 ADD CALLDATALOAD PUSH8 0xFFFFFFFFFFFFFFFF DUP2 GT ISZERO PUSH2 0x23C0 JUMPI PUSH1 0x0 DUP1 REVERT JUMPDEST DUP6 ADD PUSH1 0x1F DUP2 ADD DUP8 SGT PUSH2 0x23D1 JUMPI PUSH1 0x0 DUP1 REVERT JUMPDEST PUSH2 0x23E0 DUP8 DUP3 CALLDATALOAD PUSH1 0x20 DUP5 ADD PUSH2 0x211E JUMP JUMPDEST SWAP2 POP POP SWAP3 SWAP6 SWAP2 SWAP5 POP SWAP3 POP JUMP JUMPDEST PUSH1 0x0 PUSH1 0x20 DUP3 DUP5 SUB SLT ISZERO PUSH2 0x23FE JUMPI PUSH1 0x0 DUP1 REVERT JUMPDEST PUSH2 0x1FC5 DUP3 PUSH2 0x21F8 JUMP JUMPDEST PUSH1 0x0 DUP1 PUSH1 0x40 DUP4 DUP6 SUB SLT ISZERO PUSH2 0x241A JUMPI PUSH1 0x0 DUP1 REVERT JUMPDEST PUSH2 0x2423 DUP4 PUSH2 0x2048 JUMP JUMPDEST SWAP2 POP PUSH2 0x20FF PUSH1 0x20 DUP5 ADD PUSH2 0x2048 JUMP JUMPDEST PUSH1 0x0 DUP1 PUSH1 0x0 DUP1 PUSH1 0x60 DUP6 DUP8 SUB SLT ISZERO PUSH2 0x2447 JUMPI PUSH1 0x0 DUP1 REVERT JUMPDEST PUSH2 0x2450 DUP6 PUSH2 0x2048 JUMP JUMPDEST SWAP4 POP PUSH2 0x245E PUSH1 0x20 DUP7 ADD PUSH2 0x20CA JUMP JUMPDEST SWAP3 POP PUSH1 0x40 DUP6 ADD CALLDATALOAD PUSH8 0xFFFFFFFFFFFFFFFF DUP1 DUP3 GT ISZERO PUSH2 0x247B JUMPI PUSH1 0x0 DUP1 REVERT JUMPDEST DUP2 DUP8 ADD SWAP2 POP DUP8 PUSH1 0x1F DUP4 ADD SLT PUSH2 0x248F JUMPI PUSH1 0x0 DUP1 REVERT JUMPDEST DUP2 CALLDATALOAD DUP2 DUP2 GT ISZERO PUSH2 0x249E JUMPI PUSH1 0x0 DUP1 REVERT JUMPDEST DUP9 PUSH1 0x20 DUP3 DUP6 ADD ADD GT ISZERO PUSH2 0x24B0 JUMPI PUSH1 0x0 DUP1 REVERT JUMPDEST SWAP6 SWAP9 SWAP5 SWAP8 POP POP PUSH1 0x20 ADD SWAP5 POP POP POP JUMP JUMPDEST PUSH1 0x1 DUP2 DUP2 SHR SWAP1 DUP3 AND DUP1 PUSH2 0x24D3 JUMPI PUSH1 0x7F DUP3 AND SWAP2 POP JUMPDEST PUSH1 0x20 DUP3 LT DUP2 SUB PUSH2 0x24F3 JUMPI PUSH4 0x4E487B71 PUSH1 0xE0 SHL PUSH1 0x0 MSTORE PUSH1 0x22 PUSH1 0x4 MSTORE PUSH1 0x24 PUSH1 0x0 REVERT JUMPDEST POP SWAP2 SWAP1 POP JUMP JUMPDEST PUSH1 0x20 DUP1 DUP3 MSTORE PUSH1 0x1B SWAP1 DUP3 ADD MSTORE PUSH32 0x4D656D626572736869703A204E6F7420616E206F70657261746F720000000000 PUSH1 0x40 DUP3 ADD MSTORE PUSH1 0x60 ADD SWAP1 JUMP JUMPDEST PUSH1 0x1F DUP3 GT ISZERO PUSH2 0x6ED JUMPI PUSH1 0x0 DUP2 DUP2 MSTORE PUSH1 0x20 DUP2 KECCAK256 PUSH1 0x1F DUP6 ADD PUSH1 0x5 SHR DUP2 ADD PUSH1 0x20 DUP7 LT ISZERO PUSH2 0x2557 JUMPI POP DUP1 JUMPDEST PUSH1 0x1F DUP6 ADD PUSH1 0x5 SHR DUP3 ADD SWAP2 POP JUMPDEST DUP2 DUP2 LT ISZERO PUSH2 0x2576 JUMPI DUP3 DUP2 SSTORE PUSH1 0x1 ADD PUSH2 0x2563 JUMP JUMPDEST POP POP POP POP POP POP JUMP JUMPDEST DUP2 MLOAD PUSH8 0xFFFFFFFFFFFFFFFF DUP2 GT ISZERO PUSH2 0x2598 JUMPI PUSH2 0x2598 PUSH2 0x2108 JUMP JUMPDEST PUSH2 0x25AC DUP2 PUSH2 0x25A6 DUP5 SLOAD PUSH2 0x24BF JUMP JUMPDEST DUP5 PUSH2 0x2530 JUMP JUMPDEST PUSH1 0x20 DUP1 PUSH1 0x1F DUP4 GT PUSH1 0x1 DUP2 EQ PUSH2 0x25E1 JUMPI PUSH1 0x0 DUP5 ISZERO PUSH2 0x25C9 JUMPI POP DUP6 DUP4 ADD MLOAD JUMPDEST PUSH1 0x0 NOT PUSH1 0x3 DUP7 SWAP1 SHL SHR NOT AND PUSH1 0x1 DUP6 SWAP1 SHL OR DUP6 SSTORE PUSH2 0x2576 JUMP JUMPDEST PUSH1 0x0 DUP6 DUP2 MSTORE PUSH1 0x20 DUP2 KECCAK256 PUSH1 0x1F NOT DUP7 AND SWAP2 JUMPDEST DUP3 DUP2 LT ISZERO PUSH2 0x2610 JUMPI DUP9 DUP7 ADD MLOAD DUP3 SSTORE SWAP5 DUP5 ADD SWAP5 PUSH1 0x1 SWAP1 SWAP2 ADD SWAP1 DUP5 ADD PUSH2 0x25F1 JUMP JUMPDEST POP DUP6 DUP3 LT ISZERO PUSH2 0x262E JUMPI DUP8 DUP6 ADD MLOAD PUSH1 0x0 NOT PUSH1 0x3 DUP9 SWAP1 SHL PUSH1 0xF8 AND SHR NOT AND DUP2 SSTORE JUMPDEST POP POP POP POP POP PUSH1 0x1 SWAP1 DUP2 SHL ADD SWAP1 SSTORE POP JUMP JUMPDEST PUSH4 0x4E487B71 PUSH1 0xE0 SHL PUSH1 0x0 MSTORE PUSH1 0x11 PUSH1 0x4 MSTORE PUSH1 0x24 PUSH1 0x0 REVERT JUMPDEST PUSH1 0x0 DUP2 PUSH2 0x2663 JUMPI PUSH2 0x2663 PUSH2 0x263E JUMP JUMPDEST POP PUSH1 0x0 NOT ADD SWAP1 JUMP JUMPDEST PUSH1 0x0 DUP2 MLOAD PUSH2 0x267D DUP2 DUP6 PUSH1 0x20 DUP7 ADD PUSH2 0x1FCC JUMP JUMPDEST SWAP3 SWAP1 SWAP3 ADD SWAP3 SWAP2 POP POP JUMP JUMPDEST PUSH1 0x0 DUP3 MLOAD PUSH2 0x2699 DUP2 DUP5 PUSH1 0x20 DUP8 ADD PUSH2 0x1FCC JUMP JUMPDEST SWAP2 SWAP1 SWAP2 ADD SWAP3 SWAP2 POP POP JUMP JUMPDEST PUSH32 0x7B2274726169745F74797065223A202263726561746F72222C202276616C7565 DUP2 MSTORE PUSH32 0x223A2022596F756E676861205061726B2028EBB095EC9881ED959829227D0000 PUSH1 0x20 DUP3 ADD MSTORE PUSH1 0x3E ADD SWAP1 JUMP JUMPDEST PUSH1 0x5B PUSH1 0xF8 SHL DUP2 MSTORE PUSH1 0x0 PUSH2 0x2707 PUSH1 0x1 DUP4 ADD PUSH2 0x26A3 JUMP JUMPDEST PUSH1 0xB PUSH1 0xFA SHL DUP1 DUP3 MSTORE PUSH1 0x0 DUP1 MLOAD PUSH1 0x20 PUSH2 0x2F87 DUP4 CODECOPY DUP2 MLOAD SWAP2 MSTORE PUSH1 0x1 DUP4 ADD MSTORE PUSH32 0x69746C65222C202276616C7565223A2022EC8C8DEAB280EB8C80EBACB4227D00 PUSH1 0x21 DUP4 ADD MSTORE PUSH1 0x40 DUP3 ADD MSTORE PUSH1 0x0 DUP1 MLOAD PUSH1 0x20 PUSH2 0x2F47 DUP4 CODECOPY DUP2 MLOAD SWAP2 MSTORE PUSH1 0x41 DUP3 ADD MSTORE PUSH32 0x7469746C65222C202276616C7565223A2022446F75626C652D73776F72642064 PUSH1 0x61 DUP3 ADD MSTORE PUSH32 0x616E63652062792074776F20706572666F726D657273227D2C00000000000000 PUSH1 0x81 DUP3 ADD MSTORE PUSH1 0x0 DUP1 MLOAD PUSH1 0x20 PUSH2 0x3266 DUP4 CODECOPY DUP2 MLOAD SWAP2 MSTORE PUSH1 0x9A DUP3 ADD MSTORE PUSH32 0x726C222C202276616C7565223A202268747470733A2F2F6B616E736F6E672E69 PUSH1 0xBA DUP3 ADD MSTORE PUSH32 0x6F2F696D675F64657461696C2E68746D6C3F69643D3130227D00000000000000 PUSH1 0xDA DUP3 ADD MSTORE PUSH1 0x5D PUSH1 0xF8 SHL PUSH1 0xF3 DUP3 ADD MSTORE PUSH1 0xF4 ADD SWAP3 SWAP2 POP POP JUMP JUMPDEST PUSH1 0x5B PUSH1 0xF8 SHL DUP2 MSTORE PUSH1 0x0 PUSH2 0x2836 PUSH1 0x1 DUP4 ADD PUSH2 0x26A3 JUMP JUMPDEST PUSH1 0xB PUSH1 0xFA SHL DUP1 DUP3 MSTORE PUSH1 0x0 DUP1 MLOAD PUSH1 0x20 PUSH2 0x2F87 DUP4 CODECOPY DUP2 MLOAD SWAP2 MSTORE PUSH1 0x1 DUP4 ADD MSTORE PUSH32 0x69746C65222C202276616C7565223A2022EAB384EBB380EAB080ED9994227D00 PUSH1 0x21 DUP4 ADD MSTORE PUSH1 0x40 DUP3 ADD MSTORE PUSH1 0x0 DUP1 MLOAD PUSH1 0x20 PUSH2 0x2F47 DUP4 CODECOPY DUP2 MLOAD SWAP2 MSTORE PUSH1 0x41 DUP3 ADD MSTORE PUSH32 0x7469746C65222C202276616C7565223A20224265617574696573206368617474 PUSH1 0x61 DUP3 ADD MSTORE PUSH22 0x1A5B99C818995CDA59194818481CDD1C99585B489F4B PUSH1 0x52 SHL PUSH1 0x81 DUP3 ADD MSTORE PUSH1 0x0 DUP1 MLOAD PUSH1 0x20 PUSH2 0x3266 DUP4 CODECOPY DUP2 MLOAD SWAP2 MSTORE PUSH1 0x97 DUP3 ADD MSTORE PUSH32 0x726C222C202276616C7565223A202268747470733A2F2F6B616E736F6E672E69 PUSH1 0xB7 DUP3 ADD MSTORE PUSH32 0x6F2F696D675F64657461696C2E68746D6C3F69643D3138227D00000000000000 PUSH1 0xD7 DUP3 ADD MSTORE PUSH1 0x5D PUSH1 0xF8 SHL PUSH1 0xF0 DUP3 ADD MSTORE PUSH1 0xF1 ADD SWAP3 SWAP2 POP POP JUMP JUMPDEST PUSH1 0x5B PUSH1 0xF8 SHL DUP2 MSTORE PUSH1 0x0 PUSH2 0x295E PUSH1 0x1 DUP4 ADD PUSH2 0x26A3 JUMP JUMPDEST PUSH1 0xB PUSH1 0xFA SHL DUP1 DUP3 MSTORE PUSH1 0x0 DUP1 MLOAD PUSH1 0x20 PUSH2 0x2F87 DUP4 CODECOPY DUP2 MLOAD SWAP2 MSTORE PUSH1 0x1 DUP4 ADD MSTORE PUSH32 0x69746C655F31222C202276616C7565223A2022EC8C8DEAB280EB8C80EBACB422 PUSH1 0x21 DUP4 ADD MSTORE PUSH1 0x7D PUSH1 0xF8 SHL PUSH1 0x41 DUP4 ADD MSTORE PUSH1 0x42 DUP3 ADD MSTORE PUSH1 0x0 DUP1 MLOAD PUSH1 0x20 PUSH2 0x2F47 DUP4 CODECOPY DUP2 MLOAD SWAP2 MSTORE PUSH1 0x43 DUP3 ADD MSTORE PUSH32 0x7469746C655F31222C202276616C7565223A2022446F75626C652D73776F7264 PUSH1 0x63 DUP3 ADD MSTORE PUSH32 0x2064616E63652062792074776F20706572666F726D657273227D2C0000000000 PUSH1 0x83 DUP3 ADD MSTORE PUSH1 0x0 DUP1 MLOAD PUSH1 0x20 PUSH2 0x3266 DUP4 CODECOPY DUP2 MLOAD SWAP2 MSTORE PUSH1 0x9E DUP3 ADD MSTORE PUSH32 0x726C5F31222C202276616C7565223A202268747470733A2F2F6B616E736F6E67 PUSH1 0xBE DUP3 ADD MSTORE PUSH32 0x2E696F2F696D675F64657461696C2E68746D6C3F69643D3130227D0000000000 PUSH1 0xDE DUP3 ADD MSTORE PUSH2 0x1FC5 PUSH2 0x2BAC PUSH2 0x2B49 PUSH2 0x2AE6 PUSH2 0x2AD9 PUSH2 0x2A92 PUSH1 0xF9 DUP8 ADD PUSH1 0xB PUSH1 0xFA SHL DUP2 MSTORE PUSH1 0x1 ADD SWAP1 JUMP JUMPDEST PUSH1 0x0 DUP1 MLOAD PUSH1 0x20 PUSH2 0x2F87 DUP4 CODECOPY DUP2 MLOAD SWAP2 MSTORE DUP2 MSTORE PUSH32 0x69746C655F32222C202276616C7565223A2022EAB384EBB380EAB080ED999422 PUSH1 0x20 DUP3 ADD MSTORE PUSH1 0x7D PUSH1 0xF8 SHL PUSH1 0x40 DUP3 ADD MSTORE PUSH1 0x41 ADD SWAP1 JUMP JUMPDEST PUSH1 0xB PUSH1 0xFA SHL DUP2 MSTORE PUSH1 0x1 ADD SWAP1 JUMP JUMPDEST PUSH1 0x0 DUP1 MLOAD PUSH1 0x20 PUSH2 0x2F47 DUP4 CODECOPY DUP2 MLOAD SWAP2 MSTORE DUP2 MSTORE PUSH32 0x7469746C655F32222C202276616C7565223A2022426561757469657320636861 PUSH1 0x20 DUP3 ADD MSTORE PUSH32 0x7474696E672062657369646520612073747265616D227D2C0000000000000000 PUSH1 0x40 DUP3 ADD MSTORE PUSH1 0x58 ADD SWAP1 JUMP JUMPDEST PUSH1 0x0 DUP1 MLOAD PUSH1 0x20 PUSH2 0x3266 DUP4 CODECOPY DUP2 MLOAD SWAP2 MSTORE DUP2 MSTORE PUSH32 0x726C5F32222C202276616C7565223A202268747470733A2F2F6B616E736F6E67 PUSH1 0x20 DUP3 ADD MSTORE PUSH32 0x2E696F2F696D675F64657461696C2E68746D6C3F69643D3138227D0000000000 PUSH1 0x40 DUP3 ADD MSTORE PUSH1 0x5B ADD SWAP1 JUMP JUMPDEST PUSH1 0x5D PUSH1 0xF8 SHL DUP2 MSTORE PUSH1 0x1 ADD SWAP1 JUMP JUMPDEST PUSH1 0x20 DUP1 DUP3 MSTORE PUSH1 0x19 SWAP1 DUP3 ADD MSTORE PUSH32 0x4D656D626572736869703A204E6F7420746865206F776E657200000000000000 PUSH1 0x40 DUP3 ADD MSTORE PUSH1 0x60 ADD SWAP1 JUMP JUMPDEST PUSH4 0x4E487B71 PUSH1 0xE0 SHL PUSH1 0x0 MSTORE PUSH1 0x32 PUSH1 0x4 MSTORE PUSH1 0x24 PUSH1 0x0 REVERT JUMPDEST PUSH1 0x0 PUSH1 0x20 DUP3 DUP5 SUB SLT ISZERO PUSH2 0x2C18 JUMPI PUSH1 0x0 DUP1 REVERT JUMPDEST PUSH2 0x1FC5 DUP3 PUSH2 0x20CA JUMP JUMPDEST PUSH1 0x0 DUP1 DUP4 CALLDATALOAD PUSH1 0x1E NOT DUP5 CALLDATASIZE SUB ADD DUP2 SLT PUSH2 0x2C38 JUMPI PUSH1 0x0 DUP1 REVERT JUMPDEST DUP4 ADD DUP1 CALLDATALOAD SWAP2 POP PUSH8 0xFFFFFFFFFFFFFFFF DUP3 GT ISZERO PUSH2 0x2C53 JUMPI PUSH1 0x0 DUP1 REVERT JUMPDEST PUSH1 0x20 ADD SWAP2 POP CALLDATASIZE DUP2 SWAP1 SUB DUP3 SGT ISZERO PUSH2 0x22AC JUMPI PUSH1 0x0 DUP1 REVERT JUMPDEST PUSH1 0x0 PUSH1 0x1 DUP3 ADD PUSH2 0x2C7A JUMPI PUSH2 0x2C7A PUSH2 0x263E JUMP JUMPDEST POP PUSH1 0x1 ADD SWAP1 JUMP JUMPDEST PUSH1 0x0 DUP1 DUP5 SLOAD PUSH2 0x2C8F DUP2 PUSH2 0x24BF JUMP JUMPDEST PUSH1 0x1 DUP3 DUP2 AND DUP1 ISZERO PUSH2 0x2CA7 JUMPI PUSH1 0x1 DUP2 EQ PUSH2 0x2CBC JUMPI PUSH2 0x2CEB JUMP JUMPDEST PUSH1 0xFF NOT DUP5 AND DUP8 MSTORE DUP3 ISZERO ISZERO DUP4 MUL DUP8 ADD SWAP5 POP PUSH2 0x2CEB JUMP JUMPDEST DUP9 PUSH1 0x0 MSTORE PUSH1 0x20 DUP1 PUSH1 0x0 KECCAK256 PUSH1 0x0 JUMPDEST DUP6 DUP2 LT ISZERO PUSH2 0x2CE2 JUMPI DUP2 SLOAD DUP11 DUP3 ADD MSTORE SWAP1 DUP5 ADD SWAP1 DUP3 ADD PUSH2 0x2CC9 JUMP JUMPDEST POP POP POP DUP3 DUP8 ADD SWAP5 POP JUMPDEST POP POP POP POP DUP4 MLOAD PUSH2 0x2CFF DUP2 DUP4 PUSH1 0x20 DUP9 ADD PUSH2 0x1FCC JUMP JUMPDEST ADD SWAP5 SWAP4 POP POP POP POP JUMP JUMPDEST PUSH32 0x7B226E616D65223A20224B616E736F6E67204D6574617665727365204D757365 DUP2 MSTORE PUSH1 0x0 PUSH1 0x20 PUSH19 0x756D204D656D62657273686970204E46542023 PUSH1 0x68 SHL DUP2 DUP5 ADD MSTORE DUP8 MLOAD PUSH2 0x2D5C DUP2 PUSH1 0x33 DUP7 ADD DUP5 DUP13 ADD PUSH2 0x1FCC JUMP JUMPDEST PUSH19 0x111610113232B9B1B934B83A34B7B7111D1011 PUSH1 0x69 SHL PUSH1 0x33 SWAP2 DUP6 ADD SWAP2 DUP3 ADD MSTORE DUP8 MLOAD PUSH2 0x2D8E DUP2 PUSH1 0x46 DUP5 ADD DUP6 DUP13 ADD PUSH2 0x1FCC JUMP JUMPDEST PUSH13 0x1116101134B6B0B3B2911D1011 PUSH1 0x99 SHL PUSH1 0x46 SWAP3 SWAP1 SWAP2 ADD SWAP2 DUP3 ADD MSTORE DUP7 MLOAD PUSH2 0x2DBB DUP2 PUSH1 0x53 DUP5 ADD DUP6 DUP12 ADD PUSH2 0x1FCC JUMP JUMPDEST PUSH1 0x33 DUP2 DUP4 ADD ADD SWAP2 POP POP PUSH12 0x1116101139B1B7B932911D1 PUSH1 0xA5 SHL DUP3 DUP3 ADD MSTORE DUP6 MLOAD PUSH2 0x2DEA DUP2 PUSH1 0x2C DUP5 ADD DUP6 DUP11 ADD PUSH2 0x1FCC JUMP JUMPDEST PUSH2 0x2E28 PUSH2 0x2E1B PUSH2 0x2E15 PUSH1 0x2C DUP5 DUP7 ADD ADD PUSH16 0x16101130BA3A3934B13ABA32B9911D1 PUSH1 0x85 SHL DUP2 MSTORE PUSH1 0x10 ADD SWAP1 JUMP JUMPDEST DUP9 PUSH2 0x266B JUMP JUMPDEST PUSH1 0x7D PUSH1 0xF8 SHL DUP2 MSTORE PUSH1 0x1 ADD SWAP1 JUMP JUMPDEST SWAP11 SWAP10 POP POP POP POP POP POP POP POP POP POP JUMP JUMPDEST PUSH32 0x646174613A6170706C69636174696F6E2F6A736F6E3B6261736536342C000000 DUP2 MSTORE PUSH1 0x0 DUP3 MLOAD PUSH2 0x2E6E DUP2 PUSH1 0x1D DUP6 ADD PUSH1 0x20 DUP8 ADD PUSH2 0x1FCC JUMP JUMPDEST SWAP2 SWAP1 SWAP2 ADD PUSH1 0x1D ADD SWAP3 SWAP2 POP POP JUMP JUMPDEST PUSH1 0x1 PUSH1 0x1 PUSH1 0xA0 SHL SUB DUP6 DUP2 AND DUP3 MSTORE DUP5 AND PUSH1 0x20 DUP3 ADD MSTORE PUSH1 0x40 DUP2 ADD DUP4 SWAP1 MSTORE PUSH1 0x80 PUSH1 0x60 DUP3 ADD DUP2 SWAP1 MSTORE PUSH1 0x0 SWAP1 PUSH2 0x225D SWAP1 DUP4 ADD DUP5 PUSH2 0x1FF0 JUMP JUMPDEST PUSH1 0x0 PUSH1 0x20 DUP3 DUP5 SUB SLT ISZERO PUSH2 0x2EC0 JUMPI PUSH1 0x0 DUP1 REVERT JUMPDEST DUP2 MLOAD PUSH2 0x1FC5 DUP2 PUSH2 0x1F8F JUMP JUMPDEST PUSH4 0x4E487B71 PUSH1 0xE0 SHL PUSH1 0x0 MSTORE PUSH1 0x12 PUSH1 0x4 MSTORE PUSH1 0x24 PUSH1 0x0 REVERT JUMPDEST PUSH1 0x0 DUP3 PUSH2 0x2EF0 JUMPI PUSH2 0x2EF0 PUSH2 0x2ECB JUMP JUMPDEST POP DIV SWAP1 JUMP JUMPDEST DUP2 DUP2 SUB DUP2 DUP2 GT ISZERO PUSH2 0x4F2 JUMPI PUSH2 0x4F2 PUSH2 0x263E JUMP JUMPDEST PUSH1 0x0 DUP3 PUSH2 0x2F17 JUMPI PUSH2 0x2F17 PUSH2 0x2ECB JUMP JUMPDEST POP MOD SWAP1 JUMP JUMPDEST DUP1 DUP3 ADD DUP1 DUP3 GT ISZERO PUSH2 0x4F2 JUMPI PUSH2 0x4F2 PUSH2 0x263E JUMP JUMPDEST DUP1 DUP3 MUL DUP2 ISZERO DUP3 DUP3 DIV DUP5 EQ OR PUSH2 0x4F2 JUMPI PUSH2 0x4F2 PUSH2 0x263E JUMP INVALID PUSH28 0x2274726169745F74797065223A2022686F6D6D6167655F656E676C69 PUSH20 0x685F80BB2B638CC20BC4D0A60D66940F3AB4A00C SAR PUSH28 0x313497CA82FB0B4AB00793007B2274726169745F74797065223A2022 PUSH9 0x6F6D6D6167655F6B6F PUSH19 0x65616E5F744142434445464748494A4B4C4D4E 0x4F POP MLOAD MSTORE MSTORE8 SLOAD SSTORE JUMP JUMPI PC MSIZE GAS PUSH2 0x6263 PUSH5 0x6566676869 PUSH11 0x6B6C6D6E6F707172737475 PUSH23 0x7778797A303132333435363738392B2F4B616E736F6E67 KECCAK256 0x4D PUSH6 0x746176657273 PUSH6 0x204D75736575 PUSH14 0x204D656D62657273686970204E46 SLOAD 0x4B PUSH2 0x6E73 PUSH16 0x6E67204D6574617665727365204D7573 PUSH6 0x756D204D656D PUSH3 0x657273 PUSH9 0x6970204E4654732065 PUSH15 0x7469746C6520686F6C646572732077 PUSH9 0x6F206F776E204E4654 PUSH20 0x20697373756564206279204B4D4D2E2054686973 KECCAK256 PUSH14 0x656D62657273686970204E465420 PUSH10 0x73206D6F726520746861 PUSH15 0x206A7573742061206D656D62657273 PUSH9 0x697020636172643B20 PUSH10 0x742073796D626F6C697A PUSH6 0x732074686520 PUSH17 0x72696465206F66206265696E6720612054 PUSH19 0x65617375726520477561726469616E206F6620 SLOAD PUSH19 0x61646974696F6E616C204B6F7265616E204375 PUSH13 0x747572652C2072657072657365 PUSH15 0x74696E672061207370656369616C20 PUSH6 0x787065726965 PUSH15 0x636520616E6420726573706F6E7369 PUSH3 0x696C69 PUSH21 0x792E2043726561746564206279207468652072656E PUSH16 0x776E2067726170686963206465736967 PUSH15 0x657220596F756E676861205061726B 0x2C KECCAK256 PUSH21 0x686973204E465420697320726F6F74656420696E20 PUSH21 0x68652064697374696E6374697665206C6F676F206F PUSH7 0x20746865204B61 PUSH15 0x736F6E67204D657461766572736520 0x4D PUSH22 0x7365756D2C206120776F726B20616C736F2061747472 PUSH10 0x627574656420746F2050 PUSH2 0x726B 0x2E KECCAK256 JUMPI PUSH10 0x74682061206D6F646572 PUSH15 0x207265696E74657270726574617469 PUSH16 0x6E2C2069742063617074757265732074 PUSH9 0x6520657373656E6365 KECCAK256 PUSH16 0x66207468652065787175697369746520 PUSH4 0x68617261 PUSH4 0x74657273 KECCAK256 PUSH7 0x726F6D20746865 KECCAK256 COINBASE PUSH13 0x62756D206F662047656E726520 POP PUSH2 0x696E PUSH21 0x696E677320627920487965776F6E20696E20313874 PUSH9 0x2063656E7475727920 0x4A PUSH16 0x73656F6E2064796E617374792E7B2274 PUSH19 0x6169745F74797065223A2022686F6D6D616765 PUSH0 PUSH5 0x657461696C PUSH0 PUSH22 0x68747470733A2F2F6B6D6D2E6D7970696E6174612E63 PUSH13 0x6F75642F697066732F516D5535 PC GAS MSIZE MSTORE8 PUSH18 0x637577426B4C654D436D3247666D6A797831 BALANCE PUSH16 0x504E45714A456B6E655161334A317777 PUSH6 0x2FA264697066 PUSH20 0x58221220894C8D5DECECCAF67CCBD92B1EFDB555 PUSH20 0x834713944465843AE12AA8972A692C64736F6C63 NUMBER STOP ADDMOD EQ STOP CALLER "},"methodIdentifiers":{"approve(address,uint256)":"095ea7b3","balanceOf(address)":"70a08231","batchMint(address[],uint16[],string[])":"613a5623","burn(uint256)":"42966c68","getApproved(uint256)":"081812fc","getAttributes(uint256)":"4378a6e3","getBaseImgUrl()":"e49fe3eb","getOwner()":"893d20e8","initialize()":"8129fc1c","isAggregationActive()":"bf4c51af","isApprovedForAll(address,address)":"e985e9c5","isOperatorActive(address)":"eb473533","isSoulboundMode()":"3b263de7","maxSupply()":"d5abeb01","members(uint256)":"5daf08ca","mint(address,uint16,string)":"ecb2906c","name()":"06fdde03","ownerOf(uint256)":"6352211e","safeTransferFrom(address,address,uint256)":"42842e0e","safeTransferFrom(address,address,uint256,bytes)":"b88d4fde","setAggregation(bool)":"de5ac3da","setApprovalForAll(address,bool)":"a22cb465","setOperator(address,bool)":"558a7297","setSoulboundMode(bool)":"f77a6d33","supportsInterface(bytes4)":"01ffc9a7","symbol()":"95d89b41","tokenURI(uint256)":"c87b56dd","totalSupply()":"18160ddd","transferFrom(address,address,uint256)":"23b872dd","transferOwner(address)":"4fb2e45d","updateBaseImgUrl(string)":"3c45d706","updateIsExpired(uint256,bool)":"70912cc9","updateScore(uint256,uint16)":"3badcc96"}},"storageLayout":{"storage":[{"astId":3259,"contract":"contracts/MembershipV2.sol:Membership","label":"maxSupply","offset":0,"slot":"0","type":"t_uint256"},{"astId":3261,"contract":"contracts/MembershipV2.sol:Membership","label":"totalSupply","offset":0,"slot":"1","type":"t_uint256"},{"astId":3263,"contract":"contracts/MembershipV2.sol:Membership","label":"_tokenId","offset":0,"slot":"2","type":"t_uint256"},{"astId":3265,"contract":"contracts/MembershipV2.sol:Membership","label":"_owner","offset":0,"slot":"3","type":"t_address"},{"astId":3267,"contract":"contracts/MembershipV2.sol:Membership","label":"isAggregationActive","offset":20,"slot":"3","type":"t_bool"},{"astId":3269,"contract":"contracts/MembershipV2.sol:Membership","label":"isSoulboundMode","offset":21,"slot":"3","type":"t_bool"},{"astId":3271,"contract":"contracts/MembershipV2.sol:Membership","label":"_baseImgUrl","offset":0,"slot":"4","type":"t_string_storage"},{"astId":3284,"contract":"contracts/MembershipV2.sol:Membership","label":"_operators","offset":0,"slot":"5","type":"t_mapping(t_address,t_bool)"},{"astId":3289,"contract":"contracts/MembershipV2.sol:Membership","label":"members","offset":0,"slot":"6","type":"t_mapping(t_uint256,t_struct(Member)3280_storage)"}],"types":{"t_address":{"encoding":"inplace","label":"address","numberOfBytes":"20"},"t_bool":{"encoding":"inplace","label":"bool","numberOfBytes":"1"},"t_mapping(t_address,t_bool)":{"encoding":"mapping","key":"t_address","label":"mapping(address => bool)","numberOfBytes":"32","value":"t_bool"},"t_mapping(t_uint256,t_struct(Member)3280_storage)":{"encoding":"mapping","key":"t_uint256","label":"mapping(uint256 => struct Membership.Member)","numberOfBytes":"32","value":"t_struct(Member)3280_storage"},"t_string_storage":{"encoding":"bytes","label":"string","numberOfBytes":"32"},"t_struct(Member)3280_storage":{"encoding":"inplace","label":"struct Membership.Member","members":[{"astId":3273,"contract":"contracts/MembershipV2.sol:Membership","label":"tokenId","offset":0,"slot":"0","type":"t_uint256"},{"astId":3275,"contract":"contracts/MembershipV2.sol:Membership","label":"isExpired","offset":0,"slot":"1","type":"t_bool"},{"astId":3277,"contract":"contracts/MembershipV2.sol:Membership","label":"score","offset":1,"slot":"1","type":"t_uint16"},{"astId":3279,"contract":"contracts/MembershipV2.sol:Membership","label":"imgName","offset":0,"slot":"2","type":"t_string_storage"}],"numberOfBytes":"96"},"t_uint16":{"encoding":"inplace","label":"uint16","numberOfBytes":"2"},"t_uint256":{"encoding":"inplace","label":"uint256","numberOfBytes":"32"}}}}}}