{"contracts/Membership.sol":{"Membership":{"abi":[{"inputs":[],"name":"ERC721EnumerableForbiddenBatchMint","type":"error"},{"inputs":[{"internalType":"address","name":"sender","type":"address"},{"internalType":"uint256","name":"tokenId","type":"uint256"},{"internalType":"address","name":"owner","type":"address"}],"name":"ERC721IncorrectOwner","type":"error"},{"inputs":[{"internalType":"address","name":"operator","type":"address"},{"internalType":"uint256","name":"tokenId","type":"uint256"}],"name":"ERC721InsufficientApproval","type":"error"},{"inputs":[{"internalType":"address","name":"approver","type":"address"}],"name":"ERC721InvalidApprover","type":"error"},{"inputs":[{"internalType":"address","name":"operator","type":"address"}],"name":"ERC721InvalidOperator","type":"error"},{"inputs":[{"internalType":"address","name":"owner","type":"address"}],"name":"ERC721InvalidOwner","type":"error"},{"inputs":[{"internalType":"address","name":"receiver","type":"address"}],"name":"ERC721InvalidReceiver","type":"error"},{"inputs":[{"internalType":"address","name":"sender","type":"address"}],"name":"ERC721InvalidSender","type":"error"},{"inputs":[{"internalType":"uint256","name":"tokenId","type":"uint256"}],"name":"ERC721NonexistentToken","type":"error"},{"inputs":[{"internalType":"address","name":"owner","type":"address"},{"internalType":"uint256","name":"index","type":"uint256"}],"name":"ERC721OutOfBoundsIndex","type":"error"},{"inputs":[],"name":"InvalidInitialization","type":"error"},{"inputs":[],"name":"NotInitializing","type":"error"},{"anonymous":false,"inputs":[{"indexed":true,"internalType":"address","name":"owner","type":"address"},{"indexed":true,"internalType":"address","name":"approved","type":"address"},{"indexed":true,"internalType":"uint256","name":"tokenId","type":"uint256"}],"name":"Approval","type":"event"},{"anonymous":false,"inputs":[{"indexed":true,"internalType":"address","name":"owner","type":"address"},{"indexed":true,"internalType":"address","name":"operator","type":"address"},{"indexed":false,"internalType":"bool","name":"approved","type":"bool"}],"name":"ApprovalForAll","type":"event"},{"anonymous":false,"inputs":[{"indexed":false,"internalType":"uint64","name":"version","type":"uint64"}],"name":"Initialized","type":"event"},{"anonymous":false,"inputs":[{"indexed":true,"internalType":"address","name":"from","type":"address"},{"indexed":true,"internalType":"address","name":"to","type":"address"},{"indexed":true,"internalType":"uint256","name":"tokenId","type":"uint256"}],"name":"Transfer","type":"event"},{"inputs":[{"internalType":"address","name":"to","type":"address"},{"internalType":"uint256","name":"tokenId","type":"uint256"}],"name":"approve","outputs":[],"stateMutability":"nonpayable","type":"function"},{"inputs":[{"internalType":"address","name":"owner","type":"address"}],"name":"balanceOf","outputs":[{"internalType":"uint256","name":"","type":"uint256"}],"stateMutability":"view","type":"function"},{"inputs":[{"internalType":"address[]","name":"toAddrs","type":"address[]"},{"internalType":"uint16[]","name":"scores","type":"uint16[]"},{"internalType":"string[]","name":"imgNames","type":"string[]"}],"name":"batchMint","outputs":[],"stateMutability":"nonpayable","type":"function"},{"inputs":[{"internalType":"uint256","name":"tokenId","type":"uint256"}],"name":"getApproved","outputs":[{"internalType":"address","name":"","type":"address"}],"stateMutability":"view","type":"function"},{"inputs":[],"name":"getOwner","outputs":[{"internalType":"address","name":"","type":"address"}],"stateMutability":"view","type":"function"},{"inputs":[{"internalType":"address","name":"_operator","type":"address"}],"name":"initialize","outputs":[],"stateMutability":"nonpayable","type":"function"},{"inputs":[],"name":"isAggregationActive","outputs":[{"internalType":"bool","name":"","type":"bool"}],"stateMutability":"view","type":"function"},{"inputs":[{"internalType":"address","name":"owner","type":"address"},{"internalType":"address","name":"operator","type":"address"}],"name":"isApprovedForAll","outputs":[{"internalType":"bool","name":"","type":"bool"}],"stateMutability":"view","type":"function"},{"inputs":[{"internalType":"address","name":"operatorAddr","type":"address"}],"name":"isOperatorActive","outputs":[{"internalType":"bool","name":"","type":"bool"}],"stateMutability":"view","type":"function"},{"inputs":[],"name":"maxSupply","outputs":[{"internalType":"uint256","name":"","type":"uint256"}],"stateMutability":"view","type":"function"},{"inputs":[{"internalType":"uint256","name":"","type":"uint256"}],"name":"members","outputs":[{"internalType":"uint256","name":"tokenId","type":"uint256"},{"internalType":"bool","name":"isExpired","type":"bool"},{"internalType":"uint16","name":"score","type":"uint16"},{"internalType":"string","name":"imgName","type":"string"}],"stateMutability":"view","type":"function"},{"inputs":[{"internalType":"address","name":"toAddr","type":"address"},{"internalType":"uint16","name":"score","type":"uint16"},{"internalType":"string","name":"imgName","type":"string"}],"name":"mint","outputs":[],"stateMutability":"nonpayable","type":"function"},{"inputs":[],"name":"name","outputs":[{"internalType":"string","name":"","type":"string"}],"stateMutability":"view","type":"function"},{"inputs":[{"internalType":"uint256","name":"tokenId","type":"uint256"}],"name":"ownerOf","outputs":[{"internalType":"address","name":"","type":"address"}],"stateMutability":"view","type":"function"},{"inputs":[{"internalType":"address","name":"from","type":"address"},{"internalType":"address","name":"to","type":"address"},{"internalType":"uint256","name":"tokenId","type":"uint256"}],"name":"safeTransferFrom","outputs":[],"stateMutability":"nonpayable","type":"function"},{"inputs":[{"internalType":"address","name":"from","type":"address"},{"internalType":"address","name":"to","type":"address"},{"internalType":"uint256","name":"tokenId","type":"uint256"},{"internalType":"bytes","name":"data","type":"bytes"}],"name":"safeTransferFrom","outputs":[],"stateMutability":"nonpayable","type":"function"},{"inputs":[{"internalType":"address","name":"operator","type":"address"},{"internalType":"bool","name":"approved","type":"bool"}],"name":"setApprovalForAll","outputs":[],"stateMutability":"nonpayable","type":"function"},{"inputs":[{"internalType":"bytes4","name":"interfaceId","type":"bytes4"}],"name":"supportsInterface","outputs":[{"internalType":"bool","name":"","type":"bool"}],"stateMutability":"view","type":"function"},{"inputs":[{"internalType":"bool","name":"aggregation","type":"bool"}],"name":"switchAggregation","outputs":[],"stateMutability":"nonpayable","type":"function"},{"inputs":[],"name":"symbol","outputs":[{"internalType":"string","name":"","type":"string"}],"stateMutability":"view","type":"function"},{"inputs":[{"internalType":"uint256","name":"index","type":"uint256"}],"name":"tokenByIndex","outputs":[{"internalType":"uint256","name":"","type":"uint256"}],"stateMutability":"view","type":"function"},{"inputs":[{"internalType":"address","name":"owner","type":"address"},{"internalType":"uint256","name":"index","type":"uint256"}],"name":"tokenOfOwnerByIndex","outputs":[{"internalType":"uint256","name":"","type":"uint256"}],"stateMutability":"view","type":"function"},{"inputs":[{"internalType":"uint256","name":"tokenId","type":"uint256"}],"name":"tokenURI","outputs":[{"internalType":"string","name":"","type":"string"}],"stateMutability":"view","type":"function"},{"inputs":[{"internalType":"address","name":"account","type":"address"}],"name":"tokensOf","outputs":[{"internalType":"uint256[]","name":"","type":"uint256[]"}],"stateMutability":"view","type":"function"},{"inputs":[],"name":"totalSupply","outputs":[{"internalType":"uint256","name":"","type":"uint256"}],"stateMutability":"view","type":"function"},{"inputs":[{"internalType":"address","name":"from","type":"address"},{"internalType":"address","name":"to","type":"address"},{"internalType":"uint256","name":"tokenId","type":"uint256"}],"name":"transferFrom","outputs":[],"stateMutability":"nonpayable","type":"function"},{"inputs":[{"internalType":"address","name":"newOwner","type":"address"}],"name":"transferOwnership","outputs":[],"stateMutability":"nonpayable","type":"function"},{"inputs":[{"internalType":"string","name":"newUrl","type":"string"}],"name":"updateBaseImgUrl","outputs":[],"stateMutability":"nonpayable","type":"function"},{"inputs":[{"internalType":"uint256","name":"tokenId","type":"uint256"},{"internalType":"bool","name":"isExpired","type":"bool"}],"name":"updateIsExpired","outputs":[],"stateMutability":"nonpayable","type":"function"},{"inputs":[{"internalType":"address","name":"newOperator","type":"address"},{"internalType":"bool","name":"isActive","type":"bool"}],"name":"updateOperator","outputs":[],"stateMutability":"nonpayable","type":"function"},{"inputs":[{"internalType":"uint256","name":"tokenId","type":"uint256"},{"internalType":"uint16","name":"score","type":"uint16"}],"name":"updateScore","outputs":[],"stateMutability":"nonpayable","type":"function"}],"evm":{"bytecode":{"linkReferences":{},"object":"608060405234801561001057600080fd5b50612c8a806100206000396000f3fe608060405234801561001057600080fd5b50600436106101e55760003560e01c80636352211e1161010f578063bf4c51af116100a2578063e985e9c511610071578063e985e9c51461042f578063eb47353314610442578063ecb2906c1461046e578063f2fde38b1461048157600080fd5b8063bf4c51af146103ec578063c4d66de814610400578063c87b56dd14610413578063d5abeb011461042657600080fd5b8063893d20e8116100de578063893d20e8146103ad57806395d89b41146103be578063a22cb465146103c6578063b88d4fde146103d957600080fd5b80636352211e146103615780636d44a3b21461037457806370912cc91461038757806370a082311461039a57600080fd5b80632f745c59116101875780634f6ccce7116101565780634f6ccce7146102f85780635a3f26721461030b5780635daf08ca1461032b578063613a56231461034e57600080fd5b80632f745c59146102ac5780633badcc96146102bf5780633c45d706146102d257806342842e0e146102e557600080fd5b8063095ea7b3116101c3578063095ea7b31461025257806318160ddd1461026757806323b872dd146102865780632972a50d1461029957600080fd5b806301ffc9a7146101ea57806306fdde0314610212578063081812fc14610227575b600080fd5b6101fd6101f8366004611eb6565b610494565b60405190151581526020015b60405180910390f35b61021a6104bf565b6040516102099190611f2a565b61023a610235366004611f3d565b610563565b6040516001600160a01b039091168152602001610209565b610265610260366004611f72565b610578565b005b600080516020612be6833981519152545b604051908152602001610209565b610265610294366004611f9c565b610587565b6102656102a7366004611fe8565b610617565b6102786102ba366004611f72565b610659565b6102656102cd366004612015565b6106cd565b6102656102e03660046120cc565b61071f565b6102656102f3366004611f9c565b61074f565b610278610306366004611f3d565b61076f565b61031e610319366004612114565b6107e7565b604051610209919061212f565b61033e610339366004611f3d565b61088a565b6040516102099493929190612173565b61026561035c3660046121f3565b610946565b61023a61036f366004611f3d565b610a05565b61026561038236600461228c565b610a10565b6102656103953660046122b6565b610a91565b6102786103a8366004612114565b610ad8565b6002546001600160a01b031661023a565b61021a610b34565b6102656103d436600461228c565b610b73565b6102656103e73660046122d9565b610b7e565b6002546101fd90600160a01b900460ff1681565b61026561040e366004612114565b610b95565b61021a610421366004611f3d565b610d60565b61027860005481565b6101fd61043d366004612354565b610f47565b6101fd610450366004612114565b6001600160a01b031660009081526004602052604090205460ff1690565b61026561047c36600461237e565b610f94565b61026561048f366004612114565b61115b565b60006001600160e01b0319821663780e9d6360e01b14806104b957506104b9826111d3565b92915050565b60008051602061291b83398151915280546060919081906104df9061240b565b80601f016020809104026020016040519081016040528092919081815260200182805461050b9061240b565b80156105585780601f1061052d57610100808354040283529160200191610558565b820191906000526020600020905b81548152906001019060200180831161053b57829003601f168201915b505050505091505090565b600061056e82611223565b506104b98261125b565b610583828233611295565b5050565b6001600160a01b0382166105b657604051633250574960e11b8152600060048201526024015b60405180910390fd5b60006105c38383336112a2565b9050836001600160a01b0316816001600160a01b031614610611576040516364283d7b60e01b81526001600160a01b03808616600483015260248201849052821660448201526064016105ad565b50505050565b61061f6113a3565b61063b5760405162461bcd60e51b81526004016105ad90612445565b60028054911515600160a01b0260ff60a01b19909216919091179055565b60006000805160206128fb83398151915261067384610ad8565b83106106a45760405163295f44f760e21b81526001600160a01b0385166004820152602481018490526044016105ad565b6001600160a01b0384166000908152602091825260408082208583529092522054905092915050565b6106d56113a3565b6106f15760405162461bcd60e51b81526004016105ad90612445565b600091825260056020526040909120600101805461ffff9092166101000262ffff0019909216919091179055565b6107276113a3565b6107435760405162461bcd60e51b81526004016105ad90612445565b600361058382826124c2565b61076a83838360405180602001604052806000815250610b7e565b505050565b60006000805160206128fb833981519152610796600080516020612be68339815191525490565b83106107bf5760405163295f44f760e21b815260006004820152602481018490526044016105ad565b8060020183815481106107d4576107d4612581565b9060005260206000200154915050919050565b606060006107f483610ad8565b6001600160401b0381111561080b5761080b612041565b604051908082528060200260200182016040528015610834578160200160208202803683370190505b50905060005b61084384610ad8565b811015610883576108548482610659565b82828151811061086657610866612581565b60209081029190910101528061087b816125ad565b91505061083a565b5092915050565b600560205260009081526040902080546001820154600283018054929360ff83169361010090930461ffff16929091906108c39061240b565b80601f01602080910402602001604051908101604052809291908181526020018280546108ef9061240b565b801561093c5780601f106109115761010080835404028352916020019161093c565b820191906000526020600020905b81548152906001019060200180831161091f57829003601f168201915b5050505050905084565b61094e6113a3565b61096a5760405162461bcd60e51b81526004016105ad90612445565b60005b858110156109fc576109ea87878381811061098a5761098a612581565b905060200201602081019061099f9190612114565b8686848181106109b1576109b1612581565b90506020020160208101906109c691906125c6565b8585858181106109d8576109d8612581565b905060200281019061047c91906125e1565b806109f4816125ad565b91505061096d565b50505050505050565b60006104b982611223565b6002546001600160a01b03163314610a665760405162461bcd60e51b815260206004820152601960248201527826b2b6b132b939b434b81d102737ba103a34329037bbb732b960391b60448201526064016105ad565b6001600160a01b03919091166000908152600460205260409020805460ff1916911515919091179055565b610a996113a3565b610ab55760405162461bcd60e51b81526004016105ad90612445565b600091825260056020526040909120600101805460ff1916911515919091179055565b600060008051602061291b8339815191526001600160a01b038316610b13576040516322718ad960e21b8152600060048201526024016105ad565b6001600160a01b039092166000908152600390920160205250604090205490565b7f80bb2b638cc20bc4d0a60d66940f3ab4a00c1d7b313497ca82fb0b4ab0079301805460609160008051602061291b833981519152916104df9061240b565b6105833383836113df565b610b89848484610587565b61061184848484611490565b7ff0c57e16840df040f15088dc2f81fe391c3923bec73e23a9662efc9c229c6a008054600160401b810460ff1615906001600160401b0316600081158015610bda5750825b90506000826001600160401b03166001148015610bf65750303b155b905081158015610c04575080155b15610c225760405163f92ee8a960e01b815260040160405180910390fd5b845467ffffffffffffffff191660011785558315610c4c57845460ff60401b1916600160401b1785555b610c94604051806060016040528060278152602001612bbf602791396040518060400160405280600e81526020016d04b4d4d2d4d656d626572736869760941b8152506115b2565b600280546001600160a01b031916331781556001600160a01b038781166000908152600460209081526040808320805460ff19908116600190811790925595549094168352918290208054909416909217909255815160808101909252604f80835290612c0690830139600390610d0b90826124c2565b506127106000558315610d5857845460ff60401b19168555604051600181527fc7f505b2f371ae2175ee4913f4499e1f2633a7b5936321eed1cdaeb6115181d29060200160405180910390a15b505050505050565b6060610d6b826115c4565b610dc25760405162461bcd60e51b815260206004820152602260248201527f4d656d626572736869703a20546f6b656e4964206e6f74206d696e7465642079604482015261195d60f21b60648201526084016105ad565b6000828152600560209081526040808320815160808101835281548152600182015460ff811615159482019490945261010090930461ffff1691830191909152600281018054606084019190610e179061240b565b80601f0160208091040260200160405190810160405280929190818152602001828054610e439061240b565b8015610e905780601f10610e6557610100808354040283529160200191610e90565b820191906000526020600020905b815481529060010190602001808311610e7357829003601f168201915b5050505050815250509050600060038260600151604051602001610eb5929190612627565b60405160208183030381529060405290506000610ed06115ee565b90506000610f1a610ee087611614565b8385610ef3886040015161ffff16611614565b604051602001610f0694939291906126d6565b604051602081830303815290604052611714565b905080604051602001610f2d91906127d4565b604051602081830303815290604052945050505050919050565b6001600160a01b0391821660009081527f80bb2b638cc20bc4d0a60d66940f3ab4a00c1d7b313497ca82fb0b4ab00793056020908152604080832093909416825291909152205460ff1690565b610f9c6113a3565b610fb85760405162461bcd60e51b81526004016105ad90612445565b6000546001541061101c5760405162461bcd60e51b815260206004820152602860248201527f4d656d626572736869703a206d696e74696e6720636f756e74206f766572206d6044820152676178537570706c7960c01b60648201526084016105ad565b6001805490600061102c836125ad565b91905055506000604051806080016040528060015481526020016000151581526020018561ffff16815260200184848080601f016020809104026020016040519081016040528093929190818152602001838380828437600092018290525093909452505060018054825260056020908152604092839020855181559085015191810180549386015161ffff166101000262ffff00199315159390931662ffffff1990941693909317919091179091556060830151929350839290915060028201906110f890826124c2565b509050506111088560015461187d565b6111545760405162461bcd60e51b815260206004820152601e60248201527f4d656d626572736869702d4e46543a206d696e74696e67206661696c6564000060448201526064016105ad565b5050505050565b6002546001600160a01b031633146111b15760405162461bcd60e51b815260206004820152601960248201527826b2b6b132b939b434b81d102737ba103a34329037bbb732b960391b60448201526064016105ad565b600280546001600160a01b0319166001600160a01b0392909216919091179055565b60006001600160e01b031982166380ac58cd60e01b148061120457506001600160e01b03198216635b5e139f60e01b145b806104b957506301ffc9a760e01b6001600160e01b03198316146104b9565b60008061122f83611892565b90506001600160a01b0381166104b957604051637e27328960e01b8152600481018490526024016105ad565b60009081527f80bb2b638cc20bc4d0a60d66940f3ab4a00c1d7b313497ca82fb0b4ab007930460205260409020546001600160a01b031690565b61076a83838360016118cc565b6000806112b08585856119e2565b90506001600160a01b0381166113395761133484600080516020612be6833981519152805460008381527f645e039705490088daad89bae25049a34f4a9072d398537b1ab2425f24cbed0360205260408120829055600182018355919091527fa42f15e5d656f8155fd7419d740a6073999f19cd6e061449ce4a257150545bf20155565b61135c565b846001600160a01b0316816001600160a01b03161461135c5761135c8185611aec565b6001600160a01b0385166113785761137384611b90565b61139b565b846001600160a01b0316816001600160a01b03161461139b5761139b8585611c67565b949350505050565b6002546000906001600160a01b03163314806113ce57503360009081526004602052604090205460ff165b156113d95750600190565b50600090565b60008051602061291b8339815191526001600160a01b03831661142057604051630b61174360e31b81526001600160a01b03841660048201526024016105ad565b6001600160a01b038481166000818152600584016020908152604080832094881680845294825291829020805460ff191687151590811790915591519182527f17307eab39ab6107e8899845ad3d59bd9653f200f220920489ca2b5937696c31910160405180910390a350505050565b6001600160a01b0383163b1561061157604051630a85bd0160e11b81526001600160a01b0384169063150b7a02906114d2903390889087908790600401612819565b6020604051808303816000875af192505050801561150d575060408051601f3d908101601f1916820190925261150a9181019061284c565b60015b611576573d80801561153b576040519150601f19603f3d011682016040523d82523d6000602084013e611540565b606091505b50805160000361156e57604051633250574960e11b81526001600160a01b03851660048201526024016105ad565b805181602001fd5b6001600160e01b03198116630a85bd0160e11b1461115457604051633250574960e11b81526001600160a01b03851660048201526024016105ad565b6115ba611cc2565b6105838282611d0d565b6000806115d083611892565b6001600160a01b0316036115e657506000919050565b506001919050565b60606000604051806102800160405280610244815260200161293b610244913992915050565b60608160000361163b5750506040805180820190915260018152600360fc1b602082015290565b8160005b8115611665578061164f816125ad565b915061165e9050600a8361287f565b915061163f565b6000816001600160401b0381111561167f5761167f612041565b6040519080825280601f01601f1916602001820160405280156116a9576020820181803683370190505b5090505b841561139b576116be600183612893565b91506116cb600a866128a6565b6116d69060306128ba565b60f81b8183815181106116eb576116eb612581565b60200101906001600160f81b031916908160001a90535061170d600a8661287f565b94506116ad565b80516060906000819003611738575050604080516020810190915260008152919050565b600060036117478360026128ba565b611751919061287f565b61175c9060046128cd565b9050600061176b8260206128ba565b6001600160401b0381111561178257611782612041565b6040519080825280601f01601f1916602001820160405280156117ac576020820181803683370190505b5090506000604051806060016040528060408152602001612b7f604091399050600181016020830160005b86811015611838576003818a01810151603f601282901c8116860151600c83901c8216870151600684901c831688015192909316870151600891821b60ff94851601821b92841692909201901b91160160e01b8352600490920191016117d7565b50600386066001811461185257600281146118635761186f565b613d3d60f01b60011983015261186f565b603d60f81b6000198301525b505050918152949350505050565b60006118898383611d3e565b50600192915050565b60009081527f80bb2b638cc20bc4d0a60d66940f3ab4a00c1d7b313497ca82fb0b4ab007930260205260409020546001600160a01b031690565b60008051602061291b83398151915281806118ef57506001600160a01b03831615155b156119b15760006118ff85611223565b90506001600160a01b0384161580159061192b5750836001600160a01b0316816001600160a01b031614155b801561193e575061193c8185610f47565b155b156119675760405163a9fbf51f60e01b81526001600160a01b03851660048201526024016105ad565b82156119af5784866001600160a01b0316826001600160a01b03167f8c5be1e5ebec7d5bd14f71427d1e84f3dd0314c0f7b2291e5b200ac8c7c3b92560405160405180910390a45b505b600093845260040160205250506040902080546001600160a01b0319166001600160a01b0392909216919091179055565b600060008051602061291b833981519152816119fd85611892565b90506001600160a01b03841615611a1957611a19818587611d58565b6001600160a01b03811615611a5957611a366000866000806118cc565b6001600160a01b0381166000908152600383016020526040902080546000190190555b6001600160a01b03861615611a8a576001600160a01b03861660009081526003830160205260409020805460010190555b600085815260028301602052604080822080546001600160a01b0319166001600160a01b038a811691821790925591518893918516917fddf252ad1be2c89b69c2b068fc378daa952ba7f163c4a11628f55a4df523b3ef91a495945050505050565b6000805160206128fb8339815191526000611b0684610ad8565b6000848152600184016020526040902054909150808214611b5b576001600160a01b03851660009081526020848152604080832085845282528083205484845281842081905583526001860190915290208190555b50600092835260018201602090815260408085208590556001600160a01b039095168452918252838320908352905290812055565b600080516020612be6833981519152546000805160206128fb83398151915290600090611bbf90600190612893565b6000848152600384016020526040812054600285018054939450909284908110611beb57611beb612581565b9060005260206000200154905080846002018381548110611c0e57611c0e612581565b600091825260208083209091019290925582815260038601909152604080822084905586825281205560028401805480611c4a57611c4a6128e4565b600190038181906000526020600020016000905590555050505050565b6000805160206128fb83398151915260006001611c8385610ad8565b611c8d9190612893565b6001600160a01b0390941660009081526020838152604080832087845282528083208690559482526001909301909252502055565b7ff0c57e16840df040f15088dc2f81fe391c3923bec73e23a9662efc9c229c6a0054600160401b900460ff16611d0b57604051631afcd79f60e31b815260040160405180910390fd5b565b611d15611cc2565b60008051602061291b83398151915280611d2f84826124c2565b506001810161061183826124c2565b610583828260405180602001604052806000815250611dbc565b611d63838383611dd3565b61076a576001600160a01b038316611d9157604051637e27328960e01b8152600481018290526024016105ad565b60405163177e802f60e01b81526001600160a01b0383166004820152602481018290526044016105ad565b611dc68383611e38565b61076a6000848484611490565b60006001600160a01b0383161580159061139b5750826001600160a01b0316846001600160a01b03161480611e0d5750611e0d8484610f47565b8061139b5750826001600160a01b0316611e268361125b565b6001600160a01b031614949350505050565b6001600160a01b038216611e6257604051633250574960e11b8152600060048201526024016105ad565b6000611e70838360006112a2565b90506001600160a01b0381161561076a576040516339e3563760e11b8152600060048201526024016105ad565b6001600160e01b031981168114611eb357600080fd5b50565b600060208284031215611ec857600080fd5b8135611ed381611e9d565b9392505050565b60005b83811015611ef5578181015183820152602001611edd565b50506000910152565b60008151808452611f16816020860160208601611eda565b601f01601f19169290920160200192915050565b602081526000611ed36020830184611efe565b600060208284031215611f4f57600080fd5b5035919050565b80356001600160a01b0381168114611f6d57600080fd5b919050565b60008060408385031215611f8557600080fd5b611f8e83611f56565b946020939093013593505050565b600080600060608486031215611fb157600080fd5b611fba84611f56565b9250611fc860208501611f56565b9150604084013590509250925092565b80358015158114611f6d57600080fd5b600060208284031215611ffa57600080fd5b611ed382611fd8565b803561ffff81168114611f6d57600080fd5b6000806040838503121561202857600080fd5b8235915061203860208401612003565b90509250929050565b634e487b7160e01b600052604160045260246000fd5b60006001600160401b038084111561207157612071612041565b604051601f8501601f19908116603f0116810190828211818310171561209957612099612041565b816040528093508581528686860111156120b257600080fd5b858560208301376000602087830101525050509392505050565b6000602082840312156120de57600080fd5b81356001600160401b038111156120f457600080fd5b8201601f8101841361210557600080fd5b61139b84823560208401612057565b60006020828403121561212657600080fd5b611ed382611f56565b6020808252825182820181905260009190848201906040850190845b818110156121675783518352928401929184019160010161214b565b50909695505050505050565b848152831515602082015261ffff8316604082015260806060820152600061219e6080830184611efe565b9695505050505050565b60008083601f8401126121ba57600080fd5b5081356001600160401b038111156121d157600080fd5b6020830191508360208260051b85010111156121ec57600080fd5b9250929050565b6000806000806000806060878903121561220c57600080fd5b86356001600160401b038082111561222357600080fd5b61222f8a838b016121a8565b9098509650602089013591508082111561224857600080fd5b6122548a838b016121a8565b9096509450604089013591508082111561226d57600080fd5b5061227a89828a016121a8565b979a9699509497509295939492505050565b6000806040838503121561229f57600080fd5b6122a883611f56565b915061203860208401611fd8565b600080604083850312156122c957600080fd5b8235915061203860208401611fd8565b600080600080608085870312156122ef57600080fd5b6122f885611f56565b935061230660208601611f56565b92506040850135915060608501356001600160401b0381111561232857600080fd5b8501601f8101871361233957600080fd5b61234887823560208401612057565b91505092959194509250565b6000806040838503121561236757600080fd5b61237083611f56565b915061203860208401611f56565b6000806000806060858703121561239457600080fd5b61239d85611f56565b93506123ab60208601612003565b925060408501356001600160401b03808211156123c757600080fd5b818701915087601f8301126123db57600080fd5b8135818111156123ea57600080fd5b8860208285010111156123fc57600080fd5b95989497505060200194505050565b600181811c9082168061241f57607f821691505b60208210810361243f57634e487b7160e01b600052602260045260246000fd5b50919050565b6020808252601b908201527f4d656d626572736869703a204e6f7420616e206f70657261746f720000000000604082015260600190565b601f82111561076a57600081815260208120601f850160051c810160208610156124a35750805b601f850160051c820191505b81811015610d58578281556001016124af565b81516001600160401b038111156124db576124db612041565b6124ef816124e9845461240b565b8461247c565b602080601f831160018114612524576000841561250c5750858301515b600019600386901b1c1916600185901b178555610d58565b600085815260208120601f198616915b8281101561255357888601518255948401946001909101908401612534565b50858210156125715787850151600019600388901b60f8161c191681555b5050505050600190811b01905550565b634e487b7160e01b600052603260045260246000fd5b634e487b7160e01b600052601160045260246000fd5b6000600182016125bf576125bf612597565b5060010190565b6000602082840312156125d857600080fd5b611ed382612003565b6000808335601e198436030181126125f857600080fd5b8301803591506001600160401b0382111561261257600080fd5b6020019150368190038213156121ec57600080fd5b60008084546126358161240b565b6001828116801561264d576001811461266257612691565b60ff1984168752821515830287019450612691565b8860005260208060002060005b858110156126885781548a82015290840190820161266f565b50505082870194505b505050506e6b6d6d5f6d656d626572736869705f60881b815283516126bd81600f840160208801611eda565b61219e600f82840101632e6a706760e01b815260040190565b7f7b226e616d65223a20224b616e736f6e67204d6574617665727365204d757365815272756d204d656d62657273686970204e4654202360681b60208201526000855161272a816033850160208a01611eda565b72111610113232b9b1b934b83a34b7b7111d101160691b603391840191820152855161275d816046840160208a01611eda565b6c1116101134b6b0b3b2911d101160991b60469290910191820152845161278b816053840160208901611eda565b6b01116101139b1b7b932911d160a51b6053929091019182015283516127b881605f840160208801611eda565b607d60f81b605f92909101918201526060019695505050505050565b7f646174613a6170706c69636174696f6e2f6a736f6e3b6261736536342c00000081526000825161280c81601d850160208701611eda565b91909101601d0192915050565b6001600160a01b038581168252841660208201526040810183905260806060820181905260009061219e90830184611efe565b60006020828403121561285e57600080fd5b8151611ed381611e9d565b634e487b7160e01b600052601260045260246000fd5b60008261288e5761288e612869565b500490565b818103818111156104b9576104b9612597565b6000826128b5576128b5612869565b500690565b808201808211156104b9576104b9612597565b80820281158282048414176104b9576104b9612597565b634e487b7160e01b600052603160045260246000fdfe645e039705490088daad89bae25049a34f4a9072d398537b1ab2425f24cbed0080bb2b638cc20bc4d0a60d66940f3ab4a00c1d7b313497ca82fb0b4ab00793004b616e736f6e67204d6574617665727365204d757365756d204d656d62657273686970204e46547320656e7469746c6520686f6c646572732077686f206f776e204e46547320697373756564206279204b4d4d20746f207370656369616c2074726561746d656e742e2054686973206d656d62657273686970204e4654206973206d6f7265207468616e206a7573742061206d656d6265727368697020636172643b2069742073796d626f6c697a657320746865207072696465206f66206265696e67206120547265617375726520477561726469616e2c20726570726573656e74696e672061207370656369616c20657870657269656e636520616e6420726573706f6e736962696c6974792e20437265617465642062792074686520736b696c6c656420677261706869632064657369676e657220596f756e676861205061726b2c2074686973204e465420697320726f6f74656420696e207468652064697374696e6374697665206c6f676f206f6620746865204b616e736f6e67204d6574617665727365204d757365756d2c2061206372656174696f6e20616c736f206174747269627574656420746f205061726b2e20576974682061206d6f6465726e207265696e746572707265746174696f6e2c2069742063617074757265732074686520657373656e6365206f662074686520657871756973697465206c616e6473636170657320616e6420636861726163746572732066726f6d2074686520416c62756d206f662047656e7265205061696e74696e677320627920487965776f6e2e4142434445464748494a4b4c4d4e4f505152535455565758595a6162636465666768696a6b6c6d6e6f707172737475767778797a303132333435363738392b2f4b616e736f6e67204d6574617665727365204d757365756d204d656d62657273686970204e4654645e039705490088daad89bae25049a34f4a9072d398537b1ab2425f24cbed0268747470733a2f2f6b6d6d2e6d7970696e6174612e636c6f75642f697066732f516d5535585a595371637577426b4c654d436d3247666d6a797831316f504e45714a456b6e655161334a317777652fa2646970667358221220d91d1e13320011ff7eb42ee023b62a66de51270379f2ca24c94988d2dbacfffc64736f6c63430008140033","opcodes":"PUSH1 0x80 PUSH1 0x40 MSTORE CALLVALUE DUP1 ISZERO PUSH2 0x10 JUMPI PUSH1 0x0 DUP1 REVERT JUMPDEST POP PUSH2 0x2C8A DUP1 PUSH2 0x20 PUSH1 0x0 CODECOPY PUSH1 0x0 RETURN INVALID PUSH1 0x80 PUSH1 0x40 MSTORE CALLVALUE DUP1 ISZERO PUSH2 0x10 JUMPI PUSH1 0x0 DUP1 REVERT JUMPDEST POP PUSH1 0x4 CALLDATASIZE LT PUSH2 0x1E5 JUMPI PUSH1 0x0 CALLDATALOAD PUSH1 0xE0 SHR DUP1 PUSH4 0x6352211E GT PUSH2 0x10F JUMPI DUP1 PUSH4 0xBF4C51AF GT PUSH2 0xA2 JUMPI DUP1 PUSH4 0xE985E9C5 GT PUSH2 0x71 JUMPI DUP1 PUSH4 0xE985E9C5 EQ PUSH2 0x42F JUMPI DUP1 PUSH4 0xEB473533 EQ PUSH2 0x442 JUMPI DUP1 PUSH4 0xECB2906C EQ PUSH2 0x46E JUMPI DUP1 PUSH4 0xF2FDE38B EQ PUSH2 0x481 JUMPI PUSH1 0x0 DUP1 REVERT JUMPDEST DUP1 PUSH4 0xBF4C51AF EQ PUSH2 0x3EC JUMPI DUP1 PUSH4 0xC4D66DE8 EQ PUSH2 0x400 JUMPI DUP1 PUSH4 0xC87B56DD EQ PUSH2 0x413 JUMPI DUP1 PUSH4 0xD5ABEB01 EQ PUSH2 0x426 JUMPI PUSH1 0x0 DUP1 REVERT JUMPDEST DUP1 PUSH4 0x893D20E8 GT PUSH2 0xDE JUMPI DUP1 PUSH4 0x893D20E8 EQ PUSH2 0x3AD JUMPI DUP1 PUSH4 0x95D89B41 EQ PUSH2 0x3BE JUMPI DUP1 PUSH4 0xA22CB465 EQ PUSH2 0x3C6 JUMPI DUP1 PUSH4 0xB88D4FDE EQ PUSH2 0x3D9 JUMPI PUSH1 0x0 DUP1 REVERT JUMPDEST DUP1 PUSH4 0x6352211E EQ PUSH2 0x361 JUMPI DUP1 PUSH4 0x6D44A3B2 EQ PUSH2 0x374 JUMPI DUP1 PUSH4 0x70912CC9 EQ PUSH2 0x387 JUMPI DUP1 PUSH4 0x70A08231 EQ PUSH2 0x39A JUMPI PUSH1 0x0 DUP1 REVERT JUMPDEST DUP1 PUSH4 0x2F745C59 GT PUSH2 0x187 JUMPI DUP1 PUSH4 0x4F6CCCE7 GT PUSH2 0x156 JUMPI DUP1 PUSH4 0x4F6CCCE7 EQ PUSH2 0x2F8 JUMPI DUP1 PUSH4 0x5A3F2672 EQ PUSH2 0x30B JUMPI DUP1 PUSH4 0x5DAF08CA EQ PUSH2 0x32B JUMPI DUP1 PUSH4 0x613A5623 EQ PUSH2 0x34E JUMPI PUSH1 0x0 DUP1 REVERT JUMPDEST DUP1 PUSH4 0x2F745C59 EQ PUSH2 0x2AC JUMPI DUP1 PUSH4 0x3BADCC96 EQ PUSH2 0x2BF JUMPI DUP1 PUSH4 0x3C45D706 EQ PUSH2 0x2D2 JUMPI DUP1 PUSH4 0x42842E0E EQ PUSH2 0x2E5 JUMPI PUSH1 0x0 DUP1 REVERT JUMPDEST DUP1 PUSH4 0x95EA7B3 GT PUSH2 0x1C3 JUMPI DUP1 PUSH4 0x95EA7B3 EQ PUSH2 0x252 JUMPI DUP1 PUSH4 0x18160DDD EQ PUSH2 0x267 JUMPI DUP1 PUSH4 0x23B872DD EQ PUSH2 0x286 JUMPI DUP1 PUSH4 0x2972A50D EQ PUSH2 0x299 JUMPI PUSH1 0x0 DUP1 REVERT JUMPDEST DUP1 PUSH4 0x1FFC9A7 EQ PUSH2 0x1EA JUMPI DUP1 PUSH4 0x6FDDE03 EQ PUSH2 0x212 JUMPI DUP1 PUSH4 0x81812FC EQ PUSH2 0x227 JUMPI JUMPDEST PUSH1 0x0 DUP1 REVERT JUMPDEST PUSH2 0x1FD PUSH2 0x1F8 CALLDATASIZE PUSH1 0x4 PUSH2 0x1EB6 JUMP JUMPDEST PUSH2 0x494 JUMP JUMPDEST PUSH1 0x40 MLOAD SWAP1 ISZERO ISZERO DUP2 MSTORE PUSH1 0x20 ADD JUMPDEST PUSH1 0x40 MLOAD DUP1 SWAP2 SUB SWAP1 RETURN JUMPDEST PUSH2 0x21A PUSH2 0x4BF JUMP JUMPDEST PUSH1 0x40 MLOAD PUSH2 0x209 SWAP2 SWAP1 PUSH2 0x1F2A JUMP JUMPDEST PUSH2 0x23A PUSH2 0x235 CALLDATASIZE PUSH1 0x4 PUSH2 0x1F3D JUMP JUMPDEST PUSH2 0x563 JUMP JUMPDEST PUSH1 0x40 MLOAD PUSH1 0x1 PUSH1 0x1 PUSH1 0xA0 SHL SUB SWAP1 SWAP2 AND DUP2 MSTORE PUSH1 0x20 ADD PUSH2 0x209 JUMP JUMPDEST PUSH2 0x265 PUSH2 0x260 CALLDATASIZE PUSH1 0x4 PUSH2 0x1F72 JUMP JUMPDEST PUSH2 0x578 JUMP JUMPDEST STOP JUMPDEST PUSH1 0x0 DUP1 MLOAD PUSH1 0x20 PUSH2 0x2BE6 DUP4 CODECOPY DUP2 MLOAD SWAP2 MSTORE SLOAD JUMPDEST PUSH1 0x40 MLOAD SWAP1 DUP2 MSTORE PUSH1 0x20 ADD PUSH2 0x209 JUMP JUMPDEST PUSH2 0x265 PUSH2 0x294 CALLDATASIZE PUSH1 0x4 PUSH2 0x1F9C JUMP JUMPDEST PUSH2 0x587 JUMP JUMPDEST PUSH2 0x265 PUSH2 0x2A7 CALLDATASIZE PUSH1 0x4 PUSH2 0x1FE8 JUMP JUMPDEST PUSH2 0x617 JUMP JUMPDEST PUSH2 0x278 PUSH2 0x2BA CALLDATASIZE PUSH1 0x4 PUSH2 0x1F72 JUMP JUMPDEST PUSH2 0x659 JUMP JUMPDEST PUSH2 0x265 PUSH2 0x2CD CALLDATASIZE PUSH1 0x4 PUSH2 0x2015 JUMP JUMPDEST PUSH2 0x6CD JUMP JUMPDEST PUSH2 0x265 PUSH2 0x2E0 CALLDATASIZE PUSH1 0x4 PUSH2 0x20CC JUMP JUMPDEST PUSH2 0x71F JUMP JUMPDEST PUSH2 0x265 PUSH2 0x2F3 CALLDATASIZE PUSH1 0x4 PUSH2 0x1F9C JUMP JUMPDEST PUSH2 0x74F JUMP JUMPDEST PUSH2 0x278 PUSH2 0x306 CALLDATASIZE PUSH1 0x4 PUSH2 0x1F3D JUMP JUMPDEST PUSH2 0x76F JUMP JUMPDEST PUSH2 0x31E PUSH2 0x319 CALLDATASIZE PUSH1 0x4 PUSH2 0x2114 JUMP JUMPDEST PUSH2 0x7E7 JUMP JUMPDEST PUSH1 0x40 MLOAD PUSH2 0x209 SWAP2 SWAP1 PUSH2 0x212F JUMP JUMPDEST PUSH2 0x33E PUSH2 0x339 CALLDATASIZE PUSH1 0x4 PUSH2 0x1F3D JUMP JUMPDEST PUSH2 0x88A JUMP JUMPDEST PUSH1 0x40 MLOAD PUSH2 0x209 SWAP5 SWAP4 SWAP3 SWAP2 SWAP1 PUSH2 0x2173 JUMP JUMPDEST PUSH2 0x265 PUSH2 0x35C CALLDATASIZE PUSH1 0x4 PUSH2 0x21F3 JUMP JUMPDEST PUSH2 0x946 JUMP JUMPDEST PUSH2 0x23A PUSH2 0x36F CALLDATASIZE PUSH1 0x4 PUSH2 0x1F3D JUMP JUMPDEST PUSH2 0xA05 JUMP JUMPDEST PUSH2 0x265 PUSH2 0x382 CALLDATASIZE PUSH1 0x4 PUSH2 0x228C JUMP JUMPDEST PUSH2 0xA10 JUMP JUMPDEST PUSH2 0x265 PUSH2 0x395 CALLDATASIZE PUSH1 0x4 PUSH2 0x22B6 JUMP JUMPDEST PUSH2 0xA91 JUMP JUMPDEST PUSH2 0x278 PUSH2 0x3A8 CALLDATASIZE PUSH1 0x4 PUSH2 0x2114 JUMP JUMPDEST PUSH2 0xAD8 JUMP JUMPDEST PUSH1 0x2 SLOAD PUSH1 0x1 PUSH1 0x1 PUSH1 0xA0 SHL SUB AND PUSH2 0x23A JUMP JUMPDEST PUSH2 0x21A PUSH2 0xB34 JUMP JUMPDEST PUSH2 0x265 PUSH2 0x3D4 CALLDATASIZE PUSH1 0x4 PUSH2 0x228C JUMP JUMPDEST PUSH2 0xB73 JUMP JUMPDEST PUSH2 0x265 PUSH2 0x3E7 CALLDATASIZE PUSH1 0x4 PUSH2 0x22D9 JUMP JUMPDEST PUSH2 0xB7E JUMP JUMPDEST PUSH1 0x2 SLOAD PUSH2 0x1FD SWAP1 PUSH1 0x1 PUSH1 0xA0 SHL SWAP1 DIV PUSH1 0xFF AND DUP2 JUMP JUMPDEST PUSH2 0x265 PUSH2 0x40E CALLDATASIZE PUSH1 0x4 PUSH2 0x2114 JUMP JUMPDEST PUSH2 0xB95 JUMP JUMPDEST PUSH2 0x21A PUSH2 0x421 CALLDATASIZE PUSH1 0x4 PUSH2 0x1F3D JUMP JUMPDEST PUSH2 0xD60 JUMP JUMPDEST PUSH2 0x278 PUSH1 0x0 SLOAD DUP2 JUMP JUMPDEST PUSH2 0x1FD PUSH2 0x43D CALLDATASIZE PUSH1 0x4 PUSH2 0x2354 JUMP JUMPDEST PUSH2 0xF47 JUMP JUMPDEST PUSH2 0x1FD PUSH2 0x450 CALLDATASIZE PUSH1 0x4 PUSH2 0x2114 JUMP JUMPDEST PUSH1 0x1 PUSH1 0x1 PUSH1 0xA0 SHL SUB AND PUSH1 0x0 SWAP1 DUP2 MSTORE PUSH1 0x4 PUSH1 0x20 MSTORE PUSH1 0x40 SWAP1 KECCAK256 SLOAD PUSH1 0xFF AND SWAP1 JUMP JUMPDEST PUSH2 0x265 PUSH2 0x47C CALLDATASIZE PUSH1 0x4 PUSH2 0x237E JUMP JUMPDEST PUSH2 0xF94 JUMP JUMPDEST PUSH2 0x265 PUSH2 0x48F CALLDATASIZE PUSH1 0x4 PUSH2 0x2114 JUMP JUMPDEST PUSH2 0x115B JUMP JUMPDEST PUSH1 0x0 PUSH1 0x1 PUSH1 0x1 PUSH1 0xE0 SHL SUB NOT DUP3 AND PUSH4 0x780E9D63 PUSH1 0xE0 SHL EQ DUP1 PUSH2 0x4B9 JUMPI POP PUSH2 0x4B9 DUP3 PUSH2 0x11D3 JUMP JUMPDEST SWAP3 SWAP2 POP POP JUMP JUMPDEST PUSH1 0x0 DUP1 MLOAD PUSH1 0x20 PUSH2 0x291B DUP4 CODECOPY DUP2 MLOAD SWAP2 MSTORE DUP1 SLOAD PUSH1 0x60 SWAP2 SWAP1 DUP2 SWAP1 PUSH2 0x4DF SWAP1 PUSH2 0x240B JUMP JUMPDEST DUP1 PUSH1 0x1F ADD PUSH1 0x20 DUP1 SWAP2 DIV MUL PUSH1 0x20 ADD PUSH1 0x40 MLOAD SWAP1 DUP2 ADD PUSH1 0x40 MSTORE DUP1 SWAP3 SWAP2 SWAP1 DUP2 DUP2 MSTORE PUSH1 0x20 ADD DUP3 DUP1 SLOAD PUSH2 0x50B SWAP1 PUSH2 0x240B JUMP JUMPDEST DUP1 ISZERO PUSH2 0x558 JUMPI DUP1 PUSH1 0x1F LT PUSH2 0x52D JUMPI PUSH2 0x100 DUP1 DUP4 SLOAD DIV MUL DUP4 MSTORE SWAP2 PUSH1 0x20 ADD SWAP2 PUSH2 0x558 JUMP JUMPDEST DUP3 ADD SWAP2 SWAP1 PUSH1 0x0 MSTORE PUSH1 0x20 PUSH1 0x0 KECCAK256 SWAP1 JUMPDEST DUP2 SLOAD DUP2 MSTORE SWAP1 PUSH1 0x1 ADD SWAP1 PUSH1 0x20 ADD DUP1 DUP4 GT PUSH2 0x53B JUMPI DUP3 SWAP1 SUB PUSH1 0x1F AND DUP3 ADD SWAP2 JUMPDEST POP POP POP POP POP SWAP2 POP POP SWAP1 JUMP JUMPDEST PUSH1 0x0 PUSH2 0x56E DUP3 PUSH2 0x1223 JUMP JUMPDEST POP PUSH2 0x4B9 DUP3 PUSH2 0x125B JUMP JUMPDEST PUSH2 0x583 DUP3 DUP3 CALLER PUSH2 0x1295 JUMP JUMPDEST POP POP JUMP JUMPDEST PUSH1 0x1 PUSH1 0x1 PUSH1 0xA0 SHL SUB DUP3 AND PUSH2 0x5B6 JUMPI PUSH1 0x40 MLOAD PUSH4 0x32505749 PUSH1 0xE1 SHL DUP2 MSTORE PUSH1 0x0 PUSH1 0x4 DUP3 ADD MSTORE PUSH1 0x24 ADD JUMPDEST PUSH1 0x40 MLOAD DUP1 SWAP2 SUB SWAP1 REVERT JUMPDEST PUSH1 0x0 PUSH2 0x5C3 DUP4 DUP4 CALLER PUSH2 0x12A2 JUMP JUMPDEST SWAP1 POP DUP4 PUSH1 0x1 PUSH1 0x1 PUSH1 0xA0 SHL SUB AND DUP2 PUSH1 0x1 PUSH1 0x1 PUSH1 0xA0 SHL SUB AND EQ PUSH2 0x611 JUMPI PUSH1 0x40 MLOAD PUSH4 0x64283D7B PUSH1 0xE0 SHL DUP2 MSTORE PUSH1 0x1 PUSH1 0x1 PUSH1 0xA0 SHL SUB DUP1 DUP7 AND PUSH1 0x4 DUP4 ADD MSTORE PUSH1 0x24 DUP3 ADD DUP5 SWAP1 MSTORE DUP3 AND PUSH1 0x44 DUP3 ADD MSTORE PUSH1 0x64 ADD PUSH2 0x5AD JUMP JUMPDEST POP POP POP POP JUMP JUMPDEST PUSH2 0x61F PUSH2 0x13A3 JUMP JUMPDEST PUSH2 0x63B JUMPI PUSH1 0x40 MLOAD PUSH3 0x461BCD PUSH1 0xE5 SHL DUP2 MSTORE PUSH1 0x4 ADD PUSH2 0x5AD SWAP1 PUSH2 0x2445 JUMP JUMPDEST PUSH1 0x2 DUP1 SLOAD SWAP2 ISZERO ISZERO PUSH1 0x1 PUSH1 0xA0 SHL MUL PUSH1 0xFF PUSH1 0xA0 SHL NOT SWAP1 SWAP3 AND SWAP2 SWAP1 SWAP2 OR SWAP1 SSTORE JUMP JUMPDEST PUSH1 0x0 PUSH1 0x0 DUP1 MLOAD PUSH1 0x20 PUSH2 0x28FB DUP4 CODECOPY DUP2 MLOAD SWAP2 MSTORE PUSH2 0x673 DUP5 PUSH2 0xAD8 JUMP JUMPDEST DUP4 LT PUSH2 0x6A4 JUMPI PUSH1 0x40 MLOAD PUSH4 0x295F44F7 PUSH1 0xE2 SHL DUP2 MSTORE PUSH1 0x1 PUSH1 0x1 PUSH1 0xA0 SHL SUB DUP6 AND PUSH1 0x4 DUP3 ADD MSTORE PUSH1 0x24 DUP2 ADD DUP5 SWAP1 MSTORE PUSH1 0x44 ADD PUSH2 0x5AD JUMP JUMPDEST PUSH1 0x1 PUSH1 0x1 PUSH1 0xA0 SHL SUB DUP5 AND PUSH1 0x0 SWAP1 DUP2 MSTORE PUSH1 0x20 SWAP2 DUP3 MSTORE PUSH1 0x40 DUP1 DUP3 KECCAK256 DUP6 DUP4 MSTORE SWAP1 SWAP3 MSTORE KECCAK256 SLOAD SWAP1 POP SWAP3 SWAP2 POP POP JUMP JUMPDEST PUSH2 0x6D5 PUSH2 0x13A3 JUMP JUMPDEST PUSH2 0x6F1 JUMPI PUSH1 0x40 MLOAD PUSH3 0x461BCD PUSH1 0xE5 SHL DUP2 MSTORE PUSH1 0x4 ADD PUSH2 0x5AD SWAP1 PUSH2 0x2445 JUMP JUMPDEST PUSH1 0x0 SWAP2 DUP3 MSTORE PUSH1 0x5 PUSH1 0x20 MSTORE PUSH1 0x40 SWAP1 SWAP2 KECCAK256 PUSH1 0x1 ADD DUP1 SLOAD PUSH2 0xFFFF SWAP1 SWAP3 AND PUSH2 0x100 MUL PUSH3 0xFFFF00 NOT SWAP1 SWAP3 AND SWAP2 SWAP1 SWAP2 OR SWAP1 SSTORE JUMP JUMPDEST PUSH2 0x727 PUSH2 0x13A3 JUMP JUMPDEST PUSH2 0x743 JUMPI PUSH1 0x40 MLOAD PUSH3 0x461BCD PUSH1 0xE5 SHL DUP2 MSTORE PUSH1 0x4 ADD PUSH2 0x5AD SWAP1 PUSH2 0x2445 JUMP JUMPDEST PUSH1 0x3 PUSH2 0x583 DUP3 DUP3 PUSH2 0x24C2 JUMP JUMPDEST PUSH2 0x76A DUP4 DUP4 DUP4 PUSH1 0x40 MLOAD DUP1 PUSH1 0x20 ADD PUSH1 0x40 MSTORE DUP1 PUSH1 0x0 DUP2 MSTORE POP PUSH2 0xB7E JUMP JUMPDEST POP POP POP JUMP JUMPDEST PUSH1 0x0 PUSH1 0x0 DUP1 MLOAD PUSH1 0x20 PUSH2 0x28FB DUP4 CODECOPY DUP2 MLOAD SWAP2 MSTORE PUSH2 0x796 PUSH1 0x0 DUP1 MLOAD PUSH1 0x20 PUSH2 0x2BE6 DUP4 CODECOPY DUP2 MLOAD SWAP2 MSTORE SLOAD SWAP1 JUMP JUMPDEST DUP4 LT PUSH2 0x7BF JUMPI PUSH1 0x40 MLOAD PUSH4 0x295F44F7 PUSH1 0xE2 SHL DUP2 MSTORE PUSH1 0x0 PUSH1 0x4 DUP3 ADD MSTORE PUSH1 0x24 DUP2 ADD DUP5 SWAP1 MSTORE PUSH1 0x44 ADD PUSH2 0x5AD JUMP JUMPDEST DUP1 PUSH1 0x2 ADD DUP4 DUP2 SLOAD DUP2 LT PUSH2 0x7D4 JUMPI PUSH2 0x7D4 PUSH2 0x2581 JUMP JUMPDEST SWAP1 PUSH1 0x0 MSTORE PUSH1 0x20 PUSH1 0x0 KECCAK256 ADD SLOAD SWAP2 POP POP SWAP2 SWAP1 POP JUMP JUMPDEST PUSH1 0x60 PUSH1 0x0 PUSH2 0x7F4 DUP4 PUSH2 0xAD8 JUMP JUMPDEST PUSH1 0x1 PUSH1 0x1 PUSH1 0x40 SHL SUB DUP2 GT ISZERO PUSH2 0x80B JUMPI PUSH2 0x80B PUSH2 0x2041 JUMP JUMPDEST PUSH1 0x40 MLOAD SWAP1 DUP1 DUP3 MSTORE DUP1 PUSH1 0x20 MUL PUSH1 0x20 ADD DUP3 ADD PUSH1 0x40 MSTORE DUP1 ISZERO PUSH2 0x834 JUMPI DUP2 PUSH1 0x20 ADD PUSH1 0x20 DUP3 MUL DUP1 CALLDATASIZE DUP4 CALLDATACOPY ADD SWAP1 POP JUMPDEST POP SWAP1 POP PUSH1 0x0 JUMPDEST PUSH2 0x843 DUP5 PUSH2 0xAD8 JUMP JUMPDEST DUP2 LT ISZERO PUSH2 0x883 JUMPI PUSH2 0x854 DUP5 DUP3 PUSH2 0x659 JUMP JUMPDEST DUP3 DUP3 DUP2 MLOAD DUP2 LT PUSH2 0x866 JUMPI PUSH2 0x866 PUSH2 0x2581 JUMP JUMPDEST PUSH1 0x20 SWAP1 DUP2 MUL SWAP2 SWAP1 SWAP2 ADD ADD MSTORE DUP1 PUSH2 0x87B DUP2 PUSH2 0x25AD JUMP JUMPDEST SWAP2 POP POP PUSH2 0x83A JUMP JUMPDEST POP SWAP3 SWAP2 POP POP JUMP JUMPDEST PUSH1 0x5 PUSH1 0x20 MSTORE PUSH1 0x0 SWAP1 DUP2 MSTORE PUSH1 0x40 SWAP1 KECCAK256 DUP1 SLOAD PUSH1 0x1 DUP3 ADD SLOAD PUSH1 0x2 DUP4 ADD DUP1 SLOAD SWAP3 SWAP4 PUSH1 0xFF DUP4 AND SWAP4 PUSH2 0x100 SWAP1 SWAP4 DIV PUSH2 0xFFFF AND SWAP3 SWAP1 SWAP2 SWAP1 PUSH2 0x8C3 SWAP1 PUSH2 0x240B JUMP JUMPDEST DUP1 PUSH1 0x1F ADD PUSH1 0x20 DUP1 SWAP2 DIV MUL PUSH1 0x20 ADD PUSH1 0x40 MLOAD SWAP1 DUP2 ADD PUSH1 0x40 MSTORE DUP1 SWAP3 SWAP2 SWAP1 DUP2 DUP2 MSTORE PUSH1 0x20 ADD DUP3 DUP1 SLOAD PUSH2 0x8EF SWAP1 PUSH2 0x240B JUMP JUMPDEST DUP1 ISZERO PUSH2 0x93C JUMPI DUP1 PUSH1 0x1F LT PUSH2 0x911 JUMPI PUSH2 0x100 DUP1 DUP4 SLOAD DIV MUL DUP4 MSTORE SWAP2 PUSH1 0x20 ADD SWAP2 PUSH2 0x93C JUMP JUMPDEST DUP3 ADD SWAP2 SWAP1 PUSH1 0x0 MSTORE PUSH1 0x20 PUSH1 0x0 KECCAK256 SWAP1 JUMPDEST DUP2 SLOAD DUP2 MSTORE SWAP1 PUSH1 0x1 ADD SWAP1 PUSH1 0x20 ADD DUP1 DUP4 GT PUSH2 0x91F JUMPI DUP3 SWAP1 SUB PUSH1 0x1F AND DUP3 ADD SWAP2 JUMPDEST POP POP POP POP POP SWAP1 POP DUP5 JUMP JUMPDEST PUSH2 0x94E PUSH2 0x13A3 JUMP JUMPDEST PUSH2 0x96A JUMPI PUSH1 0x40 MLOAD PUSH3 0x461BCD PUSH1 0xE5 SHL DUP2 MSTORE PUSH1 0x4 ADD PUSH2 0x5AD SWAP1 PUSH2 0x2445 JUMP JUMPDEST PUSH1 0x0 JUMPDEST DUP6 DUP2 LT ISZERO PUSH2 0x9FC JUMPI PUSH2 0x9EA DUP8 DUP8 DUP4 DUP2 DUP2 LT PUSH2 0x98A JUMPI PUSH2 0x98A PUSH2 0x2581 JUMP JUMPDEST SWAP1 POP PUSH1 0x20 MUL ADD PUSH1 0x20 DUP2 ADD SWAP1 PUSH2 0x99F SWAP2 SWAP1 PUSH2 0x2114 JUMP JUMPDEST DUP7 DUP7 DUP5 DUP2 DUP2 LT PUSH2 0x9B1 JUMPI PUSH2 0x9B1 PUSH2 0x2581 JUMP JUMPDEST SWAP1 POP PUSH1 0x20 MUL ADD PUSH1 0x20 DUP2 ADD SWAP1 PUSH2 0x9C6 SWAP2 SWAP1 PUSH2 0x25C6 JUMP JUMPDEST DUP6 DUP6 DUP6 DUP2 DUP2 LT PUSH2 0x9D8 JUMPI PUSH2 0x9D8 PUSH2 0x2581 JUMP JUMPDEST SWAP1 POP PUSH1 0x20 MUL DUP2 ADD SWAP1 PUSH2 0x47C SWAP2 SWAP1 PUSH2 0x25E1 JUMP JUMPDEST DUP1 PUSH2 0x9F4 DUP2 PUSH2 0x25AD JUMP JUMPDEST SWAP2 POP POP PUSH2 0x96D JUMP JUMPDEST POP POP POP POP POP POP POP JUMP JUMPDEST PUSH1 0x0 PUSH2 0x4B9 DUP3 PUSH2 0x1223 JUMP JUMPDEST PUSH1 0x2 SLOAD PUSH1 0x1 PUSH1 0x1 PUSH1 0xA0 SHL SUB AND CALLER EQ PUSH2 0xA66 JUMPI PUSH1 0x40 MLOAD PUSH3 0x461BCD PUSH1 0xE5 SHL DUP2 MSTORE PUSH1 0x20 PUSH1 0x4 DUP3 ADD MSTORE PUSH1 0x19 PUSH1 0x24 DUP3 ADD MSTORE PUSH25 0x26B2B6B132B939B434B81D102737BA103A34329037BBB732B9 PUSH1 0x39 SHL PUSH1 0x44 DUP3 ADD MSTORE PUSH1 0x64 ADD PUSH2 0x5AD JUMP JUMPDEST PUSH1 0x1 PUSH1 0x1 PUSH1 0xA0 SHL SUB SWAP2 SWAP1 SWAP2 AND PUSH1 0x0 SWAP1 DUP2 MSTORE PUSH1 0x4 PUSH1 0x20 MSTORE PUSH1 0x40 SWAP1 KECCAK256 DUP1 SLOAD PUSH1 0xFF NOT AND SWAP2 ISZERO ISZERO SWAP2 SWAP1 SWAP2 OR SWAP1 SSTORE JUMP JUMPDEST PUSH2 0xA99 PUSH2 0x13A3 JUMP JUMPDEST PUSH2 0xAB5 JUMPI PUSH1 0x40 MLOAD PUSH3 0x461BCD PUSH1 0xE5 SHL DUP2 MSTORE PUSH1 0x4 ADD PUSH2 0x5AD SWAP1 PUSH2 0x2445 JUMP JUMPDEST PUSH1 0x0 SWAP2 DUP3 MSTORE PUSH1 0x5 PUSH1 0x20 MSTORE PUSH1 0x40 SWAP1 SWAP2 KECCAK256 PUSH1 0x1 ADD DUP1 SLOAD PUSH1 0xFF NOT AND SWAP2 ISZERO ISZERO SWAP2 SWAP1 SWAP2 OR SWAP1 SSTORE JUMP JUMPDEST PUSH1 0x0 PUSH1 0x0 DUP1 MLOAD PUSH1 0x20 PUSH2 0x291B DUP4 CODECOPY DUP2 MLOAD SWAP2 MSTORE PUSH1 0x1 PUSH1 0x1 PUSH1 0xA0 SHL SUB DUP4 AND PUSH2 0xB13 JUMPI PUSH1 0x40 MLOAD PUSH4 0x22718AD9 PUSH1 0xE2 SHL DUP2 MSTORE PUSH1 0x0 PUSH1 0x4 DUP3 ADD MSTORE PUSH1 0x24 ADD PUSH2 0x5AD JUMP JUMPDEST PUSH1 0x1 PUSH1 0x1 PUSH1 0xA0 SHL SUB SWAP1 SWAP3 AND PUSH1 0x0 SWAP1 DUP2 MSTORE PUSH1 0x3 SWAP1 SWAP3 ADD PUSH1 0x20 MSTORE POP PUSH1 0x40 SWAP1 KECCAK256 SLOAD SWAP1 JUMP JUMPDEST PUSH32 0x80BB2B638CC20BC4D0A60D66940F3AB4A00C1D7B313497CA82FB0B4AB0079301 DUP1 SLOAD PUSH1 0x60 SWAP2 PUSH1 0x0 DUP1 MLOAD PUSH1 0x20 PUSH2 0x291B DUP4 CODECOPY DUP2 MLOAD SWAP2 MSTORE SWAP2 PUSH2 0x4DF SWAP1 PUSH2 0x240B JUMP JUMPDEST PUSH2 0x583 CALLER DUP4 DUP4 PUSH2 0x13DF JUMP JUMPDEST PUSH2 0xB89 DUP5 DUP5 DUP5 PUSH2 0x587 JUMP JUMPDEST PUSH2 0x611 DUP5 DUP5 DUP5 DUP5 PUSH2 0x1490 JUMP JUMPDEST PUSH32 0xF0C57E16840DF040F15088DC2F81FE391C3923BEC73E23A9662EFC9C229C6A00 DUP1 SLOAD PUSH1 0x1 PUSH1 0x40 SHL DUP2 DIV PUSH1 0xFF AND ISZERO SWAP1 PUSH1 0x1 PUSH1 0x1 PUSH1 0x40 SHL SUB AND PUSH1 0x0 DUP2 ISZERO DUP1 ISZERO PUSH2 0xBDA JUMPI POP DUP3 JUMPDEST SWAP1 POP PUSH1 0x0 DUP3 PUSH1 0x1 PUSH1 0x1 PUSH1 0x40 SHL SUB AND PUSH1 0x1 EQ DUP1 ISZERO PUSH2 0xBF6 JUMPI POP ADDRESS EXTCODESIZE ISZERO JUMPDEST SWAP1 POP DUP2 ISZERO DUP1 ISZERO PUSH2 0xC04 JUMPI POP DUP1 ISZERO JUMPDEST ISZERO PUSH2 0xC22 JUMPI PUSH1 0x40 MLOAD PUSH4 0xF92EE8A9 PUSH1 0xE0 SHL DUP2 MSTORE PUSH1 0x4 ADD PUSH1 0x40 MLOAD DUP1 SWAP2 SUB SWAP1 REVERT JUMPDEST DUP5 SLOAD PUSH8 0xFFFFFFFFFFFFFFFF NOT AND PUSH1 0x1 OR DUP6 SSTORE DUP4 ISZERO PUSH2 0xC4C JUMPI DUP5 SLOAD PUSH1 0xFF PUSH1 0x40 SHL NOT AND PUSH1 0x1 PUSH1 0x40 SHL OR DUP6 SSTORE JUMPDEST PUSH2 0xC94 PUSH1 0x40 MLOAD DUP1 PUSH1 0x60 ADD PUSH1 0x40 MSTORE DUP1 PUSH1 0x27 DUP2 MSTORE PUSH1 0x20 ADD PUSH2 0x2BBF PUSH1 0x27 SWAP2 CODECOPY PUSH1 0x40 MLOAD DUP1 PUSH1 0x40 ADD PUSH1 0x40 MSTORE DUP1 PUSH1 0xE DUP2 MSTORE PUSH1 0x20 ADD PUSH14 0x4B4D4D2D4D656D6265727368697 PUSH1 0x94 SHL DUP2 MSTORE POP PUSH2 0x15B2 JUMP JUMPDEST PUSH1 0x2 DUP1 SLOAD PUSH1 0x1 PUSH1 0x1 PUSH1 0xA0 SHL SUB NOT AND CALLER OR DUP2 SSTORE PUSH1 0x1 PUSH1 0x1 PUSH1 0xA0 SHL SUB DUP8 DUP2 AND PUSH1 0x0 SWAP1 DUP2 MSTORE PUSH1 0x4 PUSH1 0x20 SWAP1 DUP2 MSTORE PUSH1 0x40 DUP1 DUP4 KECCAK256 DUP1 SLOAD PUSH1 0xFF NOT SWAP1 DUP2 AND PUSH1 0x1 SWAP1 DUP2 OR SWAP1 SWAP3 SSTORE SWAP6 SLOAD SWAP1 SWAP5 AND DUP4 MSTORE SWAP2 DUP3 SWAP1 KECCAK256 DUP1 SLOAD SWAP1 SWAP5 AND SWAP1 SWAP3 OR SWAP1 SWAP3 SSTORE DUP2 MLOAD PUSH1 0x80 DUP2 ADD SWAP1 SWAP3 MSTORE PUSH1 0x4F DUP1 DUP4 MSTORE SWAP1 PUSH2 0x2C06 SWAP1 DUP4 ADD CODECOPY PUSH1 0x3 SWAP1 PUSH2 0xD0B SWAP1 DUP3 PUSH2 0x24C2 JUMP JUMPDEST POP PUSH2 0x2710 PUSH1 0x0 SSTORE DUP4 ISZERO PUSH2 0xD58 JUMPI DUP5 SLOAD PUSH1 0xFF PUSH1 0x40 SHL NOT AND DUP6 SSTORE PUSH1 0x40 MLOAD PUSH1 0x1 DUP2 MSTORE PUSH32 0xC7F505B2F371AE2175EE4913F4499E1F2633A7B5936321EED1CDAEB6115181D2 SWAP1 PUSH1 0x20 ADD PUSH1 0x40 MLOAD DUP1 SWAP2 SUB SWAP1 LOG1 JUMPDEST POP POP POP POP POP POP JUMP JUMPDEST PUSH1 0x60 PUSH2 0xD6B DUP3 PUSH2 0x15C4 JUMP JUMPDEST PUSH2 0xDC2 JUMPI PUSH1 0x40 MLOAD PUSH3 0x461BCD PUSH1 0xE5 SHL DUP2 MSTORE PUSH1 0x20 PUSH1 0x4 DUP3 ADD MSTORE PUSH1 0x22 PUSH1 0x24 DUP3 ADD MSTORE PUSH32 0x4D656D626572736869703A20546F6B656E4964206E6F74206D696E7465642079 PUSH1 0x44 DUP3 ADD MSTORE PUSH2 0x195D PUSH1 0xF2 SHL PUSH1 0x64 DUP3 ADD MSTORE PUSH1 0x84 ADD PUSH2 0x5AD JUMP JUMPDEST PUSH1 0x0 DUP3 DUP2 MSTORE PUSH1 0x5 PUSH1 0x20 SWAP1 DUP2 MSTORE PUSH1 0x40 DUP1 DUP4 KECCAK256 DUP2 MLOAD PUSH1 0x80 DUP2 ADD DUP4 MSTORE DUP2 SLOAD DUP2 MSTORE PUSH1 0x1 DUP3 ADD SLOAD PUSH1 0xFF DUP2 AND ISZERO ISZERO SWAP5 DUP3 ADD SWAP5 SWAP1 SWAP5 MSTORE PUSH2 0x100 SWAP1 SWAP4 DIV PUSH2 0xFFFF AND SWAP2 DUP4 ADD SWAP2 SWAP1 SWAP2 MSTORE PUSH1 0x2 DUP2 ADD DUP1 SLOAD PUSH1 0x60 DUP5 ADD SWAP2 SWAP1 PUSH2 0xE17 SWAP1 PUSH2 0x240B JUMP JUMPDEST DUP1 PUSH1 0x1F ADD PUSH1 0x20 DUP1 SWAP2 DIV MUL PUSH1 0x20 ADD PUSH1 0x40 MLOAD SWAP1 DUP2 ADD PUSH1 0x40 MSTORE DUP1 SWAP3 SWAP2 SWAP1 DUP2 DUP2 MSTORE PUSH1 0x20 ADD DUP3 DUP1 SLOAD PUSH2 0xE43 SWAP1 PUSH2 0x240B JUMP JUMPDEST DUP1 ISZERO PUSH2 0xE90 JUMPI DUP1 PUSH1 0x1F LT PUSH2 0xE65 JUMPI PUSH2 0x100 DUP1 DUP4 SLOAD DIV MUL DUP4 MSTORE SWAP2 PUSH1 0x20 ADD SWAP2 PUSH2 0xE90 JUMP JUMPDEST DUP3 ADD SWAP2 SWAP1 PUSH1 0x0 MSTORE PUSH1 0x20 PUSH1 0x0 KECCAK256 SWAP1 JUMPDEST DUP2 SLOAD DUP2 MSTORE SWAP1 PUSH1 0x1 ADD SWAP1 PUSH1 0x20 ADD DUP1 DUP4 GT PUSH2 0xE73 JUMPI DUP3 SWAP1 SUB PUSH1 0x1F AND DUP3 ADD SWAP2 JUMPDEST POP POP POP POP POP DUP2 MSTORE POP POP SWAP1 POP PUSH1 0x0 PUSH1 0x3 DUP3 PUSH1 0x60 ADD MLOAD PUSH1 0x40 MLOAD PUSH1 0x20 ADD PUSH2 0xEB5 SWAP3 SWAP2 SWAP1 PUSH2 0x2627 JUMP JUMPDEST PUSH1 0x40 MLOAD PUSH1 0x20 DUP2 DUP4 SUB SUB DUP2 MSTORE SWAP1 PUSH1 0x40 MSTORE SWAP1 POP PUSH1 0x0 PUSH2 0xED0 PUSH2 0x15EE JUMP JUMPDEST SWAP1 POP PUSH1 0x0 PUSH2 0xF1A PUSH2 0xEE0 DUP8 PUSH2 0x1614 JUMP JUMPDEST DUP4 DUP6 PUSH2 0xEF3 DUP9 PUSH1 0x40 ADD MLOAD PUSH2 0xFFFF AND PUSH2 0x1614 JUMP JUMPDEST PUSH1 0x40 MLOAD PUSH1 0x20 ADD PUSH2 0xF06 SWAP5 SWAP4 SWAP3 SWAP2 SWAP1 PUSH2 0x26D6 JUMP JUMPDEST PUSH1 0x40 MLOAD PUSH1 0x20 DUP2 DUP4 SUB SUB DUP2 MSTORE SWAP1 PUSH1 0x40 MSTORE PUSH2 0x1714 JUMP JUMPDEST SWAP1 POP DUP1 PUSH1 0x40 MLOAD PUSH1 0x20 ADD PUSH2 0xF2D SWAP2 SWAP1 PUSH2 0x27D4 JUMP JUMPDEST PUSH1 0x40 MLOAD PUSH1 0x20 DUP2 DUP4 SUB SUB DUP2 MSTORE SWAP1 PUSH1 0x40 MSTORE SWAP5 POP POP POP POP POP SWAP2 SWAP1 POP JUMP JUMPDEST PUSH1 0x1 PUSH1 0x1 PUSH1 0xA0 SHL SUB SWAP2 DUP3 AND PUSH1 0x0 SWAP1 DUP2 MSTORE PUSH32 0x80BB2B638CC20BC4D0A60D66940F3AB4A00C1D7B313497CA82FB0B4AB0079305 PUSH1 0x20 SWAP1 DUP2 MSTORE PUSH1 0x40 DUP1 DUP4 KECCAK256 SWAP4 SWAP1 SWAP5 AND DUP3 MSTORE SWAP2 SWAP1 SWAP2 MSTORE KECCAK256 SLOAD PUSH1 0xFF AND SWAP1 JUMP JUMPDEST PUSH2 0xF9C PUSH2 0x13A3 JUMP JUMPDEST PUSH2 0xFB8 JUMPI PUSH1 0x40 MLOAD PUSH3 0x461BCD PUSH1 0xE5 SHL DUP2 MSTORE PUSH1 0x4 ADD PUSH2 0x5AD SWAP1 PUSH2 0x2445 JUMP JUMPDEST PUSH1 0x0 SLOAD PUSH1 0x1 SLOAD LT PUSH2 0x101C JUMPI PUSH1 0x40 MLOAD PUSH3 0x461BCD PUSH1 0xE5 SHL DUP2 MSTORE PUSH1 0x20 PUSH1 0x4 DUP3 ADD MSTORE PUSH1 0x28 PUSH1 0x24 DUP3 ADD MSTORE PUSH32 0x4D656D626572736869703A206D696E74696E6720636F756E74206F766572206D PUSH1 0x44 DUP3 ADD MSTORE PUSH8 0x6178537570706C79 PUSH1 0xC0 SHL PUSH1 0x64 DUP3 ADD MSTORE PUSH1 0x84 ADD PUSH2 0x5AD JUMP JUMPDEST PUSH1 0x1 DUP1 SLOAD SWAP1 PUSH1 0x0 PUSH2 0x102C DUP4 PUSH2 0x25AD JUMP JUMPDEST SWAP2 SWAP1 POP SSTORE POP PUSH1 0x0 PUSH1 0x40 MLOAD DUP1 PUSH1 0x80 ADD PUSH1 0x40 MSTORE DUP1 PUSH1 0x1 SLOAD DUP2 MSTORE PUSH1 0x20 ADD PUSH1 0x0 ISZERO ISZERO DUP2 MSTORE PUSH1 0x20 ADD DUP6 PUSH2 0xFFFF AND DUP2 MSTORE PUSH1 0x20 ADD DUP5 DUP5 DUP1 DUP1 PUSH1 0x1F ADD PUSH1 0x20 DUP1 SWAP2 DIV MUL PUSH1 0x20 ADD PUSH1 0x40 MLOAD SWAP1 DUP2 ADD PUSH1 0x40 MSTORE DUP1 SWAP4 SWAP3 SWAP2 SWAP1 DUP2 DUP2 MSTORE PUSH1 0x20 ADD DUP4 DUP4 DUP1 DUP3 DUP5 CALLDATACOPY PUSH1 0x0 SWAP3 ADD DUP3 SWAP1 MSTORE POP SWAP4 SWAP1 SWAP5 MSTORE POP POP PUSH1 0x1 DUP1 SLOAD DUP3 MSTORE PUSH1 0x5 PUSH1 0x20 SWAP1 DUP2 MSTORE PUSH1 0x40 SWAP3 DUP4 SWAP1 KECCAK256 DUP6 MLOAD DUP2 SSTORE SWAP1 DUP6 ADD MLOAD SWAP2 DUP2 ADD DUP1 SLOAD SWAP4 DUP7 ADD MLOAD PUSH2 0xFFFF AND PUSH2 0x100 MUL PUSH3 0xFFFF00 NOT SWAP4 ISZERO ISZERO SWAP4 SWAP1 SWAP4 AND PUSH3 0xFFFFFF NOT SWAP1 SWAP5 AND SWAP4 SWAP1 SWAP4 OR SWAP2 SWAP1 SWAP2 OR SWAP1 SWAP2 SSTORE PUSH1 0x60 DUP4 ADD MLOAD SWAP3 SWAP4 POP DUP4 SWAP3 SWAP1 SWAP2 POP PUSH1 0x2 DUP3 ADD SWAP1 PUSH2 0x10F8 SWAP1 DUP3 PUSH2 0x24C2 JUMP JUMPDEST POP SWAP1 POP POP PUSH2 0x1108 DUP6 PUSH1 0x1 SLOAD PUSH2 0x187D JUMP JUMPDEST PUSH2 0x1154 JUMPI PUSH1 0x40 MLOAD PUSH3 0x461BCD PUSH1 0xE5 SHL DUP2 MSTORE PUSH1 0x20 PUSH1 0x4 DUP3 ADD MSTORE PUSH1 0x1E PUSH1 0x24 DUP3 ADD MSTORE PUSH32 0x4D656D626572736869702D4E46543A206D696E74696E67206661696C65640000 PUSH1 0x44 DUP3 ADD MSTORE PUSH1 0x64 ADD PUSH2 0x5AD JUMP JUMPDEST POP POP POP POP POP JUMP JUMPDEST PUSH1 0x2 SLOAD PUSH1 0x1 PUSH1 0x1 PUSH1 0xA0 SHL SUB AND CALLER EQ PUSH2 0x11B1 JUMPI PUSH1 0x40 MLOAD PUSH3 0x461BCD PUSH1 0xE5 SHL DUP2 MSTORE PUSH1 0x20 PUSH1 0x4 DUP3 ADD MSTORE PUSH1 0x19 PUSH1 0x24 DUP3 ADD MSTORE PUSH25 0x26B2B6B132B939B434B81D102737BA103A34329037BBB732B9 PUSH1 0x39 SHL PUSH1 0x44 DUP3 ADD MSTORE PUSH1 0x64 ADD PUSH2 0x5AD JUMP JUMPDEST PUSH1 0x2 DUP1 SLOAD PUSH1 0x1 PUSH1 0x1 PUSH1 0xA0 SHL SUB NOT AND PUSH1 0x1 PUSH1 0x1 PUSH1 0xA0 SHL SUB SWAP3 SWAP1 SWAP3 AND SWAP2 SWAP1 SWAP2 OR SWAP1 SSTORE JUMP JUMPDEST PUSH1 0x0 PUSH1 0x1 PUSH1 0x1 PUSH1 0xE0 SHL SUB NOT DUP3 AND PUSH4 0x80AC58CD PUSH1 0xE0 SHL EQ DUP1 PUSH2 0x1204 JUMPI POP PUSH1 0x1 PUSH1 0x1 PUSH1 0xE0 SHL SUB NOT DUP3 AND PUSH4 0x5B5E139F PUSH1 0xE0 SHL EQ JUMPDEST DUP1 PUSH2 0x4B9 JUMPI POP PUSH4 0x1FFC9A7 PUSH1 0xE0 SHL PUSH1 0x1 PUSH1 0x1 PUSH1 0xE0 SHL SUB NOT DUP4 AND EQ PUSH2 0x4B9 JUMP JUMPDEST PUSH1 0x0 DUP1 PUSH2 0x122F DUP4 PUSH2 0x1892 JUMP JUMPDEST SWAP1 POP PUSH1 0x1 PUSH1 0x1 PUSH1 0xA0 SHL SUB DUP2 AND PUSH2 0x4B9 JUMPI PUSH1 0x40 MLOAD PUSH4 0x7E273289 PUSH1 0xE0 SHL DUP2 MSTORE PUSH1 0x4 DUP2 ADD DUP5 SWAP1 MSTORE PUSH1 0x24 ADD PUSH2 0x5AD JUMP JUMPDEST PUSH1 0x0 SWAP1 DUP2 MSTORE PUSH32 0x80BB2B638CC20BC4D0A60D66940F3AB4A00C1D7B313497CA82FB0B4AB0079304 PUSH1 0x20 MSTORE PUSH1 0x40 SWAP1 KECCAK256 SLOAD PUSH1 0x1 PUSH1 0x1 PUSH1 0xA0 SHL SUB AND SWAP1 JUMP JUMPDEST PUSH2 0x76A DUP4 DUP4 DUP4 PUSH1 0x1 PUSH2 0x18CC JUMP JUMPDEST PUSH1 0x0 DUP1 PUSH2 0x12B0 DUP6 DUP6 DUP6 PUSH2 0x19E2 JUMP JUMPDEST SWAP1 POP PUSH1 0x1 PUSH1 0x1 PUSH1 0xA0 SHL SUB DUP2 AND PUSH2 0x1339 JUMPI PUSH2 0x1334 DUP5 PUSH1 0x0 DUP1 MLOAD PUSH1 0x20 PUSH2 0x2BE6 DUP4 CODECOPY DUP2 MLOAD SWAP2 MSTORE DUP1 SLOAD PUSH1 0x0 DUP4 DUP2 MSTORE PUSH32 0x645E039705490088DAAD89BAE25049A34F4A9072D398537B1AB2425F24CBED03 PUSH1 0x20 MSTORE PUSH1 0x40 DUP2 KECCAK256 DUP3 SWAP1 SSTORE PUSH1 0x1 DUP3 ADD DUP4 SSTORE SWAP2 SWAP1 SWAP2 MSTORE PUSH32 0xA42F15E5D656F8155FD7419D740A6073999F19CD6E061449CE4A257150545BF2 ADD SSTORE JUMP JUMPDEST PUSH2 0x135C JUMP JUMPDEST DUP5 PUSH1 0x1 PUSH1 0x1 PUSH1 0xA0 SHL SUB AND DUP2 PUSH1 0x1 PUSH1 0x1 PUSH1 0xA0 SHL SUB AND EQ PUSH2 0x135C JUMPI PUSH2 0x135C DUP2 DUP6 PUSH2 0x1AEC JUMP JUMPDEST PUSH1 0x1 PUSH1 0x1 PUSH1 0xA0 SHL SUB DUP6 AND PUSH2 0x1378 JUMPI PUSH2 0x1373 DUP5 PUSH2 0x1B90 JUMP JUMPDEST PUSH2 0x139B JUMP JUMPDEST DUP5 PUSH1 0x1 PUSH1 0x1 PUSH1 0xA0 SHL SUB AND DUP2 PUSH1 0x1 PUSH1 0x1 PUSH1 0xA0 SHL SUB AND EQ PUSH2 0x139B JUMPI PUSH2 0x139B DUP6 DUP6 PUSH2 0x1C67 JUMP JUMPDEST SWAP5 SWAP4 POP POP POP POP JUMP JUMPDEST PUSH1 0x2 SLOAD PUSH1 0x0 SWAP1 PUSH1 0x1 PUSH1 0x1 PUSH1 0xA0 SHL SUB AND CALLER EQ DUP1 PUSH2 0x13CE JUMPI POP CALLER PUSH1 0x0 SWAP1 DUP2 MSTORE PUSH1 0x4 PUSH1 0x20 MSTORE PUSH1 0x40 SWAP1 KECCAK256 SLOAD PUSH1 0xFF AND JUMPDEST ISZERO PUSH2 0x13D9 JUMPI POP PUSH1 0x1 SWAP1 JUMP JUMPDEST POP PUSH1 0x0 SWAP1 JUMP JUMPDEST PUSH1 0x0 DUP1 MLOAD PUSH1 0x20 PUSH2 0x291B DUP4 CODECOPY DUP2 MLOAD SWAP2 MSTORE PUSH1 0x1 PUSH1 0x1 PUSH1 0xA0 SHL SUB DUP4 AND PUSH2 0x1420 JUMPI PUSH1 0x40 MLOAD PUSH4 0xB611743 PUSH1 0xE3 SHL DUP2 MSTORE PUSH1 0x1 PUSH1 0x1 PUSH1 0xA0 SHL SUB DUP5 AND PUSH1 0x4 DUP3 ADD MSTORE PUSH1 0x24 ADD PUSH2 0x5AD JUMP JUMPDEST PUSH1 0x1 PUSH1 0x1 PUSH1 0xA0 SHL SUB DUP5 DUP2 AND PUSH1 0x0 DUP2 DUP2 MSTORE PUSH1 0x5 DUP5 ADD PUSH1 0x20 SWAP1 DUP2 MSTORE PUSH1 0x40 DUP1 DUP4 KECCAK256 SWAP5 DUP9 AND DUP1 DUP5 MSTORE SWAP5 DUP3 MSTORE SWAP2 DUP3 SWAP1 KECCAK256 DUP1 SLOAD PUSH1 0xFF NOT AND DUP8 ISZERO ISZERO SWAP1 DUP2 OR SWAP1 SWAP2 SSTORE SWAP2 MLOAD SWAP2 DUP3 MSTORE PUSH32 0x17307EAB39AB6107E8899845AD3D59BD9653F200F220920489CA2B5937696C31 SWAP2 ADD PUSH1 0x40 MLOAD DUP1 SWAP2 SUB SWAP1 LOG3 POP POP POP POP JUMP JUMPDEST PUSH1 0x1 PUSH1 0x1 PUSH1 0xA0 SHL SUB DUP4 AND EXTCODESIZE ISZERO PUSH2 0x611 JUMPI PUSH1 0x40 MLOAD PUSH4 0xA85BD01 PUSH1 0xE1 SHL DUP2 MSTORE PUSH1 0x1 PUSH1 0x1 PUSH1 0xA0 SHL SUB DUP5 AND SWAP1 PUSH4 0x150B7A02 SWAP1 PUSH2 0x14D2 SWAP1 CALLER SWAP1 DUP9 SWAP1 DUP8 SWAP1 DUP8 SWAP1 PUSH1 0x4 ADD PUSH2 0x2819 JUMP JUMPDEST PUSH1 0x20 PUSH1 0x40 MLOAD DUP1 DUP4 SUB DUP2 PUSH1 0x0 DUP8 GAS CALL SWAP3 POP POP POP DUP1 ISZERO PUSH2 0x150D JUMPI POP PUSH1 0x40 DUP1 MLOAD PUSH1 0x1F RETURNDATASIZE SWAP1 DUP2 ADD PUSH1 0x1F NOT AND DUP3 ADD SWAP1 SWAP3 MSTORE PUSH2 0x150A SWAP2 DUP2 ADD SWAP1 PUSH2 0x284C JUMP JUMPDEST PUSH1 0x1 JUMPDEST PUSH2 0x1576 JUMPI RETURNDATASIZE DUP1 DUP1 ISZERO PUSH2 0x153B JUMPI PUSH1 0x40 MLOAD SWAP2 POP PUSH1 0x1F NOT PUSH1 0x3F RETURNDATASIZE ADD AND DUP3 ADD PUSH1 0x40 MSTORE RETURNDATASIZE DUP3 MSTORE RETURNDATASIZE PUSH1 0x0 PUSH1 0x20 DUP5 ADD RETURNDATACOPY PUSH2 0x1540 JUMP JUMPDEST PUSH1 0x60 SWAP2 POP JUMPDEST POP DUP1 MLOAD PUSH1 0x0 SUB PUSH2 0x156E JUMPI PUSH1 0x40 MLOAD PUSH4 0x32505749 PUSH1 0xE1 SHL DUP2 MSTORE PUSH1 0x1 PUSH1 0x1 PUSH1 0xA0 SHL SUB DUP6 AND PUSH1 0x4 DUP3 ADD MSTORE PUSH1 0x24 ADD PUSH2 0x5AD JUMP JUMPDEST DUP1 MLOAD DUP2 PUSH1 0x20 ADD REVERT JUMPDEST PUSH1 0x1 PUSH1 0x1 PUSH1 0xE0 SHL SUB NOT DUP2 AND PUSH4 0xA85BD01 PUSH1 0xE1 SHL EQ PUSH2 0x1154 JUMPI PUSH1 0x40 MLOAD PUSH4 0x32505749 PUSH1 0xE1 SHL DUP2 MSTORE PUSH1 0x1 PUSH1 0x1 PUSH1 0xA0 SHL SUB DUP6 AND PUSH1 0x4 DUP3 ADD MSTORE PUSH1 0x24 ADD PUSH2 0x5AD JUMP JUMPDEST PUSH2 0x15BA PUSH2 0x1CC2 JUMP JUMPDEST PUSH2 0x583 DUP3 DUP3 PUSH2 0x1D0D JUMP JUMPDEST PUSH1 0x0 DUP1 PUSH2 0x15D0 DUP4 PUSH2 0x1892 JUMP JUMPDEST PUSH1 0x1 PUSH1 0x1 PUSH1 0xA0 SHL SUB AND SUB PUSH2 0x15E6 JUMPI POP PUSH1 0x0 SWAP2 SWAP1 POP JUMP JUMPDEST POP PUSH1 0x1 SWAP2 SWAP1 POP JUMP JUMPDEST PUSH1 0x60 PUSH1 0x0 PUSH1 0x40 MLOAD DUP1 PUSH2 0x280 ADD PUSH1 0x40 MSTORE DUP1 PUSH2 0x244 DUP2 MSTORE PUSH1 0x20 ADD PUSH2 0x293B PUSH2 0x244 SWAP2 CODECOPY SWAP3 SWAP2 POP POP JUMP JUMPDEST PUSH1 0x60 DUP2 PUSH1 0x0 SUB PUSH2 0x163B JUMPI POP POP PUSH1 0x40 DUP1 MLOAD DUP1 DUP3 ADD SWAP1 SWAP2 MSTORE PUSH1 0x1 DUP2 MSTORE PUSH1 0x3 PUSH1 0xFC SHL PUSH1 0x20 DUP3 ADD MSTORE SWAP1 JUMP JUMPDEST DUP2 PUSH1 0x0 JUMPDEST DUP2 ISZERO PUSH2 0x1665 JUMPI DUP1 PUSH2 0x164F DUP2 PUSH2 0x25AD JUMP JUMPDEST SWAP2 POP PUSH2 0x165E SWAP1 POP PUSH1 0xA DUP4 PUSH2 0x287F JUMP JUMPDEST SWAP2 POP PUSH2 0x163F JUMP JUMPDEST PUSH1 0x0 DUP2 PUSH1 0x1 PUSH1 0x1 PUSH1 0x40 SHL SUB DUP2 GT ISZERO PUSH2 0x167F JUMPI PUSH2 0x167F PUSH2 0x2041 JUMP JUMPDEST PUSH1 0x40 MLOAD SWAP1 DUP1 DUP3 MSTORE DUP1 PUSH1 0x1F ADD PUSH1 0x1F NOT AND PUSH1 0x20 ADD DUP3 ADD PUSH1 0x40 MSTORE DUP1 ISZERO PUSH2 0x16A9 JUMPI PUSH1 0x20 DUP3 ADD DUP2 DUP1 CALLDATASIZE DUP4 CALLDATACOPY ADD SWAP1 POP JUMPDEST POP SWAP1 POP JUMPDEST DUP5 ISZERO PUSH2 0x139B JUMPI PUSH2 0x16BE PUSH1 0x1 DUP4 PUSH2 0x2893 JUMP JUMPDEST SWAP2 POP PUSH2 0x16CB PUSH1 0xA DUP7 PUSH2 0x28A6 JUMP JUMPDEST PUSH2 0x16D6 SWAP1 PUSH1 0x30 PUSH2 0x28BA JUMP JUMPDEST PUSH1 0xF8 SHL DUP2 DUP4 DUP2 MLOAD DUP2 LT PUSH2 0x16EB JUMPI PUSH2 0x16EB PUSH2 0x2581 JUMP JUMPDEST PUSH1 0x20 ADD ADD SWAP1 PUSH1 0x1 PUSH1 0x1 PUSH1 0xF8 SHL SUB NOT AND SWAP1 DUP2 PUSH1 0x0 BYTE SWAP1 MSTORE8 POP PUSH2 0x170D PUSH1 0xA DUP7 PUSH2 0x287F JUMP JUMPDEST SWAP5 POP PUSH2 0x16AD JUMP JUMPDEST DUP1 MLOAD PUSH1 0x60 SWAP1 PUSH1 0x0 DUP2 SWAP1 SUB PUSH2 0x1738 JUMPI POP POP PUSH1 0x40 DUP1 MLOAD PUSH1 0x20 DUP2 ADD SWAP1 SWAP2 MSTORE PUSH1 0x0 DUP2 MSTORE SWAP2 SWAP1 POP JUMP JUMPDEST PUSH1 0x0 PUSH1 0x3 PUSH2 0x1747 DUP4 PUSH1 0x2 PUSH2 0x28BA JUMP JUMPDEST PUSH2 0x1751 SWAP2 SWAP1 PUSH2 0x287F JUMP JUMPDEST PUSH2 0x175C SWAP1 PUSH1 0x4 PUSH2 0x28CD JUMP JUMPDEST SWAP1 POP PUSH1 0x0 PUSH2 0x176B DUP3 PUSH1 0x20 PUSH2 0x28BA JUMP JUMPDEST PUSH1 0x1 PUSH1 0x1 PUSH1 0x40 SHL SUB DUP2 GT ISZERO PUSH2 0x1782 JUMPI PUSH2 0x1782 PUSH2 0x2041 JUMP JUMPDEST PUSH1 0x40 MLOAD SWAP1 DUP1 DUP3 MSTORE DUP1 PUSH1 0x1F ADD PUSH1 0x1F NOT AND PUSH1 0x20 ADD DUP3 ADD PUSH1 0x40 MSTORE DUP1 ISZERO PUSH2 0x17AC JUMPI PUSH1 0x20 DUP3 ADD DUP2 DUP1 CALLDATASIZE DUP4 CALLDATACOPY ADD SWAP1 POP JUMPDEST POP SWAP1 POP PUSH1 0x0 PUSH1 0x40 MLOAD DUP1 PUSH1 0x60 ADD PUSH1 0x40 MSTORE DUP1 PUSH1 0x40 DUP2 MSTORE PUSH1 0x20 ADD PUSH2 0x2B7F PUSH1 0x40 SWAP2 CODECOPY SWAP1 POP PUSH1 0x1 DUP2 ADD PUSH1 0x20 DUP4 ADD PUSH1 0x0 JUMPDEST DUP7 DUP2 LT ISZERO PUSH2 0x1838 JUMPI PUSH1 0x3 DUP2 DUP11 ADD DUP2 ADD MLOAD PUSH1 0x3F PUSH1 0x12 DUP3 SWAP1 SHR DUP2 AND DUP7 ADD MLOAD PUSH1 0xC DUP4 SWAP1 SHR DUP3 AND DUP8 ADD MLOAD PUSH1 0x6 DUP5 SWAP1 SHR DUP4 AND DUP9 ADD MLOAD SWAP3 SWAP1 SWAP4 AND DUP8 ADD MLOAD PUSH1 0x8 SWAP2 DUP3 SHL PUSH1 0xFF SWAP5 DUP6 AND ADD DUP3 SHL SWAP3 DUP5 AND SWAP3 SWAP1 SWAP3 ADD SWAP1 SHL SWAP2 AND ADD PUSH1 0xE0 SHL DUP4 MSTORE PUSH1 0x4 SWAP1 SWAP3 ADD SWAP2 ADD PUSH2 0x17D7 JUMP JUMPDEST POP PUSH1 0x3 DUP7 MOD PUSH1 0x1 DUP2 EQ PUSH2 0x1852 JUMPI PUSH1 0x2 DUP2 EQ PUSH2 0x1863 JUMPI PUSH2 0x186F JUMP JUMPDEST PUSH2 0x3D3D PUSH1 0xF0 SHL PUSH1 0x1 NOT DUP4 ADD MSTORE PUSH2 0x186F JUMP JUMPDEST PUSH1 0x3D PUSH1 0xF8 SHL PUSH1 0x0 NOT DUP4 ADD MSTORE JUMPDEST POP POP POP SWAP2 DUP2 MSTORE SWAP5 SWAP4 POP POP POP POP JUMP JUMPDEST PUSH1 0x0 PUSH2 0x1889 DUP4 DUP4 PUSH2 0x1D3E JUMP JUMPDEST POP PUSH1 0x1 SWAP3 SWAP2 POP POP JUMP JUMPDEST PUSH1 0x0 SWAP1 DUP2 MSTORE PUSH32 0x80BB2B638CC20BC4D0A60D66940F3AB4A00C1D7B313497CA82FB0B4AB0079302 PUSH1 0x20 MSTORE PUSH1 0x40 SWAP1 KECCAK256 SLOAD PUSH1 0x1 PUSH1 0x1 PUSH1 0xA0 SHL SUB AND SWAP1 JUMP JUMPDEST PUSH1 0x0 DUP1 MLOAD PUSH1 0x20 PUSH2 0x291B DUP4 CODECOPY DUP2 MLOAD SWAP2 MSTORE DUP2 DUP1 PUSH2 0x18EF JUMPI POP PUSH1 0x1 PUSH1 0x1 PUSH1 0xA0 SHL SUB DUP4 AND ISZERO ISZERO JUMPDEST ISZERO PUSH2 0x19B1 JUMPI PUSH1 0x0 PUSH2 0x18FF DUP6 PUSH2 0x1223 JUMP JUMPDEST SWAP1 POP PUSH1 0x1 PUSH1 0x1 PUSH1 0xA0 SHL SUB DUP5 AND ISZERO DUP1 ISZERO SWAP1 PUSH2 0x192B JUMPI POP DUP4 PUSH1 0x1 PUSH1 0x1 PUSH1 0xA0 SHL SUB AND DUP2 PUSH1 0x1 PUSH1 0x1 PUSH1 0xA0 SHL SUB AND EQ ISZERO JUMPDEST DUP1 ISZERO PUSH2 0x193E JUMPI POP PUSH2 0x193C DUP2 DUP6 PUSH2 0xF47 JUMP JUMPDEST ISZERO JUMPDEST ISZERO PUSH2 0x1967 JUMPI PUSH1 0x40 MLOAD PUSH4 0xA9FBF51F PUSH1 0xE0 SHL DUP2 MSTORE PUSH1 0x1 PUSH1 0x1 PUSH1 0xA0 SHL SUB DUP6 AND PUSH1 0x4 DUP3 ADD MSTORE PUSH1 0x24 ADD PUSH2 0x5AD JUMP JUMPDEST DUP3 ISZERO PUSH2 0x19AF JUMPI DUP5 DUP7 PUSH1 0x1 PUSH1 0x1 PUSH1 0xA0 SHL SUB AND DUP3 PUSH1 0x1 PUSH1 0x1 PUSH1 0xA0 SHL SUB AND PUSH32 0x8C5BE1E5EBEC7D5BD14F71427D1E84F3DD0314C0F7B2291E5B200AC8C7C3B925 PUSH1 0x40 MLOAD PUSH1 0x40 MLOAD DUP1 SWAP2 SUB SWAP1 LOG4 JUMPDEST POP JUMPDEST PUSH1 0x0 SWAP4 DUP5 MSTORE PUSH1 0x4 ADD PUSH1 0x20 MSTORE POP POP PUSH1 0x40 SWAP1 KECCAK256 DUP1 SLOAD PUSH1 0x1 PUSH1 0x1 PUSH1 0xA0 SHL SUB NOT AND PUSH1 0x1 PUSH1 0x1 PUSH1 0xA0 SHL SUB SWAP3 SWAP1 SWAP3 AND SWAP2 SWAP1 SWAP2 OR SWAP1 SSTORE JUMP JUMPDEST PUSH1 0x0 PUSH1 0x0 DUP1 MLOAD PUSH1 0x20 PUSH2 0x291B DUP4 CODECOPY DUP2 MLOAD SWAP2 MSTORE DUP2 PUSH2 0x19FD DUP6 PUSH2 0x1892 JUMP JUMPDEST SWAP1 POP PUSH1 0x1 PUSH1 0x1 PUSH1 0xA0 SHL SUB DUP5 AND ISZERO PUSH2 0x1A19 JUMPI PUSH2 0x1A19 DUP2 DUP6 DUP8 PUSH2 0x1D58 JUMP JUMPDEST PUSH1 0x1 PUSH1 0x1 PUSH1 0xA0 SHL SUB DUP2 AND ISZERO PUSH2 0x1A59 JUMPI PUSH2 0x1A36 PUSH1 0x0 DUP7 PUSH1 0x0 DUP1 PUSH2 0x18CC JUMP JUMPDEST PUSH1 0x1 PUSH1 0x1 PUSH1 0xA0 SHL SUB DUP2 AND PUSH1 0x0 SWAP1 DUP2 MSTORE PUSH1 0x3 DUP4 ADD PUSH1 0x20 MSTORE PUSH1 0x40 SWAP1 KECCAK256 DUP1 SLOAD PUSH1 0x0 NOT ADD SWAP1 SSTORE JUMPDEST PUSH1 0x1 PUSH1 0x1 PUSH1 0xA0 SHL SUB DUP7 AND ISZERO PUSH2 0x1A8A JUMPI PUSH1 0x1 PUSH1 0x1 PUSH1 0xA0 SHL SUB DUP7 AND PUSH1 0x0 SWAP1 DUP2 MSTORE PUSH1 0x3 DUP4 ADD PUSH1 0x20 MSTORE PUSH1 0x40 SWAP1 KECCAK256 DUP1 SLOAD PUSH1 0x1 ADD SWAP1 SSTORE JUMPDEST PUSH1 0x0 DUP6 DUP2 MSTORE PUSH1 0x2 DUP4 ADD PUSH1 0x20 MSTORE PUSH1 0x40 DUP1 DUP3 KECCAK256 DUP1 SLOAD PUSH1 0x1 PUSH1 0x1 PUSH1 0xA0 SHL SUB NOT AND PUSH1 0x1 PUSH1 0x1 PUSH1 0xA0 SHL SUB DUP11 DUP2 AND SWAP2 DUP3 OR SWAP1 SWAP3 SSTORE SWAP2 MLOAD DUP9 SWAP4 SWAP2 DUP6 AND SWAP2 PUSH32 0xDDF252AD1BE2C89B69C2B068FC378DAA952BA7F163C4A11628F55A4DF523B3EF SWAP2 LOG4 SWAP6 SWAP5 POP POP POP POP POP JUMP JUMPDEST PUSH1 0x0 DUP1 MLOAD PUSH1 0x20 PUSH2 0x28FB DUP4 CODECOPY DUP2 MLOAD SWAP2 MSTORE PUSH1 0x0 PUSH2 0x1B06 DUP5 PUSH2 0xAD8 JUMP JUMPDEST PUSH1 0x0 DUP5 DUP2 MSTORE PUSH1 0x1 DUP5 ADD PUSH1 0x20 MSTORE PUSH1 0x40 SWAP1 KECCAK256 SLOAD SWAP1 SWAP2 POP DUP1 DUP3 EQ PUSH2 0x1B5B JUMPI PUSH1 0x1 PUSH1 0x1 PUSH1 0xA0 SHL SUB DUP6 AND PUSH1 0x0 SWAP1 DUP2 MSTORE PUSH1 0x20 DUP5 DUP2 MSTORE PUSH1 0x40 DUP1 DUP4 KECCAK256 DUP6 DUP5 MSTORE DUP3 MSTORE DUP1 DUP4 KECCAK256 SLOAD DUP5 DUP5 MSTORE DUP2 DUP5 KECCAK256 DUP2 SWAP1 SSTORE DUP4 MSTORE PUSH1 0x1 DUP7 ADD SWAP1 SWAP2 MSTORE SWAP1 KECCAK256 DUP2 SWAP1 SSTORE JUMPDEST POP PUSH1 0x0 SWAP3 DUP4 MSTORE PUSH1 0x1 DUP3 ADD PUSH1 0x20 SWAP1 DUP2 MSTORE PUSH1 0x40 DUP1 DUP6 KECCAK256 DUP6 SWAP1 SSTORE PUSH1 0x1 PUSH1 0x1 PUSH1 0xA0 SHL SUB SWAP1 SWAP6 AND DUP5 MSTORE SWAP2 DUP3 MSTORE DUP4 DUP4 KECCAK256 SWAP1 DUP4 MSTORE SWAP1 MSTORE SWAP1 DUP2 KECCAK256 SSTORE JUMP JUMPDEST PUSH1 0x0 DUP1 MLOAD PUSH1 0x20 PUSH2 0x2BE6 DUP4 CODECOPY DUP2 MLOAD SWAP2 MSTORE SLOAD PUSH1 0x0 DUP1 MLOAD PUSH1 0x20 PUSH2 0x28FB DUP4 CODECOPY DUP2 MLOAD SWAP2 MSTORE SWAP1 PUSH1 0x0 SWAP1 PUSH2 0x1BBF SWAP1 PUSH1 0x1 SWAP1 PUSH2 0x2893 JUMP JUMPDEST PUSH1 0x0 DUP5 DUP2 MSTORE PUSH1 0x3 DUP5 ADD PUSH1 0x20 MSTORE PUSH1 0x40 DUP2 KECCAK256 SLOAD PUSH1 0x2 DUP6 ADD DUP1 SLOAD SWAP4 SWAP5 POP SWAP1 SWAP3 DUP5 SWAP1 DUP2 LT PUSH2 0x1BEB JUMPI PUSH2 0x1BEB PUSH2 0x2581 JUMP JUMPDEST SWAP1 PUSH1 0x0 MSTORE PUSH1 0x20 PUSH1 0x0 KECCAK256 ADD SLOAD SWAP1 POP DUP1 DUP5 PUSH1 0x2 ADD DUP4 DUP2 SLOAD DUP2 LT PUSH2 0x1C0E JUMPI PUSH2 0x1C0E PUSH2 0x2581 JUMP JUMPDEST PUSH1 0x0 SWAP2 DUP3 MSTORE PUSH1 0x20 DUP1 DUP4 KECCAK256 SWAP1 SWAP2 ADD SWAP3 SWAP1 SWAP3 SSTORE DUP3 DUP2 MSTORE PUSH1 0x3 DUP7 ADD SWAP1 SWAP2 MSTORE PUSH1 0x40 DUP1 DUP3 KECCAK256 DUP5 SWAP1 SSTORE DUP7 DUP3 MSTORE DUP2 KECCAK256 SSTORE PUSH1 0x2 DUP5 ADD DUP1 SLOAD DUP1 PUSH2 0x1C4A JUMPI PUSH2 0x1C4A PUSH2 0x28E4 JUMP JUMPDEST PUSH1 0x1 SWAP1 SUB DUP2 DUP2 SWAP1 PUSH1 0x0 MSTORE PUSH1 0x20 PUSH1 0x0 KECCAK256 ADD PUSH1 0x0 SWAP1 SSTORE SWAP1 SSTORE POP POP POP POP POP JUMP JUMPDEST PUSH1 0x0 DUP1 MLOAD PUSH1 0x20 PUSH2 0x28FB DUP4 CODECOPY DUP2 MLOAD SWAP2 MSTORE PUSH1 0x0 PUSH1 0x1 PUSH2 0x1C83 DUP6 PUSH2 0xAD8 JUMP JUMPDEST PUSH2 0x1C8D SWAP2 SWAP1 PUSH2 0x2893 JUMP JUMPDEST PUSH1 0x1 PUSH1 0x1 PUSH1 0xA0 SHL SUB SWAP1 SWAP5 AND PUSH1 0x0 SWAP1 DUP2 MSTORE PUSH1 0x20 DUP4 DUP2 MSTORE PUSH1 0x40 DUP1 DUP4 KECCAK256 DUP8 DUP5 MSTORE DUP3 MSTORE DUP1 DUP4 KECCAK256 DUP7 SWAP1 SSTORE SWAP5 DUP3 MSTORE PUSH1 0x1 SWAP1 SWAP4 ADD SWAP1 SWAP3 MSTORE POP KECCAK256 SSTORE JUMP JUMPDEST PUSH32 0xF0C57E16840DF040F15088DC2F81FE391C3923BEC73E23A9662EFC9C229C6A00 SLOAD PUSH1 0x1 PUSH1 0x40 SHL SWAP1 DIV PUSH1 0xFF AND PUSH2 0x1D0B JUMPI PUSH1 0x40 MLOAD PUSH4 0x1AFCD79F PUSH1 0xE3 SHL DUP2 MSTORE PUSH1 0x4 ADD PUSH1 0x40 MLOAD DUP1 SWAP2 SUB SWAP1 REVERT JUMPDEST JUMP JUMPDEST PUSH2 0x1D15 PUSH2 0x1CC2 JUMP JUMPDEST PUSH1 0x0 DUP1 MLOAD PUSH1 0x20 PUSH2 0x291B DUP4 CODECOPY DUP2 MLOAD SWAP2 MSTORE DUP1 PUSH2 0x1D2F DUP5 DUP3 PUSH2 0x24C2 JUMP JUMPDEST POP PUSH1 0x1 DUP2 ADD PUSH2 0x611 DUP4 DUP3 PUSH2 0x24C2 JUMP JUMPDEST PUSH2 0x583 DUP3 DUP3 PUSH1 0x40 MLOAD DUP1 PUSH1 0x20 ADD PUSH1 0x40 MSTORE DUP1 PUSH1 0x0 DUP2 MSTORE POP PUSH2 0x1DBC JUMP JUMPDEST PUSH2 0x1D63 DUP4 DUP4 DUP4 PUSH2 0x1DD3 JUMP JUMPDEST PUSH2 0x76A JUMPI PUSH1 0x1 PUSH1 0x1 PUSH1 0xA0 SHL SUB DUP4 AND PUSH2 0x1D91 JUMPI PUSH1 0x40 MLOAD PUSH4 0x7E273289 PUSH1 0xE0 SHL DUP2 MSTORE PUSH1 0x4 DUP2 ADD DUP3 SWAP1 MSTORE PUSH1 0x24 ADD PUSH2 0x5AD JUMP JUMPDEST PUSH1 0x40 MLOAD PUSH4 0x177E802F PUSH1 0xE0 SHL DUP2 MSTORE PUSH1 0x1 PUSH1 0x1 PUSH1 0xA0 SHL SUB DUP4 AND PUSH1 0x4 DUP3 ADD MSTORE PUSH1 0x24 DUP2 ADD DUP3 SWAP1 MSTORE PUSH1 0x44 ADD PUSH2 0x5AD JUMP JUMPDEST PUSH2 0x1DC6 DUP4 DUP4 PUSH2 0x1E38 JUMP JUMPDEST PUSH2 0x76A PUSH1 0x0 DUP5 DUP5 DUP5 PUSH2 0x1490 JUMP JUMPDEST PUSH1 0x0 PUSH1 0x1 PUSH1 0x1 PUSH1 0xA0 SHL SUB DUP4 AND ISZERO DUP1 ISZERO SWAP1 PUSH2 0x139B JUMPI POP DUP3 PUSH1 0x1 PUSH1 0x1 PUSH1 0xA0 SHL SUB AND DUP5 PUSH1 0x1 PUSH1 0x1 PUSH1 0xA0 SHL SUB AND EQ DUP1 PUSH2 0x1E0D JUMPI POP PUSH2 0x1E0D DUP5 DUP5 PUSH2 0xF47 JUMP JUMPDEST DUP1 PUSH2 0x139B JUMPI POP DUP3 PUSH1 0x1 PUSH1 0x1 PUSH1 0xA0 SHL SUB AND PUSH2 0x1E26 DUP4 PUSH2 0x125B JUMP JUMPDEST PUSH1 0x1 PUSH1 0x1 PUSH1 0xA0 SHL SUB AND EQ SWAP5 SWAP4 POP POP POP POP JUMP JUMPDEST PUSH1 0x1 PUSH1 0x1 PUSH1 0xA0 SHL SUB DUP3 AND PUSH2 0x1E62 JUMPI PUSH1 0x40 MLOAD PUSH4 0x32505749 PUSH1 0xE1 SHL DUP2 MSTORE PUSH1 0x0 PUSH1 0x4 DUP3 ADD MSTORE PUSH1 0x24 ADD PUSH2 0x5AD JUMP JUMPDEST PUSH1 0x0 PUSH2 0x1E70 DUP4 DUP4 PUSH1 0x0 PUSH2 0x12A2 JUMP JUMPDEST SWAP1 POP PUSH1 0x1 PUSH1 0x1 PUSH1 0xA0 SHL SUB DUP2 AND ISZERO PUSH2 0x76A JUMPI PUSH1 0x40 MLOAD PUSH4 0x39E35637 PUSH1 0xE1 SHL DUP2 MSTORE PUSH1 0x0 PUSH1 0x4 DUP3 ADD MSTORE PUSH1 0x24 ADD PUSH2 0x5AD JUMP JUMPDEST PUSH1 0x1 PUSH1 0x1 PUSH1 0xE0 SHL SUB NOT DUP2 AND DUP2 EQ PUSH2 0x1EB3 JUMPI PUSH1 0x0 DUP1 REVERT JUMPDEST POP JUMP JUMPDEST PUSH1 0x0 PUSH1 0x20 DUP3 DUP5 SUB SLT ISZERO PUSH2 0x1EC8 JUMPI PUSH1 0x0 DUP1 REVERT JUMPDEST DUP2 CALLDATALOAD PUSH2 0x1ED3 DUP2 PUSH2 0x1E9D JUMP JUMPDEST SWAP4 SWAP3 POP POP POP JUMP JUMPDEST PUSH1 0x0 JUMPDEST DUP4 DUP2 LT ISZERO PUSH2 0x1EF5 JUMPI DUP2 DUP2 ADD MLOAD DUP4 DUP3 ADD MSTORE PUSH1 0x20 ADD PUSH2 0x1EDD JUMP JUMPDEST POP POP PUSH1 0x0 SWAP2 ADD MSTORE JUMP JUMPDEST PUSH1 0x0 DUP2 MLOAD DUP1 DUP5 MSTORE PUSH2 0x1F16 DUP2 PUSH1 0x20 DUP7 ADD PUSH1 0x20 DUP7 ADD PUSH2 0x1EDA JUMP JUMPDEST PUSH1 0x1F ADD PUSH1 0x1F NOT AND SWAP3 SWAP1 SWAP3 ADD PUSH1 0x20 ADD SWAP3 SWAP2 POP POP JUMP JUMPDEST PUSH1 0x20 DUP2 MSTORE PUSH1 0x0 PUSH2 0x1ED3 PUSH1 0x20 DUP4 ADD DUP5 PUSH2 0x1EFE JUMP JUMPDEST PUSH1 0x0 PUSH1 0x20 DUP3 DUP5 SUB SLT ISZERO PUSH2 0x1F4F JUMPI PUSH1 0x0 DUP1 REVERT JUMPDEST POP CALLDATALOAD SWAP2 SWAP1 POP JUMP JUMPDEST DUP1 CALLDATALOAD PUSH1 0x1 PUSH1 0x1 PUSH1 0xA0 SHL SUB DUP2 AND DUP2 EQ PUSH2 0x1F6D JUMPI PUSH1 0x0 DUP1 REVERT JUMPDEST SWAP2 SWAP1 POP JUMP JUMPDEST PUSH1 0x0 DUP1 PUSH1 0x40 DUP4 DUP6 SUB SLT ISZERO PUSH2 0x1F85 JUMPI PUSH1 0x0 DUP1 REVERT JUMPDEST PUSH2 0x1F8E DUP4 PUSH2 0x1F56 JUMP JUMPDEST SWAP5 PUSH1 0x20 SWAP4 SWAP1 SWAP4 ADD CALLDATALOAD SWAP4 POP POP POP JUMP JUMPDEST PUSH1 0x0 DUP1 PUSH1 0x0 PUSH1 0x60 DUP5 DUP7 SUB SLT ISZERO PUSH2 0x1FB1 JUMPI PUSH1 0x0 DUP1 REVERT JUMPDEST PUSH2 0x1FBA DUP5 PUSH2 0x1F56 JUMP JUMPDEST SWAP3 POP PUSH2 0x1FC8 PUSH1 0x20 DUP6 ADD PUSH2 0x1F56 JUMP JUMPDEST SWAP2 POP PUSH1 0x40 DUP5 ADD CALLDATALOAD SWAP1 POP SWAP3 POP SWAP3 POP SWAP3 JUMP JUMPDEST DUP1 CALLDATALOAD DUP1 ISZERO ISZERO DUP2 EQ PUSH2 0x1F6D JUMPI PUSH1 0x0 DUP1 REVERT JUMPDEST PUSH1 0x0 PUSH1 0x20 DUP3 DUP5 SUB SLT ISZERO PUSH2 0x1FFA JUMPI PUSH1 0x0 DUP1 REVERT JUMPDEST PUSH2 0x1ED3 DUP3 PUSH2 0x1FD8 JUMP JUMPDEST DUP1 CALLDATALOAD PUSH2 0xFFFF DUP2 AND DUP2 EQ PUSH2 0x1F6D JUMPI PUSH1 0x0 DUP1 REVERT JUMPDEST PUSH1 0x0 DUP1 PUSH1 0x40 DUP4 DUP6 SUB SLT ISZERO PUSH2 0x2028 JUMPI PUSH1 0x0 DUP1 REVERT JUMPDEST DUP3 CALLDATALOAD SWAP2 POP PUSH2 0x2038 PUSH1 0x20 DUP5 ADD PUSH2 0x2003 JUMP JUMPDEST SWAP1 POP SWAP3 POP SWAP3 SWAP1 POP JUMP JUMPDEST PUSH4 0x4E487B71 PUSH1 0xE0 SHL PUSH1 0x0 MSTORE PUSH1 0x41 PUSH1 0x4 MSTORE PUSH1 0x24 PUSH1 0x0 REVERT JUMPDEST PUSH1 0x0 PUSH1 0x1 PUSH1 0x1 PUSH1 0x40 SHL SUB DUP1 DUP5 GT ISZERO PUSH2 0x2071 JUMPI PUSH2 0x2071 PUSH2 0x2041 JUMP JUMPDEST PUSH1 0x40 MLOAD PUSH1 0x1F DUP6 ADD PUSH1 0x1F NOT SWAP1 DUP2 AND PUSH1 0x3F ADD AND DUP2 ADD SWAP1 DUP3 DUP3 GT DUP2 DUP4 LT OR ISZERO PUSH2 0x2099 JUMPI PUSH2 0x2099 PUSH2 0x2041 JUMP JUMPDEST DUP2 PUSH1 0x40 MSTORE DUP1 SWAP4 POP DUP6 DUP2 MSTORE DUP7 DUP7 DUP7 ADD GT ISZERO PUSH2 0x20B2 JUMPI PUSH1 0x0 DUP1 REVERT JUMPDEST DUP6 DUP6 PUSH1 0x20 DUP4 ADD CALLDATACOPY PUSH1 0x0 PUSH1 0x20 DUP8 DUP4 ADD ADD MSTORE POP POP POP SWAP4 SWAP3 POP POP POP JUMP JUMPDEST PUSH1 0x0 PUSH1 0x20 DUP3 DUP5 SUB SLT ISZERO PUSH2 0x20DE JUMPI PUSH1 0x0 DUP1 REVERT JUMPDEST DUP2 CALLDATALOAD PUSH1 0x1 PUSH1 0x1 PUSH1 0x40 SHL SUB DUP2 GT ISZERO PUSH2 0x20F4 JUMPI PUSH1 0x0 DUP1 REVERT JUMPDEST DUP3 ADD PUSH1 0x1F DUP2 ADD DUP5 SGT PUSH2 0x2105 JUMPI PUSH1 0x0 DUP1 REVERT JUMPDEST PUSH2 0x139B DUP5 DUP3 CALLDATALOAD PUSH1 0x20 DUP5 ADD PUSH2 0x2057 JUMP JUMPDEST PUSH1 0x0 PUSH1 0x20 DUP3 DUP5 SUB SLT ISZERO PUSH2 0x2126 JUMPI PUSH1 0x0 DUP1 REVERT JUMPDEST PUSH2 0x1ED3 DUP3 PUSH2 0x1F56 JUMP JUMPDEST PUSH1 0x20 DUP1 DUP3 MSTORE DUP3 MLOAD DUP3 DUP3 ADD DUP2 SWAP1 MSTORE PUSH1 0x0 SWAP2 SWAP1 DUP5 DUP3 ADD SWAP1 PUSH1 0x40 DUP6 ADD SWAP1 DUP5 JUMPDEST DUP2 DUP2 LT ISZERO PUSH2 0x2167 JUMPI DUP4 MLOAD DUP4 MSTORE SWAP3 DUP5 ADD SWAP3 SWAP2 DUP5 ADD SWAP2 PUSH1 0x1 ADD PUSH2 0x214B JUMP JUMPDEST POP SWAP1 SWAP7 SWAP6 POP POP POP POP POP POP JUMP JUMPDEST DUP5 DUP2 MSTORE DUP4 ISZERO ISZERO PUSH1 0x20 DUP3 ADD MSTORE PUSH2 0xFFFF DUP4 AND PUSH1 0x40 DUP3 ADD MSTORE PUSH1 0x80 PUSH1 0x60 DUP3 ADD MSTORE PUSH1 0x0 PUSH2 0x219E PUSH1 0x80 DUP4 ADD DUP5 PUSH2 0x1EFE JUMP JUMPDEST SWAP7 SWAP6 POP POP POP POP POP POP JUMP JUMPDEST PUSH1 0x0 DUP1 DUP4 PUSH1 0x1F DUP5 ADD SLT PUSH2 0x21BA JUMPI PUSH1 0x0 DUP1 REVERT JUMPDEST POP DUP2 CALLDATALOAD PUSH1 0x1 PUSH1 0x1 PUSH1 0x40 SHL SUB DUP2 GT ISZERO PUSH2 0x21D1 JUMPI PUSH1 0x0 DUP1 REVERT JUMPDEST PUSH1 0x20 DUP4 ADD SWAP2 POP DUP4 PUSH1 0x20 DUP3 PUSH1 0x5 SHL DUP6 ADD ADD GT ISZERO PUSH2 0x21EC JUMPI PUSH1 0x0 DUP1 REVERT JUMPDEST SWAP3 POP SWAP3 SWAP1 POP JUMP JUMPDEST PUSH1 0x0 DUP1 PUSH1 0x0 DUP1 PUSH1 0x0 DUP1 PUSH1 0x60 DUP8 DUP10 SUB SLT ISZERO PUSH2 0x220C JUMPI PUSH1 0x0 DUP1 REVERT JUMPDEST DUP7 CALLDATALOAD PUSH1 0x1 PUSH1 0x1 PUSH1 0x40 SHL SUB DUP1 DUP3 GT ISZERO PUSH2 0x2223 JUMPI PUSH1 0x0 DUP1 REVERT JUMPDEST PUSH2 0x222F DUP11 DUP4 DUP12 ADD PUSH2 0x21A8 JUMP JUMPDEST SWAP1 SWAP9 POP SWAP7 POP PUSH1 0x20 DUP10 ADD CALLDATALOAD SWAP2 POP DUP1 DUP3 GT ISZERO PUSH2 0x2248 JUMPI PUSH1 0x0 DUP1 REVERT JUMPDEST PUSH2 0x2254 DUP11 DUP4 DUP12 ADD PUSH2 0x21A8 JUMP JUMPDEST SWAP1 SWAP7 POP SWAP5 POP PUSH1 0x40 DUP10 ADD CALLDATALOAD SWAP2 POP DUP1 DUP3 GT ISZERO PUSH2 0x226D JUMPI PUSH1 0x0 DUP1 REVERT JUMPDEST POP PUSH2 0x227A DUP10 DUP3 DUP11 ADD PUSH2 0x21A8 JUMP JUMPDEST SWAP8 SWAP11 SWAP7 SWAP10 POP SWAP5 SWAP8 POP SWAP3 SWAP6 SWAP4 SWAP5 SWAP3 POP POP POP JUMP JUMPDEST PUSH1 0x0 DUP1 PUSH1 0x40 DUP4 DUP6 SUB SLT ISZERO PUSH2 0x229F JUMPI PUSH1 0x0 DUP1 REVERT JUMPDEST PUSH2 0x22A8 DUP4 PUSH2 0x1F56 JUMP JUMPDEST SWAP2 POP PUSH2 0x2038 PUSH1 0x20 DUP5 ADD PUSH2 0x1FD8 JUMP JUMPDEST PUSH1 0x0 DUP1 PUSH1 0x40 DUP4 DUP6 SUB SLT ISZERO PUSH2 0x22C9 JUMPI PUSH1 0x0 DUP1 REVERT JUMPDEST DUP3 CALLDATALOAD SWAP2 POP PUSH2 0x2038 PUSH1 0x20 DUP5 ADD PUSH2 0x1FD8 JUMP JUMPDEST PUSH1 0x0 DUP1 PUSH1 0x0 DUP1 PUSH1 0x80 DUP6 DUP8 SUB SLT ISZERO PUSH2 0x22EF JUMPI PUSH1 0x0 DUP1 REVERT JUMPDEST PUSH2 0x22F8 DUP6 PUSH2 0x1F56 JUMP JUMPDEST SWAP4 POP PUSH2 0x2306 PUSH1 0x20 DUP7 ADD PUSH2 0x1F56 JUMP JUMPDEST SWAP3 POP PUSH1 0x40 DUP6 ADD CALLDATALOAD SWAP2 POP PUSH1 0x60 DUP6 ADD CALLDATALOAD PUSH1 0x1 PUSH1 0x1 PUSH1 0x40 SHL SUB DUP2 GT ISZERO PUSH2 0x2328 JUMPI PUSH1 0x0 DUP1 REVERT JUMPDEST DUP6 ADD PUSH1 0x1F DUP2 ADD DUP8 SGT PUSH2 0x2339 JUMPI PUSH1 0x0 DUP1 REVERT JUMPDEST PUSH2 0x2348 DUP8 DUP3 CALLDATALOAD PUSH1 0x20 DUP5 ADD PUSH2 0x2057 JUMP JUMPDEST SWAP2 POP POP SWAP3 SWAP6 SWAP2 SWAP5 POP SWAP3 POP JUMP JUMPDEST PUSH1 0x0 DUP1 PUSH1 0x40 DUP4 DUP6 SUB SLT ISZERO PUSH2 0x2367 JUMPI PUSH1 0x0 DUP1 REVERT JUMPDEST PUSH2 0x2370 DUP4 PUSH2 0x1F56 JUMP JUMPDEST SWAP2 POP PUSH2 0x2038 PUSH1 0x20 DUP5 ADD PUSH2 0x1F56 JUMP JUMPDEST PUSH1 0x0 DUP1 PUSH1 0x0 DUP1 PUSH1 0x60 DUP6 DUP8 SUB SLT ISZERO PUSH2 0x2394 JUMPI PUSH1 0x0 DUP1 REVERT JUMPDEST PUSH2 0x239D DUP6 PUSH2 0x1F56 JUMP JUMPDEST SWAP4 POP PUSH2 0x23AB PUSH1 0x20 DUP7 ADD PUSH2 0x2003 JUMP JUMPDEST SWAP3 POP PUSH1 0x40 DUP6 ADD CALLDATALOAD PUSH1 0x1 PUSH1 0x1 PUSH1 0x40 SHL SUB DUP1 DUP3 GT ISZERO PUSH2 0x23C7 JUMPI PUSH1 0x0 DUP1 REVERT JUMPDEST DUP2 DUP8 ADD SWAP2 POP DUP8 PUSH1 0x1F DUP4 ADD SLT PUSH2 0x23DB JUMPI PUSH1 0x0 DUP1 REVERT JUMPDEST DUP2 CALLDATALOAD DUP2 DUP2 GT ISZERO PUSH2 0x23EA JUMPI PUSH1 0x0 DUP1 REVERT JUMPDEST DUP9 PUSH1 0x20 DUP3 DUP6 ADD ADD GT ISZERO PUSH2 0x23FC JUMPI PUSH1 0x0 DUP1 REVERT JUMPDEST SWAP6 SWAP9 SWAP5 SWAP8 POP POP PUSH1 0x20 ADD SWAP5 POP POP POP JUMP JUMPDEST PUSH1 0x1 DUP2 DUP2 SHR SWAP1 DUP3 AND DUP1 PUSH2 0x241F JUMPI PUSH1 0x7F DUP3 AND SWAP2 POP JUMPDEST PUSH1 0x20 DUP3 LT DUP2 SUB PUSH2 0x243F JUMPI PUSH4 0x4E487B71 PUSH1 0xE0 SHL PUSH1 0x0 MSTORE PUSH1 0x22 PUSH1 0x4 MSTORE PUSH1 0x24 PUSH1 0x0 REVERT JUMPDEST POP SWAP2 SWAP1 POP JUMP JUMPDEST PUSH1 0x20 DUP1 DUP3 MSTORE PUSH1 0x1B SWAP1 DUP3 ADD MSTORE PUSH32 0x4D656D626572736869703A204E6F7420616E206F70657261746F720000000000 PUSH1 0x40 DUP3 ADD MSTORE PUSH1 0x60 ADD SWAP1 JUMP JUMPDEST PUSH1 0x1F DUP3 GT ISZERO PUSH2 0x76A JUMPI PUSH1 0x0 DUP2 DUP2 MSTORE PUSH1 0x20 DUP2 KECCAK256 PUSH1 0x1F DUP6 ADD PUSH1 0x5 SHR DUP2 ADD PUSH1 0x20 DUP7 LT ISZERO PUSH2 0x24A3 JUMPI POP DUP1 JUMPDEST PUSH1 0x1F DUP6 ADD PUSH1 0x5 SHR DUP3 ADD SWAP2 POP JUMPDEST DUP2 DUP2 LT ISZERO PUSH2 0xD58 JUMPI DUP3 DUP2 SSTORE PUSH1 0x1 ADD PUSH2 0x24AF JUMP JUMPDEST DUP2 MLOAD PUSH1 0x1 PUSH1 0x1 PUSH1 0x40 SHL SUB DUP2 GT ISZERO PUSH2 0x24DB JUMPI PUSH2 0x24DB PUSH2 0x2041 JUMP JUMPDEST PUSH2 0x24EF DUP2 PUSH2 0x24E9 DUP5 SLOAD PUSH2 0x240B JUMP JUMPDEST DUP5 PUSH2 0x247C JUMP JUMPDEST PUSH1 0x20 DUP1 PUSH1 0x1F DUP4 GT PUSH1 0x1 DUP2 EQ PUSH2 0x2524 JUMPI PUSH1 0x0 DUP5 ISZERO PUSH2 0x250C JUMPI POP DUP6 DUP4 ADD MLOAD JUMPDEST PUSH1 0x0 NOT PUSH1 0x3 DUP7 SWAP1 SHL SHR NOT AND PUSH1 0x1 DUP6 SWAP1 SHL OR DUP6 SSTORE PUSH2 0xD58 JUMP JUMPDEST PUSH1 0x0 DUP6 DUP2 MSTORE PUSH1 0x20 DUP2 KECCAK256 PUSH1 0x1F NOT DUP7 AND SWAP2 JUMPDEST DUP3 DUP2 LT ISZERO PUSH2 0x2553 JUMPI DUP9 DUP7 ADD MLOAD DUP3 SSTORE SWAP5 DUP5 ADD SWAP5 PUSH1 0x1 SWAP1 SWAP2 ADD SWAP1 DUP5 ADD PUSH2 0x2534 JUMP JUMPDEST POP DUP6 DUP3 LT ISZERO PUSH2 0x2571 JUMPI DUP8 DUP6 ADD MLOAD PUSH1 0x0 NOT PUSH1 0x3 DUP9 SWAP1 SHL PUSH1 0xF8 AND SHR NOT AND DUP2 SSTORE JUMPDEST POP POP POP POP POP PUSH1 0x1 SWAP1 DUP2 SHL ADD SWAP1 SSTORE POP JUMP JUMPDEST PUSH4 0x4E487B71 PUSH1 0xE0 SHL PUSH1 0x0 MSTORE PUSH1 0x32 PUSH1 0x4 MSTORE PUSH1 0x24 PUSH1 0x0 REVERT JUMPDEST PUSH4 0x4E487B71 PUSH1 0xE0 SHL PUSH1 0x0 MSTORE PUSH1 0x11 PUSH1 0x4 MSTORE PUSH1 0x24 PUSH1 0x0 REVERT JUMPDEST PUSH1 0x0 PUSH1 0x1 DUP3 ADD PUSH2 0x25BF JUMPI PUSH2 0x25BF PUSH2 0x2597 JUMP JUMPDEST POP PUSH1 0x1 ADD SWAP1 JUMP JUMPDEST PUSH1 0x0 PUSH1 0x20 DUP3 DUP5 SUB SLT ISZERO PUSH2 0x25D8 JUMPI PUSH1 0x0 DUP1 REVERT JUMPDEST PUSH2 0x1ED3 DUP3 PUSH2 0x2003 JUMP JUMPDEST PUSH1 0x0 DUP1 DUP4 CALLDATALOAD PUSH1 0x1E NOT DUP5 CALLDATASIZE SUB ADD DUP2 SLT PUSH2 0x25F8 JUMPI PUSH1 0x0 DUP1 REVERT JUMPDEST DUP4 ADD DUP1 CALLDATALOAD SWAP2 POP PUSH1 0x1 PUSH1 0x1 PUSH1 0x40 SHL SUB DUP3 GT ISZERO PUSH2 0x2612 JUMPI PUSH1 0x0 DUP1 REVERT JUMPDEST PUSH1 0x20 ADD SWAP2 POP CALLDATASIZE DUP2 SWAP1 SUB DUP3 SGT ISZERO PUSH2 0x21EC JUMPI PUSH1 0x0 DUP1 REVERT JUMPDEST PUSH1 0x0 DUP1 DUP5 SLOAD PUSH2 0x2635 DUP2 PUSH2 0x240B JUMP JUMPDEST PUSH1 0x1 DUP3 DUP2 AND DUP1 ISZERO PUSH2 0x264D JUMPI PUSH1 0x1 DUP2 EQ PUSH2 0x2662 JUMPI PUSH2 0x2691 JUMP JUMPDEST PUSH1 0xFF NOT DUP5 AND DUP8 MSTORE DUP3 ISZERO ISZERO DUP4 MUL DUP8 ADD SWAP5 POP PUSH2 0x2691 JUMP JUMPDEST DUP9 PUSH1 0x0 MSTORE PUSH1 0x20 DUP1 PUSH1 0x0 KECCAK256 PUSH1 0x0 JUMPDEST DUP6 DUP2 LT ISZERO PUSH2 0x2688 JUMPI DUP2 SLOAD DUP11 DUP3 ADD MSTORE SWAP1 DUP5 ADD SWAP1 DUP3 ADD PUSH2 0x266F JUMP JUMPDEST POP POP POP DUP3 DUP8 ADD SWAP5 POP JUMPDEST POP POP POP POP PUSH15 0x6B6D6D5F6D656D626572736869705F PUSH1 0x88 SHL DUP2 MSTORE DUP4 MLOAD PUSH2 0x26BD DUP2 PUSH1 0xF DUP5 ADD PUSH1 0x20 DUP9 ADD PUSH2 0x1EDA JUMP JUMPDEST PUSH2 0x219E PUSH1 0xF DUP3 DUP5 ADD ADD PUSH4 0x2E6A7067 PUSH1 0xE0 SHL DUP2 MSTORE PUSH1 0x4 ADD SWAP1 JUMP JUMPDEST PUSH32 0x7B226E616D65223A20224B616E736F6E67204D6574617665727365204D757365 DUP2 MSTORE PUSH19 0x756D204D656D62657273686970204E46542023 PUSH1 0x68 SHL PUSH1 0x20 DUP3 ADD MSTORE PUSH1 0x0 DUP6 MLOAD PUSH2 0x272A DUP2 PUSH1 0x33 DUP6 ADD PUSH1 0x20 DUP11 ADD PUSH2 0x1EDA JUMP JUMPDEST PUSH19 0x111610113232B9B1B934B83A34B7B7111D1011 PUSH1 0x69 SHL PUSH1 0x33 SWAP2 DUP5 ADD SWAP2 DUP3 ADD MSTORE DUP6 MLOAD PUSH2 0x275D DUP2 PUSH1 0x46 DUP5 ADD PUSH1 0x20 DUP11 ADD PUSH2 0x1EDA JUMP JUMPDEST PUSH13 0x1116101134B6B0B3B2911D1011 PUSH1 0x99 SHL PUSH1 0x46 SWAP3 SWAP1 SWAP2 ADD SWAP2 DUP3 ADD MSTORE DUP5 MLOAD PUSH2 0x278B DUP2 PUSH1 0x53 DUP5 ADD PUSH1 0x20 DUP10 ADD PUSH2 0x1EDA JUMP JUMPDEST PUSH12 0x1116101139B1B7B932911D1 PUSH1 0xA5 SHL PUSH1 0x53 SWAP3 SWAP1 SWAP2 ADD SWAP2 DUP3 ADD MSTORE DUP4 MLOAD PUSH2 0x27B8 DUP2 PUSH1 0x5F DUP5 ADD PUSH1 0x20 DUP9 ADD PUSH2 0x1EDA JUMP JUMPDEST PUSH1 0x7D PUSH1 0xF8 SHL PUSH1 0x5F SWAP3 SWAP1 SWAP2 ADD SWAP2 DUP3 ADD MSTORE PUSH1 0x60 ADD SWAP7 SWAP6 POP POP POP POP POP POP JUMP JUMPDEST PUSH32 0x646174613A6170706C69636174696F6E2F6A736F6E3B6261736536342C000000 DUP2 MSTORE PUSH1 0x0 DUP3 MLOAD PUSH2 0x280C DUP2 PUSH1 0x1D DUP6 ADD PUSH1 0x20 DUP8 ADD PUSH2 0x1EDA JUMP JUMPDEST SWAP2 SWAP1 SWAP2 ADD PUSH1 0x1D ADD SWAP3 SWAP2 POP POP JUMP JUMPDEST PUSH1 0x1 PUSH1 0x1 PUSH1 0xA0 SHL SUB DUP6 DUP2 AND DUP3 MSTORE DUP5 AND PUSH1 0x20 DUP3 ADD MSTORE PUSH1 0x40 DUP2 ADD DUP4 SWAP1 MSTORE PUSH1 0x80 PUSH1 0x60 DUP3 ADD DUP2 SWAP1 MSTORE PUSH1 0x0 SWAP1 PUSH2 0x219E SWAP1 DUP4 ADD DUP5 PUSH2 0x1EFE JUMP JUMPDEST PUSH1 0x0 PUSH1 0x20 DUP3 DUP5 SUB SLT ISZERO PUSH2 0x285E JUMPI PUSH1 0x0 DUP1 REVERT JUMPDEST DUP2 MLOAD PUSH2 0x1ED3 DUP2 PUSH2 0x1E9D JUMP JUMPDEST PUSH4 0x4E487B71 PUSH1 0xE0 SHL PUSH1 0x0 MSTORE PUSH1 0x12 PUSH1 0x4 MSTORE PUSH1 0x24 PUSH1 0x0 REVERT JUMPDEST PUSH1 0x0 DUP3 PUSH2 0x288E JUMPI PUSH2 0x288E PUSH2 0x2869 JUMP JUMPDEST POP DIV SWAP1 JUMP JUMPDEST DUP2 DUP2 SUB DUP2 DUP2 GT ISZERO PUSH2 0x4B9 JUMPI PUSH2 0x4B9 PUSH2 0x2597 JUMP JUMPDEST PUSH1 0x0 DUP3 PUSH2 0x28B5 JUMPI PUSH2 0x28B5 PUSH2 0x2869 JUMP JUMPDEST POP MOD SWAP1 JUMP JUMPDEST DUP1 DUP3 ADD DUP1 DUP3 GT ISZERO PUSH2 0x4B9 JUMPI PUSH2 0x4B9 PUSH2 0x2597 JUMP JUMPDEST DUP1 DUP3 MUL DUP2 ISZERO DUP3 DUP3 DIV DUP5 EQ OR PUSH2 0x4B9 JUMPI PUSH2 0x4B9 PUSH2 0x2597 JUMP JUMPDEST PUSH4 0x4E487B71 PUSH1 0xE0 SHL PUSH1 0x0 MSTORE PUSH1 0x31 PUSH1 0x4 MSTORE PUSH1 0x24 PUSH1 0x0 REVERT INVALID PUSH5 0x5E03970549 STOP DUP9 0xDA 0xAD DUP10 0xBA 0xE2 POP 0x49 LOG3 0x4F 0x4A SWAP1 PUSH19 0xD398537B1AB2425F24CBED0080BB2B638CC20B 0xC4 0xD0 0xA6 0xD PUSH7 0x940F3AB4A00C1D PUSH28 0x313497CA82FB0B4AB00793004B616E736F6E67204D65746176657273 PUSH6 0x204D75736575 PUSH14 0x204D656D62657273686970204E46 SLOAD PUSH20 0x20656E7469746C6520686F6C646572732077686F KECCAK256 PUSH16 0x776E204E465473206973737565642062 PUSH26 0x204B4D4D20746F207370656369616C2074726561746D656E742E KECCAK256 SLOAD PUSH9 0x6973206D656D626572 PUSH20 0x686970204E4654206973206D6F7265207468616E KECCAK256 PUSH11 0x7573742061206D656D6265 PUSH19 0x7368697020636172643B2069742073796D626F PUSH13 0x697A6573207468652070726964 PUSH6 0x206F66206265 PUSH10 0x6E672061205472656173 PUSH22 0x726520477561726469616E2C20726570726573656E74 PUSH10 0x6E672061207370656369 PUSH2 0x6C20 PUSH6 0x787065726965 PUSH15 0x636520616E6420726573706F6E7369 PUSH3 0x696C69 PUSH21 0x792E20437265617465642062792074686520736B69 PUSH13 0x6C656420677261706869632064 PUSH6 0x7369676E6572 KECCAK256 MSIZE PUSH16 0x756E676861205061726B2C2074686973 KECCAK256 0x4E CHAINID SLOAD KECCAK256 PUSH10 0x7320726F6F7465642069 PUSH15 0x207468652064697374696E63746976 PUSH6 0x206C6F676F20 PUSH16 0x6620746865204B616E736F6E67204D65 PUSH21 0x617665727365204D757365756D2C20612063726561 PUSH21 0x696F6E20616C736F20617474726962757465642074 PUSH16 0x205061726B2E20576974682061206D6F PUSH5 0x65726E2072 PUSH6 0x696E74657270 PUSH19 0x65746174696F6E2C2069742063617074757265 PUSH20 0x2074686520657373656E6365206F662074686520 PUSH6 0x787175697369 PUSH21 0x65206C616E6473636170657320616E642063686172 PUSH2 0x6374 PUSH6 0x72732066726F PUSH14 0x2074686520416C62756D206F6620 SELFBALANCE PUSH6 0x6E7265205061 PUSH10 0x6E74696E677320627920 BASEFEE PUSH26 0x65776F6E2E4142434445464748494A4B4C4D4E4F505152535455 JUMP JUMPI PC MSIZE GAS PUSH2 0x6263 PUSH5 0x6566676869 PUSH11 0x6B6C6D6E6F707172737475 PUSH23 0x7778797A303132333435363738392B2F4B616E736F6E67 KECCAK256 0x4D PUSH6 0x746176657273 PUSH6 0x204D75736575 PUSH14 0x204D656D62657273686970204E46 SLOAD PUSH5 0x5E03970549 STOP DUP9 0xDA 0xAD DUP10 0xBA 0xE2 POP 0x49 LOG3 0x4F 0x4A SWAP1 PUSH19 0xD398537B1AB2425F24CBED0268747470733A2F 0x2F PUSH12 0x6D6D2E6D7970696E6174612E PUSH4 0x6C6F7564 0x2F PUSH10 0x7066732F516D5535585A MSIZE MSTORE8 PUSH18 0x637577426B4C654D436D3247666D6A797831 BALANCE PUSH16 0x504E45714A456B6E655161334A317777 PUSH6 0x2FA264697066 PUSH20 0x58221220D91D1E13320011FF7EB42EE023B62A66 0xDE MLOAD 0x27 SUB PUSH26 0xF2CA24C94988D2DBACFFFC64736F6C6343000814003300000000 "},"methodIdentifiers":{"approve(address,uint256)":"095ea7b3","balanceOf(address)":"70a08231","batchMint(address[],uint16[],string[])":"613a5623","getApproved(uint256)":"081812fc","getOwner()":"893d20e8","initialize(address)":"c4d66de8","isAggregationActive()":"bf4c51af","isApprovedForAll(address,address)":"e985e9c5","isOperatorActive(address)":"eb473533","maxSupply()":"d5abeb01","members(uint256)":"5daf08ca","mint(address,uint16,string)":"ecb2906c","name()":"06fdde03","ownerOf(uint256)":"6352211e","safeTransferFrom(address,address,uint256)":"42842e0e","safeTransferFrom(address,address,uint256,bytes)":"b88d4fde","setApprovalForAll(address,bool)":"a22cb465","supportsInterface(bytes4)":"01ffc9a7","switchAggregation(bool)":"2972a50d","symbol()":"95d89b41","tokenByIndex(uint256)":"4f6ccce7","tokenOfOwnerByIndex(address,uint256)":"2f745c59","tokenURI(uint256)":"c87b56dd","tokensOf(address)":"5a3f2672","totalSupply()":"18160ddd","transferFrom(address,address,uint256)":"23b872dd","transferOwnership(address)":"f2fde38b","updateBaseImgUrl(string)":"3c45d706","updateIsExpired(uint256,bool)":"70912cc9","updateOperator(address,bool)":"6d44a3b2","updateScore(uint256,uint16)":"3badcc96"}},"storageLayout":{"storage":[{"astId":3855,"contract":"contracts/Membership.sol:Membership","label":"maxSupply","offset":0,"slot":"0","type":"t_uint256"},{"astId":3857,"contract":"contracts/Membership.sol:Membership","label":"_tokenId","offset":0,"slot":"1","type":"t_uint256"},{"astId":3859,"contract":"contracts/Membership.sol:Membership","label":"_owner","offset":0,"slot":"2","type":"t_address"},{"astId":3861,"contract":"contracts/Membership.sol:Membership","label":"isAggregationActive","offset":20,"slot":"2","type":"t_bool"},{"astId":3863,"contract":"contracts/Membership.sol:Membership","label":"_baseImgUrl","offset":0,"slot":"3","type":"t_string_storage"},{"astId":3876,"contract":"contracts/Membership.sol:Membership","label":"_operators","offset":0,"slot":"4","type":"t_mapping(t_address,t_bool)"},{"astId":3881,"contract":"contracts/Membership.sol:Membership","label":"members","offset":0,"slot":"5","type":"t_mapping(t_uint256,t_struct(Member)3872_storage)"}],"types":{"t_address":{"encoding":"inplace","label":"address","numberOfBytes":"20"},"t_bool":{"encoding":"inplace","label":"bool","numberOfBytes":"1"},"t_mapping(t_address,t_bool)":{"encoding":"mapping","key":"t_address","label":"mapping(address => bool)","numberOfBytes":"32","value":"t_bool"},"t_mapping(t_uint256,t_struct(Member)3872_storage)":{"encoding":"mapping","key":"t_uint256","label":"mapping(uint256 => struct Membership.Member)","numberOfBytes":"32","value":"t_struct(Member)3872_storage"},"t_string_storage":{"encoding":"bytes","label":"string","numberOfBytes":"32"},"t_struct(Member)3872_storage":{"encoding":"inplace","label":"struct Membership.Member","members":[{"astId":3865,"contract":"contracts/Membership.sol:Membership","label":"tokenId","offset":0,"slot":"0","type":"t_uint256"},{"astId":3867,"contract":"contracts/Membership.sol:Membership","label":"isExpired","offset":0,"slot":"1","type":"t_bool"},{"astId":3869,"contract":"contracts/Membership.sol:Membership","label":"score","offset":1,"slot":"1","type":"t_uint16"},{"astId":3871,"contract":"contracts/Membership.sol:Membership","label":"imgName","offset":0,"slot":"2","type":"t_string_storage"}],"numberOfBytes":"96"},"t_uint16":{"encoding":"inplace","label":"uint16","numberOfBytes":"2"},"t_uint256":{"encoding":"inplace","label":"uint256","numberOfBytes":"32"}}}}}}