{
  "_format": "hh-sol-artifact-1",
  "contractName": "MembershipV1",
  "sourceName": "contracts/Membership.sol",
  "abi": [
    {
      "inputs": [],
      "name": "ERC721EnumerableForbiddenBatchMint",
      "type": "error"
    },
    {
      "inputs": [
        {
          "internalType": "address",
          "name": "sender",
          "type": "address"
        },
        {
          "internalType": "uint256",
          "name": "tokenId",
          "type": "uint256"
        },
        {
          "internalType": "address",
          "name": "owner",
          "type": "address"
        }
      ],
      "name": "ERC721IncorrectOwner",
      "type": "error"
    },
    {
      "inputs": [
        {
          "internalType": "address",
          "name": "operator",
          "type": "address"
        },
        {
          "internalType": "uint256",
          "name": "tokenId",
          "type": "uint256"
        }
      ],
      "name": "ERC721InsufficientApproval",
      "type": "error"
    },
    {
      "inputs": [
        {
          "internalType": "address",
          "name": "approver",
          "type": "address"
        }
      ],
      "name": "ERC721InvalidApprover",
      "type": "error"
    },
    {
      "inputs": [
        {
          "internalType": "address",
          "name": "operator",
          "type": "address"
        }
      ],
      "name": "ERC721InvalidOperator",
      "type": "error"
    },
    {
      "inputs": [
        {
          "internalType": "address",
          "name": "owner",
          "type": "address"
        }
      ],
      "name": "ERC721InvalidOwner",
      "type": "error"
    },
    {
      "inputs": [
        {
          "internalType": "address",
          "name": "receiver",
          "type": "address"
        }
      ],
      "name": "ERC721InvalidReceiver",
      "type": "error"
    },
    {
      "inputs": [
        {
          "internalType": "address",
          "name": "sender",
          "type": "address"
        }
      ],
      "name": "ERC721InvalidSender",
      "type": "error"
    },
    {
      "inputs": [
        {
          "internalType": "uint256",
          "name": "tokenId",
          "type": "uint256"
        }
      ],
      "name": "ERC721NonexistentToken",
      "type": "error"
    },
    {
      "inputs": [
        {
          "internalType": "address",
          "name": "owner",
          "type": "address"
        },
        {
          "internalType": "uint256",
          "name": "index",
          "type": "uint256"
        }
      ],
      "name": "ERC721OutOfBoundsIndex",
      "type": "error"
    },
    {
      "inputs": [],
      "name": "InvalidInitialization",
      "type": "error"
    },
    {
      "inputs": [],
      "name": "NotInitializing",
      "type": "error"
    },
    {
      "anonymous": false,
      "inputs": [
        {
          "indexed": true,
          "internalType": "address",
          "name": "owner",
          "type": "address"
        },
        {
          "indexed": true,
          "internalType": "address",
          "name": "approved",
          "type": "address"
        },
        {
          "indexed": true,
          "internalType": "uint256",
          "name": "tokenId",
          "type": "uint256"
        }
      ],
      "name": "Approval",
      "type": "event"
    },
    {
      "anonymous": false,
      "inputs": [
        {
          "indexed": true,
          "internalType": "address",
          "name": "owner",
          "type": "address"
        },
        {
          "indexed": true,
          "internalType": "address",
          "name": "operator",
          "type": "address"
        },
        {
          "indexed": false,
          "internalType": "bool",
          "name": "approved",
          "type": "bool"
        }
      ],
      "name": "ApprovalForAll",
      "type": "event"
    },
    {
      "anonymous": false,
      "inputs": [
        {
          "indexed": false,
          "internalType": "uint64",
          "name": "version",
          "type": "uint64"
        }
      ],
      "name": "Initialized",
      "type": "event"
    },
    {
      "anonymous": false,
      "inputs": [
        {
          "indexed": false,
          "internalType": "address",
          "name": "operator",
          "type": "address"
        },
        {
          "indexed": false,
          "internalType": "bool",
          "name": "isActive",
          "type": "bool"
        }
      ],
      "name": "SetOperator",
      "type": "event"
    },
    {
      "anonymous": false,
      "inputs": [
        {
          "indexed": true,
          "internalType": "address",
          "name": "from",
          "type": "address"
        },
        {
          "indexed": true,
          "internalType": "address",
          "name": "to",
          "type": "address"
        },
        {
          "indexed": true,
          "internalType": "uint256",
          "name": "tokenId",
          "type": "uint256"
        }
      ],
      "name": "Transfer",
      "type": "event"
    },
    {
      "inputs": [
        {
          "internalType": "address",
          "name": "to",
          "type": "address"
        },
        {
          "internalType": "uint256",
          "name": "tokenId",
          "type": "uint256"
        }
      ],
      "name": "approve",
      "outputs": [],
      "stateMutability": "nonpayable",
      "type": "function"
    },
    {
      "inputs": [
        {
          "internalType": "address",
          "name": "owner",
          "type": "address"
        }
      ],
      "name": "balanceOf",
      "outputs": [
        {
          "internalType": "uint256",
          "name": "",
          "type": "uint256"
        }
      ],
      "stateMutability": "view",
      "type": "function"
    },
    {
      "inputs": [
        {
          "internalType": "address[]",
          "name": "toAddrs",
          "type": "address[]"
        },
        {
          "internalType": "uint16[]",
          "name": "scores",
          "type": "uint16[]"
        },
        {
          "internalType": "string[]",
          "name": "imgNames",
          "type": "string[]"
        }
      ],
      "name": "batchMint",
      "outputs": [],
      "stateMutability": "nonpayable",
      "type": "function"
    },
    {
      "inputs": [
        {
          "internalType": "uint256",
          "name": "tokenId",
          "type": "uint256"
        }
      ],
      "name": "getApproved",
      "outputs": [
        {
          "internalType": "address",
          "name": "",
          "type": "address"
        }
      ],
      "stateMutability": "view",
      "type": "function"
    },
    {
      "inputs": [],
      "name": "getBaseImgUrl",
      "outputs": [
        {
          "internalType": "string",
          "name": "",
          "type": "string"
        }
      ],
      "stateMutability": "view",
      "type": "function"
    },
    {
      "inputs": [],
      "name": "getOwner",
      "outputs": [
        {
          "internalType": "address",
          "name": "",
          "type": "address"
        }
      ],
      "stateMutability": "view",
      "type": "function"
    },
    {
      "inputs": [],
      "name": "initialize",
      "outputs": [],
      "stateMutability": "nonpayable",
      "type": "function"
    },
    {
      "inputs": [],
      "name": "isAggregationActive",
      "outputs": [
        {
          "internalType": "bool",
          "name": "",
          "type": "bool"
        }
      ],
      "stateMutability": "view",
      "type": "function"
    },
    {
      "inputs": [
        {
          "internalType": "address",
          "name": "owner",
          "type": "address"
        },
        {
          "internalType": "address",
          "name": "operator",
          "type": "address"
        }
      ],
      "name": "isApprovedForAll",
      "outputs": [
        {
          "internalType": "bool",
          "name": "",
          "type": "bool"
        }
      ],
      "stateMutability": "view",
      "type": "function"
    },
    {
      "inputs": [
        {
          "internalType": "address",
          "name": "operatorAddr",
          "type": "address"
        }
      ],
      "name": "isOperatorActive",
      "outputs": [
        {
          "internalType": "bool",
          "name": "",
          "type": "bool"
        }
      ],
      "stateMutability": "view",
      "type": "function"
    },
    {
      "inputs": [],
      "name": "maxSupply",
      "outputs": [
        {
          "internalType": "uint256",
          "name": "",
          "type": "uint256"
        }
      ],
      "stateMutability": "view",
      "type": "function"
    },
    {
      "inputs": [
        {
          "internalType": "uint256",
          "name": "",
          "type": "uint256"
        }
      ],
      "name": "members",
      "outputs": [
        {
          "internalType": "uint256",
          "name": "tokenId",
          "type": "uint256"
        },
        {
          "internalType": "bool",
          "name": "isExpired",
          "type": "bool"
        },
        {
          "internalType": "uint16",
          "name": "score",
          "type": "uint16"
        },
        {
          "internalType": "string",
          "name": "imgName",
          "type": "string"
        }
      ],
      "stateMutability": "view",
      "type": "function"
    },
    {
      "inputs": [
        {
          "internalType": "address",
          "name": "toAddr",
          "type": "address"
        },
        {
          "internalType": "uint16",
          "name": "score",
          "type": "uint16"
        },
        {
          "internalType": "string",
          "name": "imgName",
          "type": "string"
        }
      ],
      "name": "mint",
      "outputs": [],
      "stateMutability": "nonpayable",
      "type": "function"
    },
    {
      "inputs": [],
      "name": "name",
      "outputs": [
        {
          "internalType": "string",
          "name": "",
          "type": "string"
        }
      ],
      "stateMutability": "view",
      "type": "function"
    },
    {
      "inputs": [
        {
          "internalType": "uint256",
          "name": "tokenId",
          "type": "uint256"
        }
      ],
      "name": "ownerOf",
      "outputs": [
        {
          "internalType": "address",
          "name": "",
          "type": "address"
        }
      ],
      "stateMutability": "view",
      "type": "function"
    },
    {
      "inputs": [
        {
          "internalType": "address",
          "name": "from",
          "type": "address"
        },
        {
          "internalType": "address",
          "name": "to",
          "type": "address"
        },
        {
          "internalType": "uint256",
          "name": "tokenId",
          "type": "uint256"
        }
      ],
      "name": "safeTransferFrom",
      "outputs": [],
      "stateMutability": "nonpayable",
      "type": "function"
    },
    {
      "inputs": [
        {
          "internalType": "address",
          "name": "from",
          "type": "address"
        },
        {
          "internalType": "address",
          "name": "to",
          "type": "address"
        },
        {
          "internalType": "uint256",
          "name": "tokenId",
          "type": "uint256"
        },
        {
          "internalType": "bytes",
          "name": "data",
          "type": "bytes"
        }
      ],
      "name": "safeTransferFrom",
      "outputs": [],
      "stateMutability": "nonpayable",
      "type": "function"
    },
    {
      "inputs": [
        {
          "internalType": "bool",
          "name": "isActive",
          "type": "bool"
        }
      ],
      "name": "setAggregation",
      "outputs": [],
      "stateMutability": "nonpayable",
      "type": "function"
    },
    {
      "inputs": [
        {
          "internalType": "address",
          "name": "operator",
          "type": "address"
        },
        {
          "internalType": "bool",
          "name": "approved",
          "type": "bool"
        }
      ],
      "name": "setApprovalForAll",
      "outputs": [],
      "stateMutability": "nonpayable",
      "type": "function"
    },
    {
      "inputs": [
        {
          "internalType": "address",
          "name": "newOperator",
          "type": "address"
        },
        {
          "internalType": "bool",
          "name": "isActive",
          "type": "bool"
        }
      ],
      "name": "setOperator",
      "outputs": [],
      "stateMutability": "nonpayable",
      "type": "function"
    },
    {
      "inputs": [
        {
          "internalType": "bytes4",
          "name": "interfaceId",
          "type": "bytes4"
        }
      ],
      "name": "supportsInterface",
      "outputs": [
        {
          "internalType": "bool",
          "name": "",
          "type": "bool"
        }
      ],
      "stateMutability": "view",
      "type": "function"
    },
    {
      "inputs": [],
      "name": "symbol",
      "outputs": [
        {
          "internalType": "string",
          "name": "",
          "type": "string"
        }
      ],
      "stateMutability": "view",
      "type": "function"
    },
    {
      "inputs": [
        {
          "internalType": "uint256",
          "name": "index",
          "type": "uint256"
        }
      ],
      "name": "tokenByIndex",
      "outputs": [
        {
          "internalType": "uint256",
          "name": "",
          "type": "uint256"
        }
      ],
      "stateMutability": "view",
      "type": "function"
    },
    {
      "inputs": [
        {
          "internalType": "address",
          "name": "owner",
          "type": "address"
        },
        {
          "internalType": "uint256",
          "name": "index",
          "type": "uint256"
        }
      ],
      "name": "tokenOfOwnerByIndex",
      "outputs": [
        {
          "internalType": "uint256",
          "name": "",
          "type": "uint256"
        }
      ],
      "stateMutability": "view",
      "type": "function"
    },
    {
      "inputs": [
        {
          "internalType": "uint256",
          "name": "tokenId",
          "type": "uint256"
        }
      ],
      "name": "tokenURI",
      "outputs": [
        {
          "internalType": "string",
          "name": "",
          "type": "string"
        }
      ],
      "stateMutability": "view",
      "type": "function"
    },
    {
      "inputs": [
        {
          "internalType": "address",
          "name": "account",
          "type": "address"
        }
      ],
      "name": "tokensOf",
      "outputs": [
        {
          "internalType": "uint256[]",
          "name": "",
          "type": "uint256[]"
        }
      ],
      "stateMutability": "view",
      "type": "function"
    },
    {
      "inputs": [],
      "name": "totalSupply",
      "outputs": [
        {
          "internalType": "uint256",
          "name": "",
          "type": "uint256"
        }
      ],
      "stateMutability": "view",
      "type": "function"
    },
    {
      "inputs": [
        {
          "internalType": "address",
          "name": "from",
          "type": "address"
        },
        {
          "internalType": "address",
          "name": "to",
          "type": "address"
        },
        {
          "internalType": "uint256",
          "name": "tokenId",
          "type": "uint256"
        }
      ],
      "name": "transferFrom",
      "outputs": [],
      "stateMutability": "nonpayable",
      "type": "function"
    },
    {
      "inputs": [
        {
          "internalType": "address",
          "name": "newOwner",
          "type": "address"
        }
      ],
      "name": "transferOwner",
      "outputs": [],
      "stateMutability": "nonpayable",
      "type": "function"
    },
    {
      "inputs": [
        {
          "internalType": "string",
          "name": "newUrl",
          "type": "string"
        }
      ],
      "name": "updateBaseImgUrl",
      "outputs": [],
      "stateMutability": "nonpayable",
      "type": "function"
    },
    {
      "inputs": [
        {
          "internalType": "uint256",
          "name": "tokenId",
          "type": "uint256"
        },
        {
          "internalType": "bool",
          "name": "isExpired",
          "type": "bool"
        }
      ],
      "name": "updateIsExpired",
      "outputs": [],
      "stateMutability": "nonpayable",
      "type": "function"
    },
    {
      "inputs": [
        {
          "internalType": "uint256",
          "name": "tokenId",
          "type": "uint256"
        },
        {
          "internalType": "uint16",
          "name": "score",
          "type": "uint16"
        }
      ],
      "name": "updateScore",
      "outputs": [],
      "stateMutability": "nonpayable",
      "type": "function"
    }
  ],
  "bytecode": "0x608060405234801561001057600080fd5b50612d36806100206000396000f3fe608060405234801561001057600080fd5b50600436106101f05760003560e01c80636352211e1161010f578063bf4c51af116100a2578063e49fe3eb11610071578063e49fe3eb14610442578063e985e9c51461044a578063eb4735331461045d578063ecb2906c1461048957600080fd5b8063bf4c51af146103ff578063c87b56dd14610413578063d5abeb0114610426578063de5ac3da1461042f57600080fd5b8063893d20e8116100de578063893d20e8146103c057806395d89b41146103d1578063a22cb465146103d9578063b88d4fde146103ec57600080fd5b80636352211e1461037f57806370912cc91461039257806370a08231146103a55780638129fc1c146103b857600080fd5b80633c45d70611610187578063558a729711610156578063558a7297146103165780635a3f2672146103295780635daf08ca14610349578063613a56231461036c57600080fd5b80633c45d706146102ca57806342842e0e146102dd5780634f6ccce7146102f05780634fb2e45d1461030357600080fd5b806318160ddd116101c357806318160ddd1461027257806323b872dd146102915780632f745c59146102a45780633badcc96146102b757600080fd5b806301ffc9a7146101f557806306fdde031461021d578063081812fc14610232578063095ea7b31461025d575b600080fd5b610208610203366004611f82565b61049c565b60405190151581526020015b60405180910390f35b6102256104c7565b6040516102149190611ff6565b610245610240366004612009565b61056b565b6040516001600160a01b039091168152602001610214565b61027061026b36600461203e565b610580565b005b600080516020612c92833981519152545b604051908152602001610214565b61027061029f366004612068565b61058f565b6102836102b236600461203e565b61061f565b6102706102c53660046120b6565b610693565b6102706102d836600461216d565b6106e5565b6102706102eb366004612068565b610715565b6102836102fe366004612009565b610735565b6102706103113660046121b5565b6107ad565b6102706103243660046121e0565b610825565b61033c6103373660046121b5565b6108de565b604051610214919061220a565b61035c610357366004612009565b610981565b604051610214949392919061224e565b61027061037a3660046122ce565b610a3d565b61024561038d366004612009565b610afc565b6102706103a0366004612367565b610b07565b6102836103b33660046121b5565b610b4e565b610270610baa565b6002546001600160a01b0316610245565b610225610d52565b6102706103e73660046121e0565b610d91565b6102706103fa36600461238a565b610d9c565b60025461020890600160a01b900460ff1681565b610225610421366004612009565b610db3565b61028360005481565b61027061043d366004612405565b610f9a565b610225610fdc565b610208610458366004612420565b611092565b61020861046b3660046121b5565b6001600160a01b031660009081526004602052604090205460ff1690565b61027061049736600461244a565b6110df565b60006001600160e01b0319821663780e9d6360e01b14806104c157506104c18261129f565b92915050565b6000805160206129c783398151915280546060919081906104e7906124d7565b80601f0160208091040260200160405190810160405280929190818152602001828054610513906124d7565b80156105605780601f1061053557610100808354040283529160200191610560565b820191906000526020600020905b81548152906001019060200180831161054357829003601f168201915b505050505091505090565b6000610576826112ef565b506104c182611327565b61058b828233611361565b5050565b6001600160a01b0382166105be57604051633250574960e11b8152600060048201526024015b60405180910390fd5b60006105cb83833361136e565b9050836001600160a01b0316816001600160a01b031614610619576040516364283d7b60e01b81526001600160a01b03808616600483015260248201849052821660448201526064016105b5565b50505050565b60006000805160206129a783398151915261063984610b4e565b831061066a5760405163295f44f760e21b81526001600160a01b0385166004820152602481018490526044016105b5565b6001600160a01b0384166000908152602091825260408082208583529092522054905092915050565b61069b61146f565b6106b75760405162461bcd60e51b81526004016105b590612511565b600091825260056020526040909120600101805461ffff9092166101000262ffff0019909216919091179055565b6106ed61146f565b6107095760405162461bcd60e51b81526004016105b590612511565b600361058b8282612596565b61073083838360405180602001604052806000815250610d9c565b505050565b60006000805160206129a783398151915261075c600080516020612c928339815191525490565b83106107855760405163295f44f760e21b815260006004820152602481018490526044016105b5565b80600201838154811061079a5761079a612655565b9060005260206000200154915050919050565b6002546001600160a01b031633146108035760405162461bcd60e51b815260206004820152601960248201527826b2b6b132b939b434b81d102737ba103a34329037bbb732b960391b60448201526064016105b5565b600280546001600160a01b0319166001600160a01b0392909216919091179055565b6002546001600160a01b0316331461087b5760405162461bcd60e51b815260206004820152601960248201527826b2b6b132b939b434b81d102737ba103a34329037bbb732b960391b60448201526064016105b5565b6001600160a01b038216600081815260046020908152604091829020805460ff19168515159081179091558251938452908301527f1618a22a3b00b9ac70fd5a82f1f5cdd8cb272bd0f1b740ddf7c26ab05881dd5b910160405180910390a15050565b606060006108eb83610b4e565b6001600160401b03811115610902576109026120e2565b60405190808252806020026020018201604052801561092b578160200160208202803683370190505b50905060005b61093a84610b4e565b81101561097a5761094b848261061f565b82828151811061095d5761095d612655565b60209081029190910101528061097281612681565b915050610931565b5092915050565b600560205260009081526040902080546001820154600283018054929360ff83169361010090930461ffff16929091906109ba906124d7565b80601f01602080910402602001604051908101604052809291908181526020018280546109e6906124d7565b8015610a335780601f10610a0857610100808354040283529160200191610a33565b820191906000526020600020905b815481529060010190602001808311610a1657829003601f168201915b5050505050905084565b610a4561146f565b610a615760405162461bcd60e51b81526004016105b590612511565b60005b85811015610af357610ae1878783818110610a8157610a81612655565b9050602002016020810190610a9691906121b5565b868684818110610aa857610aa8612655565b9050602002016020810190610abd919061269a565b858585818110610acf57610acf612655565b905060200281019061049791906126b5565b80610aeb81612681565b915050610a64565b50505050505050565b60006104c1826112ef565b610b0f61146f565b610b2b5760405162461bcd60e51b81526004016105b590612511565b600091825260056020526040909120600101805460ff1916911515919091179055565b60006000805160206129c78339815191526001600160a01b038316610b89576040516322718ad960e21b8152600060048201526024016105b5565b6001600160a01b039092166000908152600390920160205250604090205490565b7ff0c57e16840df040f15088dc2f81fe391c3923bec73e23a9662efc9c229c6a008054600160401b810460ff1615906001600160401b0316600081158015610bef5750825b90506000826001600160401b03166001148015610c0b5750303b155b905081158015610c19575080155b15610c375760405163f92ee8a960e01b815260040160405180910390fd5b845467ffffffffffffffff191660011785558315610c6157845460ff60401b1916600160401b1785555b610ca9604051806060016040528060278152602001612c6b602791396040518060400160405280600e81526020016d04b4d4d2d4d656d626572736869760941b8152506114ab565b600280546001600160a01b03191633908117909155600090815260046020908152604091829020805460ff19166001179055815160808101909252604f80835290612cb290830139600390610cfe9082612596565b506127106000558315610d4b57845460ff60401b19168555604051600181527fc7f505b2f371ae2175ee4913f4499e1f2633a7b5936321eed1cdaeb6115181d29060200160405180910390a15b5050505050565b7f80bb2b638cc20bc4d0a60d66940f3ab4a00c1d7b313497ca82fb0b4ab007930180546060916000805160206129c7833981519152916104e7906124d7565b61058b3383836114bd565b610da784848461058f565b6106198484848461156e565b6060610dbe82611690565b610e155760405162461bcd60e51b815260206004820152602260248201527f4d656d626572736869703a20546f6b656e4964206e6f74206d696e7465642079604482015261195d60f21b60648201526084016105b5565b6000828152600560209081526040808320815160808101835281548152600182015460ff811615159482019490945261010090930461ffff1691830191909152600281018054606084019190610e6a906124d7565b80601f0160208091040260200160405190810160405280929190818152602001828054610e96906124d7565b8015610ee35780601f10610eb857610100808354040283529160200191610ee3565b820191906000526020600020905b815481529060010190602001808311610ec657829003601f168201915b5050505050815250509050600060038260600151604051602001610f089291906126fb565b60405160208183030381529060405290506000610f236116ba565b90506000610f6d610f33876116e0565b8385610f46886040015161ffff166116e0565b604051602001610f599493929190612782565b6040516020818303038152906040526117e0565b905080604051602001610f809190612880565b604051602081830303815290604052945050505050919050565b610fa261146f565b610fbe5760405162461bcd60e51b81526004016105b590612511565b60028054911515600160a01b0260ff60a01b19909216919091179055565b6060610fe661146f565b6110025760405162461bcd60e51b81526004016105b590612511565b6003805461100f906124d7565b80601f016020809104026020016040519081016040528092919081815260200182805461103b906124d7565b80156110885780601f1061105d57610100808354040283529160200191611088565b820191906000526020600020905b81548152906001019060200180831161106b57829003601f168201915b5050505050905090565b6001600160a01b0391821660009081527f80bb2b638cc20bc4d0a60d66940f3ab4a00c1d7b313497ca82fb0b4ab00793056020908152604080832093909416825291909152205460ff1690565b6110e761146f565b6111035760405162461bcd60e51b81526004016105b590612511565b600054600154106111675760405162461bcd60e51b815260206004820152602860248201527f4d656d626572736869703a206d696e74696e6720636f756e74206f766572206d6044820152676178537570706c7960c01b60648201526084016105b5565b6001805490600061117783612681565b91905055506000604051806080016040528060015481526020016000151581526020018561ffff16815260200184848080601f016020809104026020016040519081016040528093929190818152602001838380828437600092018290525093909452505060018054825260056020908152604092839020855181559085015191810180549386015161ffff166101000262ffff00199315159390931662ffffff1990941693909317919091179091556060830151929350839290915060028201906112439082612596565b5090505061125385600154611949565b610d4b5760405162461bcd60e51b815260206004820152601e60248201527f4d656d626572736869702d4e46543a206d696e74696e67206661696c6564000060448201526064016105b5565b60006001600160e01b031982166380ac58cd60e01b14806112d057506001600160e01b03198216635b5e139f60e01b145b806104c157506301ffc9a760e01b6001600160e01b03198316146104c1565b6000806112fb8361195e565b90506001600160a01b0381166104c157604051637e27328960e01b8152600481018490526024016105b5565b60009081527f80bb2b638cc20bc4d0a60d66940f3ab4a00c1d7b313497ca82fb0b4ab007930460205260409020546001600160a01b031690565b6107308383836001611998565b60008061137c858585611aae565b90506001600160a01b0381166114055761140084600080516020612c92833981519152805460008381527f645e039705490088daad89bae25049a34f4a9072d398537b1ab2425f24cbed0360205260408120829055600182018355919091527fa42f15e5d656f8155fd7419d740a6073999f19cd6e061449ce4a257150545bf20155565b611428565b846001600160a01b0316816001600160a01b031614611428576114288185611bb8565b6001600160a01b0385166114445761143f84611c5c565b611467565b846001600160a01b0316816001600160a01b031614611467576114678585611d33565b949350505050565b6002546000906001600160a01b031633148061149a57503360009081526004602052604090205460ff165b156114a55750600190565b50600090565b6114b3611d8e565b61058b8282611dd9565b6000805160206129c78339815191526001600160a01b0383166114fe57604051630b61174360e31b81526001600160a01b03841660048201526024016105b5565b6001600160a01b038481166000818152600584016020908152604080832094881680845294825291829020805460ff191687151590811790915591519182527f17307eab39ab6107e8899845ad3d59bd9653f200f220920489ca2b5937696c31910160405180910390a350505050565b6001600160a01b0383163b1561061957604051630a85bd0160e11b81526001600160a01b0384169063150b7a02906115b09033908890879087906004016128c5565b6020604051808303816000875af19250505080156115eb575060408051601f3d908101601f191682019092526115e8918101906128f8565b60015b611654573d808015611619576040519150601f19603f3d011682016040523d82523d6000602084013e61161e565b606091505b50805160000361164c57604051633250574960e11b81526001600160a01b03851660048201526024016105b5565b805181602001fd5b6001600160e01b03198116630a85bd0160e11b14610d4b57604051633250574960e11b81526001600160a01b03851660048201526024016105b5565b60008061169c8361195e565b6001600160a01b0316036116b257506000919050565b506001919050565b6060600060405180610280016040528061024481526020016129e7610244913992915050565b6060816000036117075750506040805180820190915260018152600360fc1b602082015290565b8160005b8115611731578061171b81612681565b915061172a9050600a8361292b565b915061170b565b6000816001600160401b0381111561174b5761174b6120e2565b6040519080825280601f01601f191660200182016040528015611775576020820181803683370190505b5090505b84156114675761178a60018361293f565b9150611797600a86612952565b6117a2906030612966565b60f81b8183815181106117b7576117b7612655565b60200101906001600160f81b031916908160001a9053506117d9600a8661292b565b9450611779565b80516060906000819003611804575050604080516020810190915260008152919050565b60006003611813836002612966565b61181d919061292b565b611828906004612979565b90506000611837826020612966565b6001600160401b0381111561184e5761184e6120e2565b6040519080825280601f01601f191660200182016040528015611878576020820181803683370190505b5090506000604051806060016040528060408152602001612c2b604091399050600181016020830160005b86811015611904576003818a01810151603f601282901c8116860151600c83901c8216870151600684901c831688015192909316870151600891821b60ff94851601821b92841692909201901b91160160e01b8352600490920191016118a3565b50600386066001811461191e576002811461192f5761193b565b613d3d60f01b60011983015261193b565b603d60f81b6000198301525b505050918152949350505050565b60006119558383611e0a565b50600192915050565b60009081527f80bb2b638cc20bc4d0a60d66940f3ab4a00c1d7b313497ca82fb0b4ab007930260205260409020546001600160a01b031690565b6000805160206129c783398151915281806119bb57506001600160a01b03831615155b15611a7d5760006119cb856112ef565b90506001600160a01b038416158015906119f75750836001600160a01b0316816001600160a01b031614155b8015611a0a5750611a088185611092565b155b15611a335760405163a9fbf51f60e01b81526001600160a01b03851660048201526024016105b5565b8215611a7b5784866001600160a01b0316826001600160a01b03167f8c5be1e5ebec7d5bd14f71427d1e84f3dd0314c0f7b2291e5b200ac8c7c3b92560405160405180910390a45b505b600093845260040160205250506040902080546001600160a01b0319166001600160a01b0392909216919091179055565b60006000805160206129c783398151915281611ac98561195e565b90506001600160a01b03841615611ae557611ae5818587611e24565b6001600160a01b03811615611b2557611b02600086600080611998565b6001600160a01b0381166000908152600383016020526040902080546000190190555b6001600160a01b03861615611b56576001600160a01b03861660009081526003830160205260409020805460010190555b600085815260028301602052604080822080546001600160a01b0319166001600160a01b038a811691821790925591518893918516917fddf252ad1be2c89b69c2b068fc378daa952ba7f163c4a11628f55a4df523b3ef91a495945050505050565b6000805160206129a78339815191526000611bd284610b4e565b6000848152600184016020526040902054909150808214611c27576001600160a01b03851660009081526020848152604080832085845282528083205484845281842081905583526001860190915290208190555b50600092835260018201602090815260408085208590556001600160a01b039095168452918252838320908352905290812055565b600080516020612c92833981519152546000805160206129a783398151915290600090611c8b9060019061293f565b6000848152600384016020526040812054600285018054939450909284908110611cb757611cb7612655565b9060005260206000200154905080846002018381548110611cda57611cda612655565b600091825260208083209091019290925582815260038601909152604080822084905586825281205560028401805480611d1657611d16612990565b600190038181906000526020600020016000905590555050505050565b6000805160206129a783398151915260006001611d4f85610b4e565b611d59919061293f565b6001600160a01b0390941660009081526020838152604080832087845282528083208690559482526001909301909252502055565b7ff0c57e16840df040f15088dc2f81fe391c3923bec73e23a9662efc9c229c6a0054600160401b900460ff16611dd757604051631afcd79f60e31b815260040160405180910390fd5b565b611de1611d8e565b6000805160206129c783398151915280611dfb8482612596565b50600181016106198382612596565b61058b828260405180602001604052806000815250611e88565b611e2f838383611e9f565b610730576001600160a01b038316611e5d57604051637e27328960e01b8152600481018290526024016105b5565b60405163177e802f60e01b81526001600160a01b0383166004820152602481018290526044016105b5565b611e928383611f04565b610730600084848461156e565b60006001600160a01b038316158015906114675750826001600160a01b0316846001600160a01b03161480611ed95750611ed98484611092565b806114675750826001600160a01b0316611ef283611327565b6001600160a01b031614949350505050565b6001600160a01b038216611f2e57604051633250574960e11b8152600060048201526024016105b5565b6000611f3c8383600061136e565b90506001600160a01b03811615610730576040516339e3563760e11b8152600060048201526024016105b5565b6001600160e01b031981168114611f7f57600080fd5b50565b600060208284031215611f9457600080fd5b8135611f9f81611f69565b9392505050565b60005b83811015611fc1578181015183820152602001611fa9565b50506000910152565b60008151808452611fe2816020860160208601611fa6565b601f01601f19169290920160200192915050565b602081526000611f9f6020830184611fca565b60006020828403121561201b57600080fd5b5035919050565b80356001600160a01b038116811461203957600080fd5b919050565b6000806040838503121561205157600080fd5b61205a83612022565b946020939093013593505050565b60008060006060848603121561207d57600080fd5b61208684612022565b925061209460208501612022565b9150604084013590509250925092565b803561ffff8116811461203957600080fd5b600080604083850312156120c957600080fd5b823591506120d9602084016120a4565b90509250929050565b634e487b7160e01b600052604160045260246000fd5b60006001600160401b0380841115612112576121126120e2565b604051601f8501601f19908116603f0116810190828211818310171561213a5761213a6120e2565b8160405280935085815286868601111561215357600080fd5b858560208301376000602087830101525050509392505050565b60006020828403121561217f57600080fd5b81356001600160401b0381111561219557600080fd5b8201601f810184136121a657600080fd5b611467848235602084016120f8565b6000602082840312156121c757600080fd5b611f9f82612022565b8035801515811461203957600080fd5b600080604083850312156121f357600080fd5b6121fc83612022565b91506120d9602084016121d0565b6020808252825182820181905260009190848201906040850190845b8181101561224257835183529284019291840191600101612226565b50909695505050505050565b848152831515602082015261ffff831660408201526080606082015260006122796080830184611fca565b9695505050505050565b60008083601f84011261229557600080fd5b5081356001600160401b038111156122ac57600080fd5b6020830191508360208260051b85010111156122c757600080fd5b9250929050565b600080600080600080606087890312156122e757600080fd5b86356001600160401b03808211156122fe57600080fd5b61230a8a838b01612283565b9098509650602089013591508082111561232357600080fd5b61232f8a838b01612283565b9096509450604089013591508082111561234857600080fd5b5061235589828a01612283565b979a9699509497509295939492505050565b6000806040838503121561237a57600080fd5b823591506120d9602084016121d0565b600080600080608085870312156123a057600080fd5b6123a985612022565b93506123b760208601612022565b92506040850135915060608501356001600160401b038111156123d957600080fd5b8501601f810187136123ea57600080fd5b6123f9878235602084016120f8565b91505092959194509250565b60006020828403121561241757600080fd5b611f9f826121d0565b6000806040838503121561243357600080fd5b61243c83612022565b91506120d960208401612022565b6000806000806060858703121561246057600080fd5b61246985612022565b9350612477602086016120a4565b925060408501356001600160401b038082111561249357600080fd5b818701915087601f8301126124a757600080fd5b8135818111156124b657600080fd5b8860208285010111156124c857600080fd5b95989497505060200194505050565b600181811c908216806124eb57607f821691505b60208210810361250b57634e487b7160e01b600052602260045260246000fd5b50919050565b6020808252601b908201527f4d656d626572736869703a204e6f7420616e206f70657261746f720000000000604082015260600190565b601f82111561073057600081815260208120601f850160051c8101602086101561256f5750805b601f850160051c820191505b8181101561258e5782815560010161257b565b505050505050565b81516001600160401b038111156125af576125af6120e2565b6125c3816125bd84546124d7565b84612548565b602080601f8311600181146125f857600084156125e05750858301515b600019600386901b1c1916600185901b17855561258e565b600085815260208120601f198616915b8281101561262757888601518255948401946001909101908401612608565b50858210156126455787850151600019600388901b60f8161c191681555b5050505050600190811b01905550565b634e487b7160e01b600052603260045260246000fd5b634e487b7160e01b600052601160045260246000fd5b6000600182016126935761269361266b565b5060010190565b6000602082840312156126ac57600080fd5b611f9f826120a4565b6000808335601e198436030181126126cc57600080fd5b8301803591506001600160401b038211156126e657600080fd5b6020019150368190038213156122c757600080fd5b6000808454612709816124d7565b60018281168015612721576001811461273657612765565b60ff1984168752821515830287019450612765565b8860005260208060002060005b8581101561275c5781548a820152908401908201612743565b50505082870194505b505050508351612779818360208801611fa6565b01949350505050565b7f7b226e616d65223a20224b616e736f6e67204d6574617665727365204d757365815272756d204d656d62657273686970204e4654202360681b6020820152600085516127d6816033850160208a01611fa6565b72111610113232b9b1b934b83a34b7b7111d101160691b6033918401918201528551612809816046840160208a01611fa6565b6c1116101134b6b0b3b2911d101160991b604692909101918201528451612837816053840160208901611fa6565b6b01116101139b1b7b932911d160a51b60539290910191820152835161286481605f840160208801611fa6565b607d60f81b605f92909101918201526060019695505050505050565b7f646174613a6170706c69636174696f6e2f6a736f6e3b6261736536342c0000008152600082516128b881601d850160208701611fa6565b91909101601d0192915050565b6001600160a01b038581168252841660208201526040810183905260806060820181905260009061227990830184611fca565b60006020828403121561290a57600080fd5b8151611f9f81611f69565b634e487b7160e01b600052601260045260246000fd5b60008261293a5761293a612915565b500490565b818103818111156104c1576104c161266b565b60008261296157612961612915565b500690565b808201808211156104c1576104c161266b565b80820281158282048414176104c1576104c161266b565b634e487b7160e01b600052603160045260246000fdfe645e039705490088daad89bae25049a34f4a9072d398537b1ab2425f24cbed0080bb2b638cc20bc4d0a60d66940f3ab4a00c1d7b313497ca82fb0b4ab00793004b616e736f6e67204d6574617665727365204d757365756d204d656d62657273686970204e46547320656e7469746c6520686f6c646572732077686f206f776e204e46547320697373756564206279204b4d4d20746f207370656369616c2074726561746d656e742e2054686973206d656d62657273686970204e4654206973206d6f7265207468616e206a7573742061206d656d6265727368697020636172643b2069742073796d626f6c697a657320746865207072696465206f66206265696e67206120547265617375726520477561726469616e2c20726570726573656e74696e672061207370656369616c20657870657269656e636520616e6420726573706f6e736962696c6974792e20437265617465642062792074686520736b696c6c656420677261706869632064657369676e657220596f756e676861205061726b2c2074686973204e465420697320726f6f74656420696e207468652064697374696e6374697665206c6f676f206f6620746865204b616e736f6e67204d6574617665727365204d757365756d2c2061206372656174696f6e20616c736f206174747269627574656420746f205061726b2e20576974682061206d6f6465726e207265696e746572707265746174696f6e2c2069742063617074757265732074686520657373656e6365206f662074686520657871756973697465206c616e6473636170657320616e6420636861726163746572732066726f6d2074686520416c62756d206f662047656e7265205061696e74696e677320627920487965776f6e2e4142434445464748494a4b4c4d4e4f505152535455565758595a6162636465666768696a6b6c6d6e6f707172737475767778797a303132333435363738392b2f4b616e736f6e67204d6574617665727365204d757365756d204d656d62657273686970204e4654645e039705490088daad89bae25049a34f4a9072d398537b1ab2425f24cbed0268747470733a2f2f6b6d6d2e6d7970696e6174612e636c6f75642f697066732f516d5535585a595371637577426b4c654d436d3247666d6a797831316f504e45714a456b6e655161334a317777652fa26469706673582212205509223a10502105678e4f132d0f18cfa6e011d4ef66583325486ff1adc4745b64736f6c63430008140033",
  "linkReferences": {},
  "deployedLinkReferences": {}
}