{
  "_format": "hh-sol-artifact-1",
  "contractName": "Membership",
  "sourceName": "contracts/MembershipV2.sol",
  "abi": [
    {
      "inputs": [
        {
          "internalType": "address",
          "name": "sender",
          "type": "address"
        },
        {
          "internalType": "uint256",
          "name": "tokenId",
          "type": "uint256"
        },
        {
          "internalType": "address",
          "name": "owner",
          "type": "address"
        }
      ],
      "name": "ERC721IncorrectOwner",
      "type": "error"
    },
    {
      "inputs": [
        {
          "internalType": "address",
          "name": "operator",
          "type": "address"
        },
        {
          "internalType": "uint256",
          "name": "tokenId",
          "type": "uint256"
        }
      ],
      "name": "ERC721InsufficientApproval",
      "type": "error"
    },
    {
      "inputs": [
        {
          "internalType": "address",
          "name": "approver",
          "type": "address"
        }
      ],
      "name": "ERC721InvalidApprover",
      "type": "error"
    },
    {
      "inputs": [
        {
          "internalType": "address",
          "name": "operator",
          "type": "address"
        }
      ],
      "name": "ERC721InvalidOperator",
      "type": "error"
    },
    {
      "inputs": [
        {
          "internalType": "address",
          "name": "owner",
          "type": "address"
        }
      ],
      "name": "ERC721InvalidOwner",
      "type": "error"
    },
    {
      "inputs": [
        {
          "internalType": "address",
          "name": "receiver",
          "type": "address"
        }
      ],
      "name": "ERC721InvalidReceiver",
      "type": "error"
    },
    {
      "inputs": [
        {
          "internalType": "address",
          "name": "sender",
          "type": "address"
        }
      ],
      "name": "ERC721InvalidSender",
      "type": "error"
    },
    {
      "inputs": [
        {
          "internalType": "uint256",
          "name": "tokenId",
          "type": "uint256"
        }
      ],
      "name": "ERC721NonexistentToken",
      "type": "error"
    },
    {
      "inputs": [],
      "name": "InvalidInitialization",
      "type": "error"
    },
    {
      "inputs": [],
      "name": "NotInitializing",
      "type": "error"
    },
    {
      "anonymous": false,
      "inputs": [
        {
          "indexed": true,
          "internalType": "address",
          "name": "owner",
          "type": "address"
        },
        {
          "indexed": true,
          "internalType": "address",
          "name": "approved",
          "type": "address"
        },
        {
          "indexed": true,
          "internalType": "uint256",
          "name": "tokenId",
          "type": "uint256"
        }
      ],
      "name": "Approval",
      "type": "event"
    },
    {
      "anonymous": false,
      "inputs": [
        {
          "indexed": true,
          "internalType": "address",
          "name": "owner",
          "type": "address"
        },
        {
          "indexed": true,
          "internalType": "address",
          "name": "operator",
          "type": "address"
        },
        {
          "indexed": false,
          "internalType": "bool",
          "name": "approved",
          "type": "bool"
        }
      ],
      "name": "ApprovalForAll",
      "type": "event"
    },
    {
      "anonymous": false,
      "inputs": [
        {
          "indexed": false,
          "internalType": "uint64",
          "name": "version",
          "type": "uint64"
        }
      ],
      "name": "Initialized",
      "type": "event"
    },
    {
      "anonymous": false,
      "inputs": [
        {
          "indexed": false,
          "internalType": "address",
          "name": "operator",
          "type": "address"
        },
        {
          "indexed": false,
          "internalType": "bool",
          "name": "isActive",
          "type": "bool"
        }
      ],
      "name": "SetOperator",
      "type": "event"
    },
    {
      "anonymous": false,
      "inputs": [
        {
          "indexed": true,
          "internalType": "address",
          "name": "from",
          "type": "address"
        },
        {
          "indexed": true,
          "internalType": "address",
          "name": "to",
          "type": "address"
        },
        {
          "indexed": true,
          "internalType": "uint256",
          "name": "tokenId",
          "type": "uint256"
        }
      ],
      "name": "Transfer",
      "type": "event"
    },
    {
      "inputs": [
        {
          "internalType": "address",
          "name": "to",
          "type": "address"
        },
        {
          "internalType": "uint256",
          "name": "tokenId",
          "type": "uint256"
        }
      ],
      "name": "approve",
      "outputs": [],
      "stateMutability": "nonpayable",
      "type": "function"
    },
    {
      "inputs": [
        {
          "internalType": "address",
          "name": "owner",
          "type": "address"
        }
      ],
      "name": "balanceOf",
      "outputs": [
        {
          "internalType": "uint256",
          "name": "",
          "type": "uint256"
        }
      ],
      "stateMutability": "view",
      "type": "function"
    },
    {
      "inputs": [
        {
          "internalType": "address[]",
          "name": "toAddrs",
          "type": "address[]"
        },
        {
          "internalType": "uint16[]",
          "name": "scores",
          "type": "uint16[]"
        },
        {
          "internalType": "string[]",
          "name": "imgNames",
          "type": "string[]"
        }
      ],
      "name": "batchMint",
      "outputs": [],
      "stateMutability": "nonpayable",
      "type": "function"
    },
    {
      "inputs": [
        {
          "internalType": "uint256",
          "name": "tokenId",
          "type": "uint256"
        }
      ],
      "name": "burn",
      "outputs": [],
      "stateMutability": "nonpayable",
      "type": "function"
    },
    {
      "inputs": [
        {
          "internalType": "uint256",
          "name": "tokenId",
          "type": "uint256"
        }
      ],
      "name": "getApproved",
      "outputs": [
        {
          "internalType": "address",
          "name": "",
          "type": "address"
        }
      ],
      "stateMutability": "view",
      "type": "function"
    },
    {
      "inputs": [],
      "name": "getBaseImgUrl",
      "outputs": [
        {
          "internalType": "string",
          "name": "",
          "type": "string"
        }
      ],
      "stateMutability": "view",
      "type": "function"
    },
    {
      "inputs": [],
      "name": "getOwner",
      "outputs": [
        {
          "internalType": "address",
          "name": "",
          "type": "address"
        }
      ],
      "stateMutability": "view",
      "type": "function"
    },
    {
      "inputs": [],
      "name": "initialize",
      "outputs": [],
      "stateMutability": "nonpayable",
      "type": "function"
    },
    {
      "inputs": [],
      "name": "isAggregationActive",
      "outputs": [
        {
          "internalType": "bool",
          "name": "",
          "type": "bool"
        }
      ],
      "stateMutability": "view",
      "type": "function"
    },
    {
      "inputs": [
        {
          "internalType": "address",
          "name": "owner",
          "type": "address"
        },
        {
          "internalType": "address",
          "name": "operator",
          "type": "address"
        }
      ],
      "name": "isApprovedForAll",
      "outputs": [
        {
          "internalType": "bool",
          "name": "",
          "type": "bool"
        }
      ],
      "stateMutability": "view",
      "type": "function"
    },
    {
      "inputs": [
        {
          "internalType": "address",
          "name": "operatorAddr",
          "type": "address"
        }
      ],
      "name": "isOperatorActive",
      "outputs": [
        {
          "internalType": "bool",
          "name": "",
          "type": "bool"
        }
      ],
      "stateMutability": "view",
      "type": "function"
    },
    {
      "inputs": [],
      "name": "maxSupply",
      "outputs": [
        {
          "internalType": "uint256",
          "name": "",
          "type": "uint256"
        }
      ],
      "stateMutability": "view",
      "type": "function"
    },
    {
      "inputs": [
        {
          "internalType": "uint256",
          "name": "",
          "type": "uint256"
        }
      ],
      "name": "members",
      "outputs": [
        {
          "internalType": "uint256",
          "name": "tokenId",
          "type": "uint256"
        },
        {
          "internalType": "bool",
          "name": "isExpired",
          "type": "bool"
        },
        {
          "internalType": "uint16",
          "name": "score",
          "type": "uint16"
        },
        {
          "internalType": "string",
          "name": "imgName",
          "type": "string"
        }
      ],
      "stateMutability": "view",
      "type": "function"
    },
    {
      "inputs": [
        {
          "internalType": "address",
          "name": "toAddr",
          "type": "address"
        },
        {
          "internalType": "uint16",
          "name": "score",
          "type": "uint16"
        },
        {
          "internalType": "string",
          "name": "imgName",
          "type": "string"
        }
      ],
      "name": "mint",
      "outputs": [],
      "stateMutability": "nonpayable",
      "type": "function"
    },
    {
      "inputs": [],
      "name": "name",
      "outputs": [
        {
          "internalType": "string",
          "name": "",
          "type": "string"
        }
      ],
      "stateMutability": "view",
      "type": "function"
    },
    {
      "inputs": [
        {
          "internalType": "uint256",
          "name": "tokenId",
          "type": "uint256"
        }
      ],
      "name": "ownerOf",
      "outputs": [
        {
          "internalType": "address",
          "name": "",
          "type": "address"
        }
      ],
      "stateMutability": "view",
      "type": "function"
    },
    {
      "inputs": [
        {
          "internalType": "address",
          "name": "from",
          "type": "address"
        },
        {
          "internalType": "address",
          "name": "to",
          "type": "address"
        },
        {
          "internalType": "uint256",
          "name": "tokenId",
          "type": "uint256"
        }
      ],
      "name": "safeTransferFrom",
      "outputs": [],
      "stateMutability": "nonpayable",
      "type": "function"
    },
    {
      "inputs": [
        {
          "internalType": "address",
          "name": "from",
          "type": "address"
        },
        {
          "internalType": "address",
          "name": "to",
          "type": "address"
        },
        {
          "internalType": "uint256",
          "name": "tokenId",
          "type": "uint256"
        },
        {
          "internalType": "bytes",
          "name": "data",
          "type": "bytes"
        }
      ],
      "name": "safeTransferFrom",
      "outputs": [],
      "stateMutability": "nonpayable",
      "type": "function"
    },
    {
      "inputs": [
        {
          "internalType": "bool",
          "name": "isActive",
          "type": "bool"
        }
      ],
      "name": "setAggregation",
      "outputs": [],
      "stateMutability": "nonpayable",
      "type": "function"
    },
    {
      "inputs": [
        {
          "internalType": "address",
          "name": "operator",
          "type": "address"
        },
        {
          "internalType": "bool",
          "name": "approved",
          "type": "bool"
        }
      ],
      "name": "setApprovalForAll",
      "outputs": [],
      "stateMutability": "nonpayable",
      "type": "function"
    },
    {
      "inputs": [
        {
          "internalType": "address",
          "name": "newOperator",
          "type": "address"
        },
        {
          "internalType": "bool",
          "name": "isActive",
          "type": "bool"
        }
      ],
      "name": "setOperator",
      "outputs": [],
      "stateMutability": "nonpayable",
      "type": "function"
    },
    {
      "inputs": [
        {
          "internalType": "bytes4",
          "name": "interfaceId",
          "type": "bytes4"
        }
      ],
      "name": "supportsInterface",
      "outputs": [
        {
          "internalType": "bool",
          "name": "",
          "type": "bool"
        }
      ],
      "stateMutability": "view",
      "type": "function"
    },
    {
      "inputs": [],
      "name": "symbol",
      "outputs": [
        {
          "internalType": "string",
          "name": "",
          "type": "string"
        }
      ],
      "stateMutability": "view",
      "type": "function"
    },
    {
      "inputs": [
        {
          "internalType": "uint256",
          "name": "tokenId",
          "type": "uint256"
        }
      ],
      "name": "tokenURI",
      "outputs": [
        {
          "internalType": "string",
          "name": "",
          "type": "string"
        }
      ],
      "stateMutability": "view",
      "type": "function"
    },
    {
      "inputs": [
        {
          "internalType": "address",
          "name": "from",
          "type": "address"
        },
        {
          "internalType": "address",
          "name": "to",
          "type": "address"
        },
        {
          "internalType": "uint256",
          "name": "tokenId",
          "type": "uint256"
        }
      ],
      "name": "transferFrom",
      "outputs": [],
      "stateMutability": "nonpayable",
      "type": "function"
    },
    {
      "inputs": [
        {
          "internalType": "address",
          "name": "newOwner",
          "type": "address"
        }
      ],
      "name": "transferOwner",
      "outputs": [],
      "stateMutability": "nonpayable",
      "type": "function"
    },
    {
      "inputs": [
        {
          "internalType": "string",
          "name": "newUrl",
          "type": "string"
        }
      ],
      "name": "updateBaseImgUrl",
      "outputs": [],
      "stateMutability": "nonpayable",
      "type": "function"
    },
    {
      "inputs": [
        {
          "internalType": "uint256",
          "name": "tokenId",
          "type": "uint256"
        },
        {
          "internalType": "bool",
          "name": "isExpired",
          "type": "bool"
        }
      ],
      "name": "updateIsExpired",
      "outputs": [],
      "stateMutability": "nonpayable",
      "type": "function"
    },
    {
      "inputs": [
        {
          "internalType": "uint256",
          "name": "tokenId",
          "type": "uint256"
        },
        {
          "internalType": "uint16",
          "name": "score",
          "type": "uint16"
        }
      ],
      "name": "updateScore",
      "outputs": [],
      "stateMutability": "nonpayable",
      "type": "function"
    }
  ],
  "bytecode": "0x608060405234801561001057600080fd5b50612871806100206000396000f3fe608060405234801561001057600080fd5b50600436106101cf5760003560e01c806370912cc911610104578063bf4c51af116100a2578063e49fe3eb11610071578063e49fe3eb146103dd578063e985e9c5146103e5578063eb473533146103f8578063ecb2906c1461042457600080fd5b8063bf4c51af1461039a578063c87b56dd146103ae578063d5abeb01146103c1578063de5ac3da146103ca57600080fd5b8063893d20e8116100de578063893d20e81461035b57806395d89b411461036c578063a22cb46514610374578063b88d4fde1461038757600080fd5b806370912cc91461031f57806370a08231146103325780638129fc1c1461035357600080fd5b806342842e0e11610171578063558a72971161014b578063558a7297146102c35780635daf08ca146102d6578063613a5623146102f95780636352211e1461030c57600080fd5b806342842e0e1461028a57806342966c681461029d5780634fb2e45d146102b057600080fd5b8063095ea7b3116101ad578063095ea7b31461023c57806323b872dd146102515780633badcc96146102645780633c45d7061461027757600080fd5b806301ffc9a7146101d457806306fdde03146101fc578063081812fc14610211575b600080fd5b6101e76101e2366004611b4f565b610437565b60405190151581526020015b60405180910390f35b610204610489565b6040516101f39190611bc3565b61022461021f366004611bd6565b61052d565b6040516001600160a01b0390911681526020016101f3565b61024f61024a366004611c0b565b610542565b005b61024f61025f366004611c35565b610551565b61024f610272366004611c83565b6105e1565b61024f610285366004611d3b565b610633565b61024f610298366004611c35565b610663565b61024f6102ab366004611bd6565b610683565b61024f6102be366004611d84565b610700565b61024f6102d1366004611daf565b610778565b6102e96102e4366004611bd6565b610831565b6040516101f39493929190611dd9565b61024f610307366004611e5a565b6108ed565b61022461031a366004611bd6565b6109ac565b61024f61032d366004611ef4565b6109b7565b610345610340366004611d84565b6109fe565b6040519081526020016101f3565b61024f610a5a565b6002546001600160a01b0316610224565b610204610c04565b61024f610382366004611daf565b610c43565b61024f610395366004611f17565b610c4e565b6002546101e790600160a01b900460ff1681565b6102046103bc366004611bd6565b610c65565b61034560005481565b61024f6103d8366004611f93565b610e4c565b610204610e8e565b6101e76103f3366004611fae565b610f44565b6101e7610406366004611d84565b6001600160a01b031660009081526004602052604090205460ff1690565b61024f610432366004611fd8565b610f91565b60006001600160e01b031982166380ac58cd60e01b148061046857506001600160e01b03198216635b5e139f60e01b145b8061048357506301ffc9a760e01b6001600160e01b03198316145b92915050565b60008051602061252283398151915280546060919081906104a990612066565b80601f01602080910402602001604051908101604052809291908181526020018280546104d590612066565b80156105225780601f106104f757610100808354040283529160200191610522565b820191906000526020600020905b81548152906001019060200180831161050557829003601f168201915b505050505091505090565b600061053882611151565b5061048382611189565b61054d8282336111c3565b5050565b6001600160a01b03821661058057604051633250574960e11b8152600060048201526024015b60405180910390fd5b600061058d8383336111d0565b9050836001600160a01b0316816001600160a01b0316146105db576040516364283d7b60e01b81526001600160a01b0380861660048301526024820184905282166044820152606401610577565b50505050565b6105e96112da565b6106055760405162461bcd60e51b8152600401610577906120a0565b600091825260056020526040909120600101805461ffff9092166101000262ffff0019909216919091179055565b61063b6112da565b6106575760405162461bcd60e51b8152600401610577906120a0565b600361054d8282612125565b61067e83838360405180602001604052806000815250610c4e565b505050565b3361068d826109ac565b6001600160a01b0316146106f45760405162461bcd60e51b815260206004820152602860248201527f4f6e6c7920746865206f776e6572206f662074686520746f6b656e2063616e20604482015267313ab9371034ba1760c11b6064820152608401610577565b6106fd81611316565b50565b6002546001600160a01b031633146107565760405162461bcd60e51b815260206004820152601960248201527826b2b6b132b939b434b81d102737ba103a34329037bbb732b960391b6044820152606401610577565b600280546001600160a01b0319166001600160a01b0392909216919091179055565b6002546001600160a01b031633146107ce5760405162461bcd60e51b815260206004820152601960248201527826b2b6b132b939b434b81d102737ba103a34329037bbb732b960391b6044820152606401610577565b6001600160a01b038216600081815260046020908152604091829020805460ff19168515159081179091558251938452908301527f1618a22a3b00b9ac70fd5a82f1f5cdd8cb272bd0f1b740ddf7c26ab05881dd5b910160405180910390a15050565b600560205260009081526040902080546001820154600283018054929360ff83169361010090930461ffff169290919061086a90612066565b80601f016020809104026020016040519081016040528092919081815260200182805461089690612066565b80156108e35780601f106108b8576101008083540402835291602001916108e3565b820191906000526020600020905b8154815290600101906020018083116108c657829003601f168201915b5050505050905084565b6108f56112da565b6109115760405162461bcd60e51b8152600401610577906120a0565b60005b858110156109a357610991878783818110610931576109316121e5565b90506020020160208101906109469190611d84565b868684818110610958576109586121e5565b905060200201602081019061096d91906121fb565b85858581811061097f5761097f6121e5565b90506020028101906104329190612216565b8061099b81612273565b915050610914565b50505050505050565b600061048382611151565b6109bf6112da565b6109db5760405162461bcd60e51b8152600401610577906120a0565b600091825260056020526040909120600101805460ff1916911515919091179055565b60006000805160206125228339815191526001600160a01b038316610a39576040516322718ad960e21b815260006004820152602401610577565b6001600160a01b039092166000908152600390920160205250604090205490565b7ff0c57e16840df040f15088dc2f81fe391c3923bec73e23a9662efc9c229c6a008054600160401b810460ff16159067ffffffffffffffff16600081158015610aa05750825b905060008267ffffffffffffffff166001148015610abd5750303b155b905081158015610acb575080155b15610ae95760405163f92ee8a960e01b815260040160405180910390fd5b845467ffffffffffffffff191660011785558315610b1357845460ff60401b1916600160401b1785555b610b5b6040518060600160405280602781526020016127c6602791396040518060400160405280600e81526020016d04b4d4d2d4d656d626572736869760941b815250611351565b600280546001600160a01b03191633908117909155600090815260046020908152604091829020805460ff19166001179055815160808101909252604f808352906127ed90830139600390610bb09082612125565b506127106000558315610bfd57845460ff60401b19168555604051600181527fc7f505b2f371ae2175ee4913f4499e1f2633a7b5936321eed1cdaeb6115181d29060200160405180910390a15b5050505050565b7f80bb2b638cc20bc4d0a60d66940f3ab4a00c1d7b313497ca82fb0b4ab00793018054606091600080516020612522833981519152916104a990612066565b61054d338383611363565b610c59848484610551565b6105db84848484611414565b6060610c7082611536565b610cc75760405162461bcd60e51b815260206004820152602260248201527f4d656d626572736869703a20546f6b656e4964206e6f74206d696e7465642079604482015261195d60f21b6064820152608401610577565b6000828152600560209081526040808320815160808101835281548152600182015460ff811615159482019490945261010090930461ffff1691830191909152600281018054606084019190610d1c90612066565b80601f0160208091040260200160405190810160405280929190818152602001828054610d4890612066565b8015610d955780601f10610d6a57610100808354040283529160200191610d95565b820191906000526020600020905b815481529060010190602001808311610d7857829003601f168201915b5050505050815250509050600060038260600151604051602001610dba92919061228c565b60405160208183030381529060405290506000610dd5611560565b90506000610e1f610de587611586565b8385610df8886040015161ffff16611586565b604051602001610e0b9493929190612313565b60405160208183030381529060405261168f565b905080604051602001610e329190612411565b604051602081830303815290604052945050505050919050565b610e546112da565b610e705760405162461bcd60e51b8152600401610577906120a0565b60028054911515600160a01b0260ff60a01b19909216919091179055565b6060610e986112da565b610eb45760405162461bcd60e51b8152600401610577906120a0565b60038054610ec190612066565b80601f0160208091040260200160405190810160405280929190818152602001828054610eed90612066565b8015610f3a5780601f10610f0f57610100808354040283529160200191610f3a565b820191906000526020600020905b815481529060010190602001808311610f1d57829003601f168201915b5050505050905090565b6001600160a01b0391821660009081527f80bb2b638cc20bc4d0a60d66940f3ab4a00c1d7b313497ca82fb0b4ab00793056020908152604080832093909416825291909152205460ff1690565b610f996112da565b610fb55760405162461bcd60e51b8152600401610577906120a0565b600054600154106110195760405162461bcd60e51b815260206004820152602860248201527f4d656d626572736869703a206d696e74696e6720636f756e74206f766572206d6044820152676178537570706c7960c01b6064820152608401610577565b6001805490600061102983612273565b91905055506000604051806080016040528060015481526020016000151581526020018561ffff16815260200184848080601f016020809104026020016040519081016040528093929190818152602001838380828437600092018290525093909452505060018054825260056020908152604092839020855181559085015191810180549386015161ffff166101000262ffff00199315159390931662ffffff1990941693909317919091179091556060830151929350839290915060028201906110f59082612125565b50905050611105856001546117f9565b610bfd5760405162461bcd60e51b815260206004820152601e60248201527f4d656d626572736869702d4e46543a206d696e74696e67206661696c656400006044820152606401610577565b60008061115d8361180e565b90506001600160a01b03811661048357604051637e27328960e01b815260048101849052602401610577565b60009081527f80bb2b638cc20bc4d0a60d66940f3ab4a00c1d7b313497ca82fb0b4ab007930460205260409020546001600160a01b031690565b61067e8383836001611848565b6000600080516020612522833981519152816111eb8561180e565b90506001600160a01b038416156112075761120781858761195e565b6001600160a01b0381161561124757611224600086600080611848565b6001600160a01b0381166000908152600383016020526040902080546000190190555b6001600160a01b03861615611278576001600160a01b03861660009081526003830160205260409020805460010190555b600085815260028301602052604080822080546001600160a01b0319166001600160a01b038a811691821790925591518893918516917fddf252ad1be2c89b69c2b068fc378daa952ba7f163c4a11628f55a4df523b3ef91a495945050505050565b6002546000906001600160a01b031633148061130557503360009081526004602052604090205460ff165b156113105750600190565b50600090565b600061132560008360006111d0565b90506001600160a01b03811661054d57604051637e27328960e01b815260048101839052602401610577565b6113596119c2565b61054d8282611a0d565b6000805160206125228339815191526001600160a01b0383166113a457604051630b61174360e31b81526001600160a01b0384166004820152602401610577565b6001600160a01b038481166000818152600584016020908152604080832094881680845294825291829020805460ff191687151590811790915591519182527f17307eab39ab6107e8899845ad3d59bd9653f200f220920489ca2b5937696c31910160405180910390a350505050565b6001600160a01b0383163b156105db57604051630a85bd0160e11b81526001600160a01b0384169063150b7a0290611456903390889087908790600401612456565b6020604051808303816000875af1925050508015611491575060408051601f3d908101601f1916820190925261148e91810190612489565b60015b6114fa573d8080156114bf576040519150601f19603f3d011682016040523d82523d6000602084013e6114c4565b606091505b5080516000036114f257604051633250574960e11b81526001600160a01b0385166004820152602401610577565b805181602001fd5b6001600160e01b03198116630a85bd0160e11b14610bfd57604051633250574960e11b81526001600160a01b0385166004820152602401610577565b6000806115428361180e565b6001600160a01b03160361155857506000919050565b506001919050565b606060006040518061028001604052806102448152602001612542610244913992915050565b6060816000036115ad5750506040805180820190915260018152600360fc1b602082015290565b8160005b81156115d757806115c181612273565b91506115d09050600a836124bc565b91506115b1565b60008167ffffffffffffffff8111156115f2576115f2611caf565b6040519080825280601f01601f19166020018201604052801561161c576020820181803683370190505b5090505b8415611687576116316001836124d0565b915061163e600a866124e3565b6116499060306124f7565b60f81b81838151811061165e5761165e6121e5565b60200101906001600160f81b031916908160001a905350611680600a866124bc565b9450611620565b949350505050565b805160609060008190036116b3575050604080516020810190915260008152919050565b600060036116c28360026124f7565b6116cc91906124bc565b6116d790600461250a565b905060006116e68260206124f7565b67ffffffffffffffff8111156116fe576116fe611caf565b6040519080825280601f01601f191660200182016040528015611728576020820181803683370190505b5090506000604051806060016040528060408152602001612786604091399050600181016020830160005b868110156117b4576003818a01810151603f601282901c8116860151600c83901c8216870151600684901c831688015192909316870151600891821b60ff94851601821b92841692909201901b91160160e01b835260049092019101611753565b5060038606600181146117ce57600281146117df576117eb565b613d3d60f01b6001198301526117eb565b603d60f81b6000198301525b505050918152949350505050565b60006118058383611a3e565b50600192915050565b60009081527f80bb2b638cc20bc4d0a60d66940f3ab4a00c1d7b313497ca82fb0b4ab007930260205260409020546001600160a01b031690565b600080516020612522833981519152818061186b57506001600160a01b03831615155b1561192d57600061187b85611151565b90506001600160a01b038416158015906118a75750836001600160a01b0316816001600160a01b031614155b80156118ba57506118b88185610f44565b155b156118e35760405163a9fbf51f60e01b81526001600160a01b0385166004820152602401610577565b821561192b5784866001600160a01b0316826001600160a01b03167f8c5be1e5ebec7d5bd14f71427d1e84f3dd0314c0f7b2291e5b200ac8c7c3b92560405160405180910390a45b505b600093845260040160205250506040902080546001600160a01b0319166001600160a01b0392909216919091179055565b611969838383611a58565b61067e576001600160a01b03831661199757604051637e27328960e01b815260048101829052602401610577565b60405163177e802f60e01b81526001600160a01b038316600482015260248101829052604401610577565b7ff0c57e16840df040f15088dc2f81fe391c3923bec73e23a9662efc9c229c6a0054600160401b900460ff16611a0b57604051631afcd79f60e31b815260040160405180910390fd5b565b611a156119c2565b60008051602061252283398151915280611a2f8482612125565b50600181016105db8382612125565b61054d828260405180602001604052806000815250611abd565b60006001600160a01b038316158015906116875750826001600160a01b0316846001600160a01b03161480611a925750611a928484610f44565b806116875750826001600160a01b0316611aab83611189565b6001600160a01b031614949350505050565b611ac78383611ad4565b61067e6000848484611414565b6001600160a01b038216611afe57604051633250574960e11b815260006004820152602401610577565b6000611b0c838360006111d0565b90506001600160a01b0381161561067e576040516339e3563760e11b815260006004820152602401610577565b6001600160e01b0319811681146106fd57600080fd5b600060208284031215611b6157600080fd5b8135611b6c81611b39565b9392505050565b60005b83811015611b8e578181015183820152602001611b76565b50506000910152565b60008151808452611baf816020860160208601611b73565b601f01601f19169290920160200192915050565b602081526000611b6c6020830184611b97565b600060208284031215611be857600080fd5b5035919050565b80356001600160a01b0381168114611c0657600080fd5b919050565b60008060408385031215611c1e57600080fd5b611c2783611bef565b946020939093013593505050565b600080600060608486031215611c4a57600080fd5b611c5384611bef565b9250611c6160208501611bef565b9150604084013590509250925092565b803561ffff81168114611c0657600080fd5b60008060408385031215611c9657600080fd5b82359150611ca660208401611c71565b90509250929050565b634e487b7160e01b600052604160045260246000fd5b600067ffffffffffffffff80841115611ce057611ce0611caf565b604051601f8501601f19908116603f01168101908282118183101715611d0857611d08611caf565b81604052809350858152868686011115611d2157600080fd5b858560208301376000602087830101525050509392505050565b600060208284031215611d4d57600080fd5b813567ffffffffffffffff811115611d6457600080fd5b8201601f81018413611d7557600080fd5b61168784823560208401611cc5565b600060208284031215611d9657600080fd5b611b6c82611bef565b80358015158114611c0657600080fd5b60008060408385031215611dc257600080fd5b611dcb83611bef565b9150611ca660208401611d9f565b848152831515602082015261ffff83166040820152608060608201526000611e046080830184611b97565b9695505050505050565b60008083601f840112611e2057600080fd5b50813567ffffffffffffffff811115611e3857600080fd5b6020830191508360208260051b8501011115611e5357600080fd5b9250929050565b60008060008060008060608789031215611e7357600080fd5b863567ffffffffffffffff80821115611e8b57600080fd5b611e978a838b01611e0e565b90985096506020890135915080821115611eb057600080fd5b611ebc8a838b01611e0e565b90965094506040890135915080821115611ed557600080fd5b50611ee289828a01611e0e565b979a9699509497509295939492505050565b60008060408385031215611f0757600080fd5b82359150611ca660208401611d9f565b60008060008060808587031215611f2d57600080fd5b611f3685611bef565b9350611f4460208601611bef565b925060408501359150606085013567ffffffffffffffff811115611f6757600080fd5b8501601f81018713611f7857600080fd5b611f8787823560208401611cc5565b91505092959194509250565b600060208284031215611fa557600080fd5b611b6c82611d9f565b60008060408385031215611fc157600080fd5b611fca83611bef565b9150611ca660208401611bef565b60008060008060608587031215611fee57600080fd5b611ff785611bef565b935061200560208601611c71565b9250604085013567ffffffffffffffff8082111561202257600080fd5b818701915087601f83011261203657600080fd5b81358181111561204557600080fd5b88602082850101111561205757600080fd5b95989497505060200194505050565b600181811c9082168061207a57607f821691505b60208210810361209a57634e487b7160e01b600052602260045260246000fd5b50919050565b6020808252601b908201527f4d656d626572736869703a204e6f7420616e206f70657261746f720000000000604082015260600190565b601f82111561067e57600081815260208120601f850160051c810160208610156120fe5750805b601f850160051c820191505b8181101561211d5782815560010161210a565b505050505050565b815167ffffffffffffffff81111561213f5761213f611caf565b6121538161214d8454612066565b846120d7565b602080601f83116001811461218857600084156121705750858301515b600019600386901b1c1916600185901b17855561211d565b600085815260208120601f198616915b828110156121b757888601518255948401946001909101908401612198565b50858210156121d55787850151600019600388901b60f8161c191681555b5050505050600190811b01905550565b634e487b7160e01b600052603260045260246000fd5b60006020828403121561220d57600080fd5b611b6c82611c71565b6000808335601e1984360301811261222d57600080fd5b83018035915067ffffffffffffffff82111561224857600080fd5b602001915036819003821315611e5357600080fd5b634e487b7160e01b600052601160045260246000fd5b6000600182016122855761228561225d565b5060010190565b600080845461229a81612066565b600182811680156122b257600181146122c7576122f6565b60ff19841687528215158302870194506122f6565b8860005260208060002060005b858110156122ed5781548a8201529084019082016122d4565b50505082870194505b50505050835161230a818360208801611b73565b01949350505050565b7f7b226e616d65223a20224b616e736f6e67204d6574617665727365204d757365815272756d204d656d62657273686970204e4654202360681b602082015260008551612367816033850160208a01611b73565b72111610113232b9b1b934b83a34b7b7111d101160691b603391840191820152855161239a816046840160208a01611b73565b6c1116101134b6b0b3b2911d101160991b6046929091019182015284516123c8816053840160208901611b73565b6b01116101139b1b7b932911d160a51b6053929091019182015283516123f581605f840160208801611b73565b607d60f81b605f92909101918201526060019695505050505050565b7f646174613a6170706c69636174696f6e2f6a736f6e3b6261736536342c00000081526000825161244981601d850160208701611b73565b91909101601d0192915050565b6001600160a01b0385811682528416602082015260408101839052608060608201819052600090611e0490830184611b97565b60006020828403121561249b57600080fd5b8151611b6c81611b39565b634e487b7160e01b600052601260045260246000fd5b6000826124cb576124cb6124a6565b500490565b818103818111156104835761048361225d565b6000826124f2576124f26124a6565b500690565b808201808211156104835761048361225d565b80820281158282048414176104835761048361225d56fe80bb2b638cc20bc4d0a60d66940f3ab4a00c1d7b313497ca82fb0b4ab00793004b616e736f6e67204d6574617665727365204d757365756d204d656d62657273686970204e46547320656e7469746c6520686f6c646572732077686f206f776e204e46547320697373756564206279204b4d4d20746f207370656369616c2074726561746d656e742e2054686973206d656d62657273686970204e4654206973206d6f7265207468616e206a7573742061206d656d6265727368697020636172643b2069742073796d626f6c697a657320746865207072696465206f66206265696e67206120547265617375726520477561726469616e2c20726570726573656e74696e672061207370656369616c20657870657269656e636520616e6420726573706f6e736962696c6974792e20437265617465642062792074686520736b696c6c656420677261706869632064657369676e657220596f756e676861205061726b2c2074686973204e465420697320726f6f74656420696e207468652064697374696e6374697665206c6f676f206f6620746865204b616e736f6e67204d6574617665727365204d757365756d2c2061206372656174696f6e20616c736f206174747269627574656420746f205061726b2e20576974682061206d6f6465726e207265696e746572707265746174696f6e2c2069742063617074757265732074686520657373656e6365206f662074686520657871756973697465206c616e6473636170657320616e6420636861726163746572732066726f6d2074686520416c62756d206f662047656e7265205061696e74696e677320627920487965776f6e2e4142434445464748494a4b4c4d4e4f505152535455565758595a6162636465666768696a6b6c6d6e6f707172737475767778797a303132333435363738392b2f4b616e736f6e67204d6574617665727365204d757365756d204d656d62657273686970204e465468747470733a2f2f6b6d6d2e6d7970696e6174612e636c6f75642f697066732f516d5535585a595371637577426b4c654d436d3247666d6a797831316f504e45714a456b6e655161334a317777652fa2646970667358221220a65e7003cabc5d6ce2ba501821559ae3bd45b6b2b85b0d8b269df42d932b60e064736f6c63430008140033",
  "linkReferences": {},
  "deployedLinkReferences": {}
}