{
  "_format": "hh-sol-artifact-1",
  "contractName": "Membership",
  "sourceName": "contracts/MembershipV2.sol",
  "abi": [
    {
      "inputs": [
        {
          "internalType": "address",
          "name": "sender",
          "type": "address"
        },
        {
          "internalType": "uint256",
          "name": "tokenId",
          "type": "uint256"
        },
        {
          "internalType": "address",
          "name": "owner",
          "type": "address"
        }
      ],
      "name": "ERC721IncorrectOwner",
      "type": "error"
    },
    {
      "inputs": [
        {
          "internalType": "address",
          "name": "operator",
          "type": "address"
        },
        {
          "internalType": "uint256",
          "name": "tokenId",
          "type": "uint256"
        }
      ],
      "name": "ERC721InsufficientApproval",
      "type": "error"
    },
    {
      "inputs": [
        {
          "internalType": "address",
          "name": "approver",
          "type": "address"
        }
      ],
      "name": "ERC721InvalidApprover",
      "type": "error"
    },
    {
      "inputs": [
        {
          "internalType": "address",
          "name": "operator",
          "type": "address"
        }
      ],
      "name": "ERC721InvalidOperator",
      "type": "error"
    },
    {
      "inputs": [
        {
          "internalType": "address",
          "name": "owner",
          "type": "address"
        }
      ],
      "name": "ERC721InvalidOwner",
      "type": "error"
    },
    {
      "inputs": [
        {
          "internalType": "address",
          "name": "receiver",
          "type": "address"
        }
      ],
      "name": "ERC721InvalidReceiver",
      "type": "error"
    },
    {
      "inputs": [
        {
          "internalType": "address",
          "name": "sender",
          "type": "address"
        }
      ],
      "name": "ERC721InvalidSender",
      "type": "error"
    },
    {
      "inputs": [
        {
          "internalType": "uint256",
          "name": "tokenId",
          "type": "uint256"
        }
      ],
      "name": "ERC721NonexistentToken",
      "type": "error"
    },
    {
      "inputs": [],
      "name": "InvalidInitialization",
      "type": "error"
    },
    {
      "inputs": [],
      "name": "NotInitializing",
      "type": "error"
    },
    {
      "anonymous": false,
      "inputs": [
        {
          "indexed": true,
          "internalType": "address",
          "name": "owner",
          "type": "address"
        },
        {
          "indexed": true,
          "internalType": "address",
          "name": "approved",
          "type": "address"
        },
        {
          "indexed": true,
          "internalType": "uint256",
          "name": "tokenId",
          "type": "uint256"
        }
      ],
      "name": "Approval",
      "type": "event"
    },
    {
      "anonymous": false,
      "inputs": [
        {
          "indexed": true,
          "internalType": "address",
          "name": "owner",
          "type": "address"
        },
        {
          "indexed": true,
          "internalType": "address",
          "name": "operator",
          "type": "address"
        },
        {
          "indexed": false,
          "internalType": "bool",
          "name": "approved",
          "type": "bool"
        }
      ],
      "name": "ApprovalForAll",
      "type": "event"
    },
    {
      "anonymous": false,
      "inputs": [
        {
          "indexed": false,
          "internalType": "uint64",
          "name": "version",
          "type": "uint64"
        }
      ],
      "name": "Initialized",
      "type": "event"
    },
    {
      "anonymous": false,
      "inputs": [
        {
          "indexed": false,
          "internalType": "address",
          "name": "operator",
          "type": "address"
        },
        {
          "indexed": false,
          "internalType": "bool",
          "name": "isActive",
          "type": "bool"
        }
      ],
      "name": "SetOperator",
      "type": "event"
    },
    {
      "anonymous": false,
      "inputs": [
        {
          "indexed": true,
          "internalType": "address",
          "name": "from",
          "type": "address"
        },
        {
          "indexed": true,
          "internalType": "address",
          "name": "to",
          "type": "address"
        },
        {
          "indexed": true,
          "internalType": "uint256",
          "name": "tokenId",
          "type": "uint256"
        }
      ],
      "name": "Transfer",
      "type": "event"
    },
    {
      "inputs": [
        {
          "internalType": "address",
          "name": "to",
          "type": "address"
        },
        {
          "internalType": "uint256",
          "name": "tokenId",
          "type": "uint256"
        }
      ],
      "name": "approve",
      "outputs": [],
      "stateMutability": "nonpayable",
      "type": "function"
    },
    {
      "inputs": [
        {
          "internalType": "address",
          "name": "owner",
          "type": "address"
        }
      ],
      "name": "balanceOf",
      "outputs": [
        {
          "internalType": "uint256",
          "name": "",
          "type": "uint256"
        }
      ],
      "stateMutability": "view",
      "type": "function"
    },
    {
      "inputs": [
        {
          "internalType": "address[]",
          "name": "toAddrs",
          "type": "address[]"
        },
        {
          "internalType": "uint16[]",
          "name": "scores",
          "type": "uint16[]"
        },
        {
          "internalType": "string[]",
          "name": "imgNames",
          "type": "string[]"
        }
      ],
      "name": "batchMint",
      "outputs": [],
      "stateMutability": "nonpayable",
      "type": "function"
    },
    {
      "inputs": [
        {
          "internalType": "uint256",
          "name": "tokenId",
          "type": "uint256"
        }
      ],
      "name": "burn",
      "outputs": [],
      "stateMutability": "nonpayable",
      "type": "function"
    },
    {
      "inputs": [
        {
          "internalType": "uint256",
          "name": "tokenId",
          "type": "uint256"
        }
      ],
      "name": "getApproved",
      "outputs": [
        {
          "internalType": "address",
          "name": "",
          "type": "address"
        }
      ],
      "stateMutability": "view",
      "type": "function"
    },
    {
      "inputs": [
        {
          "internalType": "uint256",
          "name": "tokenId",
          "type": "uint256"
        }
      ],
      "name": "getAttributes",
      "outputs": [
        {
          "internalType": "string",
          "name": "",
          "type": "string"
        }
      ],
      "stateMutability": "view",
      "type": "function"
    },
    {
      "inputs": [],
      "name": "getBaseImgUrl",
      "outputs": [
        {
          "internalType": "string",
          "name": "",
          "type": "string"
        }
      ],
      "stateMutability": "view",
      "type": "function"
    },
    {
      "inputs": [],
      "name": "getOwner",
      "outputs": [
        {
          "internalType": "address",
          "name": "",
          "type": "address"
        }
      ],
      "stateMutability": "view",
      "type": "function"
    },
    {
      "inputs": [],
      "name": "initialize",
      "outputs": [],
      "stateMutability": "nonpayable",
      "type": "function"
    },
    {
      "inputs": [],
      "name": "isAggregationActive",
      "outputs": [
        {
          "internalType": "bool",
          "name": "",
          "type": "bool"
        }
      ],
      "stateMutability": "view",
      "type": "function"
    },
    {
      "inputs": [
        {
          "internalType": "address",
          "name": "owner",
          "type": "address"
        },
        {
          "internalType": "address",
          "name": "operator",
          "type": "address"
        }
      ],
      "name": "isApprovedForAll",
      "outputs": [
        {
          "internalType": "bool",
          "name": "",
          "type": "bool"
        }
      ],
      "stateMutability": "view",
      "type": "function"
    },
    {
      "inputs": [
        {
          "internalType": "address",
          "name": "operatorAddr",
          "type": "address"
        }
      ],
      "name": "isOperatorActive",
      "outputs": [
        {
          "internalType": "bool",
          "name": "",
          "type": "bool"
        }
      ],
      "stateMutability": "view",
      "type": "function"
    },
    {
      "inputs": [],
      "name": "isSoulboundMode",
      "outputs": [
        {
          "internalType": "bool",
          "name": "",
          "type": "bool"
        }
      ],
      "stateMutability": "view",
      "type": "function"
    },
    {
      "inputs": [],
      "name": "maxSupply",
      "outputs": [
        {
          "internalType": "uint256",
          "name": "",
          "type": "uint256"
        }
      ],
      "stateMutability": "view",
      "type": "function"
    },
    {
      "inputs": [
        {
          "internalType": "uint256",
          "name": "",
          "type": "uint256"
        }
      ],
      "name": "members",
      "outputs": [
        {
          "internalType": "uint256",
          "name": "tokenId",
          "type": "uint256"
        },
        {
          "internalType": "bool",
          "name": "isExpired",
          "type": "bool"
        },
        {
          "internalType": "uint16",
          "name": "score",
          "type": "uint16"
        },
        {
          "internalType": "string",
          "name": "imgName",
          "type": "string"
        }
      ],
      "stateMutability": "view",
      "type": "function"
    },
    {
      "inputs": [
        {
          "internalType": "address",
          "name": "toAddr",
          "type": "address"
        },
        {
          "internalType": "uint16",
          "name": "score",
          "type": "uint16"
        },
        {
          "internalType": "string",
          "name": "imgName",
          "type": "string"
        }
      ],
      "name": "mint",
      "outputs": [],
      "stateMutability": "nonpayable",
      "type": "function"
    },
    {
      "inputs": [],
      "name": "name",
      "outputs": [
        {
          "internalType": "string",
          "name": "",
          "type": "string"
        }
      ],
      "stateMutability": "view",
      "type": "function"
    },
    {
      "inputs": [
        {
          "internalType": "uint256",
          "name": "tokenId",
          "type": "uint256"
        }
      ],
      "name": "ownerOf",
      "outputs": [
        {
          "internalType": "address",
          "name": "",
          "type": "address"
        }
      ],
      "stateMutability": "view",
      "type": "function"
    },
    {
      "inputs": [
        {
          "internalType": "address",
          "name": "from",
          "type": "address"
        },
        {
          "internalType": "address",
          "name": "to",
          "type": "address"
        },
        {
          "internalType": "uint256",
          "name": "tokenId",
          "type": "uint256"
        }
      ],
      "name": "safeTransferFrom",
      "outputs": [],
      "stateMutability": "nonpayable",
      "type": "function"
    },
    {
      "inputs": [
        {
          "internalType": "address",
          "name": "from",
          "type": "address"
        },
        {
          "internalType": "address",
          "name": "to",
          "type": "address"
        },
        {
          "internalType": "uint256",
          "name": "tokenId",
          "type": "uint256"
        },
        {
          "internalType": "bytes",
          "name": "data",
          "type": "bytes"
        }
      ],
      "name": "safeTransferFrom",
      "outputs": [],
      "stateMutability": "nonpayable",
      "type": "function"
    },
    {
      "inputs": [
        {
          "internalType": "bool",
          "name": "isActive",
          "type": "bool"
        }
      ],
      "name": "setAggregation",
      "outputs": [],
      "stateMutability": "nonpayable",
      "type": "function"
    },
    {
      "inputs": [
        {
          "internalType": "address",
          "name": "operator",
          "type": "address"
        },
        {
          "internalType": "bool",
          "name": "approved",
          "type": "bool"
        }
      ],
      "name": "setApprovalForAll",
      "outputs": [],
      "stateMutability": "nonpayable",
      "type": "function"
    },
    {
      "inputs": [
        {
          "internalType": "address",
          "name": "newOperator",
          "type": "address"
        },
        {
          "internalType": "bool",
          "name": "isActive",
          "type": "bool"
        }
      ],
      "name": "setOperator",
      "outputs": [],
      "stateMutability": "nonpayable",
      "type": "function"
    },
    {
      "inputs": [
        {
          "internalType": "bool",
          "name": "isActive",
          "type": "bool"
        }
      ],
      "name": "setSoulboundMode",
      "outputs": [],
      "stateMutability": "nonpayable",
      "type": "function"
    },
    {
      "inputs": [
        {
          "internalType": "bytes4",
          "name": "interfaceId",
          "type": "bytes4"
        }
      ],
      "name": "supportsInterface",
      "outputs": [
        {
          "internalType": "bool",
          "name": "",
          "type": "bool"
        }
      ],
      "stateMutability": "view",
      "type": "function"
    },
    {
      "inputs": [],
      "name": "symbol",
      "outputs": [
        {
          "internalType": "string",
          "name": "",
          "type": "string"
        }
      ],
      "stateMutability": "view",
      "type": "function"
    },
    {
      "inputs": [
        {
          "internalType": "uint256",
          "name": "tokenId",
          "type": "uint256"
        }
      ],
      "name": "tokenURI",
      "outputs": [
        {
          "internalType": "string",
          "name": "",
          "type": "string"
        }
      ],
      "stateMutability": "view",
      "type": "function"
    },
    {
      "inputs": [],
      "name": "totalSupply",
      "outputs": [
        {
          "internalType": "uint256",
          "name": "",
          "type": "uint256"
        }
      ],
      "stateMutability": "view",
      "type": "function"
    },
    {
      "inputs": [
        {
          "internalType": "address",
          "name": "from",
          "type": "address"
        },
        {
          "internalType": "address",
          "name": "to",
          "type": "address"
        },
        {
          "internalType": "uint256",
          "name": "tokenId",
          "type": "uint256"
        }
      ],
      "name": "transferFrom",
      "outputs": [],
      "stateMutability": "nonpayable",
      "type": "function"
    },
    {
      "inputs": [
        {
          "internalType": "address",
          "name": "newOwner",
          "type": "address"
        }
      ],
      "name": "transferOwner",
      "outputs": [],
      "stateMutability": "nonpayable",
      "type": "function"
    },
    {
      "inputs": [
        {
          "internalType": "string",
          "name": "newUrl",
          "type": "string"
        }
      ],
      "name": "updateBaseImgUrl",
      "outputs": [],
      "stateMutability": "nonpayable",
      "type": "function"
    },
    {
      "inputs": [
        {
          "internalType": "uint256",
          "name": "tokenId",
          "type": "uint256"
        },
        {
          "internalType": "bool",
          "name": "isExpired",
          "type": "bool"
        }
      ],
      "name": "updateIsExpired",
      "outputs": [],
      "stateMutability": "nonpayable",
      "type": "function"
    },
    {
      "inputs": [
        {
          "internalType": "uint256",
          "name": "tokenId",
          "type": "uint256"
        },
        {
          "internalType": "uint16",
          "name": "score",
          "type": "uint16"
        }
      ],
      "name": "updateScore",
      "outputs": [],
      "stateMutability": "nonpayable",
      "type": "function"
    }
  ],
  "bytecode": "0x608060405234801561001057600080fd5b5061330a806100206000396000f3fe608060405234801561001057600080fd5b50600436106101fb5760003560e01c80636352211e1161011a578063bf4c51af116100ad578063e49fe3eb1161007c578063e49fe3eb14610439578063e985e9c514610441578063eb47353314610454578063ecb2906c14610480578063f77a6d331461049357600080fd5b8063bf4c51af146103f6578063c87b56dd1461040a578063d5abeb011461041d578063de5ac3da1461042657600080fd5b8063893d20e8116100e9578063893d20e8146103b757806395d89b41146103c8578063a22cb465146103d0578063b88d4fde146103e357600080fd5b80636352211e1461037657806370912cc91461038957806370a082311461039c5780638129fc1c146103af57600080fd5b80633c45d706116101925780634fb2e45d116101615780634fb2e45d1461031a578063558a72971461032d5780635daf08ca14610340578063613a56231461036357600080fd5b80633c45d706146102ce57806342842e0e146102e157806342966c68146102f45780634378a6e31461030757600080fd5b806318160ddd116101ce57806318160ddd1461027d57806323b872dd146102945780633b263de7146102a75780633badcc96146102bb57600080fd5b806301ffc9a71461020057806306fdde0314610228578063081812fc1461023d578063095ea7b314610268575b600080fd5b61021361020e366004611fa8565b6104a6565b60405190151581526020015b60405180910390f35b6102306104f8565b60405161021f919061201c565b61025061024b36600461202f565b61059c565b6040516001600160a01b03909116815260200161021f565b61027b610276366004612064565b6105b1565b005b61028660015481565b60405190815260200161021f565b61027b6102a236600461208e565b6105c0565b60035461021390600160a81b900460ff1681565b61027b6102c93660046120dc565b610650565b61027b6102dc366004612194565b6106a2565b61027b6102ef36600461208e565b6106d2565b61027b61030236600461202f565b6106f2565b61023061031536600461202f565b610790565b61027b6103283660046121dd565b6109c1565b61027b61033b366004612208565b610a0d565b61035361034e36600461202f565b610a9a565b60405161021f9493929190612232565b61027b6103713660046122b3565b610b56565b61025061038436600461202f565b610c15565b61027b61039736600461234d565b610c20565b6102866103aa3660046121dd565b610c67565b61027b610cc3565b6003546001600160a01b0316610250565b610230610e80565b61027b6103de366004612208565b610ebf565b61027b6103f1366004612370565b610eca565b60035461021390600160a01b900460ff1681565b61023061041836600461202f565b610ee1565b61028660005481565b61027b6104343660046123ec565b6110d8565b61023061111a565b61021361044f366004612407565b6111d0565b6102136104623660046121dd565b6001600160a01b031660009081526005602052604090205460ff1690565b61027b61048e366004612431565b61121d565b61027b6104a13660046123ec565b611476565b60006001600160e01b031982166380ac58cd60e01b14806104d757506001600160e01b03198216635b5e139f60e01b145b806104f257506301ffc9a760e01b6001600160e01b03198316145b92915050565b600080516020612f678339815191528054606091908190610518906124bf565b80601f0160208091040260200160405190810160405280929190818152602001828054610544906124bf565b80156105915780601f1061056657610100808354040283529160200191610591565b820191906000526020600020905b81548152906001019060200180831161057457829003601f168201915b505050505091505090565b60006105a7826114be565b506104f2826114f6565b6105bc828233611530565b5050565b6001600160a01b0382166105ef57604051633250574960e11b8152600060048201526024015b60405180910390fd5b60006105fc83833361153d565b9050836001600160a01b0316816001600160a01b03161461064a576040516364283d7b60e01b81526001600160a01b03808616600483015260248201849052821660448201526064016105e6565b50505050565b61065861162e565b6106745760405162461bcd60e51b81526004016105e6906124f9565b600091825260066020526040909120600101805461ffff9092166101000262ffff0019909216919091179055565b6106aa61162e565b6106c65760405162461bcd60e51b81526004016105e6906124f9565b60046105bc828261257e565b6106ed83838360405180602001604052806000815250610eca565b505050565b336106fc82610c15565b6001600160a01b03161461076f5760405162461bcd60e51b815260206004820152603460248201527f4d656d626572736869703a204f6e6c7920746865206f776e6572206f6620746860448201527332903a37b5b2b71031b0b710313ab9371034ba1760611b60648201526084016105e6565b6107788161166a565b6001805490600061078883612654565b919050555050565b6000818152600660205260408120600201805460609291906107b1906124bf565b80601f01602080910402602001604051908101604052809291908181526020018280546107dd906124bf565b801561082a5780601f106107ff5761010080835404028352916020019161082a565b820191906000526020600020905b81548152906001019060200180831161080d57829003601f168201915b5050505050905060405160200161085b90736b6d6d5f6d656d626572736869705f612e6a706760601b815260140190565b60405160208183030381529060405280519060200120816040516020016108829190612687565b60405160208183030381529060405280519060200120036108c3576040516020016108ac906126f2565b604051602081830303815290604052915050919050565b604051736b6d6d5f6d656d626572736869705f622e6a706760601b6020820152603401604051602081830303815290604052805190602001208160405160200161090d9190612687565b6040516020818303038152906040528051906020012003610937576040516020016108ac90612821565b604051736b6d6d5f6d656d626572736869705f632e6a706760601b602082015260340160405160208183030381529060405280519060200120816040516020016109819190612687565b60405160208183030381529060405280519060200120036109ab576040516020016108ac90612949565b5050604080516020810190915260008152919050565b6003546001600160a01b031633146109eb5760405162461bcd60e51b81526004016105e690612bb9565b600380546001600160a01b0319166001600160a01b0392909216919091179055565b6003546001600160a01b03163314610a375760405162461bcd60e51b81526004016105e690612bb9565b6001600160a01b038216600081815260056020908152604091829020805460ff19168515159081179091558251938452908301527f1618a22a3b00b9ac70fd5a82f1f5cdd8cb272bd0f1b740ddf7c26ab05881dd5b910160405180910390a15050565b600660205260009081526040902080546001820154600283018054929360ff83169361010090930461ffff1692909190610ad3906124bf565b80601f0160208091040260200160405190810160405280929190818152602001828054610aff906124bf565b8015610b4c5780601f10610b2157610100808354040283529160200191610b4c565b820191906000526020600020905b815481529060010190602001808311610b2f57829003601f168201915b5050505050905084565b610b5e61162e565b610b7a5760405162461bcd60e51b81526004016105e6906124f9565b60005b85811015610c0c57610bfa878783818110610b9a57610b9a612bf0565b9050602002016020810190610baf91906121dd565b868684818110610bc157610bc1612bf0565b9050602002016020810190610bd69190612c06565b858585818110610be857610be8612bf0565b905060200281019061048e9190612c21565b80610c0481612c68565b915050610b7d565b50505050505050565b60006104f2826114be565b610c2861162e565b610c445760405162461bcd60e51b81526004016105e6906124f9565b600091825260066020526040909120600101805460ff1916911515919091179055565b6000600080516020612f678339815191526001600160a01b038316610ca2576040516322718ad960e21b8152600060048201526024016105e6565b6001600160a01b039092166000908152600390920160205250604090205490565b7ff0c57e16840df040f15088dc2f81fe391c3923bec73e23a9662efc9c229c6a008054600160401b810460ff16159067ffffffffffffffff16600081158015610d095750825b905060008267ffffffffffffffff166001148015610d265750303b155b905081158015610d34575080155b15610d525760405163f92ee8a960e01b815260040160405180910390fd5b845467ffffffffffffffff191660011785558315610d7c57845460ff60401b1916600160401b1785555b610dc4604051806060016040528060278152602001612fe7602791396040518060400160405280600e81526020016d04b4d4d2d4d656d626572736869760941b8152506116a5565b600380546001600160a01b03191633908117909155600090815260056020908152604091829020805460ff19166001179055815160808101909252604f8083529061328690830139600490610e19908261257e565b506127106000556003805460ff60a81b1916600160a81b1790558315610e7957845460ff60401b19168555604051600181527fc7f505b2f371ae2175ee4913f4499e1f2633a7b5936321eed1cdaeb6115181d29060200160405180910390a15b5050505050565b7f80bb2b638cc20bc4d0a60d66940f3ab4a00c1d7b313497ca82fb0b4ab00793018054606091600080516020612f6783398151915291610518906124bf565b6105bc3383836116b7565b610ed58484846105c0565b61064a84848484611768565b6060610eec8261188a565b610f435760405162461bcd60e51b815260206004820152602260248201527f4d656d626572736869703a20546f6b656e4964206e6f74206d696e7465642079604482015261195d60f21b60648201526084016105e6565b6000828152600660209081526040808320815160808101835281548152600182015460ff811615159482019490945261010090930461ffff1691830191909152600281018054606084019190610f98906124bf565b80601f0160208091040260200160405190810160405280929190818152602001828054610fc4906124bf565b80156110115780601f10610fe657610100808354040283529160200191611011565b820191906000526020600020905b815481529060010190602001808311610ff457829003601f168201915b5050505050815250509050600060048260600151604051602001611036929190612c81565b604051602081830303815290604052905060006110516118b4565b9050600061105e86610790565b905060006110aa61106e886118da565b8486611081896040015161ffff166118da565b86604051602001611096959493929190612d08565b6040516020818303038152906040526119db565b9050806040516020016110bd9190612e36565b60405160208183030381529060405295505050505050919050565b6110e061162e565b6110fc5760405162461bcd60e51b81526004016105e6906124f9565b60038054911515600160a01b0260ff60a01b19909216919091179055565b606061112461162e565b6111405760405162461bcd60e51b81526004016105e6906124f9565b6004805461114d906124bf565b80601f0160208091040260200160405190810160405280929190818152602001828054611179906124bf565b80156111c65780601f1061119b576101008083540402835291602001916111c6565b820191906000526020600020905b8154815290600101906020018083116111a957829003601f168201915b5050505050905090565b6001600160a01b0391821660009081527f80bb2b638cc20bc4d0a60d66940f3ab4a00c1d7b313497ca82fb0b4ab00793056020908152604080832093909416825291909152205460ff1690565b61122561162e565b6112415760405162461bcd60e51b81526004016105e6906124f9565b600054600254106112a55760405162461bcd60e51b815260206004820152602860248201527f4d656d626572736869703a206d696e74696e6720636f756e74206f766572206d6044820152676178537570706c7960c01b60648201526084016105e6565b600354600160a81b900460ff161515600103611326576112c484610c67565b156113265760405162461bcd60e51b815260206004820152602c60248201527f4d656d626572736869703a206f6e6c79206f6e65204e4654207065722061646460448201526b1c995cdcc8185b1b1bddd95960a21b60648201526084016105e6565b6002805490600061133683612c68565b91905055506000604051806080016040528060025481526020016000151581526020018561ffff16815260200184848080601f01602080910402602001604051908101604052809392919081815260200183838082843760009201829052509390945250506002805482526006602090815260409283902085518155908501516001820180549487015161ffff166101000262ffff00199215159290921662ffffff199095169490941717909255606084015193945084939192508201906113fe908261257e565b5090505061140e85600254611b45565b61145a5760405162461bcd60e51b815260206004820152601e60248201527f4d656d626572736869702d4e46543a206d696e74696e67206661696c6564000060448201526064016105e6565b6001805490600061146a83612c68565b91905055505050505050565b6003546001600160a01b031633146114a05760405162461bcd60e51b81526004016105e690612bb9565b60038054911515600160a81b0260ff60a81b19909216919091179055565b6000806114ca83611b5a565b90506001600160a01b0381166104f257604051637e27328960e01b8152600481018490526024016105e6565b60009081527f80bb2b638cc20bc4d0a60d66940f3ab4a00c1d7b313497ca82fb0b4ab007930460205260409020546001600160a01b031690565b6106ed8383836001611b94565b600354600090600160a81b900460ff16151560010361161b576001600160a01b038216158061157357506001600160a01b038416155b61161b5760405162461bcd60e51b815260206004820152606760248201527f4d656d626572736869703a2054686973206120536f756c626f756e6420746f6b60448201527f656e2e2049742063616e6e6f74206265207472616e736665727265642e20497460648201527f2063616e206f6e6c79206265206275726e65642062792074686520746f6b656e6084820152661037bbb732b91760c91b60a482015260c4016105e6565b611626848484611caa565b949350505050565b6003546000906001600160a01b031633148061165957503360009081526005602052604090205460ff165b156116645750600190565b50600090565b6000611679600083600061153d565b90506001600160a01b0381166105bc57604051637e27328960e01b8152600481018390526024016105e6565b6116ad611db4565b6105bc8282611dff565b600080516020612f678339815191526001600160a01b0383166116f857604051630b61174360e31b81526001600160a01b03841660048201526024016105e6565b6001600160a01b038481166000818152600584016020908152604080832094881680845294825291829020805460ff191687151590811790915591519182527f17307eab39ab6107e8899845ad3d59bd9653f200f220920489ca2b5937696c31910160405180910390a350505050565b6001600160a01b0383163b1561064a57604051630a85bd0160e11b81526001600160a01b0384169063150b7a02906117aa903390889087908790600401612e7b565b6020604051808303816000875af19250505080156117e5575060408051601f3d908101601f191682019092526117e291810190612eae565b60015b61184e573d808015611813576040519150601f19603f3d011682016040523d82523d6000602084013e611818565b606091505b50805160000361184657604051633250574960e11b81526001600160a01b03851660048201526024016105e6565b805181602001fd5b6001600160e01b03198116630a85bd0160e11b14610e7957604051633250574960e11b81526001600160a01b03851660048201526024016105e6565b60008061189683611b5a565b6001600160a01b0316036118ac57506000919050565b506001919050565b60606000604051806102800160405280610258815260200161300e610258913992915050565b6060816000036119015750506040805180820190915260018152600360fc1b602082015290565b8160005b811561192b578061191581612c68565b91506119249050600a83612ee1565b9150611905565b60008167ffffffffffffffff81111561194657611946612108565b6040519080825280601f01601f191660200182016040528015611970576020820181803683370190505b5090505b841561162657611985600183612ef5565b9150611992600a86612f08565b61199d906030612f1c565b60f81b8183815181106119b2576119b2612bf0565b60200101906001600160f81b031916908160001a9053506119d4600a86612ee1565b9450611974565b805160609060008190036119ff575050604080516020810190915260008152919050565b60006003611a0e836002612f1c565b611a189190612ee1565b611a23906004612f2f565b90506000611a32826020612f1c565b67ffffffffffffffff811115611a4a57611a4a612108565b6040519080825280601f01601f191660200182016040528015611a74576020820181803683370190505b5090506000604051806060016040528060408152602001612fa7604091399050600181016020830160005b86811015611b00576003818a01810151603f601282901c8116860151600c83901c8216870151600684901c831688015192909316870151600891821b60ff94851601821b92841692909201901b91160160e01b835260049092019101611a9f565b506003860660018114611b1a5760028114611b2b57611b37565b613d3d60f01b600119830152611b37565b603d60f81b6000198301525b505050918152949350505050565b6000611b518383611e30565b50600192915050565b60009081527f80bb2b638cc20bc4d0a60d66940f3ab4a00c1d7b313497ca82fb0b4ab007930260205260409020546001600160a01b031690565b600080516020612f678339815191528180611bb757506001600160a01b03831615155b15611c79576000611bc7856114be565b90506001600160a01b03841615801590611bf35750836001600160a01b0316816001600160a01b031614155b8015611c065750611c0481856111d0565b155b15611c2f5760405163a9fbf51f60e01b81526001600160a01b03851660048201526024016105e6565b8215611c775784866001600160a01b0316826001600160a01b03167f8c5be1e5ebec7d5bd14f71427d1e84f3dd0314c0f7b2291e5b200ac8c7c3b92560405160405180910390a45b505b600093845260040160205250506040902080546001600160a01b0319166001600160a01b0392909216919091179055565b6000600080516020612f6783398151915281611cc585611b5a565b90506001600160a01b03841615611ce157611ce1818587611e4a565b6001600160a01b03811615611d2157611cfe600086600080611b94565b6001600160a01b0381166000908152600383016020526040902080546000190190555b6001600160a01b03861615611d52576001600160a01b03861660009081526003830160205260409020805460010190555b600085815260028301602052604080822080546001600160a01b0319166001600160a01b038a811691821790925591518893918516917fddf252ad1be2c89b69c2b068fc378daa952ba7f163c4a11628f55a4df523b3ef91a495945050505050565b7ff0c57e16840df040f15088dc2f81fe391c3923bec73e23a9662efc9c229c6a0054600160401b900460ff16611dfd57604051631afcd79f60e31b815260040160405180910390fd5b565b611e07611db4565b600080516020612f6783398151915280611e21848261257e565b506001810161064a838261257e565b6105bc828260405180602001604052806000815250611eae565b611e55838383611ec5565b6106ed576001600160a01b038316611e8357604051637e27328960e01b8152600481018290526024016105e6565b60405163177e802f60e01b81526001600160a01b0383166004820152602481018290526044016105e6565b611eb88383611f2a565b6106ed6000848484611768565b60006001600160a01b038316158015906116265750826001600160a01b0316846001600160a01b03161480611eff5750611eff84846111d0565b806116265750826001600160a01b0316611f18836114f6565b6001600160a01b031614949350505050565b6001600160a01b038216611f5457604051633250574960e11b8152600060048201526024016105e6565b6000611f628383600061153d565b90506001600160a01b038116156106ed576040516339e3563760e11b8152600060048201526024016105e6565b6001600160e01b031981168114611fa557600080fd5b50565b600060208284031215611fba57600080fd5b8135611fc581611f8f565b9392505050565b60005b83811015611fe7578181015183820152602001611fcf565b50506000910152565b60008151808452612008816020860160208601611fcc565b601f01601f19169290920160200192915050565b602081526000611fc56020830184611ff0565b60006020828403121561204157600080fd5b5035919050565b80356001600160a01b038116811461205f57600080fd5b919050565b6000806040838503121561207757600080fd5b61208083612048565b946020939093013593505050565b6000806000606084860312156120a357600080fd5b6120ac84612048565b92506120ba60208501612048565b9150604084013590509250925092565b803561ffff8116811461205f57600080fd5b600080604083850312156120ef57600080fd5b823591506120ff602084016120ca565b90509250929050565b634e487b7160e01b600052604160045260246000fd5b600067ffffffffffffffff8084111561213957612139612108565b604051601f8501601f19908116603f0116810190828211818310171561216157612161612108565b8160405280935085815286868601111561217a57600080fd5b858560208301376000602087830101525050509392505050565b6000602082840312156121a657600080fd5b813567ffffffffffffffff8111156121bd57600080fd5b8201601f810184136121ce57600080fd5b6116268482356020840161211e565b6000602082840312156121ef57600080fd5b611fc582612048565b8035801515811461205f57600080fd5b6000806040838503121561221b57600080fd5b61222483612048565b91506120ff602084016121f8565b848152831515602082015261ffff8316604082015260806060820152600061225d6080830184611ff0565b9695505050505050565b60008083601f84011261227957600080fd5b50813567ffffffffffffffff81111561229157600080fd5b6020830191508360208260051b85010111156122ac57600080fd5b9250929050565b600080600080600080606087890312156122cc57600080fd5b863567ffffffffffffffff808211156122e457600080fd5b6122f08a838b01612267565b9098509650602089013591508082111561230957600080fd5b6123158a838b01612267565b9096509450604089013591508082111561232e57600080fd5b5061233b89828a01612267565b979a9699509497509295939492505050565b6000806040838503121561236057600080fd5b823591506120ff602084016121f8565b6000806000806080858703121561238657600080fd5b61238f85612048565b935061239d60208601612048565b925060408501359150606085013567ffffffffffffffff8111156123c057600080fd5b8501601f810187136123d157600080fd5b6123e08782356020840161211e565b91505092959194509250565b6000602082840312156123fe57600080fd5b611fc5826121f8565b6000806040838503121561241a57600080fd5b61242383612048565b91506120ff60208401612048565b6000806000806060858703121561244757600080fd5b61245085612048565b935061245e602086016120ca565b9250604085013567ffffffffffffffff8082111561247b57600080fd5b818701915087601f83011261248f57600080fd5b81358181111561249e57600080fd5b8860208285010111156124b057600080fd5b95989497505060200194505050565b600181811c908216806124d357607f821691505b6020821081036124f357634e487b7160e01b600052602260045260246000fd5b50919050565b6020808252601b908201527f4d656d626572736869703a204e6f7420616e206f70657261746f720000000000604082015260600190565b601f8211156106ed57600081815260208120601f850160051c810160208610156125575750805b601f850160051c820191505b8181101561257657828155600101612563565b505050505050565b815167ffffffffffffffff81111561259857612598612108565b6125ac816125a684546124bf565b84612530565b602080601f8311600181146125e157600084156125c95750858301515b600019600386901b1c1916600185901b178555612576565b600085815260208120601f198616915b82811015612610578886015182559484019460019091019084016125f1565b508582101561262e5787850151600019600388901b60f8161c191681555b5050505050600190811b01905550565b634e487b7160e01b600052601160045260246000fd5b6000816126635761266361263e565b506000190190565b6000815161267d818560208601611fcc565b9290920192915050565b60008251612699818460208701611fcc565b9190910192915050565b7f7b2274726169745f74797065223a202263726561746f72222c202276616c756581527f223a2022596f756e676861205061726b2028ebb095ec9881ed959829227d00006020820152603e0190565b605b60f81b81526000612707600183016126a3565b600b60fa1b808252600080516020612f8783398151915260018301527f69746c65222c202276616c7565223a2022ec8c8deab280eb8c80ebacb4227d0060218301526040820152600080516020612f4783398151915260418201527f7469746c65222c202276616c7565223a2022446f75626c652d73776f7264206460618201527f616e63652062792074776f20706572666f726d657273227d2c000000000000006081820152600080516020613266833981519152609a8201527f726c222c202276616c7565223a202268747470733a2f2f6b616e736f6e672e6960ba8201527f6f2f696d675f64657461696c2e68746d6c3f69643d3130227d0000000000000060da820152605d60f81b60f382015260f40192915050565b605b60f81b81526000612836600183016126a3565b600b60fa1b808252600080516020612f8783398151915260018301527f69746c65222c202276616c7565223a2022eab384ebb380eab080ed9994227d0060218301526040820152600080516020612f4783398151915260418201527f7469746c65222c202276616c7565223a202242656175746965732063686174746061820152751a5b99c818995cda59194818481cdd1c99585b489f4b60521b608182015260008051602061326683398151915260978201527f726c222c202276616c7565223a202268747470733a2f2f6b616e736f6e672e6960b78201527f6f2f696d675f64657461696c2e68746d6c3f69643d3138227d0000000000000060d7820152605d60f81b60f082015260f10192915050565b605b60f81b8152600061295e600183016126a3565b600b60fa1b808252600080516020612f8783398151915260018301527f69746c655f31222c202276616c7565223a2022ec8c8deab280eb8c80ebacb4226021830152607d60f81b60418301526042820152600080516020612f4783398151915260438201527f7469746c655f31222c202276616c7565223a2022446f75626c652d73776f726460638201527f2064616e63652062792074776f20706572666f726d657273227d2c00000000006083820152600080516020613266833981519152609e8201527f726c5f31222c202276616c7565223a202268747470733a2f2f6b616e736f6e6760be8201527f2e696f2f696d675f64657461696c2e68746d6c3f69643d3130227d000000000060de820152611fc5612bac612b49612ae6612ad9612a9260f98701600b60fa1b815260010190565b600080516020612f8783398151915281527f69746c655f32222c202276616c7565223a2022eab384ebb380eab080ed9994226020820152607d60f81b604082015260410190565b600b60fa1b815260010190565b600080516020612f4783398151915281527f7469746c655f32222c202276616c7565223a202242656175746965732063686160208201527f7474696e672062657369646520612073747265616d227d2c0000000000000000604082015260580190565b60008051602061326683398151915281527f726c5f32222c202276616c7565223a202268747470733a2f2f6b616e736f6e6760208201527f2e696f2f696d675f64657461696c2e68746d6c3f69643d3138227d00000000006040820152605b0190565b605d60f81b815260010190565b60208082526019908201527f4d656d626572736869703a204e6f7420746865206f776e657200000000000000604082015260600190565b634e487b7160e01b600052603260045260246000fd5b600060208284031215612c1857600080fd5b611fc5826120ca565b6000808335601e19843603018112612c3857600080fd5b83018035915067ffffffffffffffff821115612c5357600080fd5b6020019150368190038213156122ac57600080fd5b600060018201612c7a57612c7a61263e565b5060010190565b6000808454612c8f816124bf565b60018281168015612ca75760018114612cbc57612ceb565b60ff1984168752821515830287019450612ceb565b8860005260208060002060005b85811015612ce25781548a820152908401908201612cc9565b50505082870194505b505050508351612cff818360208801611fcc565b01949350505050565b7f7b226e616d65223a20224b616e736f6e67204d6574617665727365204d75736581526000602072756d204d656d62657273686970204e4654202360681b818401528751612d5c8160338601848c01611fcc565b72111610113232b9b1b934b83a34b7b7111d101160691b6033918501918201528751612d8e8160468401858c01611fcc565b6c1116101134b6b0b3b2911d101160991b604692909101918201528651612dbb8160538401858b01611fcc565b6033818301019150506b01116101139b1b7b932911d160a51b828201528551612dea81602c8401858a01611fcc565b612e28612e1b612e15602c848601016f016101130ba3a3934b13aba32b9911d160851b815260100190565b8861266b565b607d60f81b815260010190565b9a9950505050505050505050565b7f646174613a6170706c69636174696f6e2f6a736f6e3b6261736536342c000000815260008251612e6e81601d850160208701611fcc565b91909101601d0192915050565b6001600160a01b038581168252841660208201526040810183905260806060820181905260009061225d90830184611ff0565b600060208284031215612ec057600080fd5b8151611fc581611f8f565b634e487b7160e01b600052601260045260246000fd5b600082612ef057612ef0612ecb565b500490565b818103818111156104f2576104f261263e565b600082612f1757612f17612ecb565b500690565b808201808211156104f2576104f261263e565b80820281158282048414176104f2576104f261263e56fe7b2274726169745f74797065223a2022686f6d6d6167655f656e676c6973685f80bb2b638cc20bc4d0a60d66940f3ab4a00c1d7b313497ca82fb0b4ab00793007b2274726169745f74797065223a2022686f6d6d6167655f6b6f7265616e5f744142434445464748494a4b4c4d4e4f505152535455565758595a6162636465666768696a6b6c6d6e6f707172737475767778797a303132333435363738392b2f4b616e736f6e67204d6574617665727365204d757365756d204d656d62657273686970204e46544b616e736f6e67204d6574617665727365204d757365756d204d656d62657273686970204e46547320656e7469746c6520686f6c646572732077686f206f776e204e46547320697373756564206279204b4d4d2e2054686973206d656d62657273686970204e4654206973206d6f7265207468616e206a7573742061206d656d6265727368697020636172643b2069742073796d626f6c697a657320746865207072696465206f66206265696e67206120547265617375726520477561726469616e206f6620547261646974696f6e616c204b6f7265616e2043756c747572652c20726570726573656e74696e672061207370656369616c20657870657269656e636520616e6420726573706f6e736962696c6974792e2043726561746564206279207468652072656e6f776e20677261706869632064657369676e657220596f756e676861205061726b2c2074686973204e465420697320726f6f74656420696e207468652064697374696e6374697665206c6f676f206f6620746865204b616e736f6e67204d6574617665727365204d757365756d2c206120776f726b20616c736f206174747269627574656420746f205061726b2e20576974682061206d6f6465726e207265696e746572707265746174696f6e2c2069742063617074757265732074686520657373656e6365206f66207468652065787175697369746520636861726163746572732066726f6d2074686520416c62756d206f662047656e7265205061696e74696e677320627920487965776f6e20696e20313874682063656e74757279204a6f73656f6e2064796e617374792e7b2274726169745f74797065223a2022686f6d6d6167655f64657461696c5f7568747470733a2f2f6b6d6d2e6d7970696e6174612e636c6f75642f697066732f516d5535585a595371637577426b4c654d436d3247666d6a797831316f504e45714a456b6e655161334a317777652fa2646970667358221220894c8d5dececcaf67ccbd92b1efdb55573834713944465843ae12aa8972a692c64736f6c63430008140033",
  "linkReferences": {},
  "deployedLinkReferences": {}
}